{"abi":[{"type":"function","name":"VAULT_INIT_CODE_HASH","inputs":[],"outputs":[{"name":"","type":"bytes32","internalType":"bytes32"}],"stateMutability":"view"}],"bytecode":{"object":"0x6080806040523460175760b29081601d823930815050f35b600080fdfe6080806040526004361015601257600080fd5b60003560e01c6335855a6e14602657600080fd5b60007ffffffffffffffffffffffffffffffffffffffffffffffffffffffffffffffffc360112607757807fada4cd6b4cbd10f5eb48a27bde34a08fc1427562cff58ab798def9b1883d3f8a60209252f35b600080fdfea264697066735822122010d68ccec855a9a0a7ac780a2329514f11bc39e2f64b9ac04e7f3c141556de2164736f6c634300081a0033","linkReferences":{}},"methodIdentifiers":{"VAULT_INIT_CODE_HASH()":"35855a6e"},"id":78}