{"abi":[{"type":"function","name":"VAULT_INIT_CODE_HASH","inputs":[],"outputs":[{"name":"","type":"bytes32","internalType":"bytes32"}],"stateMutability":"view"}],"bytecode":{"object":"0x6080806040523460175760ad9081601c823930815050f35b5f80fdfe60808060405260043610156011575f80fd5b5f3560e01c6335855a6e146023575f80fd5b5f7ffffffffffffffffffffffffffffffffffffffffffffffffffffffffffffffffc360112607357807f2cde184609759ff3dc1a1792ab737a6764a414d24c4c9a04c3dcc442ce41da3d60209252f35b5f80fdfea2646970667358221220310390c06df01a3ccbccced97bc73e79fc943fbb0f0c8844c24a486b2858cb6364736f6c634300081a0033","linkReferences":{}},"methodIdentifiers":{"VAULT_INIT_CODE_HASH()":"35855a6e"},"id":79}