{"abi":[{"type":"constructor","inputs":[],"stateMutability":"nonpayable"},{"type":"function","name":"protectedPrice","inputs":[{"name":"exchange","type":"uint8","internalType":"enum Exchange"},{"name":"tokenIn","type":"address","internalType":"address"},{"name":"tokenOut","type":"address","internalType":"address"},{"name":"maxFee","type":"uint24","internalType":"uint24"}],"outputs":[{"name":"","type":"uint256","internalType":"uint256"}],"stateMutability":"view"},{"type":"function","name":"rawPrice","inputs":[{"name":"exchange","type":"uint8","internalType":"enum Exchange"},{"name":"tokenIn","type":"address","internalType":"address"},{"name":"tokenOut","type":"address","internalType":"address"},{"name":"maxFee","type":"uint24","internalType":"uint24"}],"outputs":[{"name":"","type":"uint256","internalType":"uint256"}],"stateMutability":"view"},{"type":"function","name":"swap","inputs":[{"name":"exchange","type":"uint8","internalType":"enum Exchange"},{"name":"params","type":"tuple","internalType":"struct IRouter.SwapParams","components":[{"name":"tokenIn","type":"address","internalType":"address"},{"name":"tokenOut","type":"address","internalType":"address"},{"name":"recipient","type":"address","internalType":"address"},{"name":"amount","type":"uint256","internalType":"uint256"},{"name":"minAmount","type":"uint256","internalType":"uint256"},{"name":"amountIsInput","type":"bool","internalType":"bool"},{"name":"limitPriceX96","type":"uint256","internalType":"uint256"},{"name":"maxFee","type":"uint24","internalType":"uint24"}]}],"outputs":[{"name":"amountIn","type":"uint256","internalType":"uint256"},{"name":"amountOut","type":"uint256","internalType":"uint256"}],"stateMutability":"nonpayable"}],"bytecode":{"object":"0x60e0806040523460735773248ab79bbb9bc29bb72f7cd42f17e054fc40188e60a05273e592427a0aece92de3edee1f18e0157c05861564608052600a60c052611cc390816100798239608051818181610546015261085b015260a051818181610e550152611119015260c051816110e10152f35b600080fdfe6080604052600436101561001257600080fd5b60003560e01c80634f78bfff1461019c57806377aa2cd114610178576390b54f081461003d57600080fd5b34610173576101207ffffffffffffffffffffffffffffffffffffffffffffffffffffffffffffffffc360112610173576004356002811015610173576101007fffffffffffffffffffffffffffffffffffffffffffffffffffffffffffffffdc360112610173576040516100b081610243565b60243573ffffffffffffffffffffffffffffffffffffffff8116810361017357815260443573ffffffffffffffffffffffffffffffffffffffff8116810361017357602082015260643573ffffffffffffffffffffffffffffffffffffffff81168103610173576040820152608435606082015260a435608082015260c43580151581036101735760a082015260e43560c0820152610104359062ffffff82168203610173576040926101679260e0830152610416565b82519182526020820152f35b600080fd5b3461017357602061019461018b366101b8565b9291909161039a565b604051908152f35b346101735760206101946101af366101b8565b929190916102ec565b7ffffffffffffffffffffffffffffffffffffffffffffffffffffffffffffffffc6080910112610173576004356002811015610173579060243573ffffffffffffffffffffffffffffffffffffffff81168103610173579060443573ffffffffffffffffffffffffffffffffffffffff81168103610173579060643562ffffff811681036101735790565b610100810190811067ffffffffffffffff82111761026057604052565b7f4e487b7100000000000000000000000000000000000000000000000000000000600052604160045260246000fd5b6060810190811067ffffffffffffffff82111761026057604052565b90601f7fffffffffffffffffffffffffffffffffffffffffffffffffffffffffffffffe0910116810190811067ffffffffffffffff82111761026057604052565b92919092600281101561036b5760011461035f576040517f08c379a000000000000000000000000000000000000000000000000000000000815260206004820152600260248201527f55520000000000000000000000000000000000000000000000000000000000006044820152606490fd5b61036892610e36565b90565b7f4e487b7100000000000000000000000000000000000000000000000000000000600052602160045260246000fd5b92919092600281101561036b5760011461040d576040517f08c379a000000000000000000000000000000000000000000000000000000000815260206004820152600260248201527f55520000000000000000000000000000000000000000000000000000000000006044820152606490fd5b610368926110d8565b919091600281101561036b57600114610488576040517f08c379a000000000000000000000000000000000000000000000000000000000815260206004820152600260248201527f55520000000000000000000000000000000000000000000000000000000000006044820152606490fd5b60009160c0810192835180158015610cfc575b505060a0820151156107cf57506060810151926024602073ffffffffffffffffffffffffffffffffffffffff845116604051928380927f70a082310000000000000000000000000000000000000000000000000000000082523060048301525afa90811561071a5760009161079a575b508015801561078d575b61072e57848110610726575b5073ffffffffffffffffffffffffffffffffffffffff610576818451169261056d87847f0000000000000000000000000000000000000000000000000000000000000000168096611bd4565b5160601b611c36565b169073ffffffffffffffffffffffffffffffffffffffff8351169173ffffffffffffffffffffffffffffffffffffffff60208501511662ffffff60e08601511673ffffffffffffffffffffffffffffffffffffffff60408701511691604051956105df87610243565b865260208601908152604080870192835260608701938452426080880190815260a088018b8152600160c08a0190815260e08a0197885292517f414bf389000000000000000000000000000000000000000000000000000000008152985173ffffffffffffffffffffffffffffffffffffffff90811660048b01529351841660248a0152935162ffffff16604489015293518216606488015292516084870152905160a4860152905160c485015290511660e4830152602082610104816000855af191821561071a576000926106d2575b5073ffffffffffffffffffffffffffffffffffffffff61036892935116611a6d565b91506020823d602011610712575b816106ed602093836102ab565b810103126101735790519073ffffffffffffffffffffffffffffffffffffffff6106b0565b3d91506106e0565b6040513d6000823e3d90fd5b935038610521565b6040517f08c379a000000000000000000000000000000000000000000000000000000000815260206004820152600360248201527f49494100000000000000000000000000000000000000000000000000000000006044820152606490fd5b5060808301518110610515565b906020823d6020116107c7575b816107b4602093836102ab565b810103126107c45750513861050b565b80fd5b3d91506107a7565b90928193826024602073ffffffffffffffffffffffffffffffffffffffff845116604051928380927f70a082310000000000000000000000000000000000000000000000000000000082523060048301525afa908115610cf1578291610cbb575b50801561072e5773ffffffffffffffffffffffffffffffffffffffff610882818551169561056d84847f0000000000000000000000000000000000000000000000000000000000000000168099611bd4565b169073ffffffffffffffffffffffffffffffffffffffff84511690602085019073ffffffffffffffffffffffffffffffffffffffff8251169060e08701938860206109c861010462ffffff8951169460408d01978d606073ffffffffffffffffffffffffffffffffffffffff8b51169101978851926040519461090486610243565b8552878501526040840152606083015242608083015260a08201528660c08201528a60e08201528b60405195869485937fdb3e2198000000000000000000000000000000000000000000000000000000008552600485019073ffffffffffffffffffffffffffffffffffffffff60e0809282815116855282602082015116602086015262ffffff60408201511660408601528260608201511660608601526080810151608086015260a081015160a086015260c081015160c0860152015116910152565b5af1889181610c87575b50610c595750506001946109e4611009565b6308c379a014610a27575b5050505050610a1b57509073ffffffffffffffffffffffffffffffffffffffff610368925b5116611a6d565b604051903d90823e3d90fd5b610a2f611027565b9485610a3c575b506109ef565b9297955092985092989694809a509573ffffffffffffffffffffffffffffffffffffffff62ffffff81808851169b51169351169151169160405199610a808b610243565b8a5260208a019081526040808b0192835260608b019384524260808c0190815260a08c01878152600160c08e0190815260e08e0197885292517f414bf3890000000000000000000000000000000000000000000000000000000081529c5173ffffffffffffffffffffffffffffffffffffffff90811660048f01529351841660248e0152935162ffffff1660448d01529351821660648c0152925160848b0152905160a48a0152905160c489015290511660e4870152602086610104818b875af1889681610c21575b50610c0e578787610b58611009565b6308c379a014610b70575b50604051903d90823e3d90fd5b610b78611027565b15610b635760405180927f08c379a000000000000000000000000000000000000000000000000000000000825260206004830152825192836024840152815b848110610bf6575050601f837fffffffffffffffffffffffffffffffffffffffffffffffffffffffffffffffe092604480968601015201168101030190fd5b60208282018101516044888401015286945001610bb7565b9693955090929091388080808080610a36565b9096506020813d602011610c51575b81610c3d602093836102ab565b81010312610c4d57519538610b49565b8880fd5b3d9150610c30565b95509a50505050506103689392945073ffffffffffffffffffffffffffffffffffffffff9150955193610a14565b9091506020813d602011610cb3575b81610ca3602093836102ab565b81010312610c4d575190386109d2565b3d9150610c96565b90506020813d602011610ce9575b81610cd6602093836102ab565b81010312610ce5575138610830565b5080fd5b3d9150610cc9565b6040513d84823e3d90fd5b73ffffffffffffffffffffffffffffffffffffffff84511673ffffffffffffffffffffffffffffffffffffffff602086015116101561049b57610d51576c01000000000000000000000000048452388061049b565b6024827f4e487b710000000000000000000000000000000000000000000000000000000081526012600452fd5b519073ffffffffffffffffffffffffffffffffffffffff8216820361017357565b519061ffff8216820361017357565b5190811515820361017357565b81810292918115918404141715610dce57565b7f4e487b7100000000000000000000000000000000000000000000000000000000600052601160045260246000fd5b8115610e07570490565b7f4e487b7100000000000000000000000000000000000000000000000000000000600052601260045260246000fd5b60e09273ffffffffffffffffffffffffffffffffffffffff92610e79927f00000000000000000000000000000000000000000000000000000000000000006118f1565b92906004604051809481937f3850c7bd000000000000000000000000000000000000000000000000000000008352165afa90811561071a57600091610f05575b5073ffffffffffffffffffffffffffffffffffffffff169015610ef5578015610e075780610368916c0100000000000000000000000004610dfd565b80610eff91610dbb565b60601c90565b60e0813d60e011610f9d575b81610f1e60e093836102ab565b81010312610ce557610f2f81610d7e565b9160208201518060020b036107c457610f4a60408301610d9f565b50610f5760608301610d9f565b50610f6460808301610d9f565b5060a082015160ff8116036107c4575090610f9660c073ffffffffffffffffffffffffffffffffffffffff9301610dae565b5090610eb9565b3d9150610f11565b67ffffffffffffffff81116102605760051b60200190565b805115610fca5760200190565b7f4e487b7100000000000000000000000000000000000000000000000000000000600052603260045260246000fd5b805160011015610fca5760400190565b60009060033d1161101657565b905060046000803e60005160e01c90565b600060443d10610368576040517ffffffffffffffffffffffffffffffffffffffffffffffffffffffffffffffffc3d016004823e8051913d602484011167ffffffffffffffff8411176110d2578282019283519167ffffffffffffffff83116110ca577ffffffffffffffffffffffffffffffffffffffffffffffffffffffffffffffffc3d850101602084870101116110ca5750610368929101602001906102ab565b949350505050565b92915050565b919063ffffffff7f00000000000000000000000000000000000000000000000000000000000000001680611111575b5061036892610e36565b61113d8383867f00000000000000000000000000000000000000000000000000000000000000006118f1565b916060916040519061114f84836102ab565b6002825260208201917fffffffffffffffffffffffffffffffffffffffffffffffffffffffffffffffe085013684378361118882610fbd565b52600061119482610ff9565b526040519283917f883bdbfd0000000000000000000000000000000000000000000000000000000083526024830190602060048501525180915260448301919060005b8181106118d257505050918173ffffffffffffffffffffffffffffffffffffffff816000950392165afa600091816117b2575b506112495750505050600161121d611009565b6308c379a014611234575b61071a57610368611107565b61123c611027565b1561122857506000611228565b929550909350915061126761125d82610ff9565b5160060b91610fbd565b5160060b900390667fffffffffffff82137fffffffffffffffffffffffffffffffffffffffffffffffffff80000000000000831217610dce5760030b9060060b8115610e07577fffffffffffffffffffffffffffffffffffffffffffffffffffffffffffffffff82147fffffffffffffffffffffffffffffffffffffffffffffffffff80000000000000821416610dce5781810560020b916000821291826117a3575b5050611755575b60020b600081121561174f5780600003905b620d89e882116116f15760018216156116c85770ffffffffffffffffffffffffffffffffff6ffffcb933bd6fad37aa2d162d1a5940015b1691600281166116ac575b60048116611690575b60088116611674575b60108116611658575b6020811661163c575b60408116611620575b60808116611604575b61010081166115e8575b61020081166115cc575b61040081166115b0575b6108008116611594575b6110008116611578575b612000811661155c575b6140008116611540575b6180008116611524575b620100008116611508575b6202000081166114ed575b6204000081166114d2575b62080000166114b9575b60001261148c575b73ffffffffffffffffffffffffffffffffffffffff9063ffffffff81166114835760ff60005b169060201c01169160001461147357508015610e075780610368916c0100000000000000000000000004610dfd565b908061147e91610dbb565b901c90565b60ff6001611444565b8015610e07577fffffffffffffffffffffffffffffffffffffffffffffffffffffffffffffffff0461141e565b6b048a170391f7dc42444e8fa290910260801c90611416565b6d2216e584f5fa1ea926041bedfe9890920260801c9161140c565b916e5d6af8dedb81196699c329225ee6040260801c91611401565b916f09aa508b5b7a84e1c677de54f3e99bc90260801c916113f6565b916f31be135f97d08fd981231505542fcfa60260801c916113eb565b916f70d869a156d2a1b890bb3df62baf32f70260801c916113e1565b916fa9f746462d870fdf8a65dc1f90e061e50260801c916113d7565b916fd097f3bdfd2022b8845ad8f792aa58250260801c916113cd565b916fe7159475a2c29b7443b29c7fa6e889d90260801c916113c3565b916ff3392b0822b70005940c7a398e4b70f30260801c916113b9565b916ff987a7253ac413176f2b074cf7815e540260801c916113af565b916ffcbe86c7900a88aedcffc83b479aa3a40260801c916113a5565b916ffe5dee046a99a2a811c461f1969c30530260801c9161139b565b916fff2ea16466c96a3843ec78b326b528610260801c91611392565b916fff973b41fa98c081472e6896dfb254c00260801c91611389565b916fffcb9843d60f6159c9db58835c9266440260801c91611380565b916fffe5caca7e10e4e61c3624eaa0941cd00260801c91611377565b916ffff2e50f5f656932ef12357cf3c7fdcc0260801c9161136e565b916ffff97272373d413259a46990580e213a0260801c91611365565b70ffffffffffffffffffffffffffffffffff70010000000000000000000000000000000061135a565b60646040517f08c379a000000000000000000000000000000000000000000000000000000000815260206004820152600160248201527f54000000000000000000000000000000000000000000000000000000000000006044820152fd5b80611323565b7fffffffffffffffffffffffffffffffffffffffffffffffffffffffffff8000008114610dce577fffffffffffffffffffffffffffffffffffffffffffffffffffffffffffffffff01611311565b0760060b15159050388061130a565b90913d8082843e6117c381846102ab565b8201906040838303126107c457825167ffffffffffffffff8111610ce55783019282601f85011215610ce55783516117fa81610fa5565b9461180860405196876102ab565b81865260208087019260051b820101908582116118ce57602001915b8183106118b05750505060208101519067ffffffffffffffff82116118ac570182601f82011215610ce55780519160208061185e85610fa5565b61186b60405191826102ab565b858152019360051b8301019384116107c45750602001905b82821061189457505050903861120a565b602080916118a184610d7e565b815201910190611883565b8280fd5b82518060060b81036118ca57815260209283019201611824565b8580fd5b8480fd5b825163ffffffff168452869450602093840193909201916001016111d7565b9093929160409281869060008680516119098161028f565b828152826020820152015273ffffffffffffffffffffffffffffffffffffffff811673ffffffffffffffffffffffffffffffffffffffff8916119788611a62575b505062ffffff73ffffffffffffffffffffffffffffffffffffffff808751936119728561028f565b16948584521692836020840152169485910152808210156101735773ffffffffffffffffffffffffffffffffffffffff93604051916020830193845260408301526060820152606081526119c76080826102ab565b519020604051907fffffffffffffffffffffffffffffffffffffffff00000000000000000000000060208301937fff00000000000000000000000000000000000000000000000000000000000000855260601b16602183015260358201527fe34f199b19b2b4f47f68442619d555527d244f78a3297ea89325f843f87b8b54605582015260558152611a5a6075826102ab565b519020169190565b93509050388061194a565b6000919082918260405173ffffffffffffffffffffffffffffffffffffffff60208201937f095ea7b300000000000000000000000000000000000000000000000000000000855216602482015281604482015260448152611acf6064826102ab565b51925af13d15611bcd573d67ffffffffffffffff81116102605760405190611b1f60207fffffffffffffffffffffffffffffffffffffffffffffffffffffffffffffffe0601f84011601836102ab565b81523d6000602083013e5b81611b96575b5015611b3857565b60646040517f08c379a000000000000000000000000000000000000000000000000000000000815260206004820152600260248201527f53410000000000000000000000000000000000000000000000000000000000006044820152fd5b8051801592508215611bab575b505038611b30565b8192509060209181010312610173576020611bc69101610dae565b3880611ba3565b6060611b2a565b600092918380936040519073ffffffffffffffffffffffffffffffffffffffff60208301947f095ea7b3000000000000000000000000000000000000000000000000000000008652166024830152604482015260448152611acf6064826102ab565b80611c415750600090565b906003821115611c875760018201808311610dce5760011c825b838210611c66575050565b90925082611c748183610dfd565b908101809111610dce5760011c90611c5b565b6001915056fea2646970667358221220aaced7a99a88f42e6fdd948f98e1cfc649baf4e9747f364753614acf3d77e8e264736f6c634300081a0033","linkReferences":{}},"methodIdentifiers":{"protectedPrice(uint8,address,address,uint24)":"77aa2cd1","rawPrice(uint8,address,address,uint24)":"4f78bfff","swap(uint8,(address,address,address,uint256,uint256,bool,uint256,uint24))":"90b54f08"},"id":63}