{"abi":[{"type":"constructor","inputs":[],"stateMutability":"nonpayable"},{"type":"function","name":"protectedPrice","inputs":[{"name":"exchange","type":"uint8","internalType":"enum Exchange"},{"name":"tokenIn","type":"address","internalType":"address"},{"name":"tokenOut","type":"address","internalType":"address"},{"name":"maxFee","type":"uint24","internalType":"uint24"}],"outputs":[{"name":"","type":"uint256","internalType":"uint256"}],"stateMutability":"view"},{"type":"function","name":"rawPrice","inputs":[{"name":"exchange","type":"uint8","internalType":"enum Exchange"},{"name":"tokenIn","type":"address","internalType":"address"},{"name":"tokenOut","type":"address","internalType":"address"},{"name":"maxFee","type":"uint24","internalType":"uint24"}],"outputs":[{"name":"","type":"uint256","internalType":"uint256"}],"stateMutability":"view"},{"type":"function","name":"swap","inputs":[{"name":"exchange","type":"uint8","internalType":"enum Exchange"},{"name":"params","type":"tuple","internalType":"struct IRouter.SwapParams","components":[{"name":"tokenIn","type":"address","internalType":"address"},{"name":"tokenOut","type":"address","internalType":"address"},{"name":"recipient","type":"address","internalType":"address"},{"name":"amount","type":"uint256","internalType":"uint256"},{"name":"minAmount","type":"uint256","internalType":"uint256"},{"name":"amountIsInput","type":"bool","internalType":"bool"},{"name":"limitPriceX96","type":"uint256","internalType":"uint256"},{"name":"maxFee","type":"uint24","internalType":"uint24"}]}],"outputs":[{"name":"amountIn","type":"uint256","internalType":"uint256"},{"name":"amountOut","type":"uint256","internalType":"uint256"}],"stateMutability":"nonpayable"}],"bytecode":{"object":"0x60e0806040523460735773248ab79bbb9bc29bb72f7cd42f17e054fc40188e60a05273e592427a0aece92de3edee1f18e0157c05861564608052600a60c052611e0190816100798239608051818181610546015261085b015260a051818181610de70152611059015260c051816110210152f35b600080fdfe6080604052600436101561001257600080fd5b60003560e01c80634f78bfff1461019c57806377aa2cd114610178576390b54f081461003d57600080fd5b34610173576101207ffffffffffffffffffffffffffffffffffffffffffffffffffffffffffffffffc360112610173576004356002811015610173576101007fffffffffffffffffffffffffffffffffffffffffffffffffffffffffffffffdc360112610173576040516100b081610243565b60243573ffffffffffffffffffffffffffffffffffffffff8116810361017357815260443573ffffffffffffffffffffffffffffffffffffffff8116810361017357602082015260643573ffffffffffffffffffffffffffffffffffffffff81168103610173576040820152608435606082015260a435608082015260c43580151581036101735760a082015260e43560c0820152610104359062ffffff82168203610173576040926101679260e0830152610416565b82519182526020820152f35b600080fd5b3461017357602061019461018b366101b8565b9291909161039a565b604051908152f35b346101735760206101946101af366101b8565b929190916102ec565b7ffffffffffffffffffffffffffffffffffffffffffffffffffffffffffffffffc6080910112610173576004356002811015610173579060243573ffffffffffffffffffffffffffffffffffffffff81168103610173579060443573ffffffffffffffffffffffffffffffffffffffff81168103610173579060643562ffffff811681036101735790565b610100810190811067ffffffffffffffff82111761026057604052565b7f4e487b7100000000000000000000000000000000000000000000000000000000600052604160045260246000fd5b6060810190811067ffffffffffffffff82111761026057604052565b90601f7fffffffffffffffffffffffffffffffffffffffffffffffffffffffffffffffe0910116810190811067ffffffffffffffff82111761026057604052565b92919092600281101561036b5760011461035f576040517f08c379a000000000000000000000000000000000000000000000000000000000815260206004820152600260248201527f55520000000000000000000000000000000000000000000000000000000000006044820152606490fd5b61036892610dc7565b90565b7f4e487b7100000000000000000000000000000000000000000000000000000000600052602160045260246000fd5b92919092600281101561036b5760011461040d576040517f08c379a000000000000000000000000000000000000000000000000000000000815260206004820152600260248201527f55520000000000000000000000000000000000000000000000000000000000006044820152606490fd5b61036892611018565b919091600281101561036b57600114610488576040517f08c379a000000000000000000000000000000000000000000000000000000000815260206004820152600260248201527f55520000000000000000000000000000000000000000000000000000000000006044820152606490fd5b60009160c0810192835180158015610cfc575b505060a0820151156107cf57506060810151926024602073ffffffffffffffffffffffffffffffffffffffff845116604051928380927f70a082310000000000000000000000000000000000000000000000000000000082523060048301525afa90811561071a5760009161079a575b508015801561078d575b61072e57848110610726575b5073ffffffffffffffffffffffffffffffffffffffff610576818451169261056d87847f0000000000000000000000000000000000000000000000000000000000000000168096611ce3565b5160601b611d45565b169073ffffffffffffffffffffffffffffffffffffffff8351169173ffffffffffffffffffffffffffffffffffffffff60208501511662ffffff60e08601511673ffffffffffffffffffffffffffffffffffffffff60408701511691604051956105df87610243565b865260208601908152604080870192835260608701938452426080880190815260a088018b8152600160c08a0190815260e08a0197885292517f414bf389000000000000000000000000000000000000000000000000000000008152985173ffffffffffffffffffffffffffffffffffffffff90811660048b01529351841660248a0152935162ffffff16604489015293518216606488015292516084870152905160a4860152905160c485015290511660e4830152602082610104816000855af191821561071a576000926106d2575b5073ffffffffffffffffffffffffffffffffffffffff61036892935116611b7c565b91506020823d602011610712575b816106ed602093836102ab565b810103126101735790519073ffffffffffffffffffffffffffffffffffffffff6106b0565b3d91506106e0565b6040513d6000823e3d90fd5b935038610521565b6040517f08c379a000000000000000000000000000000000000000000000000000000000815260206004820152600360248201527f49494100000000000000000000000000000000000000000000000000000000006044820152606490fd5b5060808301518110610515565b906020823d6020116107c7575b816107b4602093836102ab565b810103126107c45750513861050b565b80fd5b3d91506107a7565b90928193826024602073ffffffffffffffffffffffffffffffffffffffff845116604051928380927f70a082310000000000000000000000000000000000000000000000000000000082523060048301525afa908115610cf1578291610cbb575b50801561072e5773ffffffffffffffffffffffffffffffffffffffff610882818551169561056d84847f0000000000000000000000000000000000000000000000000000000000000000168099611ce3565b169073ffffffffffffffffffffffffffffffffffffffff84511690602085019073ffffffffffffffffffffffffffffffffffffffff8251169060e08701938860206109c861010462ffffff8951169460408d01978d606073ffffffffffffffffffffffffffffffffffffffff8b51169101978851926040519461090486610243565b8552878501526040840152606083015242608083015260a08201528660c08201528a60e08201528b60405195869485937fdb3e2198000000000000000000000000000000000000000000000000000000008552600485019073ffffffffffffffffffffffffffffffffffffffff60e0809282815116855282602082015116602086015262ffffff60408201511660408601528260608201511660608601526080810151608086015260a081015160a086015260c081015160c0860152015116910152565b5af1889181610c87575b50610c595750506001946109e4610f49565b6308c379a014610a27575b5050505050610a1b57509073ffffffffffffffffffffffffffffffffffffffff610368925b5116611b7c565b604051903d90823e3d90fd5b610a2f610f67565b9485610a3c575b506109ef565b9297955092985092989694809a509573ffffffffffffffffffffffffffffffffffffffff62ffffff81808851169b51169351169151169160405199610a808b610243565b8a5260208a019081526040808b0192835260608b019384524260808c0190815260a08c01878152600160c08e0190815260e08e0197885292517f414bf3890000000000000000000000000000000000000000000000000000000081529c5173ffffffffffffffffffffffffffffffffffffffff90811660048f01529351841660248e0152935162ffffff1660448d01529351821660648c0152925160848b0152905160a48a0152905160c489015290511660e4870152602086610104818b875af1889681610c21575b50610c0e578787610b58610f49565b6308c379a014610b70575b50604051903d90823e3d90fd5b610b78610f67565b15610b635760405180927f08c379a000000000000000000000000000000000000000000000000000000000825260206004830152825192836024840152815b848110610bf6575050601f837fffffffffffffffffffffffffffffffffffffffffffffffffffffffffffffffe092604480968601015201168101030190fd5b60208282018101516044888401015286945001610bb7565b9693955090929091388080808080610a36565b9096506020813d602011610c51575b81610c3d602093836102ab565b81010312610c4d57519538610b49565b8880fd5b3d9150610c30565b95509a50505050506103689392945073ffffffffffffffffffffffffffffffffffffffff9150955193610a14565b9091506020813d602011610cb3575b81610ca3602093836102ab565b81010312610c4d575190386109d2565b3d9150610c96565b90506020813d602011610ce9575b81610cd6602093836102ab565b81010312610ce5575138610830565b5080fd5b3d9150610cc9565b6040513d84823e3d90fd5b73ffffffffffffffffffffffffffffffffffffffff84511673ffffffffffffffffffffffffffffffffffffffff602086015116101561049b57610d5d577801000000000000000000000000000000000000000000000000048452388061049b565b6024827f4e487b710000000000000000000000000000000000000000000000000000000081526012600452fd5b519073ffffffffffffffffffffffffffffffffffffffff8216820361017357565b519061ffff8216820361017357565b5190811515820361017357565b73ffffffffffffffffffffffffffffffffffffffff939260e092610e0b927f0000000000000000000000000000000000000000000000000000000000000000611844565b91906004604051809681937f3850c7bd000000000000000000000000000000000000000000000000000000008352165afa801561071a57600090610e55575b6103689293506119c0565b60e0843d60e011610edd575b81610e6e60e093836102ab565b810103126107c457610e7f84610d8a565b9060208501518060020b036107c457610e9a60408601610dab565b50610ea760608601610dab565b50610eb460808601610dab565b5060a085015160ff8116036107c45750610ed460c0610368949501610dba565b50839250610e4a565b3d9150610e61565b67ffffffffffffffff81116102605760051b60200190565b805115610f0a5760200190565b7f4e487b7100000000000000000000000000000000000000000000000000000000600052603260045260246000fd5b805160011015610f0a5760400190565b60009060033d11610f5657565b905060046000803e60005160e01c90565b600060443d10610368576040517ffffffffffffffffffffffffffffffffffffffffffffffffffffffffffffffffc3d016004823e8051913d602484011167ffffffffffffffff841117611012578282019283519167ffffffffffffffff831161100a577ffffffffffffffffffffffffffffffffffffffffffffffffffffffffffffffffc3d8501016020848701011161100a5750610368929101602001906102ab565b949350505050565b92915050565b919063ffffffff7f00000000000000000000000000000000000000000000000000000000000000001680611051575b5061036892610dc7565b61107d8383867f0000000000000000000000000000000000000000000000000000000000000000611844565b91906040519061108e6060836102ab565b6002825260208201916040368437836110a682610efd565b5260006110b282610f39565b526040519283917f883bdbfd0000000000000000000000000000000000000000000000000000000083526024830190602060048501525180915260448301919060005b81811061182557505050918173ffffffffffffffffffffffffffffffffffffffff816000950392165afa60009181611705575b5061116657505050600161113a610f49565b6308c379a014611151575b61071a57610368611047565b611159610f67565b1561114557506000611145565b9194509250905061118361117982610f39565b5160060b91610efd565b5160060b900390667fffffffffffff82137fffffffffffffffffffffffffffffffffffffffffffffffffff800000000000008312176116c75760030b9060060b81156113ae577fffffffffffffffffffffffffffffffffffffffffffffffffffffffffffffffff82147fffffffffffffffffffffffffffffffffffffffffffffffffff800000000000008214166116c75781810560020b916000821291826116f6575b5050611679575b60020b9060008212156116735781600003915b620d89e883116116155760018316156115ec5770ffffffffffffffffffffffffffffffffff6ffffcb933bd6fad37aa2d162d1a5940015b1692600281166115d0575b600481166115b4575b60088116611598575b6010811661157c575b60208116611560575b60408116611544575b60808116611528575b610100811661150c575b61020081166114f0575b61040081166114d4575b61080081166114b8575b611000811661149c575b6120008116611480575b6140008116611464575b6180008116611448575b62010000811661142c575b620200008116611411575b6204000081166113f6575b62080000166113dd575b60001261137d575b73ffffffffffffffffffffffffffffffffffffffff6103689263ffffffff8116156000146113745760ff60005b169060201c01166119c0565b60ff6001611368565b81156113ae577fffffffffffffffffffffffffffffffffffffffffffffffffffffffffffffffff919091049061133b565b7f4e487b7100000000000000000000000000000000000000000000000000000000600052601260045260246000fd5b6b048a170391f7dc42444e8fa290920260801c91611333565b6d2216e584f5fa1ea926041bedfe9890930260801c92611329565b926e5d6af8dedb81196699c329225ee6040260801c9261131e565b926f09aa508b5b7a84e1c677de54f3e99bc90260801c92611313565b926f31be135f97d08fd981231505542fcfa60260801c92611308565b926f70d869a156d2a1b890bb3df62baf32f70260801c926112fe565b926fa9f746462d870fdf8a65dc1f90e061e50260801c926112f4565b926fd097f3bdfd2022b8845ad8f792aa58250260801c926112ea565b926fe7159475a2c29b7443b29c7fa6e889d90260801c926112e0565b926ff3392b0822b70005940c7a398e4b70f30260801c926112d6565b926ff987a7253ac413176f2b074cf7815e540260801c926112cc565b926ffcbe86c7900a88aedcffc83b479aa3a40260801c926112c2565b926ffe5dee046a99a2a811c461f1969c30530260801c926112b8565b926fff2ea16466c96a3843ec78b326b528610260801c926112af565b926fff973b41fa98c081472e6896dfb254c00260801c926112a6565b926fffcb9843d60f6159c9db58835c9266440260801c9261129d565b926fffe5caca7e10e4e61c3624eaa0941cd00260801c92611294565b926ffff2e50f5f656932ef12357cf3c7fdcc0260801c9261128b565b926ffff97272373d413259a46990580e213a0260801c92611282565b70ffffffffffffffffffffffffffffffffff700100000000000000000000000000000000611277565b60646040517f08c379a000000000000000000000000000000000000000000000000000000000815260206004820152600160248201527f54000000000000000000000000000000000000000000000000000000000000006044820152fd5b81611240565b7fffffffffffffffffffffffffffffffffffffffffffffffffffffffffff80000081146116c7577fffffffffffffffffffffffffffffffffffffffffffffffffffffffffffffffff0161122d565b7f4e487b7100000000000000000000000000000000000000000000000000000000600052601160045260246000fd5b0760060b151590503880611226565b90913d8082843e61171681846102ab565b8201906040838303126107c457825167ffffffffffffffff8111610ce55783019282601f85011215610ce557835161174d81610ee5565b9461175b60405196876102ab565b81865260208087019260051b8201019085821161182157602001915b8183106118035750505060208101519067ffffffffffffffff82116117ff570182601f82011215610ce5578051916020806117b185610ee5565b6117be60405191826102ab565b858152019360051b8301019384116107c45750602001905b8282106117e7575050509038611128565b602080916117f484610d8a565b8152019101906117d6565b8280fd5b82518060060b810361181d57815260209283019201611777565b8580fd5b8480fd5b825163ffffffff168452869450602093840193909201916001016110f5565b90939291604092818690600086805161185c8161028f565b828152826020820152015273ffffffffffffffffffffffffffffffffffffffff811673ffffffffffffffffffffffffffffffffffffffff89161197886119b5575b505062ffffff73ffffffffffffffffffffffffffffffffffffffff808751936118c58561028f565b16948584521692836020840152169485910152808210156101735773ffffffffffffffffffffffffffffffffffffffff936040519160208301938452604083015260608201526060815261191a6080826102ab565b519020604051907fffffffffffffffffffffffffffffffffffffffff00000000000000000000000060208301937fff00000000000000000000000000000000000000000000000000000000000000855260601b16602183015260358201527fe34f199b19b2b4f47f68442619d555527d244f78a3297ea89325f843f87b8b546055820152605581526119ad6075826102ab565b519020169190565b93509050388061189d565b9015611a225773ffffffffffffffffffffffffffffffffffffffff1680156113ae578078ffffffffffffffffffffffffffffffffffffffffffffffffff6103689278010000000000000000000000000000000000000000000000000416611abc565b73ffffffffffffffffffffffffffffffffffffffff6103689116806000917fffffffffffffffffffffffffffffffffffffffffffffffffffffffffffffffff8183099181810293848085109403938085039414611ab257836c0100000000000000000000000011156107c45750906c01000000000000000000000000910990828211900360a01b910360601c1790565b5050505060601c90565b7fffffffffffffffffffffffffffffffffffffffffffffffffffffffffffffffff6c010000000000000000000000008209918160601b91828085109403938085039414611b6f5783821115610173576c01000000000000000000000000829109818060000316809204600281600302188082026002030280820260020302808202600203028082026002030280820260020302809102600203029360018380600003040190848311900302920304170290565b5080925015610173570490565b6000919082918260405173ffffffffffffffffffffffffffffffffffffffff60208201937f095ea7b300000000000000000000000000000000000000000000000000000000855216602482015281604482015260448152611bde6064826102ab565b51925af13d15611cdc573d67ffffffffffffffff81116102605760405190611c2e60207fffffffffffffffffffffffffffffffffffffffffffffffffffffffffffffffe0601f84011601836102ab565b81523d6000602083013e5b81611ca5575b5015611c4757565b60646040517f08c379a000000000000000000000000000000000000000000000000000000000815260206004820152600260248201527f53410000000000000000000000000000000000000000000000000000000000006044820152fd5b8051801592508215611cba575b505038611c3f565b8192509060209181010312610173576020611cd59101610dba565b3880611cb2565b6060611c39565b600092918380936040519073ffffffffffffffffffffffffffffffffffffffff60208301947f095ea7b3000000000000000000000000000000000000000000000000000000008652166024830152604482015260448152611bde6064826102ab565b80611d505750600090565b906003821115611dc557600182018083116116c75760011c825b838210611d75575050565b9092508260008115611d9857508082049081018091116116c75760011c90611d6a565b807f4e487b7100000000000000000000000000000000000000000000000000000000602492526012600452fd5b6001915056fea2646970667358221220dff62d2005a2c2e68bfff008ac7803f2468460e6f25850a9956e4b609bf6886f64736f6c634300081a0033","linkReferences":{}},"methodIdentifiers":{"protectedPrice(uint8,address,address,uint24)":"77aa2cd1","rawPrice(uint8,address,address,uint24)":"4f78bfff","swap(uint8,(address,address,address,uint256,uint256,bool,uint256,uint24))":"90b54f08"},"id":63}