{"abi":[{"type":"constructor","inputs":[],"stateMutability":"nonpayable"},{"type":"function","name":"protectedPrice","inputs":[{"name":"exchange","type":"uint8","internalType":"enum Exchange"},{"name":"tokenIn","type":"address","internalType":"address"},{"name":"tokenOut","type":"address","internalType":"address"},{"name":"maxFee","type":"uint24","internalType":"uint24"},{"name":"inverted","type":"bool","internalType":"bool"}],"outputs":[{"name":"","type":"uint256","internalType":"uint256"}],"stateMutability":"view"},{"type":"function","name":"rawPrice","inputs":[{"name":"exchange","type":"uint8","internalType":"enum Exchange"},{"name":"tokenIn","type":"address","internalType":"address"},{"name":"tokenOut","type":"address","internalType":"address"},{"name":"maxFee","type":"uint24","internalType":"uint24"},{"name":"inverted","type":"bool","internalType":"bool"}],"outputs":[{"name":"","type":"uint256","internalType":"uint256"}],"stateMutability":"view"},{"type":"function","name":"swap","inputs":[{"name":"params","type":"tuple","internalType":"struct IRouter.SwapParams","components":[{"name":"exchange","type":"uint8","internalType":"enum Exchange"},{"name":"tokenIn","type":"address","internalType":"address"},{"name":"tokenOut","type":"address","internalType":"address"},{"name":"recipient","type":"address","internalType":"address"},{"name":"amount","type":"uint256","internalType":"uint256"},{"name":"minAmount","type":"uint256","internalType":"uint256"},{"name":"amountIsInput","type":"bool","internalType":"bool"},{"name":"inverted","type":"bool","internalType":"bool"},{"name":"limitPriceX96","type":"uint256","internalType":"uint256"},{"name":"maxFee","type":"uint24","internalType":"uint24"}]}],"outputs":[{"name":"amountIn","type":"uint256","internalType":"uint256"},{"name":"amountOut","type":"uint256","internalType":"uint256"}],"stateMutability":"nonpayable"}],"bytecode":{"object":"0x60e08060405234606c57731f98431c8ad98523631ae4a59f267346ea31f98460a05273e592427a0aece92de3edee1f18e0157c05861564608052600a60c0526120d59081610072823960805181818161065a0152610a91015260a051816103cd015260c051816112f30152f35b600080fdfe6080604052600436101561001257600080fd5b60003560e01c80630f82d675146101d25780635b1b3179146101ae5763802b95df1461003d57600080fd5b346101a9576101407ffffffffffffffffffffffffffffffffffffffffffffffffffffffffffffffffc3601126101a9576040516000610140820167ffffffffffffffff81118382101761017c57604052600435600281101561017857825260243573ffffffffffffffffffffffffffffffffffffffff8116810361017857602083015260443573ffffffffffffffffffffffffffffffffffffffff8116810361017857604083015260643573ffffffffffffffffffffffffffffffffffffffff81168103610178576060830152608435608083015260a43560a083015260c43580151581036101785760c083015260e43580151581036101785760e083015261010435610100830152610124359062ffffff821682036101755760406101698484610120820152610527565b82519182526020820152f35b80fd5b5080fd5b6024827f4e487b710000000000000000000000000000000000000000000000000000000081526041600452fd5b600080fd5b346101a95760206101ca6101c1366101ee565b939290926104aa565b604051908152f35b346101a95760206101ca6101e5366101ee565b9392909261032f565b7ffffffffffffffffffffffffffffffffffffffffffffffffffffffffffffffffc60a09101126101a95760043560028110156101a9579060243573ffffffffffffffffffffffffffffffffffffffff811681036101a9579060443573ffffffffffffffffffffffffffffffffffffffff811681036101a9579060643562ffffff811681036101a9579060843580151581036101a95790565b610100810190811067ffffffffffffffff8211176102a357604052565b7f4e487b7100000000000000000000000000000000000000000000000000000000600052604160045260246000fd5b6060810190811067ffffffffffffffff8211176102a357604052565b90601f7fffffffffffffffffffffffffffffffffffffffffffffffffffffffffffffffe0910116810190811067ffffffffffffffff8211176102a357604052565b9392909193600281101561047b576001146103a3576040517f08c379a000000000000000000000000000000000000000000000000000000000815260206004820152600260248201527f55520000000000000000000000000000000000000000000000000000000000006044820152606490fd5b6103f26103ca73ffffffffffffffffffffffffffffffffffffffff9260049660e095611b92565b827f000000000000000000000000000000000000000000000000000000000000000016611bf9565b16604051938480927f3850c7bd0000000000000000000000000000000000000000000000000000000082525afa801561046f576104379260009161043a575b50611b03565b90565b61045c915060e03d60e011610468575b61045481836102ee565b81019061112c565b50505050505038610431565b503d61044a565b6040513d6000823e3d90fd5b7f4e487b7100000000000000000000000000000000000000000000000000000000600052602160045260246000fd5b9392919093600281101561047b5760011461051e576040517f08c379a000000000000000000000000000000000000000000000000000000000815260206004820152600260248201527f55520000000000000000000000000000000000000000000000000000000000006044820152606490fd5b610437936112c7565b90815191600283101561047b5760016000931461059d576040517f08c379a000000000000000000000000000000000000000000000000000000000815260206004820152600260248201527f55520000000000000000000000000000000000000000000000000000000000006044820152606490fd5b6101008101805180158015611090575b505060c08201511561099b5760808201519360246020840195602073ffffffffffffffffffffffffffffffffffffffff885116604051938480927f70a082310000000000000000000000000000000000000000000000000000000082523060048301525afa918215610990578392610958575b508115801561094b575b6108ec578082106108e5575b73ffffffffffffffffffffffffffffffffffffffff61068a818951169561068184847f0000000000000000000000000000000000000000000000000000000000000000168099611fb7565b5160601b612019565b169073ffffffffffffffffffffffffffffffffffffffff8851169573ffffffffffffffffffffffffffffffffffffffff6040820151169073ffffffffffffffffffffffffffffffffffffffff606062ffffff610120840151169201511691604051986106f58a610286565b8952602089019081526040808a0192835260608a019384524260808b0190815260a08b01958652600160c08c0190815260e08c0197885291517f414bf3890000000000000000000000000000000000000000000000000000000081529a5173ffffffffffffffffffffffffffffffffffffffff90811660048d01529251831660248c0152925162ffffff1660448b01529251811660648a015290516084890152915160a48801525160c487015290511660e48501526020846101048185875af19384156108da5782946108a6575b506024602073ffffffffffffffffffffffffffffffffffffffff885116604051928380927f70a082310000000000000000000000000000000000000000000000000000000082523060048301525afa92831561089a57809361084d575b5050610845610437939273ffffffffffffffffffffffffffffffffffffffff92611b85565b955116611e50565b909192506020823d602011610892575b8161086a602093836102ee565b810103126101755750519061084573ffffffffffffffffffffffffffffffffffffffff610820565b3d915061085d565b604051903d90823e3d90fd5b9093506020813d6020116108d2575b816108c2602093836102ee565b81010312610178575192386107c3565b3d91506108b5565b6040513d84823e3d90fd5b5080610636565b6040517f08c379a000000000000000000000000000000000000000000000000000000000815260206004820152600360248201527f49494100000000000000000000000000000000000000000000000000000000006044820152606490fd5b5060a0850151821061062a565b9091506020813d602011610988575b81610974602093836102ee565b8101031261098457519038610620565b8280fd5b3d9150610967565b6040513d85823e3d90fd5b8391935081938260246020830192602073ffffffffffffffffffffffffffffffffffffffff855116604051938480927f70a082310000000000000000000000000000000000000000000000000000000082523060048301525afa91821561099057839261105c575b5081156108ec578060406024920190602073ffffffffffffffffffffffffffffffffffffffff835116604051948580927f70a082310000000000000000000000000000000000000000000000000000000082523060048301525afa928315611051578593611019575b5073ffffffffffffffffffffffffffffffffffffffff610ab8818851169861068187847f000000000000000000000000000000000000000000000000000000000000000016809c611fb7565b169373ffffffffffffffffffffffffffffffffffffffff87511693886020610bf761010473ffffffffffffffffffffffffffffffffffffffff8851169861012088019962ffffff8b5116986060810199608073ffffffffffffffffffffffffffffffffffffffff8c51169201519260405194610b3386610286565b8552878501526040840152606083015242608083015260a08201528660c08201528a60e08201528b60405195869485937fdb3e2198000000000000000000000000000000000000000000000000000000008552600485019073ffffffffffffffffffffffffffffffffffffffff60e0809282815116855282602082015116602086015262ffffff60408201511660408601528260608201511660608601526080810151608086015260a081015160a086015260c081015160c0860152015116910152565b5af1889181610fe5575b50610f18575050600194610c136111f8565b6308c379a014610c4a575b505050505061089a57509073ffffffffffffffffffffffffffffffffffffffff610437925b5116611e50565b610c52611216565b9485610c5f575b50610c1e565b9297955092985092989694809a509573ffffffffffffffffffffffffffffffffffffffff62ffffff81808851169b51169351169151169160405199610ca38b610286565b8a5260208a019081526040808b0192835260608b019384524260808c0190815260a08c01878152600160c08e0190815260e08e0197885292517f414bf3890000000000000000000000000000000000000000000000000000000081529c5173ffffffffffffffffffffffffffffffffffffffff90811660048f01529351841660248e0152935162ffffff1660448d01529351821660648c0152925160848b0152905160a48a0152905160c489015290511660e4870152602086610104818b875af1889681610ee0575b50610e31578787610d7b6111f8565b6308c379a014610d93575b50604051903d90823e3d90fd5b610d9b611216565b15610d865760405180927f08c379a000000000000000000000000000000000000000000000000000000000825260206004830152825192836024840152815b848110610e19575050601f837fffffffffffffffffffffffffffffffffffffffffffffffffffffffffffffffe092604480968601015201168101030190fd5b60208282018101516044888401015286945001610dda565b90929496919395506024602073ffffffffffffffffffffffffffffffffffffffff855116604051928380927f70a082310000000000000000000000000000000000000000000000000000000082523060048301525afa908115610990578391610eac575b50610e9f91611b85565b9593388080808080610c59565b90506020813d602011610ed8575b81610ec7602093836102ee565b810103126109845751610e9f610e95565b3d9150610eba565b9096506020813d602011610f10575b81610efc602093836102ee565b81010312610f0c57519538610d6c565b8880fd5b3d9150610eef565b92509698505073ffffffffffffffffffffffffffffffffffffffff9199506024935060209250985116604051928380927f70a082310000000000000000000000000000000000000000000000000000000082523060048301525afa91821561089a578092610fac575b5050610fa6610437939273ffffffffffffffffffffffffffffffffffffffff92611b85565b93610c43565b9091506020823d602011610fdd575b81610fc8602093836102ee565b81010312610175575051610fa6610437610f81565b3d9150610fbb565b9091506020813d602011611011575b81611001602093836102ee565b81010312610f0c57519038610c01565b3d9150610ff4565b9092506020813d602011611049575b81611035602093836102ee565b8101031261104557519138610a6c565b8480fd5b3d9150611028565b6040513d87823e3d90fd5b9091506020813d602011611088575b81611078602093836102ee565b8101031261098457519038610a03565b3d915061106b565b60e0840151156105ad576110c257780100000000000000000000000000000000000000000000000004815238806105ad565b6024857f4e487b710000000000000000000000000000000000000000000000000000000081526012600452fd5b519073ffffffffffffffffffffffffffffffffffffffff821682036101a957565b519061ffff821682036101a957565b519081151582036101a957565b908160e09103126101a957611140816110ef565b9160208201518060020b81036101a9579161115d60408201611110565b9161116a60608301611110565b9161117760808201611110565b9160a082015160ff811681036101a95760c061043791930161111f565b67ffffffffffffffff81116102a35760051b60200190565b8051156111b95760200190565b7f4e487b7100000000000000000000000000000000000000000000000000000000600052603260045260246000fd5b8051600110156111b95760400190565b60009060033d1161120557565b905060046000803e60005160e01c90565b600060443d10610437576040517ffffffffffffffffffffffffffffffffffffffffffffffffffffffffffffffffc3d016004823e8051913d602484011167ffffffffffffffff8411176112c1578282019283519167ffffffffffffffff83116112b9577ffffffffffffffffffffffffffffffffffffffffffffffffffffffffffffffffc3d850101602084870101116112b95750610437929101602001906102ee565b949350505050565b92915050565b73ffffffffffffffffffffffffffffffffffffffff926112ea926103ca92611b92565b169063ffffffff7f00000000000000000000000000000000000000000000000000000000000000001680611362575b5060e0600492604051938480927f3850c7bd0000000000000000000000000000000000000000000000000000000082525afa801561046f576104379260009161043a5750611b03565b6040516113706060826102ee565b600281526020810190604036833782611388826111ac565b526000611394826111e8565b526040519182917f883bdbfd0000000000000000000000000000000000000000000000000000000083526024830190602060048501525180915260448301919060005b818110611ae45750505090806000920381875afa600091816119cc575b5061143057505060016114056111f8565b6308c379a01461141b575b61046f5760e0611319565b611423611216565b1561141057506000611410565b9091925061144a611440826111e8565b5160060b916111ac565b5160060b900390667fffffffffffff82137fffffffffffffffffffffffffffffffffffffffffffffffffff8000000000000083121761198e5760030b9060060b8115611675577fffffffffffffffffffffffffffffffffffffffffffffffffffffffffffffffff82147fffffffffffffffffffffffffffffffffffffffffffffffffff8000000000000082141661198e5781810560020b916000821291826119bd575b5050611940575b60020b90600082121561193a5781600003915b620d89e883116118dc5760018316156118b35770ffffffffffffffffffffffffffffffffff6ffffcb933bd6fad37aa2d162d1a5940015b169260028116611897575b6004811661187b575b6008811661185f575b60108116611843575b60208116611827575b6040811661180b575b608081166117ef575b61010081166117d3575b61020081166117b7575b610400811661179b575b610800811661177f575b6110008116611763575b6120008116611747575b614000811661172b575b618000811661170f575b6201000081166116f3575b6202000081166116d8575b6204000081166116bd575b62080000166116a4575b600012611644575b73ffffffffffffffffffffffffffffffffffffffff6104379263ffffffff81161560001461163b5760ff60005b169060201c0116611b03565b60ff600161162f565b8115611675577fffffffffffffffffffffffffffffffffffffffffffffffffffffffffffffffff9190910490611602565b7f4e487b7100000000000000000000000000000000000000000000000000000000600052601260045260246000fd5b6b048a170391f7dc42444e8fa290920260801c916115fa565b6d2216e584f5fa1ea926041bedfe9890930260801c926115f0565b926e5d6af8dedb81196699c329225ee6040260801c926115e5565b926f09aa508b5b7a84e1c677de54f3e99bc90260801c926115da565b926f31be135f97d08fd981231505542fcfa60260801c926115cf565b926f70d869a156d2a1b890bb3df62baf32f70260801c926115c5565b926fa9f746462d870fdf8a65dc1f90e061e50260801c926115bb565b926fd097f3bdfd2022b8845ad8f792aa58250260801c926115b1565b926fe7159475a2c29b7443b29c7fa6e889d90260801c926115a7565b926ff3392b0822b70005940c7a398e4b70f30260801c9261159d565b926ff987a7253ac413176f2b074cf7815e540260801c92611593565b926ffcbe86c7900a88aedcffc83b479aa3a40260801c92611589565b926ffe5dee046a99a2a811c461f1969c30530260801c9261157f565b926fff2ea16466c96a3843ec78b326b528610260801c92611576565b926fff973b41fa98c081472e6896dfb254c00260801c9261156d565b926fffcb9843d60f6159c9db58835c9266440260801c92611564565b926fffe5caca7e10e4e61c3624eaa0941cd00260801c9261155b565b926ffff2e50f5f656932ef12357cf3c7fdcc0260801c92611552565b926ffff97272373d413259a46990580e213a0260801c92611549565b70ffffffffffffffffffffffffffffffffff70010000000000000000000000000000000061153e565b60646040517f08c379a000000000000000000000000000000000000000000000000000000000815260206004820152600160248201527f54000000000000000000000000000000000000000000000000000000000000006044820152fd5b81611507565b7fffffffffffffffffffffffffffffffffffffffffffffffffffffffffff800000811461198e577fffffffffffffffffffffffffffffffffffffffffffffffffffffffffffffffff016114f4565b7f4e487b7100000000000000000000000000000000000000000000000000000000600052601160045260246000fd5b0760060b1515905038806114ed565b90913d8082843e6119dd81846102ee565b82019060408383031261017557825167ffffffffffffffff81116101785783019282601f85011215610178578351611a1481611194565b94611a2260405196876102ee565b81865260208087019260051b8201019085821161104557602001915b818310611ac65750505060208101519067ffffffffffffffff8211610984570182601f8201121561017857805191602080611a7885611194565b611a8560405191826102ee565b858152019360051b8301019384116101755750602001905b828210611aae5750505090386113f4565b60208091611abb846110ef565b815201910190611a9d565b82518060060b8103611ae057815260209283019201611a3e565b8580fd5b825163ffffffff168452859450602093840193909201916001016113d7565b9015611b655773ffffffffffffffffffffffffffffffffffffffff168015611675578078ffffffffffffffffffffffffffffffffffffffffffffffffff6104379278010000000000000000000000000000000000000000000000000416611d90565b73ffffffffffffffffffffffffffffffffffffffff610437911680611d11565b9190820391821161198e57565b9173ffffffffffffffffffffffffffffffffffffffff62ffffff92600060408051611bbc816102d2565b828152826020820152015281811682861611611bf3575b8160405195611be1876102d2565b16855216602084015216604082015290565b93611bd3565b73ffffffffffffffffffffffffffffffffffffffff82511673ffffffffffffffffffffffffffffffffffffffff602084015116808210156101a95762ffffff604073ffffffffffffffffffffffffffffffffffffffff9501511660405191602083019384526040830152606082015260608152611c776080826102ee565b519020604051907fffffffffffffffffffffffffffffffffffffffff00000000000000000000000060208301937fff00000000000000000000000000000000000000000000000000000000000000855260601b16602183015260358201527fe34f199b19b2b4f47f68442619d555527d244f78a3297ea89325f843f87b8b54605582015260558152611d0a6075826102ee565b5190201690565b6000917fffffffffffffffffffffffffffffffffffffffffffffffffffffffffffffffff8183099181810293848085109403938085039414611d8657836c0100000000000000000000000011156101755750906c01000000000000000000000000910990828211900360a01b910360601c1790565b5050505060601c90565b7fffffffffffffffffffffffffffffffffffffffffffffffffffffffffffffffff6c010000000000000000000000008209918160601b91828085109403938085039414611e4357838211156101a9576c01000000000000000000000000829109818060000316809204600281600302188082026002030280820260020302808202600203028082026002030280820260020302809102600203029360018380600003040190848311900302920304170290565b50809250156101a9570490565b6000919082918260405173ffffffffffffffffffffffffffffffffffffffff60208201937f095ea7b300000000000000000000000000000000000000000000000000000000855216602482015281604482015260448152611eb26064826102ee565b51925af13d15611fb0573d67ffffffffffffffff81116102a35760405190611f0260207fffffffffffffffffffffffffffffffffffffffffffffffffffffffffffffffe0601f84011601836102ee565b81523d6000602083013e5b81611f79575b5015611f1b57565b60646040517f08c379a000000000000000000000000000000000000000000000000000000000815260206004820152600260248201527f53410000000000000000000000000000000000000000000000000000000000006044820152fd5b8051801592508215611f8e575b505038611f13565b81925090602091810103126101a9576020611fa9910161111f565b3880611f86565b6060611f0d565b600092918380936040519073ffffffffffffffffffffffffffffffffffffffff60208301947f095ea7b3000000000000000000000000000000000000000000000000000000008652166024830152604482015260448152611eb26064826102ee565b806120245750600090565b906003821115612099576001820180831161198e5760011c825b838210612049575050565b909250826000811561206c575080820490810180911161198e5760011c9061203e565b807f4e487b7100000000000000000000000000000000000000000000000000000000602492526012600452fd5b6001915056fea2646970667358221220f90d9f81223e04a2519fa93e3f06cf8ce2bdc9a1e925672c0c62212ab389ed7e64736f6c634300081a0033","linkReferences":{}},"methodIdentifiers":{"protectedPrice(uint8,address,address,uint24,bool)":"5b1b3179","rawPrice(uint8,address,address,uint24,bool)":"0f82d675","swap((uint8,address,address,address,uint256,uint256,bool,bool,uint256,uint24))":"802b95df"},"id":64}