{"abi":[{"type":"constructor","inputs":[],"stateMutability":"nonpayable"},{"type":"function","name":"protectedPrice","inputs":[{"name":"exchange","type":"uint8","internalType":"enum Exchange"},{"name":"tokenIn","type":"address","internalType":"address"},{"name":"tokenOut","type":"address","internalType":"address"},{"name":"maxFee","type":"uint24","internalType":"uint24"},{"name":"inverted","type":"bool","internalType":"bool"}],"outputs":[{"name":"","type":"uint256","internalType":"uint256"}],"stateMutability":"view"},{"type":"function","name":"rawPrice","inputs":[{"name":"exchange","type":"uint8","internalType":"enum Exchange"},{"name":"tokenIn","type":"address","internalType":"address"},{"name":"tokenOut","type":"address","internalType":"address"},{"name":"maxFee","type":"uint24","internalType":"uint24"},{"name":"inverted","type":"bool","internalType":"bool"}],"outputs":[{"name":"","type":"uint256","internalType":"uint256"}],"stateMutability":"view"},{"type":"function","name":"swap","inputs":[{"name":"params","type":"tuple","internalType":"struct IRouter.SwapParams","components":[{"name":"exchange","type":"uint8","internalType":"enum Exchange"},{"name":"tokenIn","type":"address","internalType":"address"},{"name":"tokenOut","type":"address","internalType":"address"},{"name":"recipient","type":"address","internalType":"address"},{"name":"amount","type":"uint256","internalType":"uint256"},{"name":"minAmount","type":"uint256","internalType":"uint256"},{"name":"amountIsInput","type":"bool","internalType":"bool"},{"name":"inverted","type":"bool","internalType":"bool"},{"name":"limitPriceX96","type":"uint256","internalType":"uint256"},{"name":"maxFee","type":"uint24","internalType":"uint24"}]}],"outputs":[{"name":"amountIn","type":"uint256","internalType":"uint256"},{"name":"amountOut","type":"uint256","internalType":"uint256"}],"stateMutability":"nonpayable"}],"bytecode":{"object":"0x60e08060405234606c5773248ab79bbb9bc29bb72f7cd42f17e054fc40188e60a05273e592427a0aece92de3edee1f18e0157c05861564608052600a60c052611f8d908161007182396080518181816106170152610a10015260a05181610390015260c051816112220152f35b5f80fdfe60806040526004361015610011575f80fd5b5f3560e01c80630f82d675146101c45780635b1b3179146101a05763802b95df1461003a575f80fd5b3461016f576101407ffffffffffffffffffffffffffffffffffffffffffffffffffffffffffffffffc36011261016f57604051610140810181811067ffffffffffffffff82111761017357604052600435600281101561016f57815260243573ffffffffffffffffffffffffffffffffffffffff8116810361016f57602082015260443573ffffffffffffffffffffffffffffffffffffffff8116810361016f57604082015260643573ffffffffffffffffffffffffffffffffffffffff8116810361016f576060820152608435608082015260a43560a082015260c435801515810361016f5760c082015260e435801515810361016f5760e0820152610104356101008201526101243562ffffff8116810361016f57816101639161012060409401526104e6565b82519182526020820152f35b5f80fd5b7f4e487b71000000000000000000000000000000000000000000000000000000005f52604160045260245ffd5b3461016f5760206101bc6101b3366101e0565b93929092610469565b604051908152f35b3461016f5760206101bc6101d7366101e0565b939290926102f2565b7ffffffffffffffffffffffffffffffffffffffffffffffffffffffffffffffffc60a091011261016f57600435600281101561016f579060243573ffffffffffffffffffffffffffffffffffffffff8116810361016f579060443573ffffffffffffffffffffffffffffffffffffffff8116810361016f579060643562ffffff8116810361016f5790608435801515810361016f5790565b610100810190811067ffffffffffffffff82111761017357604052565b6060810190811067ffffffffffffffff82111761017357604052565b90601f7fffffffffffffffffffffffffffffffffffffffffffffffffffffffffffffffe0910116810190811067ffffffffffffffff82111761017357604052565b9392909193600281101561043c57600114610366576040517f08c379a000000000000000000000000000000000000000000000000000000000815260206004820152600260248201527f55520000000000000000000000000000000000000000000000000000000000006044820152606490fd5b6103b561038d73ffffffffffffffffffffffffffffffffffffffff9260049660e095611a7f565b827f000000000000000000000000000000000000000000000000000000000000000016611ae5565b16604051938480927f3850c7bd0000000000000000000000000000000000000000000000000000000082525afa8015610431576103f9925f916103fc575b506119f0565b90565b61041e915060e03d60e01161042a575b61041681836102b1565b810190611061565b5050505050505f6103f3565b503d61040c565b6040513d5f823e3d90fd5b7f4e487b71000000000000000000000000000000000000000000000000000000005f52602160045260245ffd5b9392919093600281101561043c576001146104dd576040517f08c379a000000000000000000000000000000000000000000000000000000000815260206004820152600260248201527f55520000000000000000000000000000000000000000000000000000000000006044820152606490fd5b6103f9936111f6565b908151600281101561043c57600114610558576040517f08c379a000000000000000000000000000000000000000000000000000000000815260206004820152600260248201527f55520000000000000000000000000000000000000000000000000000000000006044820152606490fd5b610100820191825180158015610fc5575b505060c08101511561091c576024906080810151936020820194602073ffffffffffffffffffffffffffffffffffffffff875116604051958680927f70a082310000000000000000000000000000000000000000000000000000000082523060048301525afa938415610431575f946108e8575b50831580156108db575b61087c57808410610875575b73ffffffffffffffffffffffffffffffffffffffff610647818851169361063e84847f0000000000000000000000000000000000000000000000000000000000000000168097611ea1565b5160601b611f02565b169073ffffffffffffffffffffffffffffffffffffffff8751169373ffffffffffffffffffffffffffffffffffffffff6040820151169073ffffffffffffffffffffffffffffffffffffffff606062ffffff610120840151169201511691604051966106b288610278565b875260208701908152604080880192835260608801938452426080890190815260a08901958652600160c08a0190815260e08a0197885291517f414bf389000000000000000000000000000000000000000000000000000000008152985173ffffffffffffffffffffffffffffffffffffffff90811660048b01529251831660248a0152925162ffffff16604489015292518116606488015290516084870152915160a48601525160c485015290511660e4830152602082610104815f855af1918215610431575f92610840575b5060249192602073ffffffffffffffffffffffffffffffffffffffff875116604051948580927f70a082310000000000000000000000000000000000000000000000000000000082523060048301525afa928315610431575f9361080a575b506108026103f99373ffffffffffffffffffffffffffffffffffffffff92611a72565b955116611d3c565b92506020833d602011610838575b81610825602093836102b1565b8101031261016f579151916108026107df565b3d9150610818565b91506020823d60201161086d575b8161085b602093836102b1565b8101031261016f576024915191610780565b3d915061084e565b50826105f3565b6040517f08c379a000000000000000000000000000000000000000000000000000000000815260206004820152600360248201527f49494100000000000000000000000000000000000000000000000000000000006044820152606490fd5b5060a083015184106105e7565b9093506020813d602011610914575b81610904602093836102b1565b8101031261016f5751925f6105dd565b3d91506108f7565b915f925f9160246020830192602073ffffffffffffffffffffffffffffffffffffffff855116604051938480927f70a082310000000000000000000000000000000000000000000000000000000082523060048301525afa918215610431575f92610f91575b50811561087c578060406024920190602073ffffffffffffffffffffffffffffffffffffffff835116604051948580927f70a082310000000000000000000000000000000000000000000000000000000082523060048301525afa928315610431575f93610f5d575b5073ffffffffffffffffffffffffffffffffffffffff610a37818851169661063e87847f000000000000000000000000000000000000000000000000000000000000000016809a611ea1565b169373ffffffffffffffffffffffffffffffffffffffff8751169373ffffffffffffffffffffffffffffffffffffffff8451169461012084019562ffffff875116946060810195608073ffffffffffffffffffffffffffffffffffffffff8851169201519260405194610aa986610278565b855260208501908152604080860192835260608601938452426080870190815260a0870195865260c0870189815260e088018e815292517fdb3e2198000000000000000000000000000000000000000000000000000000008152975173ffffffffffffffffffffffffffffffffffffffff90811660048a0152935184166024890152935162ffffff16604488015293518216606487015292516084860152925160a48501525160c4840152511660e4820152602081610104815f8c5af15f9181610f29575b50610e61575050600194610b8061112b565b6308c379a014610bb5575b50505050506104315773ffffffffffffffffffffffffffffffffffffffff6103f9925b5116611d3c565b610bbd611146565b9485610bca575b50610b8b565b9297969550929897509298505f9573ffffffffffffffffffffffffffffffffffffffff62ffffff81808951169b51169351169151169160405199610c0d8b610278565b8a5260208a019081526040808b0192835260608b019384524260808c0190815260a08c01878152600160c08e0190815260e08e0197885292517f414bf3890000000000000000000000000000000000000000000000000000000081529c5173ffffffffffffffffffffffffffffffffffffffff90811660048f01529351841660248e0152935162ffffff1660448d01529351821660648c0152925160848b0152905160a48a0152905160c489015290511660e4870152602086610104815f865af15f9681610e2d575b50610d7d5786610ce461112b565b6308c379a014610cf9576040513d5f823e3d90fd5b610d01611146565b156104315760446020917fffffffffffffffffffffffffffffffffffffffffffffffffffffffffffffffe0601f6040519485937f08c379a00000000000000000000000000000000000000000000000000000000085528160048601528051918291826024880152018686015e5f85828601015201168101030190fd5b829394959650602073ffffffffffffffffffffffffffffffffffffffff602493945116604051938480927f70a082310000000000000000000000000000000000000000000000000000000082523060048301525afa908115610431575f91610df7575b610dea9250611a72565b94925f8080808080610bc4565b90506020823d602011610e25575b81610e12602093836102b1565b8101031261016f57610dea915190610de0565b3d9150610e05565b9096506020813d602011610e59575b81610e49602093836102b1565b8101031261016f5751955f610cd6565b3d9150610e3c565b925094505073ffffffffffffffffffffffffffffffffffffffff919850602495965060209250975116604051948580927f70a082310000000000000000000000000000000000000000000000000000000082523060048301525afa928315610431575f93610ef3575b50610eed73ffffffffffffffffffffffffffffffffffffffff916103f994611a72565b93610bae565b92506020833d602011610f21575b81610f0e602093836102b1565b8101031261016f57915191610eed610eca565b3d9150610f01565b9091506020813d602011610f55575b81610f45602093836102b1565b8101031261016f5751905f610b6e565b3d9150610f38565b9092506020813d602011610f89575b81610f79602093836102b1565b8101031261016f5751915f6109eb565b3d9150610f6c565b9091506020813d602011610fbd575b81610fad602093836102b1565b8101031261016f5751905f610982565b3d9150610fa0565b60e08301511561056957610ff75778010000000000000000000000000000000000000000000000000483525f80610569565b7f4e487b71000000000000000000000000000000000000000000000000000000005f52601260045260245ffd5b519073ffffffffffffffffffffffffffffffffffffffff8216820361016f57565b519061ffff8216820361016f57565b5190811515820361016f57565b908160e091031261016f5761107581611024565b9160208201518060020b810361016f579161109260408201611045565b9161109f60608301611045565b916110ac60808201611045565b9160a082015160ff8116810361016f5760c06103f9919301611054565b67ffffffffffffffff81116101735760051b60200190565b8051156110ee5760200190565b7f4e487b71000000000000000000000000000000000000000000000000000000005f52603260045260245ffd5b8051600110156110ee5760400190565b5f9060033d1161113757565b905060045f803e5f5160e01c90565b5f60443d106103f9576040517ffffffffffffffffffffffffffffffffffffffffffffffffffffffffffffffffc3d016004823e8051913d602484011167ffffffffffffffff8411176111f0578282019283519167ffffffffffffffff83116111e8577ffffffffffffffffffffffffffffffffffffffffffffffffffffffffffffffffc3d850101602084870101116111e857506103f9929101602001906102b1565b949350505050565b92915050565b73ffffffffffffffffffffffffffffffffffffffff926112199261038d92611a7f565b169063ffffffff7f00000000000000000000000000000000000000000000000000000000000000001680611290575b5060e0600492604051938480927f3850c7bd0000000000000000000000000000000000000000000000000000000082525afa8015610431576103f9925f916103fc57506119f0565b60405161129e6060826102b1565b6002815260208101906040368337826112b6826110e1565b525f6112c18261111b565b526040519182917f883bdbfd000000000000000000000000000000000000000000000000000000008352602483019060206004850152518091526044830191905f5b8181106119d15750505090805f920381875afa5f91816118be575b50611359575050600161132f61112b565b6308c379a014611345575b6104315760e0611248565b61134d611146565b1561133a57505f61133a565b909192506113736113698261111b565b5160060b916110e1565b5160060b900390667fffffffffffff82137fffffffffffffffffffffffffffffffffffffffffffffffffff800000000000008312176118825760030b9060060b8115610ff7577fffffffffffffffffffffffffffffffffffffffffffffffffffffffffffffffff82147fffffffffffffffffffffffffffffffffffffffffffffffffff800000000000008214166118825781810560020b915f821291826118af575b5050611834575b60020b905f82121561182e57815f03915b620d89e883116117d05760018316156117a75770ffffffffffffffffffffffffffffffffff6ffffcb933bd6fad37aa2d162d1a5940015b16926002811661178b575b6004811661176f575b60088116611753575b60108116611737575b6020811661171b575b604081166116ff575b608081166116e3575b61010081166116c7575b61020081166116ab575b610400811661168f575b6108008116611673575b6110008116611657575b612000811661163b575b614000811661161f575b6180008116611603575b6201000081166115e7575b6202000081166115cc575b6204000081166115b1575b6208000016611598575b5f12611567575b73ffffffffffffffffffffffffffffffffffffffff6103f99263ffffffff8116155f1461155e5760ff5f5b169060201c01166119f0565b60ff6001611552565b8115610ff7577fffffffffffffffffffffffffffffffffffffffffffffffffffffffffffffffff9190910490611527565b6b048a170391f7dc42444e8fa290920260801c91611520565b6d2216e584f5fa1ea926041bedfe9890930260801c92611516565b926e5d6af8dedb81196699c329225ee6040260801c9261150b565b926f09aa508b5b7a84e1c677de54f3e99bc90260801c92611500565b926f31be135f97d08fd981231505542fcfa60260801c926114f5565b926f70d869a156d2a1b890bb3df62baf32f70260801c926114eb565b926fa9f746462d870fdf8a65dc1f90e061e50260801c926114e1565b926fd097f3bdfd2022b8845ad8f792aa58250260801c926114d7565b926fe7159475a2c29b7443b29c7fa6e889d90260801c926114cd565b926ff3392b0822b70005940c7a398e4b70f30260801c926114c3565b926ff987a7253ac413176f2b074cf7815e540260801c926114b9565b926ffcbe86c7900a88aedcffc83b479aa3a40260801c926114af565b926ffe5dee046a99a2a811c461f1969c30530260801c926114a5565b926fff2ea16466c96a3843ec78b326b528610260801c9261149c565b926fff973b41fa98c081472e6896dfb254c00260801c92611493565b926fffcb9843d60f6159c9db58835c9266440260801c9261148a565b926fffe5caca7e10e4e61c3624eaa0941cd00260801c92611481565b926ffff2e50f5f656932ef12357cf3c7fdcc0260801c92611478565b926ffff97272373d413259a46990580e213a0260801c9261146f565b70ffffffffffffffffffffffffffffffffff700100000000000000000000000000000000611464565b60646040517f08c379a000000000000000000000000000000000000000000000000000000000815260206004820152600160248201527f54000000000000000000000000000000000000000000000000000000000000006044820152fd5b8161142d565b7fffffffffffffffffffffffffffffffffffffffffffffffffffffffffff8000008114611882577fffffffffffffffffffffffffffffffffffffffffffffffffffffffffffffffff0161141c565b7f4e487b71000000000000000000000000000000000000000000000000000000005f52601160045260245ffd5b0760060b151590505f80611415565b9091503d805f833e6118d081836102b1565b810160408282031261016f57815167ffffffffffffffff811161016f5782019181601f8401121561016f578251611906816110c9565b9361191460405195866102b1565b81855260208086019260051b8201019084821161016f57602001915b8183106119b75750505060208101519067ffffffffffffffff821161016f570181601f8201121561016f5780519060208061196a846110c9565b61197760405191826102b1565b848152019260051b82010192831161016f57602001905b82821061199f57505050905f61131e565b602080916119ac84611024565b81520191019061198e565b82518060060b810361016f57815260209283019201611930565b825163ffffffff16845285945060209384019390920191600101611303565b9015611a525773ffffffffffffffffffffffffffffffffffffffff168015610ff7578078ffffffffffffffffffffffffffffffffffffffffffffffffff6103f99278010000000000000000000000000000000000000000000000000416611c7e565b73ffffffffffffffffffffffffffffffffffffffff6103f9911680611bfd565b9190820391821161188257565b9173ffffffffffffffffffffffffffffffffffffffff62ffffff925f60408051611aa881610295565b828152826020820152015281811682861611611adf575b8160405195611acd87610295565b16855216602084015216604082015290565b93611abf565b73ffffffffffffffffffffffffffffffffffffffff82511673ffffffffffffffffffffffffffffffffffffffff6020840151168082101561016f5762ffffff604073ffffffffffffffffffffffffffffffffffffffff9501511660405191602083019384526040830152606082015260608152611b636080826102b1565b519020604051907fffffffffffffffffffffffffffffffffffffffff00000000000000000000000060208301937fff00000000000000000000000000000000000000000000000000000000000000855260601b16602183015260358201527fe34f199b19b2b4f47f68442619d555527d244f78a3297ea89325f843f87b8b54605582015260558152611bf66075826102b1565b5190201690565b5f917fffffffffffffffffffffffffffffffffffffffffffffffffffffffffffffffff8183099181810293848085109403938085039414611c7457836c010000000000000000000000001115611c715750906c01000000000000000000000000910990828211900360a01b910360601c1790565b80fd5b5050505060601c90565b7fffffffffffffffffffffffffffffffffffffffffffffffffffffffffffffffff6c010000000000000000000000008209918160601b91828085109403938085039414611d2f578382111561016f576c0100000000000000000000000082910981805f03168092046002816003021880820260020302808202600203028082026002030280820260020302808202600203028091026002030293600183805f03040190848311900302920304170290565b508092501561016f570490565b5f919082918260405173ffffffffffffffffffffffffffffffffffffffff60208201937f095ea7b300000000000000000000000000000000000000000000000000000000855216602482015281604482015260448152611d9d6064826102b1565b51925af13d15611e9a573d67ffffffffffffffff81116101735760405190611ded60207fffffffffffffffffffffffffffffffffffffffffffffffffffffffffffffffe0601f84011601836102b1565b81523d5f602083013e5b81611e63575b5015611e0557565b60646040517f08c379a000000000000000000000000000000000000000000000000000000000815260206004820152600260248201527f53410000000000000000000000000000000000000000000000000000000000006044820152fd5b8051801592508215611e78575b50505f611dfd565b819250906020918101031261016f576020611e939101611054565b5f80611e70565b6060611df7565b5f92918380936040519073ffffffffffffffffffffffffffffffffffffffff60208301947f095ea7b3000000000000000000000000000000000000000000000000000000008652166024830152604482015260448152611d9d6064826102b1565b80611f0c57505f90565b906003821115611f5157600182018083116118825760011c825b838210611f31575050565b909250828015610ff7578082049081018091116118825760011c90611f26565b6001915056fea26469706673582212200820a21d2993827bea12fc1a51963cbc98b193fd7234b7323bba3c9cca8deb7e64736f6c634300081a0033","linkReferences":{}},"methodIdentifiers":{"protectedPrice(uint8,address,address,uint24,bool)":"5b1b3179","rawPrice(uint8,address,address,uint24,bool)":"0f82d675","swap((uint8,address,address,address,uint256,uint256,bool,bool,uint256,uint24))":"802b95df"},"id":64}