{"abi":[{"type":"constructor","inputs":[{"name":"name_","type":"string","internalType":"string"},{"name":"symbol_","type":"string","internalType":"string"},{"name":"decimals_","type":"uint8","internalType":"uint8"}],"stateMutability":"nonpayable"},{"type":"function","name":"allowance","inputs":[{"name":"owner","type":"address","internalType":"address"},{"name":"spender","type":"address","internalType":"address"}],"outputs":[{"name":"","type":"uint256","internalType":"uint256"}],"stateMutability":"view"},{"type":"function","name":"approve","inputs":[{"name":"spender","type":"address","internalType":"address"},{"name":"value","type":"uint256","internalType":"uint256"}],"outputs":[{"name":"","type":"bool","internalType":"bool"}],"stateMutability":"nonpayable"},{"type":"function","name":"balanceOf","inputs":[{"name":"account","type":"address","internalType":"address"}],"outputs":[{"name":"","type":"uint256","internalType":"uint256"}],"stateMutability":"view"},{"type":"function","name":"burn","inputs":[{"name":"amount","type":"uint256","internalType":"uint256"}],"outputs":[],"stateMutability":"nonpayable"},{"type":"function","name":"decimals","inputs":[],"outputs":[{"name":"","type":"uint8","internalType":"uint8"}],"stateMutability":"view"},{"type":"function","name":"mint","inputs":[{"name":"account","type":"address","internalType":"address"},{"name":"amount","type":"uint256","internalType":"uint256"}],"outputs":[],"stateMutability":"nonpayable"},{"type":"function","name":"name","inputs":[],"outputs":[{"name":"","type":"string","internalType":"string"}],"stateMutability":"view"},{"type":"function","name":"symbol","inputs":[],"outputs":[{"name":"","type":"string","internalType":"string"}],"stateMutability":"view"},{"type":"function","name":"totalSupply","inputs":[],"outputs":[{"name":"","type":"uint256","internalType":"uint256"}],"stateMutability":"view"},{"type":"function","name":"transfer","inputs":[{"name":"to","type":"address","internalType":"address"},{"name":"value","type":"uint256","internalType":"uint256"}],"outputs":[{"name":"","type":"bool","internalType":"bool"}],"stateMutability":"nonpayable"},{"type":"function","name":"transferFrom","inputs":[{"name":"from","type":"address","internalType":"address"},{"name":"to","type":"address","internalType":"address"},{"name":"value","type":"uint256","internalType":"uint256"}],"outputs":[{"name":"","type":"bool","internalType":"bool"}],"stateMutability":"nonpayable"},{"type":"event","name":"Approval","inputs":[{"name":"owner","type":"address","indexed":true,"internalType":"address"},{"name":"spender","type":"address","indexed":true,"internalType":"address"},{"name":"value","type":"uint256","indexed":false,"internalType":"uint256"}],"anonymous":false},{"type":"event","name":"Transfer","inputs":[{"name":"from","type":"address","indexed":true,"internalType":"address"},{"name":"to","type":"address","indexed":true,"internalType":"address"},{"name":"value","type":"uint256","indexed":false,"internalType":"uint256"}],"anonymous":false}],"bytecode":{"object":"0x60806040523461034757610f08803803806100198161034c565b9283398101906060818303126103475780516001600160401b0381116103475782610045918301610371565b60208201519092906001600160401b03811161034757604091610069918401610371565b91015160ff81168091036103475782516001600160401b03811161025257600054600181811c9116801561033d575b602082101461023257601f81116102d9575b506020601f82116001146102735781929394600092610268575b50508160011b916000199060031b1c1916176000555b81516001600160401b03811161025257600154600181811c91168015610248575b602082101461023257601f81116101cd575b50602092601f8211600114610168579281929360009261015d575b50508160011b916000199060031b1c1916176001555b60ff1960025416176002556000600355604051610b2b90816103dd8239f35b015190503880610128565b601f198216936001600052806000209160005b8681106101b5575083600195961061019c575b505050811b0160015561013e565b015160001960f88460031b161c1916905538808061018e565b9192602060018192868501518155019401920161017b565b60016000527fb10e2d527612073b26eecdfd717e6a320cf44b4afac2b0732d9fcbe2b7fa0cf6601f830160051c81019160208410610228575b601f0160051c01905b81811061021c575061010d565b6000815560010161020f565b9091508190610206565b634e487b7160e01b600052602260045260246000fd5b90607f16906100fb565b634e487b7160e01b600052604160045260246000fd5b0151905038806100c4565b601f1982169060008052806000209160005b8181106102c1575095836001959697106102a8575b505050811b016000556100da565b015160001960f88460031b161c1916905538808061029a565b9192602060018192868b015181550194019201610285565b600080527f290decd9548b62a8d60345a988386fc84ba6bc95484008f6362f93160ef3e563601f830160051c81019160208410610333575b601f0160051c01905b81811061032757506100aa565b6000815560010161031a565b9091508190610311565b90607f1690610098565b600080fd5b6040519190601f01601f191682016001600160401b0381118382101761025257604052565b81601f82011215610347578051906001600160401b038211610252576103a0601f8301601f191660200161034c565b92828452602083830101116103475760005b8281106103c757505060206000918301015290565b806020809284010151828287010152016103b256fe6080604052600436101561001257600080fd5b60003560e01c806306fdde03146107d9578063095ea7b31461073257806318160ddd146106f657806323b872dd14610549578063313ce5671461050a57806340c10f191461046f57806342966c68146103dd57806370a082311461037857806395d89b411461017a578063a9059cbb1461012a5763dd62ed3e1461009557600080fd5b346101255760407ffffffffffffffffffffffffffffffffffffffffffffffffffffffffffffffffc360112610125576100cc610961565b73ffffffffffffffffffffffffffffffffffffffff6100e9610984565b9116600052600560205273ffffffffffffffffffffffffffffffffffffffff604060002091166000526020526020604060002054604051908152f35b600080fd5b346101255760407ffffffffffffffffffffffffffffffffffffffffffffffffffffffffffffffffc360112610125576020610170610166610961565b60243590336109f0565b6040519015158152f35b346101255760007ffffffffffffffffffffffffffffffffffffffffffffffffffffffffffffffffc360112610125576000604051908091600154928360011c6001851694851561036e575b6020821086146103415783949582855290816000146102e15750600114610268575b5003601f017fffffffffffffffffffffffffffffffffffffffffffffffffffffffffffffffe016810167ffffffffffffffff81118282101761023b576102379250604052604051918291826108f9565b0390f35b6024837f4e487b710000000000000000000000000000000000000000000000000000000081526041600452fd5b600185528491507fb10e2d527612073b26eecdfd717e6a320cf44b4afac2b0732d9fcbe2b7fa0cf65b8183106102c557505081016020017fffffffffffffffffffffffffffffffffffffffffffffffffffffffffffffffe06101e7565b6020919350806001915483858801015201910190918392610291565b7fffffffffffffffffffffffffffffffffffffffffffffffffffffffffffffff001660208581019190915291151560051b840190910191507fffffffffffffffffffffffffffffffffffffffffffffffffffffffffffffffe090506101e7565b6024857f4e487b710000000000000000000000000000000000000000000000000000000081526022600452fd5b90607f16906101c5565b346101255760207ffffffffffffffffffffffffffffffffffffffffffffffffffffffffffffffffc3601126101255773ffffffffffffffffffffffffffffffffffffffff6103c4610961565b1660005260046020526020604060002054604051908152f35b346101255760207ffffffffffffffffffffffffffffffffffffffffffffffffffffffffffffffffc36011261012557600435336000526004602052806040600020541061012557336000526004602052604060002061043d8282546109a7565b905560405190815230907fddf252ad1be2c89b69c2b068fc378daa952ba7f163c4a11628f55a4df523b3ef60203392a3005b346101255760407ffffffffffffffffffffffffffffffffffffffffffffffffffffffffffffffffc360112610125576104a6610961565b73ffffffffffffffffffffffffffffffffffffffff60243591169081600052600460205260406000206104da8282546109e3565b90556040519081527fddf252ad1be2c89b69c2b068fc378daa952ba7f163c4a11628f55a4df523b3ef60203092a3005b346101255760007ffffffffffffffffffffffffffffffffffffffffffffffffffffffffffffffffc36011261012557602060ff60025416604051908152f35b346101255760607ffffffffffffffffffffffffffffffffffffffffffffffffffffffffffffffffc36011261012557610580610961565b610588610984565b6044359073ffffffffffffffffffffffffffffffffffffffff83168033036105b8575b60206101708484876109f0565b9190826000526005602052604060002073ffffffffffffffffffffffffffffffffffffffff3316600052602052604060002054821161069857602093836101709460005260058652604060002073ffffffffffffffffffffffffffffffffffffffff331660005286527fffffffffffffffffffffffffffffffffffffffffffffffffffffffffffffffff60406000205403610658575b50935090916105ab565b60005260058552604060002073ffffffffffffffffffffffffffffffffffffffff3316600052855260406000206106908482546109a7565b90558561064e565b60646040517f08c379a000000000000000000000000000000000000000000000000000000000815260206004820152601660248201527f496e73756666696369656e7420616c6c6f77616e6365000000000000000000006044820152fd5b346101255760007ffffffffffffffffffffffffffffffffffffffffffffffffffffffffffffffffc360112610125576020600354604051908152f35b346101255760407ffffffffffffffffffffffffffffffffffffffffffffffffffffffffffffffffc36011261012557610769610961565b73ffffffffffffffffffffffffffffffffffffffff6024359133600052600560205260406000208282166000526020528260406000205560405192835216907f8c5be1e5ebec7d5bd14f71427d1e84f3dd0314c0f7b2291e5b200ac8c7c3b92560203392a3602060405160018152f35b346101255760007ffffffffffffffffffffffffffffffffffffffffffffffffffffffffffffffffc3601126101255760006040519080918154928360011c600185169485156108ef575b6020821086146103415783949582855290816000146102e15750600114610894575003601f017fffffffffffffffffffffffffffffffffffffffffffffffffffffffffffffffe016810167ffffffffffffffff81118282101761023b576102379250604052604051918291826108f9565b848052602085208592505b8183106108d357505081016020017fffffffffffffffffffffffffffffffffffffffffffffffffffffffffffffffe06101e7565b602091935080600191548385880101520191019091839261089f565b90607f1690610823565b9190916020815282519283602083015260005b84811061094b5750507fffffffffffffffffffffffffffffffffffffffffffffffffffffffffffffffe0601f8460006040809697860101520116010190565b806020809284010151604082860101520161090c565b6004359073ffffffffffffffffffffffffffffffffffffffff8216820361012557565b6024359073ffffffffffffffffffffffffffffffffffffffff8216820361012557565b919082039182116109b457565b7f4e487b7100000000000000000000000000000000000000000000000000000000600052601160045260246000fd5b919082018092116109b457565b73ffffffffffffffffffffffffffffffffffffffff16908160005260046020528260406000205410610a9757602073ffffffffffffffffffffffffffffffffffffffff7fddf252ad1be2c89b69c2b068fc378daa952ba7f163c4a11628f55a4df523b3ef9284600052600483526040600020610a6d8782546109a7565b9055169384600052600482526040600020610a898282546109e3565b9055604051908152a3600190565b60646040517f08c379a000000000000000000000000000000000000000000000000000000000815260206004820152601460248201527f496e73756666696369656e742062616c616e63650000000000000000000000006044820152fdfea2646970667358221220472f407fc0858ded9b293b6382ecaf1afb5ec7358156e27805218e8502cabed164736f6c634300081a0033","linkReferences":{}},"methodIdentifiers":{"allowance(address,address)":"dd62ed3e","approve(address,uint256)":"095ea7b3","balanceOf(address)":"70a08231","burn(uint256)":"42966c68","decimals()":"313ce567","mint(address,uint256)":"40c10f19","name()":"06fdde03","symbol()":"95d89b41","totalSupply()":"18160ddd","transfer(address,uint256)":"a9059cbb","transferFrom(address,address,uint256)":"23b872dd"},"id":76}