{"abi":[{"type":"function","name":"factory","inputs":[],"outputs":[{"name":"","type":"IUniswapV3Factory","internalType":"contract IUniswapV3Factory"}],"stateMutability":"view"},{"type":"function","name":"nfpm","inputs":[],"outputs":[{"name":"","type":"INonfungiblePositionManager","internalType":"contract INonfungiblePositionManager"}],"stateMutability":"view"},{"type":"function","name":"swapRouter","inputs":[],"outputs":[{"name":"","type":"ISwapRouter","internalType":"contract ISwapRouter"}],"stateMutability":"view"},{"type":"function","name":"weth9","inputs":[],"outputs":[{"name":"","type":"IWETH9","internalType":"contract IWETH9"}],"stateMutability":"view"}],"bytecode":{"object":"0x608080604052346019576101a4908161001f823930815050f35b600080fdfe608080604052600436101561001357600080fd5b60003560e01c90816350879c1c14610128575080637303e913146100e0578063c31c9c07146100985763c45a01551461004b57600080fd5b60007ffffffffffffffffffffffffffffffffffffffffffffffffffffffffffffffffc360112610093576020604051731f98431c8ad98523631ae4a59f267346ea31f9848152f35b600080fd5b60007ffffffffffffffffffffffffffffffffffffffffffffffffffffffffffffffffc36011261009357602060405173e592427a0aece92de3edee1f18e0157c058615648152f35b60007ffffffffffffffffffffffffffffffffffffffffffffffffffffffffffffffffc36011261009357602060405173c36442b4a4522e871399cd717abdd847ab11fe888152f35b60007ffffffffffffffffffffffffffffffffffffffffffffffffffffffffffffffffc36011261009357807382af49447d8a07e3bd95bd0d56f35241523fbab160209252f3fea264697066735822122088495f584ba57ef202805e2c3324ec62c7472039e42add5e0aa160b9970fecf564736f6c634300081a0033","linkReferences":{}},"methodIdentifiers":{"factory()":"c45a0155","nfpm()":"7303e913","swapRouter()":"c31c9c07","weth9()":"50879c1c"},"id":65}