{"abi":[{"type":"function","name":"mirrorPool","inputs":[{"name":"info","type":"tuple","internalType":"struct MirrorEnv.PoolInfo","components":[{"name":"pool","type":"address","internalType":"contract IUniswapV3Pool"},{"name":"token0","type":"address","internalType":"contract IERC20Metadata"},{"name":"token1","type":"address","internalType":"contract IERC20Metadata"},{"name":"fee","type":"uint24","internalType":"uint24"},{"name":"sqrtPriceX96","type":"uint160","internalType":"uint160"},{"name":"amount0","type":"uint256","internalType":"uint256"},{"name":"amount1","type":"uint256","internalType":"uint256"}]}],"outputs":[{"name":"mock","type":"tuple","internalType":"struct MirrorEnv.MockPool","components":[{"name":"pool","type":"address","internalType":"contract IUniswapV3Pool"},{"name":"inverted","type":"bool","internalType":"bool"}]}],"stateMutability":"nonpayable"},{"type":"function","name":"mirrorPools","inputs":[{"name":"pool","type":"tuple[]","internalType":"struct MirrorEnv.PoolInfo[]","components":[{"name":"pool","type":"address","internalType":"contract IUniswapV3Pool"},{"name":"token0","type":"address","internalType":"contract IERC20Metadata"},{"name":"token1","type":"address","internalType":"contract IERC20Metadata"},{"name":"fee","type":"uint24","internalType":"uint24"},{"name":"sqrtPriceX96","type":"uint160","internalType":"uint160"},{"name":"amount0","type":"uint256","internalType":"uint256"},{"name":"amount1","type":"uint256","internalType":"uint256"}]}],"outputs":[{"name":"mock","type":"tuple[]","internalType":"struct MirrorEnv.MockPool[]","components":[{"name":"pool","type":"address","internalType":"contract IUniswapV3Pool"},{"name":"inverted","type":"bool","internalType":"bool"}]}],"stateMutability":"nonpayable"},{"type":"function","name":"mirrorToken","inputs":[{"name":"info","type":"tuple","internalType":"struct MirrorEnv.TokenInfo","components":[{"name":"addr","type":"address","internalType":"contract IERC20Metadata"},{"name":"name","type":"string","internalType":"string"},{"name":"symbol","type":"string","internalType":"string"},{"name":"decimals","type":"uint8","internalType":"uint8"}]}],"outputs":[{"name":"mock","type":"address","internalType":"contract MockERC20"}],"stateMutability":"nonpayable"},{"type":"function","name":"pools","inputs":[{"name":"","type":"address","internalType":"contract IUniswapV3Pool"}],"outputs":[{"name":"pool","type":"address","internalType":"contract IUniswapV3Pool"},{"name":"inverted","type":"bool","internalType":"bool"}],"stateMutability":"view"},{"type":"function","name":"tokens","inputs":[{"name":"","type":"address","internalType":"contract IERC20Metadata"}],"outputs":[{"name":"","type":"address","internalType":"contract MockERC20"}],"stateMutability":"view"},{"type":"function","name":"updatePool","inputs":[{"name":"pool","type":"address","internalType":"contract IUniswapV3Pool"},{"name":"sqrtPriceX96","type":"uint160","internalType":"uint160"}],"outputs":[{"name":"mock","type":"tuple","internalType":"struct MirrorEnv.MockPool","components":[{"name":"pool","type":"address","internalType":"contract IUniswapV3Pool"},{"name":"inverted","type":"bool","internalType":"bool"}]}],"stateMutability":"nonpayable"},{"type":"function","name":"updatePools","inputs":[{"name":"infos","type":"tuple[]","internalType":"struct MirrorEnv.PoolUpdateInfo[]","components":[{"name":"pool","type":"address","internalType":"contract IUniswapV3Pool"},{"name":"sqrtPriceX96","type":"uint160","internalType":"uint160"}]}],"outputs":[{"name":"mock","type":"tuple[]","internalType":"struct MirrorEnv.MockPool[]","components":[{"name":"pool","type":"address","internalType":"contract IUniswapV3Pool"},{"name":"inverted","type":"bool","internalType":"bool"}]}],"stateMutability":"nonpayable"}],"bytecode":{"object":"0x60808060405234610016576134fa908161001c8239f35b600080fdfe60806040818152600491823610156200001757600080fd5b60009260e0843560e01c9283639949e04f146200083057508263a4063dbc14620007bb578263b4a14b151462000490578263c5abc9cd146200032c578263e4102ad214620001855750508063e4860339146200011e5763fb218b23146200007d57600080fd5b346200011a57807ffffffffffffffffffffffffffffffffffffffffffffffffffffffffffffffffc3601126200011a57620000b7620009d4565b6024359073ffffffffffffffffffffffffffffffffffffffff82168203620001165790620000e59162001bed565b62000114825180926020809173ffffffffffffffffffffffffffffffffffffffff815116845201511515910152565bf35b8380fd5b5080fd5b50346200011a5760207ffffffffffffffffffffffffffffffffffffffffffffffffffffffffffffffffc3601126200011a576020918173ffffffffffffffffffffffffffffffffffffffff918262000175620009d4565b1681528085522054169051908152f35b84925034620003285760209160207ffffffffffffffffffffffffffffffffffffffffffffffffffffffffffffffffc360112620001165780359067ffffffffffffffff8211620003245736602383011215620003245781013592620001ea8462000a99565b93620001f98751958662000992565b808552602460e0602087019202840101923684116200032057602401905b83821062000288578787876200022e815162001b1f565b915b8151811015620002755780620002546200024d6001938562001ba9565b5162000b53565b62000260828662001ba9565b526200026d818562001ba9565b500162000230565b83518062000284858262000ab2565b0390f35b8482360312620003205787516200029f8162000943565b620002aa83620009fd565b8152620002b9848401620009fd565b84820152620002ca898401620009fd565b898201526060808401359062ffffff821682036200031c57820152859184916080620002f8868201620009fd565b9082015260a0808601359082015260c0808601359082015281520191019062000217565b8980fd5b8680fd5b8480fd5b8280fd5b838583346200011a57602090817ffffffffffffffffffffffffffffffffffffffffffffffffffffffffffffffffc360112620003285780359067ffffffffffffffff8211620001165736602383011215620001165781013590620003908262000a99565b916200039f8651938462000992565b80835260248484019160061b830101913683116200048c57602401905b8282106200044857505050620003d3815162001b1f565b925b815181101562000439578062000418620003f26001938562001ba9565b5173ffffffffffffffffffffffffffffffffffffffff8681835116920151169062001bed565b62000424828762001ba9565b5262000431818662001ba9565b5001620003d5565b84518062000284868262000ab2565b86823603126200048c5784879182516200046281620008f7565b6200046d85620009fd565b81526200047c838601620009fd565b83820152815201910190620003bc565b8580fd5b50828434620007b8576020927ffffffffffffffffffffffffffffffffffffffffffffffffffffffffffffffffc908482360112620003285780359267ffffffffffffffff928385116200011a576080908536030112620007b85784519160808301838110858211176200078c5786526200050c858201620009fd565b8352602485013584811162000328576200052c9082369188010162000a1f565b9387840194855260448601358181116200011657620005536064918436918a010162000a1f565b9688860197885201359560ff87168703620001165760608501968752620005af88516200058081620008f7565b601781527f4d6972726f72456e762e6d6972726f72546f6b656e28290000000000000000008b82015262001e08565b73ffffffffffffffffffffffffffffffffffffffff96620005d38887511662001e92565b878651168552848a5287898620541696871562000641575b8a888a168b620005fb8262001e92565b6200063b81516200060c81620008f7565b601481527f6d6972726f72546f6b656e20636f6d706c6574650000000000000000000000008582015262001e08565b51908152f35b60ff91929394959697506200068b8a516200065c81620008f7565b601381527f6372656174696e67206d6f636b20746f6b656e000000000000000000000000008d82015262001e08565b62000697815162001e08565b620006a3845162001e08565b620006b18284511662001f42565b51925191511691885194610ea090818701958787109087111762000760575085949392620006f48b93620007029362002625893960608752606087019062001abf565b908582038d87015262001abf565b920152039082f09081156200075557848491828495511681528088522091167fffffffffffffffffffffffff000000000000000000000000000000000000000082541617905584808080808080620005eb565b8451903d90823e3d90fd5b8760416024927f4e487b7100000000000000000000000000000000000000000000000000000000835252fd5b6024836041847f4e487b7100000000000000000000000000000000000000000000000000000000835252fd5b80fd5b838534620007b85760207ffffffffffffffffffffffffffffffffffffffffffffffffffffffffffffffffc360112620007b85760ff8273ffffffffffffffffffffffffffffffffffffffff928362000812620009d4565b168152600160205220548351928116835260a01c1615156020820152f35b92505034620001165760e07ffffffffffffffffffffffffffffffffffffffffffffffffffffffffffffffffc36011262000116576200086f8262000943565b3573ffffffffffffffffffffffffffffffffffffffff90818116810362000324578252602435818116810362000324576020830152604435818116810362000324578383015260643562ffffff811681036200032457606083015260843590811681036200011657608082015260a43560a082015260c43560c0820152620000e59062000b53565b6040810190811067ffffffffffffffff8211176200091457604052565b7f4e487b7100000000000000000000000000000000000000000000000000000000600052604160045260246000fd5b60e0810190811067ffffffffffffffff8211176200091457604052565b67ffffffffffffffff81116200091457604052565b6060810190811067ffffffffffffffff8211176200091457604052565b90601f7fffffffffffffffffffffffffffffffffffffffffffffffffffffffffffffffe0910116810190811067ffffffffffffffff8211176200091457604052565b6004359073ffffffffffffffffffffffffffffffffffffffff82168203620009f857565b600080fd5b359073ffffffffffffffffffffffffffffffffffffffff82168203620009f857565b81601f82011215620009f85780359067ffffffffffffffff821162000914576040519262000a7660207fffffffffffffffffffffffffffffffffffffffffffffffffffffffffffffffe0601f860116018562000992565b82845260208383010111620009f857816000926020809301838601378301015290565b67ffffffffffffffff8111620009145760051b60200190565b602080820190602083528351809252602060408094019401926000905b83821062000adf57505050505090565b909192939483828262000b176001948a516020809173ffffffffffffffffffffffffffffffffffffffff815116845201511515910152565b019601949392019062000acf565b90816020910312620009f8575173ffffffffffffffffffffffffffffffffffffffff81168103620009f85790565b906000602060405162000b6681620008f7565b828152015260009162000bb060405162000b8081620008f7565b601681527f4d6972726f72456e762e6d6972726f72506f6f6c282900000000000000000000602082015262001e08565b62000bd273ffffffffffffffffffffffffffffffffffffffff82511662001e92565b73ffffffffffffffffffffffffffffffffffffffff815116600052600160205260406000209273ffffffffffffffffffffffffffffffffffffffff6040519462000c1c86620008f7565b549460ff8287169687835260a01c161515602082015262000c3e819662001e92565b51161562000c8d575b505062000c8b60405162000c5b81620008f7565b600d81527f6d6972726f72656420706f6f6c00000000000000000000000000000000000000602082015262001e08565b565b90925062000cd260405162000ca281620008f7565b601481527f6372656174696e67206d6972726f7220706f6f6c000000000000000000000000602082015262001e08565b73ffffffffffffffffffffffffffffffffffffffff602084015116600052600060205273ffffffffffffffffffffffffffffffffffffffff6040600020541673ffffffffffffffffffffffffffffffffffffffff60408501511660005273ffffffffffffffffffffffffffffffffffffffff60406000205416908190801562001a6157821562001a035760a086015192621b13d193848102908082048614901517156200177757606490049360c088015181810291818304149015171562001777576064900492839173ffffffffffffffffffffffffffffffffffffffff60808a015116918185119384620019bb575b505060608901516040517f13ead56200000000000000000000000000000000000000000000000000000000815273ffffffffffffffffffffffffffffffffffffffff9586166004820152918516602483015262ffffff16604482015292166064830152602082608481600073c36442b4a4522e871399cd717abdd847ab11fe885af19182156200192b5760009262001995575b506040519062000e6582620008f7565b73ffffffffffffffffffffffffffffffffffffffff83168252602082015273ffffffffffffffffffffffffffffffffffffffff81975116600052600160205260406000209073ffffffffffffffffffffffffffffffffffffffff8151167fffffffffffffffffffffff00000000000000000000000000000000000000000074ff000000000000000000000000000000000000000060208554940151151560a01b1692161717905562000f4e60405162000f1e81620008f7565b600781527f7374616b696e6700000000000000000000000000000000000000000000000000602082015262001e08565b62000f9060405162000f6081620008f7565b600d81527f7374616b6520616d6f756e747300000000000000000000000000000000000000602082015262001e08565b62000f9b8362001f42565b62000fa68262001f42565b604051917f0dfe168100000000000000000000000000000000000000000000000000000000835260208360048173ffffffffffffffffffffffffffffffffffffffff86165afa9283156200192b576000936200196f575b50604051937fd21220a700000000000000000000000000000000000000000000000000000000855260208560048173ffffffffffffffffffffffffffffffffffffffff87165afa9485156200192b5760009562001937575b5073ffffffffffffffffffffffffffffffffffffffff84163b15620009f8576040517f40c10f19000000000000000000000000000000000000000000000000000000008152306004820152602481018290526000816044818373ffffffffffffffffffffffffffffffffffffffff8a165af180156200192b5762001914575b506040517f095ea7b300000000000000000000000000000000000000000000000000000000815273c36442b4a4522e871399cd717abdd847ab11fe8860048201528160248201526020816044818a73ffffffffffffffffffffffffffffffffffffffff8a165af180156200186f57620018d3575b506200118b6040516200115b81620008f7565b600d81527f746f6b656e30206d696e74656400000000000000000000000000000000000000602082015262001e08565b73ffffffffffffffffffffffffffffffffffffffff85163b156200048c576040517f40c10f190000000000000000000000000000000000000000000000000000000081523060048201526024810183905286816044818373ffffffffffffffffffffffffffffffffffffffff8b165af180156200186f57908791620018bb575b50506040517f095ea7b300000000000000000000000000000000000000000000000000000000815273c36442b4a4522e871399cd717abdd847ab11fe8860048201528260248201526020816044818a73ffffffffffffffffffffffffffffffffffffffff8b165af180156200186f576200187a575b50620012c36040516200129381620008f7565b600d81527f746f6b656e31206d696e74656400000000000000000000000000000000000000602082015262001e08565b6040517fd0c93a7c00000000000000000000000000000000000000000000000000000000815260208160048173ffffffffffffffffffffffffffffffffffffffff88165afa9081156200186f5787916200182d575b5060020b948515620017fe57857ffffffffffffffffffffffffffffffffffffffffffffffffffffffffffff276e0078060020b967fffffffffffffffffffffffffffffffffffffffffffffffffffffffffff8000009788811462001777576002820560020b92838260000360020b1315600014620017da576200139c915062001eeb565b915b620d89209180830760020b91821315620017a6570397627fffff90818a13818b1217620017775760028a900b8301918213911217620017775773ffffffffffffffffffffffffffffffffffffffff9760020b01915b620014356040516200140581620008f7565b600d81527f6c6f776572202f20757070657200000000000000000000000000000000000000602082015262001e08565b620014438260020b620025e1565b620014518360020b620025e1565b339533156200176e575b6020906004604051809b81937fddca3f43000000000000000000000000000000000000000000000000000000008352165afa978815620017635789986200172b575b50604051978861016081011067ffffffffffffffff6101608b011117620009145773ffffffffffffffffffffffffffffffffffffffff62ffffff9281809a6101608d01604052168b521660208a015216604088015260020b606087015260020b608086015260a085015260c08401528360e0840152836101008401521661012082015242610140820152610140604051917f8831645600000000000000000000000000000000000000000000000000000000835273ffffffffffffffffffffffffffffffffffffffff815116600484015273ffffffffffffffffffffffffffffffffffffffff602082015116602484015262ffffff6040820151166044840152606081015160020b6064840152608081015160020b608484015260a081015160a484015260c081015160c484015260e081015160e484015261010081015161010484015273ffffffffffffffffffffffffffffffffffffffff610120820151166101248401520151610144820152608081610164818573c36442b4a4522e871399cd717abdd847ab11fe885af190811562001720578290838093620016b5575b5050620016ad92620016a76fffffffffffffffffffffffffffffffff620016a793620016a06040516200167081620008f7565b601081527f6d696e746564206c697175696469747900000000000000000000000000000000602082015262001e08565b1662001f42565b62001f42565b388062000c47565b92509250506080823d60801162001717575b81620016d66080938362000992565b81010312620007b8576020820151906fffffffffffffffffffffffffffffffff82168203620007b8575060408201516060909201519082620016a76200163d565b3d9150620016c7565b6040513d84823e3d90fd5b6200175391985060203d6020116200175b575b6200174a818362000992565b810190620025c4565b96386200149d565b503d6200173e565b6040513d8b823e3d90fd5b3096506200145b565b7f4e487b7100000000000000000000000000000000000000000000000000000000600052601160045260246000fd5b509097627fffff828a031390828a031217620017775773ffffffffffffffffffffffffffffffffffffffff970391620013f3565b508101888112627fffff8213176200177757620017f79062001eeb565b916200139e565b7f4e487b7100000000000000000000000000000000000000000000000000000000600052601260045260246000fd5b90506020813d60201162001866575b816200184b6020938362000992565b8101031262000320576200185f9062002597565b3862001318565b3d91506200183c565b6040513d89823e3d90fd5b6020813d602011620018b2575b81620018966020938362000992565b810103126200032057620018aa90620025b6565b503862001280565b3d915062001887565b620018c69062000960565b6200048c5785386200120b565b6020813d6020116200190b575b81620018ef6020938362000992565b8101031262000320576200190390620025b6565b503862001148565b3d9150620018e0565b6200192191965062000960565b60009438620010d4565b6040513d6000823e3d90fd5b6200195f91955060203d60201162001967575b62001956818362000992565b81019062000b25565b933862001055565b503d6200194a565b6200198d91935060203d602011620019675762001956818362000992565b913862000ffd565b620019b391925060203d602011620019675762001956818362000992565b903862000e55565b9695509390508115620017fe5773ffffffffffffffffffffffffffffffffffffffff809278010000000000000000000000000000000000000000000000000416913862000dc2565b60646040517f08c379a000000000000000000000000000000000000000000000000000000000815260206004820152601360248201527f746f6b656e31206e6f74206d6972726f726564000000000000000000000000006044820152fd5b60646040517f08c379a000000000000000000000000000000000000000000000000000000000815260206004820152601360248201527f746f6b656e30206e6f74206d6972726f726564000000000000000000000000006044820152fd5b919082519283825260005b84811062001b0a5750507fffffffffffffffffffffffffffffffffffffffffffffffffffffffffffffffe0601f8460006020809697860101520116010190565b60208183018101518483018201520162001aca565b9062001b2b8262000a99565b60409062001b3d604051918262000992565b8381527fffffffffffffffffffffffffffffffffffffffffffffffffffffffffffffffe062001b6d829562000a99565b019160009060005b84811062001b84575050505050565b602090825162001b9481620008f7565b84815282858183015282870101520162001b75565b805182101562001bbe5760209160051b010190565b7f4e487b7100000000000000000000000000000000000000000000000000000000600052603260045260246000fd5b9190604080519162001bff83620008f7565b6000948584528560208095015262001c4c835162001c1d81620008f7565b600881527f7570646174696e670000000000000000000000000000000000000000000000008682015262001e08565b73ffffffffffffffffffffffffffffffffffffffff80911662001c6f8162001e92565b86526001845282862083519062001c8682620008f7565b54968288169788835260ff8784019160a01c161515815282981562001dab575162001cfd575b507f7570646174656420706f6f6c00000000000000000000000000000000000000009262000c8b95949262001ce392511662001f85565b519162001cf083620008f7565b600c835282015262001e08565b9092829062001d41865162001d1281620008f7565b600981527f696e76657274696e6700000000000000000000000000000000000000000000008982015262001e08565b169062001d4e8262001f42565b811562001d7e575078010000000000000000000000000000000000000000000000000481169162001ce362001cac565b807f4e487b7100000000000000000000000000000000000000000000000000000000602492526012600452fd5b6064878751907f08c379a00000000000000000000000000000000000000000000000000000000082526004820152600c60248201527f6e6f74206d6972726f72656400000000000000000000000000000000000000006044820152fd5b6000809160405162001e7f8162001e5260208201947f41304fac00000000000000000000000000000000000000000000000000000000865260206024840152604483019062001abf565b037fffffffffffffffffffffffffffffffffffffffffffffffffffffffffffffffe0810183528262000992565b51906a636f6e736f6c652e6c6f675afa50565b6000809160405173ffffffffffffffffffffffffffffffffffffffff60208201927f2c2ecbc20000000000000000000000000000000000000000000000000000000084521660248201526024815262001e7f8162000975565b60020b7ffffffffffffffffffffffffffffffffffffffffffffffffffffffffffff276e00390627fffff82137fffffffffffffffffffffffffffffffffffffffffffffffffffffffffff8000008312176200177757565b6000809160405160208101917ff82c50f100000000000000000000000000000000000000000000000000000000835260248201526024815262001e7f8162000975565b73ffffffffffffffffffffffffffffffffffffffff8060009362001fe060405162001fb081620008f7565b600b81527f73776170546f5072696365000000000000000000000000000000000000000000602082015262001e08565b169162001fed8362001f42565b1690604051917f3850c7bd00000000000000000000000000000000000000000000000000000000835260049260e0818581855afa80156200258c578590620024c6575b73ffffffffffffffffffffffffffffffffffffffff91501691620020548362001f42565b8083146200247f576040517f0dfe16810000000000000000000000000000000000000000000000000000000081526020818681865afa90811562002474579073ffffffffffffffffffffffffffffffffffffffff91879162002450575b50166040517fd21220a70000000000000000000000000000000000000000000000000000000081526020818781875afa9081156200186f5773ffffffffffffffffffffffffffffffffffffffff9291839189916200242c575b50168386111562002423578382965b10156200241a5750935b1692833b156200048c57604051927f40c10f1900000000000000000000000000000000000000000000000000000000845230868501526c10000000000000000000000000938460248201528781604481838a5af18015620023f95762002404575b506040517f095ea7b300000000000000000000000000000000000000000000000000000000815273e592427a0aece92de3edee1f18e0157c05861564878201528460248201526020816044818b8a5af18015620023f95790879291620023ad575b50602090604051928380927fddca3f430000000000000000000000000000000000000000000000000000000082525afa9081156200186f57879162002389575b5060405194610100860186811067ffffffffffffffff8211176200235b57889362ffffff60e0979473ffffffffffffffffffffffffffffffffffffffff9997948a94604052885283602089019316835281604089019116815283606089019333855260808a019642885260a08b0198895260c08b01998a528b8b0152604051809d7f414bf389000000000000000000000000000000000000000000000000000000008252838c5116910152511660248c0152511660448a0152511660648801525160848701525160a48601525160c485015201511660e4820152602081610104818573e592427a0aece92de3edee1f18e0157c058615645af1801562001720576200232e575050565b602090813d831162002353575b62002347818362000992565b81010312620007b85750565b503d6200233b565b6041887f4e487b71000000000000000000000000000000000000000000000000000000006000525260246000fd5b620023a6915060203d6020116200175b576200174a818362000992565b3862002225565b9091506020813d602011620023f0575b81620023cc6020938362000992565b81010312620023ec578691620023e4602092620025b6565b5090620021e5565b8780fd5b3d9150620023bd565b6040513d8a823e3d90fd5b620024129097919762000960565b953862002184565b90509362002123565b83819662002119565b62002449915060203d602011620019675762001956818362000992565b386200210a565b6200246d915060203d602011620019675762001956818362000992565b38620020b1565b6040513d88823e3d90fd5b505050505062000c8b6040516200249681620008f7565b600e81527f6e6f2073776170206e6565646564000000000000000000000000000000000000602082015262001e08565b5060e0813d60e01162002583575b81620024e360e0938362000992565b81010312620003245780519073ffffffffffffffffffffffffffffffffffffffff821682036200048c576200251b6020820162002597565b506200252a60408201620025a6565b506200253960608201620025a6565b506200254860808201620025a6565b5060a081015160ff8116036200048c57906200257c60c073ffffffffffffffffffffffffffffffffffffffff9301620025b6565b5062002030565b3d9150620024d4565b6040513d87823e3d90fd5b51908160020b8203620009f857565b519061ffff82168203620009f857565b51908115158203620009f857565b90816020910312620009f8575162ffffff81168103620009f85790565b6000809160405160208101917f2d5b6cb900000000000000000000000000000000000000000000000000000000835260248201526024815262001e7f816200097556fe6080604052346200033e5762000ea0803803806200001d8162000343565b92833981016060828203126200033e5781516001600160401b03908181116200033e57826200004e91850162000369565b602092838501518381116200033e576040916200006d91870162000369565b9401519160ff83168093036200033e57815181811162000328576000948554916001948584811c941680156200031d575b8385101462000309578190601f94858111620002b6575b5083908583116001146200025257899262000246575b5050600019600383901b1c191690851b1786555b8651928311620002325783548481811c9116801562000227575b828210146200021357828111620001cb575b50809183116001146200016457508495829394959262000158575b5050600019600383901b1c191690821b1790555b60ff196002541617600255600355604051610ac49081620003dc8239f35b01519050388062000126565b90601f198316968487528287209287905b898210620001b357505083859697981062000199575b505050811b0190556200013a565b015160001960f88460031b161c191690553880806200018b565b80878596829496860151815501950193019062000175565b8487528187208380860160051c82019284871062000209575b0160051c019085905b828110620001fd5750506200010b565b888155018590620001ed565b92508192620001e4565b634e487b7160e01b87526022600452602487fd5b90607f1690620000f9565b634e487b7160e01b86526041600452602486fd5b015190503880620000cb565b898052848a208894509190601f1984168b5b878282106200029f575050841162000285575b505050811b018655620000df565b015160001960f88460031b161c1916905538808062000277565b8385015186558b9790950194938401930162000264565b9091508880528389208580850160051c820192868610620002ff575b918991869594930160051c01915b828110620002f0575050620000b5565b8b8155859450899101620002e0565b92508192620002d2565b634e487b7160e01b88526022600452602488fd5b93607f16936200009e565b634e487b7160e01b600052604160045260246000fd5b600080fd5b6040519190601f01601f191682016001600160401b038111838210176200032857604052565b919080601f840112156200033e5782516001600160401b03811162000328576020906200039f601f8201601f1916830162000343565b928184528282870101116200033e5760005b818110620003c757508260009394955001015290565b8581018301518482018401528201620003b156fe608060408181526004918236101561001657600080fd5b600092833560e01c91826306fdde031461076757508163095ea7b3146106ca57816318160ddd1461068d57816323b872dd14610521578163313ce567146104e157816340c10f191461044957816342966c68146103c357816370a082311461035e57816395d89b411461016457508063a9059cbb146101145763dd62ed3e1461009e57600080fd5b3461011057807ffffffffffffffffffffffffffffffffffffffffffffffffffffffffffffffffc36011261011057806020926100d861090b565b6100e0610933565b73ffffffffffffffffffffffffffffffffffffffff91821683526005865283832091168252845220549051908152f35b5080fd5b503461011057807ffffffffffffffffffffffffffffffffffffffffffffffffffffffffffffffffc3601126101105760209061015b61015161090b565b602435903361099f565b90519015158152f35b83833461011057817ffffffffffffffffffffffffffffffffffffffffffffffffffffffffffffffffc360112610110578051908260018054908160011c9060018316928315610354575b60209384841081146103285783885287959493929181156102cd5750600114610250575b50505003601f017fffffffffffffffffffffffffffffffffffffffffffffffffffffffffffffffe01682019267ffffffffffffffff84118385101761022457508291826102209252826108a5565b0390f35b806041867f4e487b71000000000000000000000000000000000000000000000000000000006024945252fd5b600188529193925086917fb10e2d527612073b26eecdfd717e6a320cf44b4afac2b0732d9fcbe2b7fa0cf65b8284106102b757505050907fffffffffffffffffffffffffffffffffffffffffffffffffffffffffffffffe092601f928201019181936101d2565b805488850187015287945092850192810161027c565b7fffffffffffffffffffffffffffffffffffffffffffffffffffffffffffffff0016848701525050151560051b830101905081601f7fffffffffffffffffffffffffffffffffffffffffffffffffffffffffffffffe06101d2565b60248960228c7f4e487b7100000000000000000000000000000000000000000000000000000000835252fd5b91607f16916101ae565b9050346103bf5760207ffffffffffffffffffffffffffffffffffffffffffffffffffffffffffffffffc3601126103bf57602092829173ffffffffffffffffffffffffffffffffffffffff6103b161090b565b168252845220549051908152f35b8280fd5b919050346103bf5760207ffffffffffffffffffffffffffffffffffffffffffffffffffffffffffffffffc3601126103bf578135913384526020528083208054838110610445578361041491610956565b90555190815230907fddf252ad1be2c89b69c2b068fc378daa952ba7f163c4a11628f55a4df523b3ef60203392a380f35b8480fd5b919050346103bf57807ffffffffffffffffffffffffffffffffffffffffffffffffffffffffffffffffc3601126103bf5761048261090b565b9073ffffffffffffffffffffffffffffffffffffffff6024359216928385526020528084206104b2838254610992565b9055519081527fddf252ad1be2c89b69c2b068fc378daa952ba7f163c4a11628f55a4df523b3ef60203092a380f35b50503461011057817ffffffffffffffffffffffffffffffffffffffffffffffffffffffffffffffffc3601126101105760209060ff600254169051908152f35b9050823461068a5760607ffffffffffffffffffffffffffffffffffffffffffffffffffffffffffffffffc36011261068a5761055b61090b565b610563610933565b916044359373ffffffffffffffffffffffffffffffffffffffff8316803303610595575b60208761015b88888861099f565b80835260209160058352878420338552835287842054871161062e57509582819694928860209961015b9896526005825283832033845282527fffffffffffffffffffffffffffffffffffffffffffffffffffffffffffffffff8484205403610609575b5050509581939550829450610587565b825260058152828220903383525220610623848254610956565b9055848780806105f9565b606490838951917f08c379a0000000000000000000000000000000000000000000000000000000008352820152601660248201527f496e73756666696369656e7420616c6c6f77616e6365000000000000000000006044820152fd5b80fd5b50503461011057817ffffffffffffffffffffffffffffffffffffffffffffffffffffffffffffffffc360112610110576020906003549051908152f35b50503461011057807ffffffffffffffffffffffffffffffffffffffffffffffffffffffffffffffffc360112610110576020918161070661090b565b916024359182913381526005875273ffffffffffffffffffffffffffffffffffffffff8282209516948582528752205582519081527f8c5be1e5ebec7d5bd14f71427d1e84f3dd0314c0f7b2291e5b200ac8c7c3b925843392a35160018152f35b849084346103bf57827ffffffffffffffffffffffffffffffffffffffffffffffffffffffffffffffffc3601126103bf5782835460018160011c906001831692831561089b575b60209384841081146103285783885287959493929181156102cd575060011461081f5750505003601f017fffffffffffffffffffffffffffffffffffffffffffffffffffffffffffffffe01682019267ffffffffffffffff84118385101761022457508291826102209252826108a5565b8780529193925086917f290decd9548b62a8d60345a988386fc84ba6bc95484008f6362f93160ef3e5635b82841061088557505050907fffffffffffffffffffffffffffffffffffffffffffffffffffffffffffffffe092601f928201019181936101d2565b805488850187015287945092850192810161084a565b91607f16916107ae565b60208082528251818301819052939260005b8581106108f7575050507fffffffffffffffffffffffffffffffffffffffffffffffffffffffffffffffe0601f8460006040809697860101520116010190565b8181018301518482016040015282016108b7565b6004359073ffffffffffffffffffffffffffffffffffffffff8216820361092e57565b600080fd5b6024359073ffffffffffffffffffffffffffffffffffffffff8216820361092e57565b9190820391821161096357565b7f4e487b7100000000000000000000000000000000000000000000000000000000600052601160045260246000fd5b9190820180921161096357565b9073ffffffffffffffffffffffffffffffffffffffff80921691600093838552600460205280604086205410610a305760406020927fddf252ad1be2c89b69c2b068fc378daa952ba7f163c4a11628f55a4df523b3ef9486885260048552828820610a0b858254610956565b905516958681526004845220610a22828254610992565b9055604051908152a3600190565b60646040517f08c379a000000000000000000000000000000000000000000000000000000000815260206004820152601460248201527f496e73756666696369656e742062616c616e63650000000000000000000000006044820152fdfea2646970667358221220134ff532eda3de5095e0f852b569fdcb5ca9b71daf9eb27d2bc3378b50543daa64736f6c63430008160033a264697066735822122040365c8f3628d3470f09c6f0eb8432407357ce983537520b95bb75f2650b202e64736f6c63430008160033","linkReferences":{}},"methodIdentifiers":{"mirrorPool((address,address,address,uint24,uint160,uint256,uint256))":"9949e04f","mirrorPools((address,address,address,uint24,uint160,uint256,uint256)[])":"e4102ad2","mirrorToken((address,string,string,uint8))":"b4a14b15","pools(address)":"a4063dbc","tokens(address)":"e4860339","updatePool(address,uint160)":"fb218b23","updatePools((address,uint160)[])":"c5abc9cd"},"id":71}