{
  "abi": [
    {
      "anonymous": false,
      "inputs": [
        {
          "indexed": true,
          "internalType": "address",
          "name": "owner",
          "type": "address"
        },
        {
          "indexed": false,
          "internalType": "uint8",
          "name": "num",
          "type": "uint8"
        }
      ],
      "name": "VaultCreated",
      "type": "event"
    },
    {
      "inputs": [
        {
          "internalType": "uint8",
          "name": "num",
          "type": "uint8"
        }
      ],
      "name": "deployVault",
      "outputs": [
        {
          "internalType": "address payable",
          "name": "vault",
          "type": "address"
        }
      ],
      "stateMutability": "nonpayable",
      "type": "function"
    },
    {
      "inputs": [
        {
          "internalType": "address",
          "name": "owner",
          "type": "address"
        }
      ],
      "name": "deployVault",
      "outputs": [
        {
          "internalType": "address payable",
          "name": "vault",
          "type": "address"
        }
      ],
      "stateMutability": "nonpayable",
      "type": "function"
    },
    {
      "inputs": [],
      "name": "deployVault",
      "outputs": [
        {
          "internalType": "address payable",
          "name": "vault",
          "type": "address"
        }
      ],
      "stateMutability": "nonpayable",
      "type": "function"
    },
    {
      "inputs": [
        {
          "internalType": "address",
          "name": "owner",
          "type": "address"
        },
        {
          "internalType": "uint8",
          "name": "num",
          "type": "uint8"
        }
      ],
      "name": "deployVault",
      "outputs": [
        {
          "internalType": "address payable",
          "name": "vault",
          "type": "address"
        }
      ],
      "stateMutability": "nonpayable",
      "type": "function"
    },
    {
      "inputs": [],
      "name": "parameters",
      "outputs": [
        {
          "internalType": "address",
          "name": "owner",
          "type": "address"
        }
      ],
      "stateMutability": "view",
      "type": "function"
    }
  ],
  "bytecode": {
    "object": "0x608060405234801561001057600080fd5b50615152806100206000396000f3fe608060405234801561001057600080fd5b50600436106100675760003560e01c8063890357301161005057806389035730146100a8578063901c4e4f146100c8578063dd009fdc146100d057600080fd5b80631a48240f1461006c5780635eb512e714610095575b600080fd5b61007f61007a366004610281565b6100e3565b60405161008c91906102cd565b60405180910390f35b61007f6100a33660046102f0565b6100f5565b60005461007f9073ffffffffffffffffffffffffffffffffffffffff1681565b61007f610102565b61007f6100de36600461030f565b610114565b60006100ef3383610127565b92915050565b60006100ef826000610127565b600061010f336000610127565b905090565b60006101208383610127565b9392505050565b604080516020808201835273ffffffffffffffffffffffffffffffffffffffff851691829052600080547fffffffffffffffffffffffff00000000000000000000000000000000000000001690921782559151909161018a918591859101610387565b604051602081830303815290604052805190602001206040516101ac9061024e565b8190604051809103906000f59050801580156101cc573d6000803e3d6000fd5b50600080547fffffffffffffffffffffffff000000000000000000000000000000000000000016905560405190915073ffffffffffffffffffffffffffffffffffffffff8416907f416468bb91b91b2da4acfc37ed49064c0d99cb1d3ea6691055ce17e79137b8d4906102409085906103b0565b60405180910390a292915050565b614d5e806103bf83390190565b60ff81165b811461026b57600080fd5b50565b80358061027a8161025b565b5092915050565b60006020828403121561029657610296600080fd5b610120838361026e565b600073ffffffffffffffffffffffffffffffffffffffff82166100ef565b6102c7816102a0565b82525050565b602081016100ef82846102be565b610260816102a0565b80358061027a816102db565b60006020828403121561030557610305600080fd5b61012083836102e4565b6000806040838503121561032557610325600080fd5b61032f84846102e4565b915061033e846020850161026e565b90509250929050565b60006100ef8260601b90565b60006100ef82610347565b6102c761036a826102a0565b610353565b60006100ef8260f81b90565b6102c760ff821661036f565b610391818461035e565b61039e601482018361037b565b60150192915050565b60ff81166102c7565b602081016100ef82846103a756fe60c06040523480156200001157600080fd5b50336001600160a01b031663890357306040518163ffffffff1660e01b8152600401602060405180830381865afa15801562000051573d6000803e3d6000fd5b505050506040513d601f19601f82011682018060405250810190620000779190620000bc565b6001600160a01b031660a0526000608052620000e6565b6001600160a01b0381168114620000a457600080fd5b50565b805180620000b5816200008e565b5092915050565b600060208284031215620000d357620000d3600080fd5b620000df8383620000a7565b9392505050565b60805160a051614c2862000136600039600081816102460152818161034c015281816103ea0152818161042701528181610844015281816108da0152611fd60152600061018f0152614c286000f3fe6080604052600436106100d65760003560e01c806377bad6b51161007f578063e78f84e711610059578063e78f84e714610295578063f1c6d051146102b2578063f3fef3a3146102d2578063fbbc8731146102f257600080fd5b806377bad6b5146102075780638da5cb5b14610234578063c3b35a7e1461027557600080fd5b806354fd4d50116100b057806354fd4d501461017d578063625c061c146101c75780636e98833d146101e757600080fd5b8063205c28781461011b5780632e1a7d4d1461013d578063523eb5371461015d57600080fd5b36610116577ff17c7d05fbef2f7f7af4beefa0649a44e2f27ed60c8fc3fc371ff2c1de29880a333460405161010c929190613227565b60405180910390a1005b600080fd5b34801561012757600080fd5b5061013b610136366004613282565b610319565b005b34801561014957600080fd5b5061013b6101583660046132ba565b610327565b34801561016957600080fd5b5061013b6101783660046132f5565b610334565b34801561018957600080fd5b506101b17f000000000000000000000000000000000000000000000000000000000000000081565b6040516101be919061331d565b60405180910390f35b3480156101d357600080fd5b5061013b6101e236600461389f565b6103d2565b3480156101f357600080fd5b5061013b610202366004613934565b610420565b34801561021357600080fd5b506102276102223660046132f5565b610453565b6040516101be9190613dca565b34801561024057600080fd5b506102687f000000000000000000000000000000000000000000000000000000000000000081565b6040516101be9190613ddd565b34801561028157600080fd5b5061013b610290366004613e0b565b610821565b3480156102a157600080fd5b506001546040516101be9190613e4b565b3480156102be57600080fd5b5061013b6102cd366004613e59565b61082c565b3480156102de57600080fd5b5061013b6102ed366004613e94565b6108b7565b3480156102fe57600080fd5b5060005461030c9060ff1681565b6040516101be9190613eb4565b61032382826108c2565b5050565b61033133826108c2565b50565b3373ffffffffffffffffffffffffffffffffffffffff7f0000000000000000000000000000000000000000000000000000000000000000161461037657600080fd5b6103b46040518060400160405280600b81526020017f63616e63656c4f72646572000000000000000000000000000000000000000000815250610947565b6103c78167ffffffffffffffff166109d6565b610331600082610a65565b3373ffffffffffffffffffffffffffffffffffffffff7f0000000000000000000000000000000000000000000000000000000000000000161461041457600080fd5b61032360008383610b62565b61044e60007f00000000000000000000000000000000000000000000000000000000000000008585856111e9565b505050565b61045b61312e565b6001805467ffffffffffffffff841690811061047957610479613ec2565b600091825260209091206040805161020081018252600b909302909101805473ffffffffffffffffffffffffffffffffffffffff90811661010085019081526001808401549092166101208601528351808501909452600283018054939486949293869361014087019391839160ff16908111156104f9576104f961397d565b600181111561050a5761050a61397d565b815290546101009081900462ffffff16602092830152918352600384015483820152600484015460ff8082161515604080870191909152938204161515606085015262010000900467ffffffffffffffff16608084015260058401805483518184028101840190945280845260a090940193909160009084015b828210156106e5576000848152602080822060408051808201825260028702909201805461ffff168352600181018054835181870281018701909452808452939591948681019491929084015b828210156106ce57838290600052602060002090600202016040518060400160405290816000820160009054906101000a900460ff1660028111156106185761061861397d565b60028111156106295761062961397d565b815260200160018201805461063d90613f20565b80601f016020809104026020016040519081016040528092919081815260200182805461066990613f20565b80156106b65780601f1061068b576101008083540402835291602001916106b6565b820191906000526020600020905b81548152906001019060200180831161069957829003601f168201915b505050505081525050815260200190600101906105d1565b505050508152505081526020019060010190610584565b505050915250508152600682015460209091019060ff16600381111561070d5761070d61397d565b600381111561071e5761071e61397d565b81526006820154610100810463ffffffff166020808401919091526501000000000090910467ffffffffffffffff16604080840191909152600784015460608401526008840154608084015260098401805482518185028101850190935280835260a09094019391929091908301828280156107b957602002820191906000526020600020905b8154815260200190600101908083116107a5575b50505050508152602001600a820180548060200260200160405190810160405280929190818152602001828054801561081157602002820191906000526020600020905b8154815260200190600101908083116107fd575b5050505050815250509050919050565b61044e838383611fbe565b3373ffffffffffffffffffffffffffffffffffffffff7f0000000000000000000000000000000000000000000000000000000000000000161461086e57600080fd5b6108ac6040518060400160405280601281526020017f5661756c742e706c6163654f7264657228290000000000000000000000000000815250610947565b61033160008261209d565b610323823383611fbe565b3373ffffffffffffffffffffffffffffffffffffffff7f0000000000000000000000000000000000000000000000000000000000000000161461090457600080fd5b60405173ffffffffffffffffffffffffffffffffffffffff83169082156108fc029083906000818181858888f1935050505015801561044e573d6000803e3d6000fd5b6103318160405160240161095b9190613f4f565b604080517fffffffffffffffffffffffffffffffffffffffffffffffffffffffffffffffe08184030181529190526020810180517bffffffffffffffffffffffffffffffffffffffffffffffffffffffff167f41304fac000000000000000000000000000000000000000000000000000000001790526120fc565b610331816040516024016109ea9190613f62565b604080517fffffffffffffffffffffffffffffffffffffffffffffffffffffffffffffffe08184030181529190526020810180517bffffffffffffffffffffffffffffffffffffffffffffffffffffffff167ff82c50f1000000000000000000000000000000000000000000000000000000001790526120fc565b6000826001018267ffffffffffffffff1681548110610a8657610a86613ec2565b6000918252602082206006600b90920201015460ff169150816003811115610ab057610ab061397d565b0361044e576001836001018367ffffffffffffffff1681548110610ad657610ad6613ec2565b600091825260209091206006600b909202010180547fffffffffffffffffffffffffffffffffffffffffffffffffffffffffffffff00166001836003811115610b2157610b2161397d565b02179055507f74a075ee230588b5c76ea493a6d21b086384f29139b7227b9c6329e66106dc4882604051610b559190613e4b565b60405180910390a1505050565b815160ff11610b7057600080fd5b600183015467ffffffffffffffff80821610610b8b57600080fd5b600080836002811115610ba057610ba061397d565b03610bb4575067ffffffffffffffff610d52565b6001836002811115610bc857610bc861397d565b1480610be557506002836002811115610be357610be361397d565b145b15610d175784600201805490509050846002016040518060600160405280856002811115610c1557610c1561397d565b815267ffffffffffffffff8516602080830191909152875160ff1660409092019190915282546001818101855560009485529190932082519301805492939092909183917fffffffffffffffffffffffffffffffffffffffffffffffffffffffffffffff001690836002811115610c8e57610c8e61397d565b02179055506020820151815460409093015160ff166901000000000000000000027fffffffffffffffffffffffffffffffffffffffffffff00ffffffffffffffffff67ffffffffffffffff90921661010002919091167fffffffffffffffffffffffffffffffffffffffffffff000000000000000000ff90931692909217919091179055610d52565b6040517f08c379a0000000000000000000000000000000000000000000000000000000008152600401610d4990613fa7565b60405180910390fd5b60005b84518160ff1610156111a7576000858260ff1681518110610d7857610d78613ec2565b60200260200101519050600180811115610d9457610d9461397d565b6040820151516001811115610dab57610dab61397d565b14610de2576040517f08c379a0000000000000000000000000000000000000000000000000000000008152600401610d4990613feb565b600180880180549182018082556000828152919083908110610e0657610e06613ec2565b600091825260209182902060608601516003600b9093029091019182015560808501516004820180549115157fffffffffffffffffffffffffffffffffffffffffffffffffffffffffffffff009283161790558551825473ffffffffffffffffffffffffffffffffffffffff9182167fffffffffffffffffffffffff0000000000000000000000000000000000000000918216178455938701516001808501805492909316919095161790556040860151805160028401805494965091949193909284929116908381811115610ede57610ede61397d565b02179055506020919091015181547fffffffffffffffffffffffffffffffffffffffffffffffffffffffff000000ff1661010062ffffff90921682021790915560c084015160048301805460a08701517fffffffffffffffffffffffffffffffffffffffffffff000000000000000000ff9091166201000067ffffffffffffffff909416939093027fffffffffffffffffffffffffffffffffffffffffffffffffffffffffffff00ff169290921791151590920217905560005b8360e0015151811015611126576005820180546001018155600090815260e0850151805183908110610fcc57610fcc613ec2565b602002602001015190506000836000016005018381548110610ff057610ff0613ec2565b60009182526020822084516002929092020180547fffffffffffffffffffffffffffffffffffffffffffffffffffffffffffff00001661ffff90921691909117815591505b8260200151518110156110e857816001018360200151828151811061105c5761105c613ec2565b60209081029190910181015182546001818101855560009485529290932081516002948502909101805492949093919284927fffffffffffffffffffffffffffffffffffffffffffffffffffffffffffffff009091169184908111156110c4576110c461397d565b0217905550602082015160018201906110dd9082614121565b505050600101611035565b5050506009820180546001818101835560009283526020808420909201839055600a8501805480830182559084529183209091019190915501610f98565b5060060180547fffffffffffffffffffffffffffffffffffffff00000000000000000000000000166101004263ffffffff16027fffffffffffffffffffffffffffffffffffffff0000000000000000ffffffffff16176501000000000067ffffffffffffffff8716021790555081905061119f81614227565b915050610d55565b507f704790b72d78f27fe222b5e80adb23b845160c560b9e927c2c87b75adc9c2e2b8285516040516111da929190614246565b60405180910390a15050505050565b6112276040518060400160405280600781526020017f6578656375746500000000000000000000000000000000000000000000000000815250610947565b61123030612105565b6112438367ffffffffffffffff166109d6565b61124f8260ff166109d6565b6000856001018467ffffffffffffffff168154811061127057611270613ec2565b600091825260208220600b909102019150600682015460ff16600381111561129a5761129a61397d565b146112d1576040517f08c379a0000000000000000000000000000000000000000000000000000000008152600401610d4990614293565b6000816000016005018460ff16815481106112ee576112ee613ec2565b600091825260208220845460018601546002808801546040517f1698ee8200000000000000000000000000000000000000000000000000000000815295909102909301955084938493731f98431c8ad98523631ae4a59f267346ea31f98493631698ee82936113889373ffffffffffffffffffffffffffffffffffffffff928316939290911691610100900462ffffff16906004016142a5565b602060405180830381865afa1580156113a5573d6000803e3d6000fd5b505050506040513d601f19601f820116820180604052508101906113c991906142d9565b905060005b600185015460ff82161015611ab6576000856001018260ff16815481106113f7576113f7613ec2565b6000918252602082206002909102019150815460ff16600281111561141e5761141e61397d565b03611627576114616040518060400160405280600f81526020017f74696d6520636f6e73747261696e740000000000000000000000000000000000815250610947565b600081600101805461147290613f20565b80601f016020809104026020016040519081016040528092919081815260200182805461149e90613f20565b80156114eb5780601f106114c0576101008083540402835291602001916114eb565b820191906000526020600020905b8154815290600101906020018083116114ce57829003601f168201915b50505050508060200190518101906115039190614392565b9050600080825151600181111561151c5761151c61397d565b146115465781516020015160068a01546115419190610100900463ffffffff166143b1565b61154d565b8151602001515b9050428163ffffffff16111561158f576040517f08c379a0000000000000000000000000000000000000000000000000000000008152600401610d4990614401565b600060208301515160018111156115a8576115a861397d565b146115d457602082810151015160068a01546115cf9190610100900463ffffffff166143b1565b6115de565b8160200151602001515b9050428163ffffffff161015611620576040517f08c379a0000000000000000000000000000000000000000000000000000000008152600401610d4990614445565b5050611aa3565b6001815460ff16600281111561163f5761163f61397d565b036119e4576116826040518060400160405280600f81526020017f6c696e6520636f6e73747261696e740000000000000000000000000000000000815250610947565b8473ffffffffffffffffffffffffffffffffffffffff16600003611719578273ffffffffffffffffffffffffffffffffffffffff16633850c7bd6040518163ffffffff1660e01b815260040160e060405180830381865afa1580156116eb573d6000803e3d6000fd5b505050506040513d601f19601f8201168201806040525081019061170f91906144b9565b5094995050505050505b600081600101805461172a90613f20565b80601f016020809104026020016040519081016040528092919081815260200182805461175690613f20565b80156117a35780601f10611778576101008083540402835291602001916117a3565b820191906000526020600020905b81548152906001019060200180831161178657829003601f168201915b50505050508060200190518101906117bb91906145dc565b602081015190915073ffffffffffffffffffffffffffffffffffffffff87169015611812576040517f08c379a0000000000000000000000000000000000000000000000000000000008152600401610d499061462d565b6060820151608083015173ffffffffffffffffffffffffffffffffffffffff9091169060130b15611896576c01000000000000000000000000836080015160130b846040015163ffffffff1642611869919061463f565b611873919061465c565b61187d91906146e3565b6118879082614751565b90506000811215611896575060005b61189f81612194565b6118a8826109d6565b82516118b390612223565b8251819080156118d957508073ffffffffffffffffffffffffffffffffffffffff168311155b806119045750835115801561190457508073ffffffffffffffffffffffffffffffffffffffff168310155b1561193b576040517f08c379a0000000000000000000000000000000000000000000000000000000008152600401610d49906147a3565b73ffffffffffffffffffffffffffffffffffffffff8816158061199257508351801561199257508773ffffffffffffffffffffffffffffffffffffffff168173ffffffffffffffffffffffffffffffffffffffff16105b806119d2575083511580156119d257508773ffffffffffffffffffffffffffffffffffffffff168173ffffffffffffffffffffffffffffffffffffffff16115b156119db578097505b50505050611aa3565b6002815460ff1660028111156119fc576119fc61397d565b03611a7157611a3f6040518060400160405280601281526020017f6261727269657220636f6e73747261696e740000000000000000000000000000815250610947565b6040517f08c379a0000000000000000000000000000000000000000000000000000000008152600401610d49906147e7565b6040517f08c379a0000000000000000000000000000000000000000000000000000000008152600401610d499061482b565b5080611aae81614227565b9150506113ce565b50611af56040518060400160405280601081526020017f636f6d707574696e6720616d6f756e7400000000000000000000000000000000815250610947565b6003850154611b03906109d6565b8354611b129061ffff166109d6565b6004850154611b239060ff16612223565b611b3085600701546109d6565b611b3d85600801546109d6565b611b68856009018860ff1681548110611b5857611b58613ec2565b90600052602060002001546109d6565b611b8385600a018860ff1681548110611b5857611b58613ec2565b600485015460009060ff16611bba5785600a018860ff1681548110611baa57611baa613ec2565b9060005260206000200154611bde565b856009018860ff1681548110611bd257611bd2613ec2565b90600052602060002001545b8554600388015461ffff91611bf6919083169061483d565b611c009190614857565b611c0a919061463f565b9050611c4a6040518060400160405280600681526020017f616d6f756e740000000000000000000000000000000000000000000000000000815250610947565b611c53816109d6565b611c916040518060400160405280600581526020017f6c696d6974000000000000000000000000000000000000000000000000000000815250610947565b611cb08373ffffffffffffffffffffffffffffffffffffffff166109d6565b611cee6040518060400160405280600581526020017f7072696365000000000000000000000000000000000000000000000000000000815250610947565b611d0d8473ffffffffffffffffffffffffffffffffffffffff166109d6565b6003860154600487015460ff16611d28578660080154611d2e565b86600701545b1115611d66576040517f08c379a0000000000000000000000000000000000000000000000000000000008152600401610d49906148a3565b600486015460009060ff16611d7f578660080154611d85565b86600701545b6003880154611d94919061463f565b9050611dd46040518060400160405280600981526020017f72656d61696e696e670000000000000000000000000000000000000000000000815250610947565b611ddd816109d6565b80821115611de9578091505b60008211611e23576040517f08c379a0000000000000000000000000000000000000000000000000000000008152600401610d49906148e7565b611e2c826109d6565b6004870154600090610100900460ff16611e465730611e48565b8b5b9050611e5381612105565b600080600160028b015460ff166001811115611e7157611e7161397d565b03611e8d57611e83838b88888b6122b2565b9092509050611ebf565b6040517f08c379a0000000000000000000000000000000000000000000000000000000008152600401610d4990613feb565b818a6007016000828254611ed391906148f9565b92505081905550808a6008016000828254611eee91906148f9565b92505081905550818a6009018d60ff1681548110611f0e57611f0e613ec2565b906000526020600020016000828254611f2791906148f9565b92505081905550808a600a018d60ff1681548110611f4757611f47613ec2565b906000526020600020016000828254611f6091906148f9565b90915550506040517f8b9a867d3ae2675d02744a1ce6d50e404d9af21941871223000c679e01911af890611f9b908f908f908690869061490e565b60405180910390a1611fad8f8b612417565b505050505050505050505050505050565b3373ffffffffffffffffffffffffffffffffffffffff7f0000000000000000000000000000000000000000000000000000000000000000161461200057600080fd5b6040517fa9059cbb00000000000000000000000000000000000000000000000000000000815273ffffffffffffffffffffffffffffffffffffffff84169063a9059cbb906120549085908590600401613227565b6020604051808303816000875af1158015612073573d6000803e3d6000fd5b505050506040513d601f19601f820116820180604052508101906120979190614943565b50505050565b604080516001808252818301909252600091816020015b6120bc613189565b8152602001906001900390816120b457905050905081816000815181106120e5576120e5613ec2565b602002602001018190525061044e83826000610b62565b61033181612559565b610331816040516024016121199190613ddd565b604080517fffffffffffffffffffffffffffffffffffffffffffffffffffffffffffffffe08184030181529190526020810180517bffffffffffffffffffffffffffffffffffffffffffffffffffffffff167f2c2ecbc2000000000000000000000000000000000000000000000000000000001790526120fc565b610331816040516024016121a89190613f62565b604080517fffffffffffffffffffffffffffffffffffffffffffffffffffffffffffffffe08184030181529190526020810180517bffffffffffffffffffffffffffffffffffffffffffffffffffffffff167f2d5b6cb9000000000000000000000000000000000000000000000000000000001790526120fc565b610331816040516024016122379190613eb4565b604080517fffffffffffffffffffffffffffffffffffffffffffffffffffffffffffffffe08184030181529190526020810180517bffffffffffffffffffffffffffffffffffffffffffffffffffffffff167f32458eed000000000000000000000000000000000000000000000000000000001790526120fc565b6000806122f36040518060400160405280600b81526020017f7072696365206c696d6974000000000000000000000000000000000000000000815250610947565b6123128373ffffffffffffffffffffffffffffffffffffffff166109d6565b600486015460ff1615612398576040805160e08101825273ffffffffffffffffffffffffffffffffffffffff8781168252885481166020830152600189015481169282019290925288821660608201526002880154610100900462ffffff16608082015260a0810186905290841660c082015261238e9061257a565b909250905061240d565b6040805160e08101825273ffffffffffffffffffffffffffffffffffffffff8781168252885481166020830152600189015481169282019290925288821660608201526002880154610100900462ffffff16608082015260a0810186905290841660c082015261240790612928565b90925090505b9550959350505050565b600481015460009060ff16612430578160080154612436565b81600701545b6003830154612445919061463f565b9050806000036124bb576006820180547fffffffffffffffffffffffffffffffffffffffffffffffffffffffffffffff00166002179081905567ffffffffffffffff6501000000000090910481161461044e57600682015461044e90849065010000000000900467ffffffffffffffff16612f2b565b600682015465010000000000900467ffffffffffffffff90811614801590612531575060016006830154600285018054909165010000000000900467ffffffffffffffff1690811061250f5761250f613ec2565b60009182526020909120015460ff16600281111561252f5761252f61397d565b145b1561044e57600682015461044e90849065010000000000900467ffffffffffffffff16612f2b565b80516a636f6e736f6c652e6c6f67602083016000808483855afa5050505050565b6000806125bb6040518060400160405280601981526020017f737761704578616374496e70757420617070726f76652e2e2e00000000000000815250610947565b6125c430612105565b6125d18360200151612105565b6125de8360400151612105565b6125f0836080015162ffffff166109d6565b6125fd8360600151612105565b61260a8360a001516109d6565b61262d8360c0015173ffffffffffffffffffffffffffffffffffffffff166109d6565b61264a73e592427a0aece92de3edee1f18e0157c05861564612105565b8260a0015191506000836020015173ffffffffffffffffffffffffffffffffffffffff166370a08231306040518263ffffffff1660e01b81526004016126909190613ddd565b602060405180830381865afa1580156126ad573d6000803e3d6000fd5b505050506040513d601f19601f820116820180604052508101906126d1919061496e565b90508060000361270d576040517f08c379a0000000000000000000000000000000000000000000000000000000008152600401610d49906149bf565b82811015612719578092505b61273c846020015173e592427a0aece92de3edee1f18e0157c0586156485612fce565b61277a6040518060400160405280600b81526020017f7377617070696e672e2e2e000000000000000000000000000000000000000000815250610947565b73e592427a0aece92de3edee1f18e0157c0586156473ffffffffffffffffffffffffffffffffffffffff1663414bf389604051806101000160405280876020015173ffffffffffffffffffffffffffffffffffffffff168152602001876040015173ffffffffffffffffffffffffffffffffffffffff168152602001876080015162ffffff168152602001876060015173ffffffffffffffffffffffffffffffffffffffff168152602001428152602001868152602001600181526020018760c0015173ffffffffffffffffffffffffffffffffffffffff168152506040518263ffffffff1660e01b81526004016128729190614a7c565b6020604051808303816000875af1158015612891573d6000803e3d6000fd5b505050506040513d601f19601f820116820180604052508101906128b5919061496e565b91506128f56040518060400160405280600781526020017f7377617070656400000000000000000000000000000000000000000000000000815250610947565b6128fe826109d6565b612922846020015173e592427a0aece92de3edee1f18e0157c058615646000612fce565b50915091565b6000806000836020015173ffffffffffffffffffffffffffffffffffffffff166370a08231306040518263ffffffff1660e01b815260040161296a9190613ddd565b602060405180830381865afa158015612987573d6000803e3d6000fd5b505050506040513d601f19601f820116820180604052508101906129ab919061496e565b9050806000036129e7576040517f08c379a0000000000000000000000000000000000000000000000000000000008152600401610d49906149bf565b60408051808201909152601a81527f7377617045786163744f757470757420617070726f76652e2e2e00000000000060208201528190612a2690610947565b612a2f30612105565b612a3c8560200151612105565b612a498560400151612105565b612a5b856080015162ffffff166109d6565b612a688560600151612105565b612a758560a001516109d6565b612a988560c0015173ffffffffffffffffffffffffffffffffffffffff166109d6565b612ab573e592427a0aece92de3edee1f18e0157c05861564612105565b612af36040518060400160405280600781526020017f617070726f766500000000000000000000000000000000000000000000000000815250610947565b612afc816109d6565b612b1f856020015173e592427a0aece92de3edee1f18e0157c0586156483612fce565b612b5d6040518060400160405280600b81526020017f7377617070696e672e2e2e000000000000000000000000000000000000000000815250610947565b73e592427a0aece92de3edee1f18e0157c0586156473ffffffffffffffffffffffffffffffffffffffff1663db3e2198604051806101000160405280886020015173ffffffffffffffffffffffffffffffffffffffff168152602001886040015173ffffffffffffffffffffffffffffffffffffffff168152602001886080015162ffffff168152602001886060015173ffffffffffffffffffffffffffffffffffffffff1681526020014281526020018860a0015181526020018481526020018860c0015173ffffffffffffffffffffffffffffffffffffffff168152506040518263ffffffff1660e01b8152600401612c589190614a7c565b6020604051808303816000875af1925050508015612cb1575060408051601f3d9081017fffffffffffffffffffffffffffffffffffffffffffffffffffffffffffffffe0168201909252612cae9181019061496e565b60015b612ea557612cbd614a8b565b806308c379a003612e8c5750612cd1614aa6565b80612cdc5750612e8e565b73e592427a0aece92de3edee1f18e0157c0586156473ffffffffffffffffffffffffffffffffffffffff1663414bf389604051806101000160405280896020015173ffffffffffffffffffffffffffffffffffffffff168152602001896040015173ffffffffffffffffffffffffffffffffffffffff168152602001896080015162ffffff168152602001896060015173ffffffffffffffffffffffffffffffffffffffff168152602001428152602001858152602001600181526020018960c0015173ffffffffffffffffffffffffffffffffffffffff168152506040518263ffffffff1660e01b8152600401612dd49190614a7c565b6020604051808303816000875af1925050508015612e2d575060408051601f3d9081017fffffffffffffffffffffffffffffffffffffffffffffffffffffffffffffffe0168201909252612e2a9181019061496e565b60015b612e9857612e39614a8b565b806308c379a003612e8c5750612e4d614aa6565b80612e585750612e8e565b816040517f08c379a0000000000000000000000000000000000000000000000000000000008152600401610d499190613f4f565b505b3d6000803e3d6000fd5b8295508094505050612eb0565b60a086015190945092505b612eee6040518060400160405280600781526020017f7377617070656400000000000000000000000000000000000000000000000000815250610947565b612ef7846109d6565b612f00836109d6565b612f24856020015173e592427a0aece92de3edee1f18e0157c058615646000612fce565b5050915091565b6000826002018267ffffffffffffffff1681548110612f4c57612f4c613ec2565b600091825260208220018054909250612f84906901000000000000000000810460ff1690610100900467ffffffffffffffff16614b5f565b8254909150610100900467ffffffffffffffff165b8167ffffffffffffffff168167ffffffffffffffff161015612fc757612fbf8582610a65565b600101612f99565b5050505050565b6000808473ffffffffffffffffffffffffffffffffffffffff1663095ea7b360e01b8585604051602401613003929190613227565b604080517fffffffffffffffffffffffffffffffffffffffffffffffffffffffffffffffe08184030181529181526020820180517bffffffffffffffffffffffffffffffffffffffffffffffffffffffff167fffffffff0000000000000000000000000000000000000000000000000000000090941693909317909252905161308c9190614ba2565b6000604051808303816000865af19150503d80600081146130c9576040519150601f19603f3d011682016040523d82523d6000602084013e6130ce565b606091505b50915091508180156130f85750805115806130f85750808060200190518101906130f89190614943565b612fc7576040517f08c379a0000000000000000000000000000000000000000000000000000000008152600401610d4990614be0565b604051806101000160405280613142613189565b815260200160008152602001600063ffffffff168152602001600067ffffffffffffffff168152602001600081526020016000815260200160608152602001606081525090565b6040805161010081018252600080825260208201529081016131bb604080518082019091526000808252602082015290565b815260200160008152602001600015158152602001600015158152602001600067ffffffffffffffff168152602001606081525090565b600073ffffffffffffffffffffffffffffffffffffffff82165b92915050565b61321b816131f2565b82525050565b8061321b565b604081016132358285613212565b6132426020830184613221565b9392505050565b613252816131f2565b811461033157600080fd5b80358061326981613249565b5092915050565b80613252565b80358061326981613270565b6000806040838503121561329857613298600080fd5b6132a2848461325d565b91506132b18460208501613276565b90509250929050565b6000602082840312156132cf576132cf600080fd5b6132428383613276565b67ffffffffffffffff8116613252565b803580613269816132d9565b60006020828403121561330a5761330a600080fd5b61324283836132e9565b60ff811661321b565b6020810161320c8284613314565b7f4e487b7100000000000000000000000000000000000000000000000000000000600052604160045260246000fd5b7fffffffffffffffffffffffffffffffffffffffffffffffffffffffffffffffe0601f830116810181811067ffffffffffffffff8211171561339e5761339e61332b565b6040525050565b60006133b060405190565b8091506133bd838261335a565b50919050565b600067ffffffffffffffff8211156133dd576133dd61332b565b5060051b60200190565b6002811061033157600080fd5b803580613269816133e7565b62ffffff8116613252565b80358061326981613400565b60006040828403121561342c5761342c600080fd5b61343660406133a5565b80915061344384846133f4565b8152613452846020850161340b565b60208201525092915050565b801515613252565b8035806132698161345e565b61ffff8116613252565b80358061326981613472565b6003811061033157600080fd5b80358061326981613488565b600067ffffffffffffffff8211156134bb576134bb61332b565b50601f017fffffffffffffffffffffffffffffffffffffffffffffffffffffffffffffffe01660200190565b82818337506000910152565b6000613506613501846134a1565b6133a5565b80915083815284848401111561351e5761351e600080fd5b61352c8460208301856134e7565b509392505050565b600082601f83011261354857613548600080fd5b613242838335602085016134f3565b60006040828403121561356c5761356c600080fd5b61357660406133a5565b8091506135838484613495565b8152602083013567ffffffffffffffff8111156135a2576135a2600080fd5b6135ae85828601613534565b6020830152505092915050565b60006135c9613501846133c3565b8381529050600583901b820160208201858211156135e9576135e9600080fd5b835b8281101561362857803567ffffffffffffffff81111561360d5761360d600080fd5b61361988828801613557565b835250602091820191016135eb565b5050509392505050565b600082601f83011261364657613646600080fd5b613242838335602085016135bb565b60006040828403121561366a5761366a600080fd5b61367460406133a5565b809150613681848461347c565b8152602083013567ffffffffffffffff8111156136a0576136a0600080fd5b6135ae85828601613632565b60006136ba613501846133c3565b8381529050600583901b820160208201858211156136da576136da600080fd5b835b8281101561362857803567ffffffffffffffff8111156136fe576136fe600080fd5b61370a88828801613655565b835250602091820191016136dc565b600082601f83011261372d5761372d600080fd5b613242838335602085016136ac565b6000610120828403121561375257613752600080fd5b61375d6101006133a5565b80915061376a848461325d565b8152613779846020850161325d565b602082015261378b8460408501613417565b604082015261379d8460808501613276565b60608201526137af8460a08501613466565b60808201526137c18460c08501613466565b60a08201526137d38460e085016132e9565b60c082015261010083013567ffffffffffffffff8111156137f6576137f6600080fd5b61380285828601613719565b60e0830152505092915050565b600061381d613501846133c3565b8381529050600583901b8201602082018582111561383d5761383d600080fd5b835b8281101561362857803567ffffffffffffffff81111561386157613861600080fd5b61386d8882880161373c565b8352506020918201910161383f565b600082601f83011261389057613890600080fd5b6132428383356020850161380f565b600080604083850312156138b5576138b5600080fd5b823567ffffffffffffffff8111156138cf576138cf600080fd5b6138db8582860161387c565b9250506132b18460208501613495565b60ff8116613252565b803580613269816138eb565b60006020828403121561391557613915600080fd5b61391f60206133a5565b80915061392c8484613276565b905292915050565b60008060006060848603121561394c5761394c600080fd5b61395685856132e9565b925061396585602086016138f4565b91506139748560408601613900565b90509250925092565b7f4e487b7100000000000000000000000000000000000000000000000000000000600052602160045260246000fd5b600281106103315761033161397d565b806139c6816139ac565b919050565b600061320c826139bc565b61321b816139cb565b62ffffff811661321b565b6139f58282516139d6565b602081015161044e60208401826139df565b80151561321b565b67ffffffffffffffff811661321b565b61ffff811661321b565b600381106103315761033161397d565b806139c681613a29565b600061320c82613a39565b61321b81613a43565b60005b83811015613a72578181015183820152602001613a5a565b50506000910152565b6000613a85825190565b80845260208401613a9a828260208701613a57565b7fffffffffffffffffffffffffffffffffffffffffffffffffffffffffffffffe0601f83011601949350505050565b613ad4828251613a4e565b6000602082015160406020850152613aef6040850182613a7b565b949350505050565b60006132428383613ac9565b6000613b0d825190565b808452602084018094508160051b8101613b278560200190565b60005b84811015613b59578383038852613b42838351613af7565b925060208201602098909801979150600101613b2a565b50909695505050505050565b613b70828251613a1f565b6000602082015160406020850152613aef6040850182613b03565b60006132428383613b65565b6000613ba1825190565b808452602084018094508160051b8101613bbb8560200190565b60005b84811015613b59578383038852613bd6838351613b8b565b925060208201602098909801979150600101613bbe565b613bf8828251613212565b60006020820151613c0c6020850182613212565b506040820151613c1f60408501826139ea565b506060820151613c326080850182613221565b506080820151613c4560a0850182613a07565b5060a0820151613c5860c0850182613a07565b5060c0820151613c6b60e0850182613a0f565b5060e0820151610120610100850152613aef610120850182613b97565b600481106103315761033161397d565b806139c681613c88565b600061320c82613c98565b61321b81613ca2565b63ffffffff811661321b565b613ccc8282613221565b5060200190565b6000613cdd825190565b808452602093840193830160005b82811015613d0e57613cfe868351613cc2565b9550602082019150600101613ceb565b5093949350505050565b600081516101008452613d2f610100850182613bed565b90506020830151613d436020860182613cad565b506040830151613d566040860182613cb6565b506060830151613d696060860182613a0f565b506080830151613d7c6080860182613221565b5060a0830151613d8f60a0860182613221565b5060c083015184820360c0860152613da78282613cd3565b91505060e083015184820360e0860152613dc18282613cd3565b95945050505050565b6020815260006132426020830184613d18565b6020810161320c8284613212565b600061320c826131f2565b61325281613deb565b80358061326981613df6565b600080600060608486031215613e2357613e23600080fd5b613e2d8585613dff565b9250613e3c856020860161325d565b91506139748560408601613276565b6020810161320c8284613a0f565b600060208284031215613e6e57613e6e600080fd5b813567ffffffffffffffff811115613e8857613e88600080fd5b613aef8482850161373c565b60008060408385031215613eaa57613eaa600080fd5b6132a28484613dff565b6020810161320c8284613a07565b7f4e487b7100000000000000000000000000000000000000000000000000000000600052603260045260246000fd5b7f4e487b7100000000000000000000000000000000000000000000000000000000600052602260045260246000fd5b600181811c908190831680613f3657607f821692505b602083108103613f4857613f48613ef1565b5050919050565b6020815260006132426020830184613a7b565b6020810161320c8284613221565b600481526000602082017f4f434f4d0000000000000000000000000000000000000000000000000000000081525b60200192915050565b60208152600061320c60208301613f70565b600281526000602082017f55520000000000000000000000000000000000000000000000000000000000008152613f9e565b60208152600061320c60208301613fb9565b60008260031b61402c7fffffffffffffffffffffffffffffffffffffffffffffffffffffffffffffffff821b90565b94901b84169319919091169290921792915050565b600061320c61404d8381565b90565b61406761405f61404d85614041565b838354613ffd565b90555050565b61032360008383614050565b818110156103235761408c60008261406d565b600101614079565b601f82111561044e57600081815260209020601f840160051c810160208510156140bb5750805b612fc7601f850160051c830182614079565b60006140fb7fffffffffffffffffffffffffffffffffffffffffffffffffffffffffffffffff8460031b1c90565b198216905092915050565b600061411283836140cd565b8360011b811791505092915050565b815167ffffffffffffffff81111561413b5761413b61332b565b61414f816141498454613f20565b84614094565b6020601f82116001811461417d576000831561416b5750848201515b6141758482614106565b855550612fc7565b6000848152602081207fffffffffffffffffffffffffffffffffffffffffffffffffffffffffffffffe08516915b828110156141cb57878501518255602094850194600190920191016141ab565b50848210156141e957838701516141e5601f8716826140cd565b8255505b50505050600190811b01905550565b7f4e487b7100000000000000000000000000000000000000000000000000000000600052601160045260246000fd5b600060ff821660ff810361423d5761423d6141f8565b60010192915050565b604081016142548285613a0f565b6132426020830184613314565b600281526000602082017f4e4f0000000000000000000000000000000000000000000000000000000000008152613f9e565b60208152600061320c60208301614261565b606081016142b38286613212565b6142c06020830185613212565b613aef60408301846139df565b80518061326981613249565b6000602082840312156142ee576142ee600080fd5b61324283836142cd565b805180613269816133e7565b63ffffffff8116613252565b80518061326981614304565b60006040828403121561433157614331600080fd5b61433b60406133a5565b80915061434884846142f8565b81526134528460208501614310565b60006080828403121561436c5761436c600080fd5b61437660406133a5565b809150614383848461431c565b8152613452846040850161431c565b6000608082840312156143a7576143a7600080fd5b6132428383614357565b63ffffffff82811682821601908190811115613269576132696141f8565b600281526000602082017f54450000000000000000000000000000000000000000000000000000000000008152613f9e565b60208152600061320c602083016143cf565b600281526000602082017f544c0000000000000000000000000000000000000000000000000000000000008152613f9e565b60208152600061320c60208301614413565b73ffffffffffffffffffffffffffffffffffffffff8116613252565b80518061326981614457565b6132528160020b90565b8051806132698161447f565b80518061326981613472565b805180613269816138eb565b8051806132698161345e565b600080600080600080600060e0888a0312156144d7576144d7600080fd5b6144e18989614473565b96506144f08960208a01614489565b95506144ff8960408a01614495565b945061450e8960608a01614495565b935061451d8960808a01614495565b925061452c8960a08a016144a1565b915061453b8960c08a016144ad565b905092959891949750929550565b6132528160130b90565b80518061326981614549565b600060a0828403121561457457614574600080fd5b61457e60a06133a5565b80915061458b84846144ad565b815261459a84602085016144ad565b60208201526145ac8460408501614310565b60408201526145be8460608501614473565b60608201526145d08460808501614553565b60808201525092915050565b600060a082840312156145f1576145f1600080fd5b613242838361455f565b601581526000602082017f726174696f206e6f7420696d706c656d656e74656400000000000000000000008152613f9e565b60208152600061320c602083016145fb565b818103818181811115614654576146546141f8565b505092915050565b818102818382600083127f800000000000000000000000000000000000000000000000000000000000000083141615614697576146976141f8565b82810582148315176146ab576146ab6141f8565b50505092915050565b7f4e487b7100000000000000000000000000000000000000000000000000000000600052601260045260246000fd5b60008183806146f4576146f46146b4565b7fffffffffffffffffffffffffffffffffffffffffffffffffffffffffffffffff81147f800000000000000000000000000000000000000000000000000000000000000083141615614748576147486141f8565b90059392505050565b8181016000821283821280158216821582161715614654576146546141f8565b600181526000602082017f4c000000000000000000000000000000000000000000000000000000000000008152613f9e565b60208152600061320c60208301614771565b600281526000602082017f4e490000000000000000000000000000000000000000000000000000000000008152613f9e565b60208152600061320c602083016147b5565b600281526000602082017f55430000000000000000000000000000000000000000000000000000000000008152613f9e565b60208152600061320c602083016147f9565b81810281838282158382048314176146ab576146ab6141f8565b6000818380614868576148686146b4565b90049392505050565b600881526000602082017f4f56455246494c4c0000000000000000000000000000000000000000000000008152613f9e565b60208152600061320c60208301614871565b600281526000602082017f54460000000000000000000000000000000000000000000000000000000000008152613f9e565b60208152600061320c602083016148b5565b818101818180821115614654576146546141f8565b6080810161491c8287613a0f565b6149296020830186613314565b6149366040830185613221565b613dc16060830184613221565b60006020828403121561495857614958600080fd5b61324283836144ad565b80518061326981613270565b60006020828403121561498357614983600080fd5b6132428383614962565b600381526000602082017f49494100000000000000000000000000000000000000000000000000000000008152613f9e565b60208152600061320c6020830161498d565b73ffffffffffffffffffffffffffffffffffffffff811661321b565b6149f8828251613212565b6020810151614a0a6020840182613212565b506040810151614a1d60408401826139df565b506060810151614a306060840182613212565b506080810151614a436080840182613221565b5060a0810151614a5660a0840182613221565b5060c0810151614a6960c0840182613221565b5060e081015161044e60e08401826149d1565b610100810161320c82846149ed565b600060033d111561404d5760046000803e5060005160e01c90565b600060443d1015614ab45790565b6040517ffffffffffffffffffffffffffffffffffffffffffffffffffffffffffffffffc3d016004823e80513d602482011167ffffffffffffffff82111715614afc57505090565b808201805167ffffffffffffffff811115614b18575050505090565b7ffffffffffffffffffffffffffffffffffffffffffffffffffffffffffffffffc3d8501016020828401011115614b50575050505090565b61352c6020828501018561335a565b67ffffffffffffffff82811682821601908190811115613269576132696141f8565b6000614b8b825190565b83614b9a828260208701613a57565b019392505050565b60006132428284614b81565b600281526000602082017f53410000000000000000000000000000000000000000000000000000000000008152613f9e565b60208152600061320c60208301614bae56fea26469706673582212204cf82481a51b5aeba98e93aaf50551304c3d1440ea1986dcfc34c4cc96a5b1ea64736f6c63430008160033a2646970667358221220b30441ecf3e8a20f3858f0d0ac65dcfe373f684b50a86dae9065f35d38d79b2e64736f6c63430008160033",
    "linkReferences": {}
  },
  "methodIdentifiers": {
    "deployVault()": "901c4e4f",
    "deployVault(address)": "5eb512e7",
    "deployVault(address,uint8)": "dd009fdc",
    "deployVault(uint8)": "1a48240f",
    "parameters()": "89035730"
  },
  "id": 61
}