{"abi":[{"type":"constructor","inputs":[{"name":"nfpm_","type":"address","internalType":"contract INonfungiblePositionManager"},{"name":"swapRouter_","type":"address","internalType":"contract ISwapRouter"}],"stateMutability":"nonpayable"},{"type":"function","name":"mirrorPool","inputs":[{"name":"info","type":"tuple","internalType":"struct MirrorEnv.PoolInfo","components":[{"name":"pool","type":"address","internalType":"contract IUniswapV3Pool"},{"name":"token0","type":"address","internalType":"contract IERC20Metadata"},{"name":"token1","type":"address","internalType":"contract IERC20Metadata"},{"name":"fee","type":"uint24","internalType":"uint24"},{"name":"sqrtPriceX96","type":"uint160","internalType":"uint160"},{"name":"amount0","type":"uint256","internalType":"uint256"},{"name":"amount1","type":"uint256","internalType":"uint256"}]}],"outputs":[{"name":"mock","type":"tuple","internalType":"struct MirrorEnv.MockPool","components":[{"name":"pool","type":"address","internalType":"contract IUniswapV3Pool"},{"name":"inverted","type":"bool","internalType":"bool"}]}],"stateMutability":"nonpayable"},{"type":"function","name":"mirrorPools","inputs":[{"name":"pool","type":"tuple[]","internalType":"struct MirrorEnv.PoolInfo[]","components":[{"name":"pool","type":"address","internalType":"contract IUniswapV3Pool"},{"name":"token0","type":"address","internalType":"contract IERC20Metadata"},{"name":"token1","type":"address","internalType":"contract IERC20Metadata"},{"name":"fee","type":"uint24","internalType":"uint24"},{"name":"sqrtPriceX96","type":"uint160","internalType":"uint160"},{"name":"amount0","type":"uint256","internalType":"uint256"},{"name":"amount1","type":"uint256","internalType":"uint256"}]}],"outputs":[{"name":"mock","type":"tuple[]","internalType":"struct MirrorEnv.MockPool[]","components":[{"name":"pool","type":"address","internalType":"contract IUniswapV3Pool"},{"name":"inverted","type":"bool","internalType":"bool"}]}],"stateMutability":"nonpayable"},{"type":"function","name":"mirrorToken","inputs":[{"name":"info","type":"tuple","internalType":"struct MirrorEnv.TokenInfo","components":[{"name":"addr","type":"address","internalType":"contract IERC20Metadata"},{"name":"name","type":"string","internalType":"string"},{"name":"symbol","type":"string","internalType":"string"},{"name":"decimals","type":"uint8","internalType":"uint8"}]}],"outputs":[{"name":"mock","type":"address","internalType":"contract MockERC20"}],"stateMutability":"nonpayable"},{"type":"function","name":"nfpm","inputs":[],"outputs":[{"name":"","type":"address","internalType":"contract INonfungiblePositionManager"}],"stateMutability":"view"},{"type":"function","name":"numPools","inputs":[],"outputs":[{"name":"","type":"uint256","internalType":"uint256"}],"stateMutability":"view"},{"type":"function","name":"numTokens","inputs":[],"outputs":[{"name":"","type":"uint256","internalType":"uint256"}],"stateMutability":"view"},{"type":"function","name":"poolKeys","inputs":[{"name":"","type":"uint256","internalType":"uint256"}],"outputs":[{"name":"","type":"address","internalType":"contract IUniswapV3Pool"}],"stateMutability":"view"},{"type":"function","name":"pools","inputs":[{"name":"","type":"address","internalType":"contract IUniswapV3Pool"}],"outputs":[{"name":"pool","type":"address","internalType":"contract IUniswapV3Pool"},{"name":"inverted","type":"bool","internalType":"bool"}],"stateMutability":"view"},{"type":"function","name":"swapRouter","inputs":[],"outputs":[{"name":"","type":"address","internalType":"contract ISwapRouter"}],"stateMutability":"view"},{"type":"function","name":"tokenKeys","inputs":[{"name":"","type":"uint256","internalType":"uint256"}],"outputs":[{"name":"","type":"address","internalType":"contract IERC20Metadata"}],"stateMutability":"view"},{"type":"function","name":"tokens","inputs":[{"name":"","type":"address","internalType":"contract IERC20Metadata"}],"outputs":[{"name":"","type":"address","internalType":"contract MockERC20"}],"stateMutability":"view"},{"type":"function","name":"updatePool","inputs":[{"name":"pool","type":"address","internalType":"contract IUniswapV3Pool"},{"name":"sqrtPriceX96","type":"uint160","internalType":"uint160"}],"outputs":[{"name":"mock","type":"tuple","internalType":"struct MirrorEnv.MockPool","components":[{"name":"pool","type":"address","internalType":"contract IUniswapV3Pool"},{"name":"inverted","type":"bool","internalType":"bool"}]}],"stateMutability":"nonpayable"},{"type":"function","name":"updatePools","inputs":[{"name":"infos","type":"tuple[]","internalType":"struct MirrorEnv.PoolUpdateInfo[]","components":[{"name":"pool","type":"address","internalType":"contract IUniswapV3Pool"},{"name":"sqrtPriceX96","type":"uint160","internalType":"uint160"}]}],"outputs":[{"name":"mock","type":"tuple[]","internalType":"struct MirrorEnv.MockPool[]","components":[{"name":"pool","type":"address","internalType":"contract IUniswapV3Pool"},{"name":"inverted","type":"bool","internalType":"bool"}]}],"stateMutability":"nonpayable"}],"bytecode":{"object":"0x60c03461009a57601f61308938819003918201601f19168301916001600160401b0383118484101761009e57808492604094855283398101031261009a578051906001600160a01b038216820361009a5760200151906001600160a01b038216820361009a5760805260a052604051612fd690816100b382396080518181816109fa0152610ec5015260a05181818161051a01526119130152f35b5f80fd5b634e487b7160e01b5f52604160045260245ffdfe60806040526004361015610011575f80fd5b5f3560e01c8063346692b714610a5957806335c62bc214610a1e5780637303e913146109b05780638e499bcf146109755780639949e04f14610879578063a4063dbc146107f4578063b4a14b151461053e578063c31c9c07146104d0578063c5abc9cd1461039c578063cc06fb3314610330578063e4102ad2146101b8578063e4860339146101405763fb218b23146100a8575f80fd5b3461013c5760407ffffffffffffffffffffffffffffffffffffffffffffffffffffffffffffffffc36011261013c576100df610b87565b6024359073ffffffffffffffffffffffffffffffffffffffff8216820361013c5760409161010c91611882565b61013a825180926020809173ffffffffffffffffffffffffffffffffffffffff815116845201511515910152565bf35b5f80fd5b3461013c5760207ffffffffffffffffffffffffffffffffffffffffffffffffffffffffffffffffc36011261013c5773ffffffffffffffffffffffffffffffffffffffff61018c610b87565b165f525f602052602073ffffffffffffffffffffffffffffffffffffffff60405f205416604051908152f35b3461013c5760207ffffffffffffffffffffffffffffffffffffffffffffffffffffffffffffffffc36011261013c5760043567ffffffffffffffff811161013c573660238201121561013c57806004013561021281610c3f565b916102206040519384610b46565b818352602460e06020850193028201019036821161013c57602401915b81831061029f578361024f81516117f6565b905f5b815181101561028d578061027161026b6001938561186e565b51610d00565b61027b828661186e565b52610286818561186e565b5001610252565b6040518061029b8582610c57565b0390f35b60e08336031261013c57604051906102b682610b2a565b6102bf84610baa565b82526102cd60208501610baa565b60208301526102de60408501610baa565b604083015260608401359062ffffff8216820361013c5782602092606060e095015261030c60808701610baa565b608082015260a086013560a082015260c086013560c082015281520192019161023d565b3461013c5760207ffffffffffffffffffffffffffffffffffffffffffffffffffffffffffffffffc36011261013c5760043560035481101561013c5773ffffffffffffffffffffffffffffffffffffffff61038c602092610af6565b90549060031b1c16604051908152f35b3461013c5760207ffffffffffffffffffffffffffffffffffffffffffffffffffffffffffffffffc36011261013c5760043567ffffffffffffffff811161013c573660238201121561013c5780600401356103f681610c3f565b916104046040519384610b46565b8183526024602084019260061b8201019036821161013c57602401915b818310610491578361043381516117f6565b905f5b815181101561028d578061047561044f6001938561186e565b5173ffffffffffffffffffffffffffffffffffffffff6020818351169201511690611882565b61047f828661186e565b5261048a818561186e565b5001610436565b60408336031261013c57602060409182516104ab81610b0e565b6104b486610baa565b81526104c1838701610baa565b83820152815201920191610421565b3461013c575f7ffffffffffffffffffffffffffffffffffffffffffffffffffffffffffffffffc36011261013c57602060405173ffffffffffffffffffffffffffffffffffffffff7f0000000000000000000000000000000000000000000000000000000000000000168152f35b3461013c5760207ffffffffffffffffffffffffffffffffffffffffffffffffffffffffffffffffc36011261013c5760043567ffffffffffffffff811161013c5760807ffffffffffffffffffffffffffffffffffffffffffffffffffffffffffffffffc823603011261013c57604051906080820182811067ffffffffffffffff8211176107bc576040526105d581600401610baa565b8252602481013567ffffffffffffffff811161013c576105fb9060043691840101610bcb565b9060208301918252604481013567ffffffffffffffff811161013c5761062960649160043691850101610bcb565b9160408501928352013560ff8116810361013c576060840190815273ffffffffffffffffffffffffffffffffffffffff8451165f525f60205273ffffffffffffffffffffffffffffffffffffffff60405f2054169283156106a6575b60208473ffffffffffffffffffffffffffffffffffffffff60405191168152f35b519151905160405193509091610e958085019260ff169167ffffffffffffffff8411868510176107bc5785946106ef6106fd9260409461210c89396060875260608701906117b3565b9085820360208701526117b3565b92015203905ff09081156107e95773ffffffffffffffffffffffffffffffffffffffff9082828251165f525f6020528260405f2091167fffffffffffffffffffffffff000000000000000000000000000000000000000082541617905551169060015491680100000000000000008310156107bc576107b261078784600160209601600155610ab1565b819391549073ffffffffffffffffffffffffffffffffffffffff809160031b9316831b921b19161790565b9055828080610685565b7f4e487b71000000000000000000000000000000000000000000000000000000005f52604160045260245ffd5b6040513d5f823e3d90fd5b3461013c5760207ffffffffffffffffffffffffffffffffffffffffffffffffffffffffffffffffc36011261013c5773ffffffffffffffffffffffffffffffffffffffff610840610b87565b165f5260026020526040805f205460ff82519173ffffffffffffffffffffffffffffffffffffffff8116835260a01c1615156020820152f35b3461013c5760e07ffffffffffffffffffffffffffffffffffffffffffffffffffffffffffffffffc36011261013c576040516108b481610b2a565b60043573ffffffffffffffffffffffffffffffffffffffff8116810361013c57815260243573ffffffffffffffffffffffffffffffffffffffff8116810361013c57602082015260443573ffffffffffffffffffffffffffffffffffffffff8116810361013c57604082015260643562ffffff8116810361013c57606082015260843573ffffffffffffffffffffffffffffffffffffffff8116810361013c578161010c916080604094015260a43560a082015260c43560c0820152610d00565b3461013c575f7ffffffffffffffffffffffffffffffffffffffffffffffffffffffffffffffffc36011261013c576020600154604051908152f35b3461013c575f7ffffffffffffffffffffffffffffffffffffffffffffffffffffffffffffffffc36011261013c57602060405173ffffffffffffffffffffffffffffffffffffffff7f0000000000000000000000000000000000000000000000000000000000000000168152f35b3461013c575f7ffffffffffffffffffffffffffffffffffffffffffffffffffffffffffffffffc36011261013c576020600354604051908152f35b3461013c5760207ffffffffffffffffffffffffffffffffffffffffffffffffffffffffffffffffc36011261013c5760043560015481101561013c5773ffffffffffffffffffffffffffffffffffffffff61038c6020925b600154811015610ac95760015f5260205f2001905f90565b7f4e487b71000000000000000000000000000000000000000000000000000000005f52603260045260245ffd5b600354811015610ac95760035f5260205f2001905f90565b6040810190811067ffffffffffffffff8211176107bc57604052565b60e0810190811067ffffffffffffffff8211176107bc57604052565b90601f7fffffffffffffffffffffffffffffffffffffffffffffffffffffffffffffffe0910116810190811067ffffffffffffffff8211176107bc57604052565b6004359073ffffffffffffffffffffffffffffffffffffffff8216820361013c57565b359073ffffffffffffffffffffffffffffffffffffffff8216820361013c57565b81601f8201121561013c5780359067ffffffffffffffff82116107bc5760405192610c1e60207fffffffffffffffffffffffffffffffffffffffffffffffffffffffffffffffe0601f8601160185610b46565b8284526020838301011161013c57815f926020809301838601378301015290565b67ffffffffffffffff81116107bc5760051b60200190565b60206040818301928281528451809452019201905f5b818110610c7a5750505090565b9091926020604082610cb160019488516020809173ffffffffffffffffffffffffffffffffffffffff815116845201511515910152565b019401929101610c6d565b60405190610cc982610b0e565b5f6020838281520152565b9081602091031261013c575173ffffffffffffffffffffffffffffffffffffffff8116810361013c5790565b90610d09610cbc565b5073ffffffffffffffffffffffffffffffffffffffff8251165f52600260205260405f209160405192610d3b84610b0e565b549260ff73ffffffffffffffffffffffffffffffffffffffff85169485835260a01c16151560208201529215610d6e5750565b90915073ffffffffffffffffffffffffffffffffffffffff6020820151165f525f60205273ffffffffffffffffffffffffffffffffffffffff60405f2054169173ffffffffffffffffffffffffffffffffffffffff6040830151165f525f60205273ffffffffffffffffffffffffffffffffffffffff60405f205416918284156117555780156116f75760a0820151621b13d1810290808204621b13d114901517156116ca576064900460c0830151621b13d1810290808204621b13d114901517156116ca5760649004958673ffffffffffffffffffffffffffffffffffffffff608086015116908483119788611654575b505060608501516040517f13ead56200000000000000000000000000000000000000000000000000000000815273ffffffffffffffffffffffffffffffffffffffff9384166004820152948316602486015262ffffff166044850152811660648401527f000000000000000000000000000000000000000000000000000000000000000016916020816084815f875af19081156107e95773ffffffffffffffffffffffffffffffffffffffff9182915f91611635575b501693604051610f2581610b0e565b858152602081019788528097838351165f526002602052838060405f20935116167fffffffffffffffffffffffff00000000000000000000000000000000000000008354161782555115157fffffffffffffffffffffff00ffffffffffffffffffffffffffffffffffffffff74ff000000000000000000000000000000000000000083549260a01b1691161790555116600354680100000000000000008110156107bc57610787816001610fdc9301600355610af6565b90557ffffffffffffffffffffffffffffffffffffffffffffffffffffffffffff276e091620d8920935f946040517f0dfe1681000000000000000000000000000000000000000000000000000000008152602081600481865afa80156107e95773ffffffffffffffffffffffffffffffffffffffff915f91611616575b5016986040517fd21220a7000000000000000000000000000000000000000000000000000000008152602081600481875afa80156107e95773ffffffffffffffffffffffffffffffffffffffff915f916115e7575b5016958a3b1561013c576040517f40c10f19000000000000000000000000000000000000000000000000000000008152306004820152602481018790525f818d8183816044810103925af180156107e9576115d2575b506040517f095ea7b300000000000000000000000000000000000000000000000000000000815273ffffffffffffffffffffffffffffffffffffffff86166004820152602481018790526020818d818c816044810103925af180156114e75761159b575b50863b15611597576040517f40c10f19000000000000000000000000000000000000000000000000000000008152306004820152602481018390528881604481838c5af180156114e757908991611582575b50506040517f095ea7b300000000000000000000000000000000000000000000000000000000815273ffffffffffffffffffffffffffffffffffffffff86166004820152602481018390526020816044818c8c5af180156114e75761154b575b50604051907fd0c93a7c000000000000000000000000000000000000000000000000000000008252602082600481885afa9182156114e75789926114fa575b508161126d60049695949361127393612059565b93612059565b90339333156114f2575b602090604051968780927fddca3f430000000000000000000000000000000000000000000000000000000082525afa9485156114e75789956114b6575b506040519661016088019c8d67ffffffffffffffff8a8210911117611489578a9b9c9d60409b9a9b52885260208801998a52604088019562ffffff168652606088019360020b8452608088019260020b835260a0880190815260c0880191825260e08801928984526101008901948a86526101208a019673ffffffffffffffffffffffffffffffffffffffff1687526101408a01974289526040519c8d9b7f88316456000000000000000000000000000000000000000000000000000000008d525173ffffffffffffffffffffffffffffffffffffffff1660048d01525173ffffffffffffffffffffffffffffffffffffffff1660248c01525162ffffff1660448b01525160020b60648a01525160020b60848901525160a48801525160c48701525160e4860152516101048501525173ffffffffffffffffffffffffffffffffffffffff1661012484015251610144830152815a9361016492608095f1801561147e57611426575050565b6080813d608011611476575b8161143f60809383610b46565b81010312611472578051916020820151906fffffffffffffffffffffffffffffffff8216820361146f5750505050565b80fd5b5080fd5b3d9150611432565b6040513d84823e3d90fd5b60248b7f4e487b710000000000000000000000000000000000000000000000000000000081526041600452fd5b6114d991955060203d6020116114e0575b6114d18183610b46565b81019061203e565b935f6112ba565b503d6114c7565b6040513d8b823e3d90fd5b30945061127d565b9091506020813d602011611543575b8161151660209383610b46565b8101031261153f5760049493929161126d61153361127393612014565b93949596505090611259565b8880fd5b3d9150611509565b6020813d60201161157a575b8161156460209383610b46565b8101031261153f5761157590612031565b61121a565b3d9150611557565b8161158c91610b46565b61159757875f6111ba565b8780fd5b6020813d6020116115ca575b816115b460209383610b46565b8101031261153f576115c590612031565b611168565b3d91506115a7565b6115df9198505f90610b46565b5f965f611104565b611609915060203d60201161160f575b6116018183610b46565b810190610cd4565b5f6110ae565b503d6115f7565b61162f915060203d60201161160f576116018183610b46565b5f611059565b61164e915060203d60201161160f576116018183610b46565b5f610f16565b939850919350909190801561169d5773ffffffffffffffffffffffffffffffffffffffff809178010000000000000000000000000000000000000000000000000416905f610e60565b7f4e487b71000000000000000000000000000000000000000000000000000000005f52601260045260245ffd5b7f4e487b71000000000000000000000000000000000000000000000000000000005f52601160045260245ffd5b60646040517f08c379a000000000000000000000000000000000000000000000000000000000815260206004820152601360248201527f746f6b656e31206e6f74206d6972726f726564000000000000000000000000006044820152fd5b60646040517f08c379a000000000000000000000000000000000000000000000000000000000815260206004820152601360248201527f746f6b656e30206e6f74206d6972726f726564000000000000000000000000006044820152fd5b907fffffffffffffffffffffffffffffffffffffffffffffffffffffffffffffffe0601f602080948051918291828752018686015e5f8582860101520116010190565b9061180082610c3f565b61180d6040519182610b46565b8281527fffffffffffffffffffffffffffffffffffffffffffffffffffffffffffffffe061183b8294610c3f565b01905f5b82811061184b57505050565b60209060405161185a81610b0e565b5f81525f838201528282850101520161183f565b8051821015610ac95760209160051b010190565b73ffffffffffffffffffffffffffffffffffffffff909291926118a3610cbc565b50165f52600260205260405f20604051906118bd82610b0e565b549273ffffffffffffffffffffffffffffffffffffffff84169384835260ff602084019160a01c161515815282941561198d5751611939575b73ffffffffffffffffffffffffffffffffffffffff6119379251167f0000000000000000000000000000000000000000000000000000000000000000611a5f565b565b73ffffffffffffffffffffffffffffffffffffffff1690811561169d579078010000000000000000000000000000000000000000000000000473ffffffffffffffffffffffffffffffffffffffff166118f6565b60646040517f08c379a000000000000000000000000000000000000000000000000000000000815260206004820152600c60248201527f6e6f74206d6972726f72656400000000000000000000000000000000000000006044820152fd5b9060020b9060020b01907fffffffffffffffffffffffffffffffffffffffffffffffffffffffffff8000008212627fffff8313176116ca57565b9060020b9060020b0390627fffff82137fffffffffffffffffffffffffffffffffffffffffffffffffffffffffff8000008312176116ca57565b92919073ffffffffffffffffffffffffffffffffffffffff5f9116604051927f3850c7bd00000000000000000000000000000000000000000000000000000000845260e084600481855afa9384156107e9575f94611f5a575b5073ffffffffffffffffffffffffffffffffffffffff9384169316838114611f52576040517f0dfe1681000000000000000000000000000000000000000000000000000000008152602081600481865afa80156107e95773ffffffffffffffffffffffffffffffffffffffff915f91611f33575b5016604051907fd21220a7000000000000000000000000000000000000000000000000000000008252602082600481875afa9182156107e95773ffffffffffffffffffffffffffffffffffffffff9283915f91611f14575b501683871115611f0c578382975b1015611f045750945b1695863b1561013c576040517f40c10f190000000000000000000000000000000000000000000000000000000081523060048201526c1000000000000000000000000060248201525f81604481838c5af180156107e957611edb575b5073ffffffffffffffffffffffffffffffffffffffff16916040517f095ea7b30000000000000000000000000000000000000000000000000000000081528360048201526c100000000000000000000000006024820152602081604481888c5af18015611ed057611e89575b5090602060049392604051948580927fddca3f430000000000000000000000000000000000000000000000000000000082525afa928315611e7e578493611e5d575b506040519261010084019784891067ffffffffffffffff8a1117611e3057859697986040528452602084019673ffffffffffffffffffffffffffffffffffffffff168752604084019062ffffff168152606084013381526080850142815260a08601916c10000000000000000000000000835260c087019388855260e088019586526040519a8b987f414bf389000000000000000000000000000000000000000000000000000000008a525173ffffffffffffffffffffffffffffffffffffffff1660048a01525173ffffffffffffffffffffffffffffffffffffffff1660248901525162ffffff1660448801525173ffffffffffffffffffffffffffffffffffffffff1660648701525160848601525160a48501525160c48401525173ffffffffffffffffffffffffffffffffffffffff1660e4830152815a9361010492602095f18015611e2357611df6575050565b6020823d602011611e1b575b81611e0f60209383610b46565b8101031261146f575050565b3d9150611e02565b50604051903d90823e3d90fd5b6024867f4e487b710000000000000000000000000000000000000000000000000000000081526041600452fd5b611e7791935060203d6020116114e0576114d18183610b46565b915f611ca5565b6040513d86823e3d90fd5b6020813d602011611ec8575b81611ea260209383610b46565b81010312611ec4576004939291611eba602092612031565b5091929350611c63565b8480fd5b3d9150611e95565b6040513d87823e3d90fd5b611ee89194505f90610b46565b5f9273ffffffffffffffffffffffffffffffffffffffff611bf7565b905094611b9b565b838197611b92565b611f2d915060203d60201161160f576116018183610b46565b5f611b84565b611f4c915060203d60201161160f576116018183610b46565b5f611b2c565b505050509050565b90935060e0813d60e01161200c575b81611f7660e09383610b46565b8101031261013c5780519073ffffffffffffffffffffffffffffffffffffffff8216820361013c57611faa60208201612014565b50611fb760408201612022565b50611fc460608201612022565b50611fd160808201612022565b5060a081015160ff81160361013c5773ffffffffffffffffffffffffffffffffffffffff9161200360c0849301612031565b50949150611ab8565b3d9150611f69565b51908160020b820361013c57565b519061ffff8216820361013c57565b5190811515820361013c57565b9081602091031261013c575162ffffff8116810361013c5790565b8060020b918060020b801561169d575f81850794125f146120d6578360020b7fffffffffffffffffffffffffffffffffffffffffffffffffffffffffff80000081146116ca576002905f03910560020b9060020b13155f146120c35750906120c091611a25565b90565b6120c0926120d0916119eb565b90611a25565b6002905f949394500560020b8260020b135f14612101576120c092916120fb91611a25565b906119eb565b506120c091611a2556fe60806040523461032f57610e958038038061001981610333565b92833981019060608183031261032f5780516001600160401b03811161032f5782610045918301610358565b60208201519092906001600160401b03811161032f57604091610069918401610358565b91015160ff811680910361032f5782516001600160401b038111610243575f54600181811c91168015610325575b602082101461022557601f81116102c3575b506020601f821160011461026257819293945f92610257575b50508160011b915f199060031b1c1916175f555b81516001600160401b03811161024357600154600181811c91168015610239575b602082101461022557601f81116101c2575b50602092601f821160011461016157928192935f92610156575b50508160011b915f199060031b1c1916176001555b60ff1960025416176002555f600355604051610aeb90816103aa8239f35b015190505f80610123565b601f1982169360015f52805f20915f5b8681106101aa5750836001959610610192575b505050811b01600155610138565b01515f1960f88460031b161c191690555f8080610184565b91926020600181928685015181550194019201610171565b60015f527fb10e2d527612073b26eecdfd717e6a320cf44b4afac2b0732d9fcbe2b7fa0cf6601f830160051c8101916020841061021b575b601f0160051c01905b8181106102105750610109565b5f8155600101610203565b90915081906101fa565b634e487b7160e01b5f52602260045260245ffd5b90607f16906100f7565b634e487b7160e01b5f52604160045260245ffd5b015190505f806100c2565b601f198216905f8052805f20915f5b8181106102ab57509583600195969710610293575b505050811b015f556100d6565b01515f1960f88460031b161c191690555f8080610286565b9192602060018192868b015181550194019201610271565b5f80527f290decd9548b62a8d60345a988386fc84ba6bc95484008f6362f93160ef3e563601f830160051c8101916020841061031b575b601f0160051c01905b81811061031057506100a9565b5f8155600101610303565b90915081906102fa565b90607f1690610097565b5f80fd5b6040519190601f01601f191682016001600160401b0381118382101761024357604052565b81601f8201121561032f578051906001600160401b03821161024357610387601f8301601f1916602001610333565b928284526020838301011161032f57815f9260208093018386015e830101529056fe60806040526004361015610011575f80fd5b5f3560e01c806306fdde03146107ae578063095ea7b31461070b57806318160ddd146106d057806323b872dd1461052f578063313ce567146104f157806340c10f191461045857806342966c68146103ca57806370a082311461036757806395d89b4114610172578063a9059cbb146101225763dd62ed3e14610092575f80fd5b3461011e5760407ffffffffffffffffffffffffffffffffffffffffffffffffffffffffffffffffc36011261011e576100c9610929565b73ffffffffffffffffffffffffffffffffffffffff6100e661094c565b91165f52600560205273ffffffffffffffffffffffffffffffffffffffff60405f2091165f52602052602060405f2054604051908152f35b5f80fd5b3461011e5760407ffffffffffffffffffffffffffffffffffffffffffffffffffffffffffffffffc36011261011e57602061016861015e610929565b60243590336109b6565b6040519015158152f35b3461011e575f7ffffffffffffffffffffffffffffffffffffffffffffffffffffffffffffffffc36011261011e576040515f600154908160011c6001831692831561035d575b6020821084146103305781855284939081156102d05750600114610256575b5003601f017fffffffffffffffffffffffffffffffffffffffffffffffffffffffffffffffe01681019067ffffffffffffffff821181831017610229576040829052819061022590826108e1565b0390f35b7f4e487b71000000000000000000000000000000000000000000000000000000005f52604160045260245ffd5b60015f90815291507fb10e2d527612073b26eecdfd717e6a320cf44b4afac2b0732d9fcbe2b7fa0cf65b8183106102b457505081016020017fffffffffffffffffffffffffffffffffffffffffffffffffffffffffffffffe06101d7565b6020919350806001915483858801015201910190918392610280565b7fffffffffffffffffffffffffffffffffffffffffffffffffffffffffffffff001660208581019190915291151560051b840190910191507fffffffffffffffffffffffffffffffffffffffffffffffffffffffffffffffe090506101d7565b7f4e487b71000000000000000000000000000000000000000000000000000000005f52602260045260245ffd5b90607f16906101b8565b3461011e5760207ffffffffffffffffffffffffffffffffffffffffffffffffffffffffffffffffc36011261011e5773ffffffffffffffffffffffffffffffffffffffff6103b3610929565b165f526004602052602060405f2054604051908152f35b3461011e5760207ffffffffffffffffffffffffffffffffffffffffffffffffffffffffffffffffc36011261011e57600435335f5260046020528060405f20541061011e57335f52600460205260405f2061042682825461096f565b905560405190815230907fddf252ad1be2c89b69c2b068fc378daa952ba7f163c4a11628f55a4df523b3ef60203392a3005b3461011e5760407ffffffffffffffffffffffffffffffffffffffffffffffffffffffffffffffffc36011261011e5761048f610929565b73ffffffffffffffffffffffffffffffffffffffff602435911690815f52600460205260405f206104c18282546109a9565b90556040519081527fddf252ad1be2c89b69c2b068fc378daa952ba7f163c4a11628f55a4df523b3ef60203092a3005b3461011e575f7ffffffffffffffffffffffffffffffffffffffffffffffffffffffffffffffffc36011261011e57602060ff60025416604051908152f35b3461011e5760607ffffffffffffffffffffffffffffffffffffffffffffffffffffffffffffffffc36011261011e57610566610929565b61056e61094c565b6044359073ffffffffffffffffffffffffffffffffffffffff831680330361059e575b60206101688484876109b6565b9190825f52600560205260405f2073ffffffffffffffffffffffffffffffffffffffff33165f5260205260405f205482116106725760209383610168945f526005865260405f2073ffffffffffffffffffffffffffffffffffffffff33165f5286527fffffffffffffffffffffffffffffffffffffffffffffffffffffffffffffffff60405f205403610636575b5093509091610591565b5f526005855260405f2073ffffffffffffffffffffffffffffffffffffffff33165f52855260405f2061066a84825461096f565b90558561062c565b60646040517f08c379a000000000000000000000000000000000000000000000000000000000815260206004820152601660248201527f496e73756666696369656e7420616c6c6f77616e6365000000000000000000006044820152fd5b3461011e575f7ffffffffffffffffffffffffffffffffffffffffffffffffffffffffffffffffc36011261011e576020600354604051908152f35b3461011e5760407ffffffffffffffffffffffffffffffffffffffffffffffffffffffffffffffffc36011261011e57610742610929565b73ffffffffffffffffffffffffffffffffffffffff60243591335f52600560205260405f208282165f526020528260405f205560405192835216907f8c5be1e5ebec7d5bd14f71427d1e84f3dd0314c0f7b2291e5b200ac8c7c3b92560203392a3602060405160018152f35b3461011e575f7ffffffffffffffffffffffffffffffffffffffffffffffffffffffffffffffffc36011261011e576040515f5f54908160011c600183169283156108d7575b6020821084146103305781855284939081156102d0575060011461085f575003601f017fffffffffffffffffffffffffffffffffffffffffffffffffffffffffffffffe01681019067ffffffffffffffff821181831017610229576040829052819061022590826108e1565b5f80805291507f290decd9548b62a8d60345a988386fc84ba6bc95484008f6362f93160ef3e5635b8183106108bb57505081016020017fffffffffffffffffffffffffffffffffffffffffffffffffffffffffffffffe06101d7565b6020919350806001915483858801015201910190918392610887565b90607f16906107f3565b7fffffffffffffffffffffffffffffffffffffffffffffffffffffffffffffffe0601f602060409481855280519182918282880152018686015e5f8582860101520116010190565b6004359073ffffffffffffffffffffffffffffffffffffffff8216820361011e57565b6024359073ffffffffffffffffffffffffffffffffffffffff8216820361011e57565b9190820391821161097c57565b7f4e487b71000000000000000000000000000000000000000000000000000000005f52601160045260245ffd5b9190820180921161097c57565b73ffffffffffffffffffffffffffffffffffffffff1690815f5260046020528260405f205410610a5757602073ffffffffffffffffffffffffffffffffffffffff7fddf252ad1be2c89b69c2b068fc378daa952ba7f163c4a11628f55a4df523b3ef92845f526004835260405f20610a2f87825461096f565b90551693845f526004825260405f20610a498282546109a9565b9055604051908152a3600190565b60646040517f08c379a000000000000000000000000000000000000000000000000000000000815260206004820152601460248201527f496e73756666696369656e742062616c616e63650000000000000000000000006044820152fdfea264697066735822122011ae5b6f32304d89084c4387145452b20b6b670016ed765ff943a1882840b0ea64736f6c634300081c0033a2646970667358221220d08d30f57ff207f7f9f71a67455ddd758a5c5f0a6463b64d4f24d83add48ad6f64736f6c634300081c0033","linkReferences":{}},"methodIdentifiers":{"mirrorPool((address,address,address,uint24,uint160,uint256,uint256))":"9949e04f","mirrorPools((address,address,address,uint24,uint160,uint256,uint256)[])":"e4102ad2","mirrorToken((address,string,string,uint8))":"b4a14b15","nfpm()":"7303e913","numPools()":"35c62bc2","numTokens()":"8e499bcf","poolKeys(uint256)":"cc06fb33","pools(address)":"a4063dbc","swapRouter()":"c31c9c07","tokenKeys(uint256)":"346692b7","tokens(address)":"e4860339","updatePool(address,uint160)":"fb218b23","updatePools((address,uint160)[])":"c5abc9cd"},"id":80}