{"abi":[{"type":"constructor","inputs":[],"stateMutability":"nonpayable"},{"type":"receive","stateMutability":"payable"},{"type":"function","name":"admin","inputs":[],"outputs":[{"name":"","type":"address","internalType":"address"}],"stateMutability":"view"},{"type":"function","name":"execute","inputs":[{"name":"id","type":"bytes16","internalType":"bytes16"},{"name":"req","type":"tuple","internalType":"struct Dexorder.ExecutionRequest","components":[{"name":"vault","type":"address","internalType":"address payable"},{"name":"orderIndex","type":"uint64","internalType":"uint64"},{"name":"trancheIndex","type":"uint8","internalType":"uint8"},{"name":"proof","type":"tuple","internalType":"struct PriceProof","components":[{"name":"proof","type":"uint256","internalType":"uint256"}]}]}],"outputs":[{"name":"error","type":"string","internalType":"string"}],"stateMutability":"nonpayable"},{"type":"function","name":"execute","inputs":[{"name":"id","type":"bytes16","internalType":"bytes16"},{"name":"reqs","type":"tuple[]","internalType":"struct Dexorder.ExecutionRequest[]","components":[{"name":"vault","type":"address","internalType":"address payable"},{"name":"orderIndex","type":"uint64","internalType":"uint64"},{"name":"trancheIndex","type":"uint8","internalType":"uint8"},{"name":"proof","type":"tuple","internalType":"struct PriceProof","components":[{"name":"proof","type":"uint256","internalType":"uint256"}]}]}],"outputs":[{"name":"errors","type":"string[]","internalType":"string[]"}],"stateMutability":"nonpayable"},{"type":"event","name":"DexorderExecutions","inputs":[{"name":"id","type":"bytes16","indexed":true,"internalType":"bytes16"},{"name":"errors","type":"string[]","indexed":false,"internalType":"string[]"}],"anonymous":false}],"bytecode":{"object":"0x60a0806040523460225760006080526109989081610028823960805181608c0152f35b600080fdfe6080604052600436101561001b575b361561001957600080fd5b005b60003560e01c806301efa5e51461035a578063f09e5827146100b55763f851a4400361000e57346100b05760007ffffffffffffffffffffffffffffffffffffffffffffffffffffffffffffffffc3601126100b057602060405173ffffffffffffffffffffffffffffffffffffffff7f0000000000000000000000000000000000000000000000000000000000000000168152f35b600080fd5b346100b05760407ffffffffffffffffffffffffffffffffffffffffffffffffffffffffffffffffc3601126100b0576100ec610562565b60243567ffffffffffffffff81116100b057366023820112156100b057806004013561011781610669565b9161012560405193846105c9565b8183526024602084019260071b820101903682116100b057602401915b8183106102975750505080517fffffffffffffffffffffffffffffffffffffffffffffffffffffffffffffffe061019161017b83610669565b9261018960405194856105c9565b808452610669565b0160005b81811061028657505060005b825160ff82169081101561021b57906101da826101c96101c360ff958861073b565b51610803565b6101d3828761073b565b528461073b565b501660ff81146101ec576001016101a1565b7f4e487b7100000000000000000000000000000000000000000000000000000000600052601160045260246000fd5b61028283867f15feb66d72284d4a0e80f76082f237f0dff281916db7a735e31b8236fb40c3ad7fffffffffffffffffffffffffffffffff00000000000000000000000000000000604051921691806102738582610681565b0390a260405191829182610681565b0390f35b806060602080938601015201610195565b600083360390608082126103575750604051906102b382610591565b843573ffffffffffffffffffffffffffffffffffffffff811681036100b0578252602085013567ffffffffffffffff811681036100b0576020830152604085013560ff811681036100b0576020917fffffffffffffffffffffffffffffffffffffffffffffffffffffffffffffffa091604085015201126100b057608091602091604051610340816105ad565b606087013581526060820152815201920191610142565b80fd5b346100b05760a07ffffffffffffffffffffffffffffffffffffffffffffffffffffffffffffffffc3601126100b057610391610562565b60807fffffffffffffffffffffffffffffffffffffffffffffffffffffffffffffffdc3601126100b0576040516103c781610591565b60243573ffffffffffffffffffffffffffffffffffffffff811681036100b057815260443567ffffffffffffffff811681036100b057602082015260643560ff811681036100b057604082015260207fffffffffffffffffffffffffffffffffffffffffffffffffffffffffffffff7c3601126100b05761045d9060405161044e816105ad565b60843581526060820152610803565b60408051929061046d81856105c9565b600184527fffffffffffffffffffffffffffffffffffffffffffffffffffffffffffffffe00160005b8181106105225761028284867f15feb66d72284d4a0e80f76082f237f0dff281916db7a735e31b8236fb40c3ad7fffffffffffffffffffffffffffffffff0000000000000000000000000000000087846104ef856106ff565b526104f9846106ff565b5061050b604051928392169482610681565b0390a260405191829160208352602083019061060a565b806060602080938801015201610496565b7f4e487b7100000000000000000000000000000000000000000000000000000000600052604160045260246000fd5b600435907fffffffffffffffffffffffffffffffff00000000000000000000000000000000821682036100b057565b6080810190811067ffffffffffffffff82111761053357604052565b6020810190811067ffffffffffffffff82111761053357604052565b90601f7fffffffffffffffffffffffffffffffffffffffffffffffffffffffffffffffe0910116810190811067ffffffffffffffff82111761053357604052565b919082519283825260005b8481106106545750507fffffffffffffffffffffffffffffffffffffffffffffffffffffffffffffffe0601f8460006020809697860101520116010190565b80602080928401015182828601015201610615565b67ffffffffffffffff81116105335760051b60200190565b602081016020825282518091526040820191602060408360051b8301019401926000915b8383106106b457505050505090565b90919293946020806106f0837fffffffffffffffffffffffffffffffffffffffffffffffffffffffffffffffc08660019603018752895161060a565b970193019301919392906106a5565b80511561070c5760200190565b7f4e487b7100000000000000000000000000000000000000000000000000000000600052603260045260246000fd5b805182101561070c5760209160051b010190565b600060443d106107f2576040517ffffffffffffffffffffffffffffffffffffffffffffffffffffffffffffffffc3d016004823e8051913d602484011167ffffffffffffffff8411176107fd578282019283519167ffffffffffffffff83116107f5577ffffffffffffffffffffffffffffffffffffffffffffffffffffffffffffffffc3d850101602084870101116107f557506107f2929101602001906105c9565b90565b949350505050565b92915050565b90606091805173ffffffffffffffffffffffffffffffffffffffff600091169167ffffffffffffffff602082015116606060ff60408401511692015193803b1561095e578392918360649260405197889586947f6e98833d000000000000000000000000000000000000000000000000000000008652600486015260248501525160448401525af1918261094e575b50906109385760018160033d11610928575b6308c379a0146108c2575b6108b65750565b604051903d90823e3d90fd5b6108ca61074f565b806108d6575b506108af565b93505080928051156108ea575b92386108d0565b506040516108f96040826105c9565b600381527f554e4b000000000000000000000000000000000000000000000000000000000060208201526108e3565b50600482803e815160e01c6108a4565b6040519192506109496020836105c9565b815290565b81610958916105c9565b38610892565b8380fdfea2646970667358221220b49def69af64cfe4449fdd8d86461af0154cd2f293e5ada3b4e81e430272e56364736f6c634300081a0033","linkReferences":{}},"methodIdentifiers":{"admin()":"f851a440","execute(bytes16,(address,uint64,uint8,(uint256)))":"01efa5e5","execute(bytes16,(address,uint64,uint8,(uint256))[])":"f09e5827"},"id":74}