{"abi":[{"type":"constructor","inputs":[],"stateMutability":"nonpayable"},{"type":"receive","stateMutability":"payable"},{"type":"function","name":"admin","inputs":[],"outputs":[{"name":"","type":"address","internalType":"address"}],"stateMutability":"view"},{"type":"function","name":"execute","inputs":[{"name":"id","type":"bytes16","internalType":"bytes16"},{"name":"req","type":"tuple","internalType":"struct Dexorder.ExecutionRequest","components":[{"name":"vault","type":"address","internalType":"address payable"},{"name":"orderIndex","type":"uint64","internalType":"uint64"},{"name":"trancheIndex","type":"uint8","internalType":"uint8"},{"name":"proof","type":"tuple","internalType":"struct PriceProof","components":[{"name":"proof","type":"uint256","internalType":"uint256"}]}]}],"outputs":[{"name":"error","type":"string","internalType":"string"}],"stateMutability":"nonpayable"},{"type":"function","name":"execute","inputs":[{"name":"id","type":"bytes16","internalType":"bytes16"},{"name":"reqs","type":"tuple[]","internalType":"struct Dexorder.ExecutionRequest[]","components":[{"name":"vault","type":"address","internalType":"address payable"},{"name":"orderIndex","type":"uint64","internalType":"uint64"},{"name":"trancheIndex","type":"uint8","internalType":"uint8"},{"name":"proof","type":"tuple","internalType":"struct PriceProof","components":[{"name":"proof","type":"uint256","internalType":"uint256"}]}]}],"outputs":[{"name":"errors","type":"string[]","internalType":"string[]"}],"stateMutability":"nonpayable"},{"type":"function","name":"multisend","inputs":[{"name":"recipients","type":"address[]","internalType":"address[]"},{"name":"amounts","type":"uint256[]","internalType":"uint256[]"}],"outputs":[],"stateMutability":"nonpayable"},{"type":"event","name":"DexorderExecutions","inputs":[{"name":"id","type":"bytes16","indexed":true,"internalType":"bytes16"},{"name":"errors","type":"string[]","indexed":false,"internalType":"string[]"}],"anonymous":false}],"bytecode":{"object":"0x60a080604052346021575f608052610cb1908161002682396080518160940152f35b5f80fdfe6080604052600436101561001a575b3615610018575f80fd5b005b5f3560e01c806301efa5e5146106c3578063aad41a4114610356578063f09e5827146100bc5763f851a4400361000e57346100b8575f7ffffffffffffffffffffffffffffffffffffffffffffffffffffffffffffffffc3601126100b857602060405173ffffffffffffffffffffffffffffffffffffffff7f0000000000000000000000000000000000000000000000000000000000000000168152f35b5f80fd5b346100b85760407ffffffffffffffffffffffffffffffffffffffffffffffffffffffffffffffffc3601126100b8576100f361089b565b60243567ffffffffffffffff81116100b857366023820112156100b857806004013561011e81610986565b9161012c6040519384610902565b8183526024602084019260071b820101903682116100b857602401915b81831061029a5750505080517fffffffffffffffffffffffffffffffffffffffffffffffffffffffffffffffe061019861018283610986565b926101906040519485610902565b808452610986565b015f5b8181106102895750505f5b825160ff82169081101561021e57906101df826101ce6101c860ff9588610a55565b51610b1c565b6101d88287610a55565b5284610a55565b501660ff81146101f1576001016101a6565b7f4e487b71000000000000000000000000000000000000000000000000000000005f52601160045260245ffd5b61028583867f15feb66d72284d4a0e80f76082f237f0dff281916db7a735e31b8236fb40c3ad7fffffffffffffffffffffffffffffffff0000000000000000000000000000000060405192169180610276858261099e565b0390a26040519182918261099e565b0390f35b80606060208093860101520161019b565b823603608081126100b857604051906102b2826108ca565b843573ffffffffffffffffffffffffffffffffffffffff811681036100b8578252602085013567ffffffffffffffff811681036100b8576020830152604085013560ff811681036100b8576020917fffffffffffffffffffffffffffffffffffffffffffffffffffffffffffffffa091604085015201126100b85760809160209160405161033f816108e6565b606087013581526060820152815201920191610149565b346100b85760407ffffffffffffffffffffffffffffffffffffffffffffffffffffffffffffffffc3601126100b85760043567ffffffffffffffff81116100b857366023820112156100b85780600401356103b081610986565b916103be6040519384610902565b8183526024602084019260051b820101903682116100b857602401915b818310610696578360243567ffffffffffffffff81116100b857366023820112156100b85780600401359061040f82610986565b9161041d6040519384610902565b8083526024602084019160051b830101913683116100b857602401905b828210610686575050508151815103610602575f5b82518110156100185773ffffffffffffffffffffffffffffffffffffffff6104778285610a55565b5116156105a4575f80808073ffffffffffffffffffffffffffffffffffffffff6104a18689610a55565b51166104ad8688610a55565b51905af13d1561059f573d67ffffffffffffffff811161057257604051906104fd601f82017fffffffffffffffffffffffffffffffffffffffffffffffffffffffffffffffe01660200183610902565b81525f60203d92013e5b156105145760010161044f565b60646040517f08c379a000000000000000000000000000000000000000000000000000000000815260206004820152600f60248201527f7472616e73666572206661696c656400000000000000000000000000000000006044820152fd5b7f4e487b71000000000000000000000000000000000000000000000000000000005f52604160045260245ffd5b610507565b60646040517f08c379a000000000000000000000000000000000000000000000000000000000815260206004820152602060248201527f726563697069656e742063616e6e6f74206265207a65726f20616464726573736044820152fd5b60846040517f08c379a000000000000000000000000000000000000000000000000000000000815260206004820152603460248201527f726563697069656e74735b5d20616e6420616d6f756e74735b5d206d7573742060448201527f68617665207468652073616d65206c656e6774680000000000000000000000006064820152fd5b813581526020918201910161043a565b823573ffffffffffffffffffffffffffffffffffffffff811681036100b8578152602092830192016103db565b346100b85760a07ffffffffffffffffffffffffffffffffffffffffffffffffffffffffffffffffc3601126100b8576106fa61089b565b60807fffffffffffffffffffffffffffffffffffffffffffffffffffffffffffffffdc3601126100b857604051610730816108ca565b60243573ffffffffffffffffffffffffffffffffffffffff811681036100b857815260443567ffffffffffffffff811681036100b857602082015260643560ff811681036100b857604082015260207fffffffffffffffffffffffffffffffffffffffffffffffffffffffffffffff7c3601126100b8576107c6906040516107b7816108e6565b60843581526060820152610b1c565b6040805192906107d68185610902565b600184527fffffffffffffffffffffffffffffffffffffffffffffffffffffffffffffffe0015f5b81811061088a5761028584867f15feb66d72284d4a0e80f76082f237f0dff281916db7a735e31b8236fb40c3ad7fffffffffffffffffffffffffffffffff00000000000000000000000000000000878461085785610a1b565b5261086184610a1b565b5061087360405192839216948261099e565b0390a2604051918291602083526020830190610943565b8060606020809388010152016107fe565b600435907fffffffffffffffffffffffffffffffff00000000000000000000000000000000821682036100b857565b6080810190811067ffffffffffffffff82111761057257604052565b6020810190811067ffffffffffffffff82111761057257604052565b90601f7fffffffffffffffffffffffffffffffffffffffffffffffffffffffffffffffe0910116810190811067ffffffffffffffff82111761057257604052565b907fffffffffffffffffffffffffffffffffffffffffffffffffffffffffffffffe0601f602080948051918291828752018686015e5f8582860101520116010190565b67ffffffffffffffff81116105725760051b60200190565b602081016020825282518091526040820191602060408360051b8301019401925f915b8383106109d057505050505090565b9091929394602080610a0c837fffffffffffffffffffffffffffffffffffffffffffffffffffffffffffffffc086600196030187528951610943565b970193019301919392906109c1565b805115610a285760200190565b7f4e487b71000000000000000000000000000000000000000000000000000000005f52603260045260245ffd5b8051821015610a285760209160051b010190565b5f60443d10610b0b576040517ffffffffffffffffffffffffffffffffffffffffffffffffffffffffffffffffc3d016004823e8051913d602484011167ffffffffffffffff841117610b16578282019283519167ffffffffffffffff8311610b0e577ffffffffffffffffffffffffffffffffffffffffffffffffffffffffffffffffc3d85010160208487010111610b0e5750610b0b92910160200190610902565b90565b949350505050565b92915050565b9060609180519073ffffffffffffffffffffffffffffffffffffffff5f92169067ffffffffffffffff60208201511690606060ff60408301511691015192803b156100b8575f928360649260405196879586947f6e98833d000000000000000000000000000000000000000000000000000000008652600486015260248501525160448401525af19081610c66575b50610c505760018160033d11610c40575b6308c379a014610bda575b610bce5750565b604051903d90823e3d90fd5b610be2610a69565b80610bee575b50610bc7565b9350508092805115610c02575b925f610be8565b50604051610c11604082610902565b600381527f554e4b00000000000000000000000000000000000000000000000000000000006020820152610bfb565b50600482803e815160e01c610bbc565b604051919250610c61602083610902565b815290565b610c739192505f90610902565b5f905f610bab56fea2646970667358221220517b3b3449fea3f9e15f94bcd352baf44f8cb8bf20fe0426c92712653bcf21e364736f6c634300081a0033","linkReferences":{}},"methodIdentifiers":{"admin()":"f851a440","execute(bytes16,(address,uint64,uint8,(uint256)))":"01efa5e5","execute(bytes16,(address,uint64,uint8,(uint256))[])":"f09e5827","multisend(address[],uint256[])":"aad41a41"},"id":75}