{
  "abi": [
    {
      "inputs": [
        {
          "internalType": "int24",
          "name": "tick",
          "type": "int24"
        },
        {
          "internalType": "int24",
          "name": "window",
          "type": "int24"
        }
      ],
      "name": "roundTick",
      "outputs": [
        {
          "internalType": "int24",
          "name": "",
          "type": "int24"
        }
      ],
      "stateMutability": "pure",
      "type": "function"
    }
  ],
  "bytecode": {
    "object": "0x6103a761003a600b82828239805160001a60731461002d57634e487b7160e01b600052600060045260246000fd5b30600052607381538281f3fe73000000000000000000000000000000000000000030146080604052600436106100355760003560e01c806397fd6da71461003a575b600080fd5b61004d61004836600461012a565b610063565b60405161005a9190610172565b60405180910390f35b60008061007083856101af565b905060008460020b12156100c95761008960028461020a565b60020b6100958261028a565b60020b13156100b7576100a881846102ce565b6100b2908561031f565b6100c1565b6100c1818561031f565b915050610100565b6100d460028461020a565b60020b8160020b136100ea576100b2818561031f565b6100f4818461031f565b6100c190856102ce565b505b92915050565b6101108160020b90565b811461011b57600080fd5b50565b8035806100fe81610106565b6000806040838503121561014057610140600080fd5b61014a848461011e565b9150610159846020850161011e565b90509250929050565b61016c8160020b90565b82525050565b602081016101008284610162565b7f4e487b7100000000000000000000000000000000000000000000000000000000600052601260045260246000fd5b60006101bb8260020b90565b6101c58460020b90565b806101d2576101d2610180565b90079392505050565b7f4e487b7100000000000000000000000000000000000000000000000000000000600052601160045260246000fd5b60006102168260020b90565b6102208460020b90565b8061022d5761022d610180565b7fffffffffffffffffffffffffffffffffffffffffffffffffffffffffffffffff81147fffffffffffffffffffffffffffffffffffffffffffffffffffffffffff80000083141615610281576102816101db565b90059392505050565b60006102968260020b90565b7fffffffffffffffffffffffffffffffffffffffffffffffffffffffffff80000081036102c5576102c56101db565b60000392915050565b60006102da8260020b90565b6102e48460020b90565b01905080627fffff81137fffffffffffffffffffffffffffffffffffffffffffffffffffffffffff800000821217156100fe576100fe6101db565b600061032b8260020b90565b6103358460020b90565b90039050807fffffffffffffffffffffffffffffffffffffffffffffffffffffffffff8000008112627fffff821317156100fe576100fe6101db56fea2646970667358221220be582b7790b0dd5891fafeb05a05cb82784990891eb12728aa69c5903ca0d6e164736f6c63430008160033",
    "linkReferences": {}
  },
  "methodIdentifiers": {
    "roundTick(int24,int24)": "97fd6da7"
  },
  "id": 57
}