{"abi":[{"type":"function","name":"FAR_LOWER_TICK","inputs":[],"outputs":[{"name":"","type":"int24","internalType":"int24"}],"stateMutability":"view"},{"type":"function","name":"FAR_UPPER_TICK","inputs":[],"outputs":[{"name":"","type":"int24","internalType":"int24"}],"stateMutability":"view"}],"bytecode":{"object":"0x6080806040523460185760ee908161001d823930815050f35b5f80fdfe60808060405260043610156011575f80fd5b5f3560e01c9081637dcb2808146085575063ecd1c1cc14602f575f80fd5b5f7ffffffffffffffffffffffffffffffffffffffffffffffffffffffffffffffffc36011260815760206040517ffffffffffffffffffffffffffffffffffffffffffffffffffffffffffff276e08152f35b5f80fd5b5f7ffffffffffffffffffffffffffffffffffffffffffffffffffffffffffffffffc36011260815780620d892060209252f3fea2646970667358221220395913cbbeb27072624a4f3a2407b71eaf5749f3d4875d0d6a27af34811d4c6a64736f6c634300081a0033","linkReferences":{}},"methodIdentifiers":{"FAR_LOWER_TICK()":"ecd1c1cc","FAR_UPPER_TICK()":"7dcb2808"},"id":82}