{
  "abi": [
    {
      "inputs": [],
      "name": "UNKNOWN_DECIMALS",
      "outputs": [
        {
          "internalType": "uint8",
          "name": "",
          "type": "uint8"
        }
      ],
      "stateMutability": "view",
      "type": "function"
    },
    {
      "inputs": [
        {
          "internalType": "address",
          "name": "vault",
          "type": "address"
        },
        {
          "internalType": "address[]",
          "name": "tokens",
          "type": "address[]"
        }
      ],
      "name": "getBalances",
      "outputs": [
        {
          "internalType": "uint256[]",
          "name": "balances",
          "type": "uint256[]"
        },
        {
          "internalType": "uint256[]",
          "name": "decimals",
          "type": "uint256[]"
        }
      ],
      "stateMutability": "view",
      "type": "function"
    },
    {
      "inputs": [
        {
          "internalType": "address",
          "name": "tokenA",
          "type": "address"
        },
        {
          "internalType": "address",
          "name": "tokenB",
          "type": "address"
        }
      ],
      "name": "getRoutes",
      "outputs": [
        {
          "components": [
            {
              "internalType": "enum OrderLib.Exchange",
              "name": "exchange",
              "type": "uint8"
            },
            {
              "internalType": "uint24",
              "name": "fee",
              "type": "uint24"
            },
            {
              "internalType": "address",
              "name": "pool",
              "type": "address"
            }
          ],
          "internalType": "struct QueryHelper.RoutesResult[]",
          "name": "routes",
          "type": "tuple[]"
        }
      ],
      "stateMutability": "view",
      "type": "function"
    },
    {
      "inputs": [
        {
          "internalType": "contract IUniswapV3Pool",
          "name": "pool",
          "type": "address"
        }
      ],
      "name": "poolStatus",
      "outputs": [
        {
          "internalType": "int24",
          "name": "tick",
          "type": "int24"
        },
        {
          "internalType": "uint128",
          "name": "liquidity",
          "type": "uint128"
        }
      ],
      "stateMutability": "view",
      "type": "function"
    },
    {
      "inputs": [],
      "name": "version",
      "outputs": [
        {
          "internalType": "uint8",
          "name": "",
          "type": "uint8"
        }
      ],
      "stateMutability": "view",
      "type": "function"
    }
  ],
  "bytecode": {
    "object": "0x608060405234801561001057600080fd5b50611299806100206000396000f3fe608060405234801561001057600080fd5b50600436106100675760003560e01c80636a385ae9116100505780636a385ae9146100ab578063b8df9780146100cc578063d85c32c7146100d457600080fd5b80633c38ccbb1461006c57806354fd4d5014610096575b600080fd5b61007f61007a366004610b21565b6100f4565b60405161008d929190610b6f565b60405180910390f35b61009e600181565b60405161008d9190610b93565b6100be6100b9366004610cf4565b610206565b60405161008d929190610da5565b61009e60ff81565b6100e76100e2366004610dd3565b6104c8565b60405161008d9190610f02565b6000808273ffffffffffffffffffffffffffffffffffffffff16633850c7bd6040518163ffffffff1660e01b815260040160e060405180830381865afa158015610142573d6000803e3d6000fd5b505050506040513d601f19601f820116820180604052508101906101669190610f92565b5050604080517f1a686502000000000000000000000000000000000000000000000000000000008152905194975073ffffffffffffffffffffffffffffffffffffffff89169550631a686502946004808301955060209450909250908290030181865afa1580156101db573d6000803e3d6000fd5b505050506040513d601f19601f820116820180604052508101906101ff9190611046565b9050915091565b60608061ffff801683511061021a57600080fd5b825167ffffffffffffffff81111561023457610234610bb6565b60405190808252806020026020018201604052801561025d578160200160208202803683370190505b509150825167ffffffffffffffff81111561027a5761027a610bb6565b6040519080825280602002602001820160405280156102a3578160200160208202803683370190505b50905060005b83518161ffff1610156104c057838161ffff16815181106102cc576102cc611065565b602002602001015173ffffffffffffffffffffffffffffffffffffffff166370a08231866040518263ffffffff1660e01b815260040161030c9190611094565b602060405180830381865afa925050508015610363575060408051601f3d9081017fffffffffffffffffffffffffffffffffffffffffffffffffffffffffffffffe0168201909252610360918101906110b4565b60015b610390576000838261ffff168151811061037f5761037f611065565b6020026020010181815250506103b5565b80848361ffff16815181106103a7576103a7611065565b602002602001018181525050505b838161ffff16815181106103cb576103cb611065565b602002602001015173ffffffffffffffffffffffffffffffffffffffff1663313ce5676040518163ffffffff1660e01b8152600401602060405180830381865afa925050508015610457575060408051601f3d9081017fffffffffffffffffffffffffffffffffffffffffffffffffffffffffffffffe0168201909252610454918101906110d3565b60015b6104865760ff8016828261ffff168151811061047557610475611065565b6020026020010181815250506104ae565b8060ff16838361ffff16815181106104a0576104a0611065565b602002602001018181525050505b806104b881611121565b9150506102a9565b509250929050565b60606105086040518060400160405280600981526020017f676574526f7574657300000000000000000000000000000000000000000000008152506108fe565b61051183610990565b61051a82610990565b60408051608081018252606481526101f46020820152610bb8918101919091526127106060820152600080808087815b60048160ff1610156107aa576105946040518060400160405280600981526020017f676574506f6f6c2e2e00000000000000000000000000000000000000000000008152506108fe565b6000878260ff16600481106105ab576105ab611065565b60200201516040517f1698ee82000000000000000000000000000000000000000000000000000000008152909150600090731f98431c8ad98523631ae4a59f267346ea31f98490631698ee829061060a908f908f908790600401611142565b602060405180830381865afa158015610627573d6000803e3d6000fd5b505050506040513d601f19601f8201168201806040525081019061064b919061117e565b905073ffffffffffffffffffffffffffffffffffffffff81166106ad576106a66040518060400160405280600781526020017f6e6f20706f6f6c000000000000000000000000000000000000000000000000008152506108fe565b50506107a2565b6106eb6040518060400160405280600881526020017f676f74506f6f6c2e0000000000000000000000000000000000000000000000008152506108fe565b6106f481610990565b6040517f70a0823100000000000000000000000000000000000000000000000000000000815260009073ffffffffffffffffffffffffffffffffffffffff8616906370a0823190610749908590600401611094565b602060405180830381865afa158015610766573d6000803e3d6000fd5b505050506040513d601f19601f8201168201806040525081019061078a91906110b4565b90508681111561079e578297508096508195505b5050505b60010161054a565b506000808562ffffff16116107dd5760006107c5878261119d565b62ffffff16116107d65760006107e0565b60016107e0565b60015b90506107eb83610990565b6107f78160ff16610a1f565b8060ff1667ffffffffffffffff81111561081357610813610bb6565b60405190808252806020026020018201604052801561087c57816020015b60408051606081018252600080825260208083018290529282015282527fffffffffffffffffffffffffffffffffffffffffffffffffffffffffffffffff9092019101816108315790505b509750600062ffffff8616156108f0576040805160608101909152806001815262ffffff8816602082015273ffffffffffffffffffffffffffffffffffffffff861660409091015289826108cf816111ba565b935060ff16815181106108e4576108e4611065565b60200260200101819052505b505050505050505092915050565b61098d816040516024016109129190611242565b604080517fffffffffffffffffffffffffffffffffffffffffffffffffffffffffffffffe08184030181529190526020810180517bffffffffffffffffffffffffffffffffffffffffffffffffffffffff167f41304fac00000000000000000000000000000000000000000000000000000000179052610aaa565b50565b61098d816040516024016109a49190611094565b604080517fffffffffffffffffffffffffffffffffffffffffffffffffffffffffffffffe08184030181529190526020810180517bffffffffffffffffffffffffffffffffffffffffffffffffffffffff167f2c2ecbc200000000000000000000000000000000000000000000000000000000179052610aaa565b61098d81604051602401610a339190611255565b604080517fffffffffffffffffffffffffffffffffffffffffffffffffffffffffffffffe08184030181529190526020810180517bffffffffffffffffffffffffffffffffffffffffffffffffffffffff167ff82c50f1000000000000000000000000000000000000000000000000000000001790525b61098d8180516a636f6e736f6c652e6c6f67602083016000808483855afa5050505050565b600073ffffffffffffffffffffffffffffffffffffffff82165b92915050565b6000610ae982610acf565b610b0381610aef565b811461098d57600080fd5b803580610b1a81610afa565b5092915050565b600060208284031215610b3657610b36600080fd5b610b408383610b0e565b9392505050565b610b518160020b90565b82525050565b6fffffffffffffffffffffffffffffffff8116610b51565b60408101610b7d8285610b47565b610b406020830184610b57565b60ff8116610b51565b60208101610ae98284610b8a565b610b0381610acf565b803580610b1a81610ba1565b7f4e487b7100000000000000000000000000000000000000000000000000000000600052604160045260246000fd5b7fffffffffffffffffffffffffffffffffffffffffffffffffffffffffffffffe0601f830116810181811067ffffffffffffffff82111715610c2957610c29610bb6565b6040525050565b6000610c3b60405190565b809150610c488382610be5565b50919050565b600067ffffffffffffffff821115610c6857610c68610bb6565b5060051b60200190565b6000610c85610c8084610c4e565b610c30565b8381529050600583901b82016020820185821115610ca557610ca5600080fd5b835b82811015610cc757610cb98782610baa565b825260209182019101610ca7565b5050509392505050565b600082601f830112610ce557610ce5600080fd5b610b4083833560208501610c72565b60008060408385031215610d0a57610d0a600080fd5b610d148484610baa565b9150602083013567ffffffffffffffff811115610d3357610d33600080fd5b610d3f85828601610cd1565b9150509250929050565b80610b51565b610d598282610d49565b5060200190565b6000610d6a825190565b808452602093840193830160005b82811015610d9b57610d8b868351610d4f565b9550602082019150600101610d78565b5093949350505050565b604081526000610db86040830185610d60565b8281036020840152610dca8185610d60565b95945050505050565b60008060408385031215610de957610de9600080fd5b610df38484610baa565b9150610e028460208501610baa565b90509250929050565b7f4e487b7100000000000000000000000000000000000000000000000000000000600052602160045260246000fd5b6002811061098d5761098d610e0b565b80610e5481610e3a565b919050565b6000610ae982610e4a565b610b5181610e59565b62ffffff8116610b51565b610b5181610acf565b610e8c828251610e64565b6020810151610e9e6020840182610e6d565b506040810151610eb16040840182610e78565b505050565b610ec08282610e81565b5060600190565b6000610ed1825190565b808452602093840193830160005b82811015610d9b57610ef2868351610eb6565b9550602082019150600101610edf565b602081526000610b406020830184610ec7565b73ffffffffffffffffffffffffffffffffffffffff8116610b03565b805180610b1a81610f15565b610b038160020b90565b805180610b1a81610f3d565b61ffff8116610b03565b805180610b1a81610f53565b60ff8116610b03565b805180610b1a81610f69565b801515610b03565b805180610b1a81610f7e565b600080600080600080600060e0888a031215610fb057610fb0600080fd5b610fba8989610f31565b9650610fc98960208a01610f47565b9550610fd88960408a01610f5d565b9450610fe78960608a01610f5d565b9350610ff68960808a01610f5d565b92506110058960a08a01610f72565b91506110148960c08a01610f86565b905092959891949750929550565b6fffffffffffffffffffffffffffffffff8116610b03565b805180610b1a81611022565b60006020828403121561105b5761105b600080fd5b610b40838361103a565b7f4e487b7100000000000000000000000000000000000000000000000000000000600052603260045260246000fd5b60208101610ae98284610e78565b80610b03565b805180610b1a816110a2565b6000602082840312156110c9576110c9600080fd5b610b4083836110a8565b6000602082840312156110e8576110e8600080fd5b610b408383610f72565b7f4e487b7100000000000000000000000000000000000000000000000000000000600052601160045260246000fd5b600061ffff821661ffff8103611139576111396110f2565b60010192915050565b606081016111508286610e78565b61115d6020830185610e78565b61116a6040830184610e6d565b949350505050565b805180610b1a81610ba1565b60006020828403121561119357611193600080fd5b610b408383611172565b62ffffff82811682821601908190811115610b1a57610b1a6110f2565b600060ff821660ff8103611139576111396110f2565b60005b838110156111eb5781810151838201526020016111d3565b50506000910152565b60006111fe825190565b808452602084016112138282602087016111d0565b7fffffffffffffffffffffffffffffffffffffffffffffffffffffffffffffffe0601f83011601949350505050565b602081526000610b4060208301846111f4565b60208101610ae98284610d4956fea264697066735822122085b8679d697e8685f6eceb314bd3910c1a407cdc658db22181b280efe388928464736f6c63430008160033",
    "linkReferences": {}
  },
  "methodIdentifiers": {
    "UNKNOWN_DECIMALS()": "b8df9780",
    "getBalances(address,address[])": "6a385ae9",
    "getRoutes(address,address)": "d85c32c7",
    "poolStatus(address)": "3c38ccbb",
    "version()": "54fd4d50"
  },
  "id": 55
}