{"abi":[{"type":"function","name":"UNKNOWN_DECIMALS","inputs":[],"outputs":[{"name":"","type":"uint8","internalType":"uint8"}],"stateMutability":"view"},{"type":"function","name":"getBalances","inputs":[{"name":"vault","type":"address","internalType":"address"},{"name":"tokens","type":"address[]","internalType":"address[]"}],"outputs":[{"name":"balances","type":"uint256[]","internalType":"uint256[]"},{"name":"decimals","type":"uint256[]","internalType":"uint256[]"}],"stateMutability":"view"},{"type":"function","name":"getRoutes","inputs":[{"name":"tokenA","type":"address","internalType":"address"},{"name":"tokenB","type":"address","internalType":"address"}],"outputs":[{"name":"routes","type":"tuple[]","internalType":"struct QueryHelper.RoutesResult[]","components":[{"name":"exchange","type":"uint8","internalType":"enum OrderLib.Exchange"},{"name":"fee","type":"uint24","internalType":"uint24"},{"name":"pool","type":"address","internalType":"address"}]}],"stateMutability":"view"},{"type":"function","name":"poolStatus","inputs":[{"name":"pool","type":"address","internalType":"contract IUniswapV3Pool"}],"outputs":[{"name":"tick","type":"int24","internalType":"int24"},{"name":"liquidity","type":"uint128","internalType":"uint128"}],"stateMutability":"view"},{"type":"function","name":"version","inputs":[],"outputs":[{"name":"","type":"uint8","internalType":"uint8"}],"stateMutability":"view"}],"bytecode":{"object":"0x6080806040523461001657610e39908161001c8239f35b600080fdfe6080604081815260048036101561001557600080fd5b600092833560e01c9081633c38ccbb146108e65750806354fd4d50146108ac5780636a385ae9146105b7578063b8df9780146105795763d85c32c71461005a57600080fd5b3461053457817ffffffffffffffffffffffffffffffffffffffffffffffffffffffffffffffffc36011261053457610090610ad9565b90602480359073ffffffffffffffffffffffffffffffffffffffff9485831690818403610575576101088151946100c686610b4c565b600986526100fa6020967f676574526f75746573000000000000000000000000000000000000000000000088820152610cb1565b61010388610d6b565b610d6b565b8051966080880188811067ffffffffffffffff821117610549578252606497606481526101f486820152610bb88382015260609361271060608301528a998b90848d9b16908d805b8c60ff8316106102f7575050505050505062ffffff80981680151597886000146102ef57829060015b61018282610d6b565b60ff169961018f8b610dc2565b8c8961019a8d610ba9565b88519d6101a88f9283610b68565b8082526101b490610ba9565b7fffffffffffffffffffffffffffffffffffffffffffffffffffffffffffffffe0019280915b8483106102bb575050505050610286575b505050969392919080519784890195858a52885180975285838b019901978b955b888710610219578b8b038cf35b909192939495969798998a518051600281101561025b578252808a015185168a830152860151851686820152860199880198979660010195949392919061020c565b838f6021877f4e487b7100000000000000000000000000000000000000000000000000000000835252fd5b84519261029284610b01565b600184528884015216838201526102a888610c61565b526102b287610c61565b503881816101eb565b83949596975091809391928b51936102d285610b01565b80855280848601528c850152010152019089869493928f8e6101da565b82908b610179565b6103348c7f676574506f6f6c2e2e2e000000000000000000000000000000000000000000008b519161032883610b4c565b600a8352820152610cb1565b62ffffff611fe08360051b16880151168d858b51917f1698ee82000000000000000000000000000000000000000000000000000000008352820152878d8201528160448201528d818681731f98431c8ad98523631ae4a59f267346ea31f9845afa90811561053f578f8f918f94938d9187916104fc575b5016938d85156104ad5790816103f687959493516103c881610b4c565b600881527f676f7420706f6f6c00000000000000000000000000000000000000000000000086820152610cb1565b6103ff85610d6b565b519384927f70a08231000000000000000000000000000000000000000000000000000000008452830152818a5afa9384156104a2579361046d575b5061044483610dc2565b86831161045d575b505050600160ff915b01168e610150565b9f509d509350600160ff3861044c565b9092508d81813d831161049b575b6104858183610b68565b810103126104955751913861043a565b50508f80fd5b503d61047b565b8c51903d90823e3d90fd5b90506001955060ff9694506104f793507f6e6f20706f6f6c00000000000000000000000000000000000000000000000000915051916104eb83610b4c565b60078352820152610cb1565b610455565b94955050505081813d8311610538575b6105168183610b68565b810103126105345751908982168203610534578d8f8b8f94386103ab565b8280fd5b503d61050c565b8b513d85823e3d90fd5b60248a6041897f4e487b7100000000000000000000000000000000000000000000000000000000835252fd5b8780fd5b5050346105b357817ffffffffffffffffffffffffffffffffffffffffffffffffffffffffffffffffc3601126105b3576020905160ff8152f35b5080fd5b50903461053457807ffffffffffffffffffffffffffffffffffffffffffffffffffffffffffffffffc360112610534576105ef610ad9565b926024926024359467ffffffffffffffff8611610534573660238701121561053457858201359361061f85610ba9565b9661062c82519889610b68565b8588526020956024878a019160051b830101913683116108a857602401905b82821061087c5750505086519461ffff95868110156108785761066d90610c12565b906106788951610c12565b92869473ffffffffffffffffffffffffffffffffffffffff809116955b8b518a82169081101561085057908189868f8f908f968f8c8f86908c96878f966106bf9089610c9d565b51169551809681937f70a082310000000000000000000000000000000000000000000000000000000083528c8301525afa80938394610802575b50918880949261071d9694156000146107f857610717929350610c9d565b52610c9d565b51168751928380927f313ce5670000000000000000000000000000000000000000000000000000000082525afa8c91816107b5575b506107a1575061076460ff9189610c9d565b525b1689811461077657600101610695565b8a8960118a7f4e487b7100000000000000000000000000000000000000000000000000000000835252fd5b60ff6107af91169189610c9d565b52610766565b888092949596508193503d83116107f1575b6107d18183610b68565b810103126107ed57906107e68d949392610c04565b9038610752565b8b80fd5b503d6107c7565b6107179250610c9d565b975097989950505050505081813d8311610849575b6108218183610b68565b810103126107ed57868f61071d8f96958f928f95968a94838f819a51955092919395506106f9565b503d610817565b835184815280610874878a610867848a018c610bc1565b9184830390850152610bc1565b0390f35b8580fd5b813573ffffffffffffffffffffffffffffffffffffffff8116810361057557815290870190870161064b565b8680fd5b5050346105b357817ffffffffffffffffffffffffffffffffffffffffffffffffffffffffffffffffc3601126105b3576020905160018152f35b9293905034610a2957602091827ffffffffffffffffffffffffffffffffffffffffffffffffffffffffffffffffc3601126105b357803573ffffffffffffffffffffffffffffffffffffffff94858216809203610ac3577f3850c7bd00000000000000000000000000000000000000000000000000000000815260e0818481855afa958615610acf578496610a3d575b505083908651928380927f1a6865020000000000000000000000000000000000000000000000000000000082525afa908115610a335782916109d6575b506fffffffffffffffffffffffffffffffff915084519360020b84521690820152f35b90508281813d8311610a2c575b6109ed8183610b68565b810103126105b35751906fffffffffffffffffffffffffffffffff82168203610a2957506fffffffffffffffffffffffffffffffff90386109b3565b80fd5b503d6109e3565b85513d84823e3d90fd5b9091955060e0823d60e011610ac7575b81610a5a60e09383610b68565b81010312610ac3578151908116036105345783810151908160020b8203610ac35780610a898860c09301610bf5565b50610a9660608201610bf5565b50610aa360808201610bf5565b50610ab060a08201610c04565b5001518015150361053457938338610976565b8380fd5b3d9150610a4d565b87513d86823e3d90fd5b6004359073ffffffffffffffffffffffffffffffffffffffff82168203610afc57565b600080fd5b6060810190811067ffffffffffffffff821117610b1d57604052565b7f4e487b7100000000000000000000000000000000000000000000000000000000600052604160045260246000fd5b6040810190811067ffffffffffffffff821117610b1d57604052565b90601f7fffffffffffffffffffffffffffffffffffffffffffffffffffffffffffffffe0910116810190811067ffffffffffffffff821117610b1d57604052565b67ffffffffffffffff8111610b1d5760051b60200190565b90815180825260208080930193019160005b828110610be1575050505090565b835185529381019392810192600101610bd3565b519061ffff82168203610afc57565b519060ff82168203610afc57565b90610c1c82610ba9565b610c296040519182610b68565b8281527fffffffffffffffffffffffffffffffffffffffffffffffffffffffffffffffe0610c578294610ba9565b0190602036910137565b805115610c6e5760200190565b7f4e487b7100000000000000000000000000000000000000000000000000000000600052603260045260246000fd5b8051821015610c6e5760209160051b010190565b60405160209160208201927f41304fac0000000000000000000000000000000000000000000000000000000084526020602484015281519182604485015260005b838110610d57575050509181610d446064827fffffffffffffffffffffffffffffffffffffffffffffffffffffffffffffffe0601f88600085819b829b01015201168101036044810184520182610b68565b51906a636f6e736f6c652e6c6f675afa50565b818101830151858201606401528201610cf2565b6000809160405173ffffffffffffffffffffffffffffffffffffffff60208201927f2c2ecbc200000000000000000000000000000000000000000000000000000000845216602482015260248152610d4481610b01565b6000809160405160208101917ff82c50f1000000000000000000000000000000000000000000000000000000008352602482015260248152610d4481610b0156fea2646970667358221220807c8ac2056ebcd83813cf299af00b71da1f33219ed282fba8b8c24976fa3fa664736f6c63430008160033","linkReferences":{}},"methodIdentifiers":{"UNKNOWN_DECIMALS()":"b8df9780","getBalances(address,address[])":"6a385ae9","getRoutes(address,address)":"d85c32c7","poolStatus(address)":"3c38ccbb","version()":"54fd4d50"},"id":66}