{"abi":[{"type":"function","name":"COIN","inputs":[],"outputs":[{"name":"","type":"address","internalType":"contract MockERC20"}],"stateMutability":"view"},{"type":"function","name":"USD","inputs":[],"outputs":[{"name":"","type":"address","internalType":"contract MockERC20"}],"stateMutability":"view"},{"type":"function","name":"fee","inputs":[],"outputs":[{"name":"","type":"uint24","internalType":"uint24"}],"stateMutability":"view"},{"type":"function","name":"init","inputs":[],"outputs":[],"stateMutability":"nonpayable"},{"type":"function","name":"inverted","inputs":[],"outputs":[{"name":"","type":"bool","internalType":"bool"}],"stateMutability":"view"},{"type":"function","name":"pool","inputs":[],"outputs":[{"name":"","type":"address","internalType":"contract IUniswapV3Pool"}],"stateMutability":"view"},{"type":"function","name":"price","inputs":[],"outputs":[{"name":"sqrtPriceX96","type":"uint160","internalType":"uint160"}],"stateMutability":"view"},{"type":"function","name":"stake","inputs":[{"name":"amount","type":"uint256","internalType":"uint256"},{"name":"lower","type":"int24","internalType":"int24"},{"name":"upper","type":"int24","internalType":"int24"}],"outputs":[],"stateMutability":"nonpayable"},{"type":"function","name":"stake","inputs":[{"name":"coinAmount","type":"uint256","internalType":"uint256"},{"name":"usdAmount","type":"uint256","internalType":"uint256"},{"name":"lower","type":"int24","internalType":"int24"},{"name":"upper","type":"int24","internalType":"int24"}],"outputs":[{"name":"tokenId","type":"uint256","internalType":"uint256"},{"name":"liquidity","type":"uint128","internalType":"uint128"},{"name":"amount0","type":"uint256","internalType":"uint256"},{"name":"amount1","type":"uint256","internalType":"uint256"}],"stateMutability":"nonpayable"},{"type":"function","name":"stake","inputs":[{"name":"amount","type":"uint256","internalType":"uint256"},{"name":"width","type":"int24","internalType":"int24"}],"outputs":[],"stateMutability":"nonpayable"},{"type":"function","name":"swap","inputs":[{"name":"inToken","type":"address","internalType":"contract MockERC20"},{"name":"outToken","type":"address","internalType":"contract MockERC20"},{"name":"amountIn","type":"uint256","internalType":"uint256"},{"name":"sqrtPriceLimitX96","type":"uint160","internalType":"uint160"}],"outputs":[{"name":"amountOut","type":"uint256","internalType":"uint256"}],"stateMutability":"nonpayable"},{"type":"function","name":"swap","inputs":[{"name":"inToken","type":"address","internalType":"contract MockERC20"},{"name":"outToken","type":"address","internalType":"contract MockERC20"},{"name":"amountIn","type":"uint256","internalType":"uint256"}],"outputs":[{"name":"amountOut","type":"uint256","internalType":"uint256"}],"stateMutability":"nonpayable"},{"type":"function","name":"swapToPrice","inputs":[{"name":"sqrtPriceLimitX96","type":"uint160","internalType":"uint160"}],"outputs":[],"stateMutability":"nonpayable"},{"type":"function","name":"token0","inputs":[],"outputs":[{"name":"","type":"address","internalType":"address"}],"stateMutability":"view"},{"type":"function","name":"token1","inputs":[],"outputs":[{"name":"","type":"address","internalType":"address"}],"stateMutability":"view"}],"bytecode":{"object":"0x6080806040523461003c57600080546001600160a01b03191673c36442b4a4522e871399cd717abdd847ab11fe8817905561433b90816100428239f35b600080fdfe60808060405260043610156200001457600080fd5b600090813560e01c9081630dfe16811462001f6f5750806316f0115b1462001f1b5780631bf6c21b1462001ec75780634a09d3dd1462001e4457806353486e2f1462001dfa57806367e368fc1462001db4578063a035b1fe1462001cf1578063a54a72b71462001c9d578063c578d91d1462001c3e578063d21220a71462001bea578063d6f1300214620013a7578063ddca3f431462001361578063df791e50146200123e578063e1c7392a14620001f85763e3baf41a14620000d657600080fd5b34620001f55760407ffffffffffffffffffffffffffffffffffffffffffffffffffffffffffffffffc360112620001f557620001116200200e565b818160020b1315620001f15760049060e073ffffffffffffffffffffffffffffffffffffffff60015416604051938480927f3850c7bd0000000000000000000000000000000000000000000000000000000082525afa908115620001e6576200019f928492620001a2575b50806200018e620001959284620029e2565b9262002a1d565b9060043562002030565b80f35b62000195919250620001cf9060e03d60e011620001de575b620001c681836200285a565b810190620028c9565b5050505050905091906200017c565b503d620001ba565b6040513d85823e3d90fd5b5080fd5b80fd5b5034620001f557807ffffffffffffffffffffffffffffffffffffffffffffffffffffffffffffffffc360112620001f5576000806040516200023a8162002820565b601481527f4d6f636b456e763a206d73672e73656e6465723a0000000000000000000000006020820152604051620002dd81620002aa60208201947f319af333000000000000000000000000000000000000000000000000000000008652604060248401526064830190620031da565b336044830152037fffffffffffffffffffffffffffffffffffffffffffffffffffffffffffffffe081018352826200285a565b51906a636f6e736f6c652e6c6f675afa50604051610ea081019080821067ffffffffffffffff8311176200121157610ea062003466823960608252601660608301527f4d6f636b20457468657265756d2048617264666f726b00000000000000000000608083015260a06020830152600360a083015260e0817f4d45480000000000000000000000000000000000000000000000000000000000938460c08201526012604082015203019083f090828215620012055773ffffffffffffffffffffffffffffffffffffffff62000405931691620003fd60025491847fffffffffffffffffffffffff000000000000000000000000000000000000000084161760025560405190620003ee8262002820565b6003825260208201526200323a565b1617620032c4565b60405180610ea081011067ffffffffffffffff610ea083011117620011d857610ea06200346682396060610ea082018181526010918101919091527f4a6f6b652043757272656e637920584400000000000000000000000000000000608082015260a0602082018190526004908201527f555358440000000000000000000000000000000000000000000000000000000060c082018190526006604083015291839181900360e0019082f08015620011cb5773ffffffffffffffffffffffffffffffffffffffff16916200051c60035491847fffffffffffffffffffffffff0000000000000000000000000000000000000000841617600355604051906200050d8262002820565b6004825260208201526200323a565b16176200052981620032c4565b7501f400000000000000000000000000000000000000007fffffffffffffffffff000000ffffffffffffffffffffffffffffffffffffffff60015416178060015573ffffffffffffffffffffffffffffffffffffffff600254169160055460ff74ff000000000000000000000000000000000000000083861160a01b169181837fffffffffffffffffffffff00ffffffffffffffffffffffffffffffffffffffff83161760a01c169586600014620011c357845b6004549773ffffffffffffffffffffffffffffffffffffffff87167fffffffffffffffffffffffff00000000000000000000000000000000000000008a1617600455600014620011ba5750925b7fffffffffffffffffffffff00000000000000000000000000000000000000000073ffffffffffffffffffffffffffffffffffffffff8516921617178060055560a01c16600014620011a8576e0f4240000000000000000000000000915b6040519384608081011067ffffffffffffffff6080870111176200117957869573ffffffffffffffffffffffffffffffffffffffff809562ffffff899483608498620007528c608060209e01604052605381527f6966207468697320697320746865206c617374206c696e65206265666f7265208e8201527f6120726576657274207468656e206d616b65207375726520746f2072756e206660408201527f6f7267652077697468202d2d7270632d75726c0000000000000000000000000060608201526200323a565b81885416966040519d8e9c8d9b7f13ead562000000000000000000000000000000000000000000000000000000008d521691161760048a015216602488015260a01c1660448601521660648401525af1801562000f605773ffffffffffffffffffffffffffffffffffffffff91839162001155575b501660015490807fffffffffffffffffffffffff000000000000000000000000000000000000000083161760015562000837604051620008078162002820565b600781527f763320706f6f6c0000000000000000000000000000000000000000000000000060208201526200323a565b620008468184841617620032c4565b620d89e8917ffffffffffffffffffffffffffffffffffffffffffffffffffffffffffff276189160ff60055460a01c1690816000146200114857640421b61410905b82156200113b57640421b61410925b62001135575b620008df604051620008af8162002820565b600d81527f7374616b6520616d6f756e74730000000000000000000000000000000000000060208201526200323a565b620008ea826200331d565b620008f5836200331d565b604051957f0dfe1681000000000000000000000000000000000000000000000000000000008752602087600481858c8a16175afa9687156200112a57889762001104575b50604051957fd21220a7000000000000000000000000000000000000000000000000000000008752602087600481868d8b16175afa96871562000fa5578997620010cc575b5073ffffffffffffffffffffffffffffffffffffffff88163b156200106f576040517f40c10f1900000000000000000000000000000000000000000000000000000000815230600482015260248101859052899081816044818373ffffffffffffffffffffffffffffffffffffffff8f165af1801562000f6057620010b4575b50602073ffffffffffffffffffffffffffffffffffffffff60448b60405194859384927f095ea7b300000000000000000000000000000000000000000000000000000000845273c36442b4a4522e871399cd717abdd847ab11fe8860048501528b6024850152165af18015620010085762001073575b5062000ab760405162000a878162002820565b600d81527f746f6b656e30206d696e7465640000000000000000000000000000000000000060208201526200323a565b73ffffffffffffffffffffffffffffffffffffffff87163b156200106f576040517f40c10f1900000000000000000000000000000000000000000000000000000000815230600482015260248101869052899081816044818373ffffffffffffffffffffffffffffffffffffffff8e165af1801562000f605762001057575b5050604051907f095ea7b300000000000000000000000000000000000000000000000000000000825273c36442b4a4522e871399cd717abdd847ab11fe8860048301528560248301526020826044818d73ffffffffffffffffffffffffffffffffffffffff8d165af19182156200100857849262001013575b5062000bf260405162000bc28162002820565b600d81527f746f6b656e31206d696e7465640000000000000000000000000000000000000060208201526200323a565b60208a6004604051809581937fd0c93a7c0000000000000000000000000000000000000000000000000000000083528c16175afa91821562001008578a9262000fb9575b509062000c488162000c4f9362003360565b9262003360565b9162000c9260405162000c628162002820565b600d81527f6c6f776572202f2075707065720000000000000000000000000000000000000060208201526200323a565b62000ca08260020b62003422565b62000cae8360020b62003422565b883396331562000fb0575b90600460209260405194859384927fddca3f4300000000000000000000000000000000000000000000000000000000845216175afa801562000fa55773ffffffffffffffffffffffffffffffffffffffff9762ffffff928b9262000f6b575b508890816040519b62000d2b8d620027e4565b168b521660208a015216604088015260020b606087015260020b608086015260a085015260c08401528360e0840152836101008401521661012082015242610140820152610140604051917f8831645600000000000000000000000000000000000000000000000000000000835273ffffffffffffffffffffffffffffffffffffffff815116600484015273ffffffffffffffffffffffffffffffffffffffff602082015116602484015262ffffff6040820151166044840152606081015160020b6064840152608081015160020b608484015260a081015160a484015260c081015160c484015260e081015160e484015261010081015161010484015273ffffffffffffffffffffffffffffffffffffffff610120820151166101248401520151610144820152608081610164818573c36442b4a4522e871399cd717abdd847ab11fe885af1801562000f6057828392849262000ef3575b506200019f9262000eed6fffffffffffffffffffffffffffffffff62000eed9362000ee660405162000eb68162002820565b601081527f6d696e746564206c69717569646974790000000000000000000000000000000060208201526200323a565b166200331d565b6200331d565b925050506080813d60801162000f57575b8162000f13608093836200285a565b81010312620001f1576020810151906fffffffffffffffffffffffffffffffff8216820362000f5357604081015160609091015190916200019f62000e84565b8280fd5b3d915062000f04565b6040513d84823e3d90fd5b8991925062000f959060203d60201162000f9d575b62000f8c81836200285a565b81019062002a58565b919062000d18565b503d62000f80565b6040513d8b823e3d90fd5b30975062000cb9565b91506020823d60201162000fff575b8162000fd7602093836200285a565b8101031262000ffb5762000c4862000ff362000c4f936200289c565b925062000c36565b8980fd5b3d915062000fc8565b6040513d8c823e3d90fd5b91506020823d6020116200104e575b8162001031602093836200285a565b8101031262000ffb57620010468492620028bb565b503862000baf565b3d915062001022565b6200106290620027cf565b6200106f57883862000b36565b8880fd5b6020813d602011620010ab575b816200108f602093836200285a565b8101031262000ffb57620010a390620028bb565b503862000a74565b3d915062001080565b620010bf90620027cf565b6200106f578838620009fe565b620010f491975060203d602011620010fc575b620010eb81836200285a565b81019062002954565b95386200097e565b503d620010df565b6200112291975060203d602011620010fc57620010eb81836200285a565b953862000939565b6040513d8a823e3d90fd5b6200089d565b640421b614109262000897565b640421b614109062000888565b62001172915060203d602011620010fc57620010eb81836200285a565b38620007c7565b7f4e487b7100000000000000000000000000000000000000000000000000000000600052604160045260246000fd5b6910c6f7a0b5ed8d36b4c79162000688565b9050926200062a565b8094620005dd565b50604051903d90823e3d90fd5b6024827f4e487b710000000000000000000000000000000000000000000000000000000081526041600452fd5b604051903d90823e3d90fd5b6024837f4e487b710000000000000000000000000000000000000000000000000000000081526041600452fd5b5034620001f55760607ffffffffffffffffffffffffffffffffffffffffffffffffffffffffffffffffc360112620001f5576200127a62001fc1565b6200128462001fea565b73ffffffffffffffffffffffffffffffffffffffff908160015416916040517f0dfe1681000000000000000000000000000000000000000000000000000000008152602081600481875afa9081156200135657918091876200130e979695946020999262001332575b5050169084161460001462001316576401000276a4925b6044359262002a75565b604051908152f35b73fffd8963efd1fc6a506488495d951d5263988d259262001304565b6200134e919250893d8b11620010fc57620010eb81836200285a565b9038620012ed565b6040513d88823e3d90fd5b5034620001f557807ffffffffffffffffffffffffffffffffffffffffffffffffffffffffffffffffc360112620001f557602062ffffff60015460a01c16604051908152f35b5034620001f55760807ffffffffffffffffffffffffffffffffffffffffffffffffffffffffffffffffc360112620001f557602435600435620013e96200201f565b91606435918260020b830362001be65782939260ff60055460a01c16918260001462001bde57835b831562001bd55750915b62001bb1575b5073ffffffffffffffffffffffffffffffffffffffff60015416916200144e604051620008af8162002820565b62001459816200331d565b62001464826200331d565b604051947f0dfe1681000000000000000000000000000000000000000000000000000000008652602086600481875afa95861562001ba657879662001b80575b50604051947fd21220a7000000000000000000000000000000000000000000000000000000008652602086600481885afa9586156200112a57889662001b5a575b5073ffffffffffffffffffffffffffffffffffffffff87163b1562001aff576040517f40c10f190000000000000000000000000000000000000000000000000000000081523060048201526024810184905288816044818373ffffffffffffffffffffffffffffffffffffffff8d165af1801562000fa55762001b44575b506040517f095ea7b300000000000000000000000000000000000000000000000000000000815273c36442b4a4522e871399cd717abdd847ab11fe8860048201528360248201526020816044818c73ffffffffffffffffffffffffffffffffffffffff8d165af1801562000fa55762001b03575b50620015ea60405162000a878162002820565b73ffffffffffffffffffffffffffffffffffffffff86163b1562001aff576040517f40c10f1900000000000000000000000000000000000000000000000000000000815230600482015260248101859052889081816044818373ffffffffffffffffffffffffffffffffffffffff8d165af1801562000f605762001ae7575b50506040517f095ea7b300000000000000000000000000000000000000000000000000000000815273c36442b4a4522e871399cd717abdd847ab11fe8860048201528460248201526020816044818c73ffffffffffffffffffffffffffffffffffffffff8c165af1801562000fa55762001aa6575b50620016f160405162000bc28162002820565b604051907fd0c93a7c000000000000000000000000000000000000000000000000000000008252602082600481895afa91821562000fa557899262001a5b575b509062000c4881620017439362003360565b906200175660405162000c628162002820565b620017648160020b62003422565b620017728260020b62003422565b3394331562001a52575b6020600491604051928380927fddca3f430000000000000000000000000000000000000000000000000000000082525afa801562000fa55773ffffffffffffffffffffffffffffffffffffffff9762ffffff928b9262001a2a575b508890816040519b620017ea8d620027e4565b168b521660208a015216604088015260020b606087015260020b608086015260a085015260c08401528360e0840152836101008401521661012082015242610140820152610140604051917f8831645600000000000000000000000000000000000000000000000000000000835273ffffffffffffffffffffffffffffffffffffffff815116600484015273ffffffffffffffffffffffffffffffffffffffff602082015116602484015262ffffff6040820151166044840152606081015160020b6064840152608081015160020b608484015260a081015160a484015260c081015160c484015260e081015160e484015261010081015161010484015273ffffffffffffffffffffffffffffffffffffffff610120820151166101248401520151610144820152608081610164818573c36442b4a4522e871399cd717abdd847ab11fe885af1801562000f605782918380918193620019a6575b50506fffffffffffffffffffffffffffffffff6080946200196d60405162000eb68162002820565b1662001979816200331d565b62001984826200331d565b6200198f836200331d565b604051938452602084015260408301526060820152f35b9350935050506080813d60801162001a21575b81620019c8608093836200285a565b81010312620001f1578051906020810151916fffffffffffffffffffffffffffffffff8316830362001a1d57604082015160609092015192935091906fffffffffffffffffffffffffffffffff608062001945565b8380fd5b3d9150620019b9565b8991925062001a4a9060203d60201162000f9d5762000f8c81836200285a565b9190620017d7565b3095506200177c565b91506020823d60201162001a9d575b8162001a79602093836200285a565b810103126200106f5762000c4862001a9562001743936200289c565b925062001731565b3d915062001a6a565b6020813d60201162001ade575b8162001ac2602093836200285a565b810103126200106f5762001ad690620028bb565b5038620016de565b3d915062001ab3565b62001af290620027cf565b62001aff57873862001669565b8780fd5b6020813d60201162001b3b575b8162001b1f602093836200285a565b810103126200106f5762001b3390620028bb565b5038620015d7565b3d915062001b10565b62001b5290989198620027cf565b963862001563565b62001b7891965060203d602011620010fc57620010eb81836200285a565b9438620014e5565b62001b9e91965060203d602011620010fc57620010eb81836200285a565b9438620014a4565b6040513d89823e3d90fd5b90935062001bc191925062002982565b9062001bcd8262002982565b923862001421565b9050916200141b565b809362001411565b8480fd5b5034620001f557807ffffffffffffffffffffffffffffffffffffffffffffffffffffffffffffffffc360112620001f557602073ffffffffffffffffffffffffffffffffffffffff60055416604051908152f35b5034620001f55760207ffffffffffffffffffffffffffffffffffffffffffffffffffffffffffffffffc360112620001f5576200019f62001c7e62001fc1565b73ffffffffffffffffffffffffffffffffffffffff6001541662002d1c565b5034620001f557807ffffffffffffffffffffffffffffffffffffffffffffffffffffffffffffffffc360112620001f557602073ffffffffffffffffffffffffffffffffffffffff60025416604051908152f35b5034620001f557807ffffffffffffffffffffffffffffffffffffffffffffffffffffffffffffffffc360112620001f557600473ffffffffffffffffffffffffffffffffffffffff60e08160015416604051938480927f3850c7bd0000000000000000000000000000000000000000000000000000000082525afa918215620001e6576020939262001d88575b5060405191168152f35b62001da691925060e03d60e011620001de57620001c681836200285a565b505050505050903862001d7e565b5034620001f557807ffffffffffffffffffffffffffffffffffffffffffffffffffffffffffffffffc360112620001f557602060ff60055460a01c166040519015158152f35b5034620001f55760607ffffffffffffffffffffffffffffffffffffffffffffffffffffffffffffffffc360112620001f5576200019f62001e3a6200200e565b620001956200201f565b5034620001f55760807ffffffffffffffffffffffffffffffffffffffffffffffffffffffffffffffffc360112620001f55762001e8062001fc1565b9062001e8b62001fea565b6064359273ffffffffffffffffffffffffffffffffffffffff928385168503620001f55760206200130e86868686604435926001541662002a75565b5034620001f557807ffffffffffffffffffffffffffffffffffffffffffffffffffffffffffffffffc360112620001f557602073ffffffffffffffffffffffffffffffffffffffff60035416604051908152f35b5034620001f557807ffffffffffffffffffffffffffffffffffffffffffffffffffffffffffffffffc360112620001f557602073ffffffffffffffffffffffffffffffffffffffff60015416604051908152f35b905034620001f157817ffffffffffffffffffffffffffffffffffffffffffffffffffffffffffffffffc360112620001f15760209073ffffffffffffffffffffffffffffffffffffffff600454168152f35b6004359073ffffffffffffffffffffffffffffffffffffffff8216820362001fe557565b600080fd5b6024359073ffffffffffffffffffffffffffffffffffffffff8216820362001fe557565b602435908160020b820362001fe557565b604435908160020b820362001fe557565b90929192600091670de0b6b3a76400009081810281159282820414831715620027a25760011c91620f4240808302928304141715620027755760011c9085929560ff60055460a01c1691826000146200276d57835b8315620027645750915b62002740575b5073ffffffffffffffffffffffffffffffffffffffff6001541691620020c2604051620008af8162002820565b620020cd816200331d565b620020d8826200331d565b6040517f0dfe1681000000000000000000000000000000000000000000000000000000008152602081600481875afa90811562001356579073ffffffffffffffffffffffffffffffffffffffff9187916200271c575b5016936040517fd21220a7000000000000000000000000000000000000000000000000000000008152602081600481885afa90811562001ba6579073ffffffffffffffffffffffffffffffffffffffff918891620026f8575b501690853b15620026f4576040517f40c10f190000000000000000000000000000000000000000000000000000000080825230600483015260248201859052908881604481838c5af1801562000fa557620026de575b50604051907f095ea7b3000000000000000000000000000000000000000000000000000000009182815273c36442b4a4522e871399cd717abdd847ab11fe8860048201528560248201526020816044818d8d5af1801562001008576200269d575b506200225160405162000a878162002820565b833b156200106f5760405190815230600482015260248101869052888160448183885af1801562000fa55790899162002685575b505060405190815273c36442b4a4522e871399cd717abdd847ab11fe8860048201528460248201526020816044818b875af180156200112a5762002644575b50620022d760405162000bc28162002820565b6040517fd0c93a7c000000000000000000000000000000000000000000000000000000008152602081600481895afa9081156200112a578891620025f4575b508062000c486200232a9260049c62003360565b906200233d60405162000c628162002820565b60020b906200234c8262003422565b60020b916200235b8362003422565b33953315620025eb575b6020906040519b8c80927fddca3f430000000000000000000000000000000000000000000000000000000082525afa998a156200112a579962ffffff91899a9b73ffffffffffffffffffffffffffffffffffffffff999a92620025c5575b5060405199620023d38b620027e4565b8a5260208a01521660408801526060870152608086015260a085015260c08401528360e0840152836101008401521661012082015242610140820152610140604051917f8831645600000000000000000000000000000000000000000000000000000000835273ffffffffffffffffffffffffffffffffffffffff815116600484015273ffffffffffffffffffffffffffffffffffffffff602082015116602484015262ffffff6040820151166044840152606081015160020b6064840152608081015160020b608484015260a081015160a484015260c081015160c484015260e081015160e484015261010081015161010484015273ffffffffffffffffffffffffffffffffffffffff610120820151166101248401520151610144820152608081610164818573c36442b4a4522e871399cd717abdd847ab11fe885af190811562000f605782908380936200255a575b5050620025589262000eed6fffffffffffffffffffffffffffffffff62000eed9362000ee660405162000eb68162002820565b565b92509250506080823d608011620025bc575b816200257b608093836200285a565b81010312620001f5576020820151906fffffffffffffffffffffffffffffffff82168203620001f557506040820151606090920151908262000eed62002525565b3d91506200256c565b620025e391925060203d60201162000f9d5762000f8c81836200285a565b9038620023c3565b30965062002365565b90506020813d6020116200263b575b8162002612602093836200285a565b8101031262001aff5760049962000c48620026316200232a936200289c565b9250509962002316565b3d915062002603565b6020813d6020116200267c575b8162002660602093836200285a565b8101031262001aff576200267490620028bb565b5038620022c4565b3d915062002651565b6200269090620027cf565b62001aff57873862002285565b6020813d602011620026d5575b81620026b9602093836200285a565b8101031262000ffb57620026cd90620028bb565b50386200223e565b3d9150620026aa565b620026ec90989198620027cf565b9638620021dd565b8680fd5b62002715915060203d602011620010fc57620010eb81836200285a565b3862002187565b62002739915060203d602011620010fc57620010eb81836200285a565b386200212e565b9092506200275091955062002982565b936200275c8562002982565b913862002095565b9050916200208f565b809362002085565b6024847f4e487b710000000000000000000000000000000000000000000000000000000081526011600452fd5b6024857f4e487b710000000000000000000000000000000000000000000000000000000081526011600452fd5b67ffffffffffffffff81116200117957604052565b610160810190811067ffffffffffffffff8211176200117957604052565b610100810190811067ffffffffffffffff8211176200117957604052565b6040810190811067ffffffffffffffff8211176200117957604052565b6060810190811067ffffffffffffffff8211176200117957604052565b90601f7fffffffffffffffffffffffffffffffffffffffffffffffffffffffffffffffe0910116810190811067ffffffffffffffff8211176200117957604052565b51908160020b820362001fe557565b519061ffff8216820362001fe557565b5190811515820362001fe557565b908160e091031262001fe557805173ffffffffffffffffffffffffffffffffffffffff8116810362001fe5579162002904602083016200289c565b916200291360408201620028ab565b916200292260608301620028ab565b916200293160808201620028ab565b9160a082015160ff8116810362001fe55760c062002951919301620028bb565b90565b9081602091031262001fe5575173ffffffffffffffffffffffffffffffffffffffff8116810362001fe55790565b60020b7fffffffffffffffffffffffffffffffffffffffffffffffffffffffffff8000008114620029b35760000390565b7f4e487b7100000000000000000000000000000000000000000000000000000000600052601160045260246000fd5b9060020b9060020b0390627fffff82137fffffffffffffffffffffffffffffffffffffffffffffffffffffffffff800000831217620029b357565b9060020b9060020b01907fffffffffffffffffffffffffffffffffffffffffffffffffffffffffff8000008212627fffff831317620029b357565b9081602091031262001fe5575162ffffff8116810362001fe55790565b939073ffffffffffffffffffffffffffffffffffffffff90939293169160409485517f095ea7b300000000000000000000000000000000000000000000000000000000815273e592427a0aece92de3edee1f18e0157c0586156460048201528260248201526020816044816000895af1801562002d115762002cb7575b50602073ffffffffffffffffffffffffffffffffffffffff9160048851809481937fddca3f43000000000000000000000000000000000000000000000000000000008352165afa90811562002cac579160e0939173ffffffffffffffffffffffffffffffffffffffff959360009162002c88575b5087519362002b758562002802565b845285602085019716875262ffffff88850191168152856060850133815262ffffff608087019342855260a088019586528360c0890197600089521689890152838c519b7f414bf389000000000000000000000000000000000000000000000000000000008d528c6004838c5116910152511660248c0152511660448a0152511660648801525160848701525160a48601525160c485015201511660e482015260208161010481600073e592427a0aece92de3edee1f18e0157c058615645af191821562002c7e575060009162002c4a575090565b90506020813d60201162002c75575b8162002c68602093836200285a565b8101031262001fe5575190565b3d915062002c59565b513d6000823e3d90fd5b62002ca5915060203d60201162000f9d5762000f8c81836200285a565b3862002b66565b86513d6000823e3d90fd5b6020813d60201162002d08575b8162002cd3602093836200285a565b8101031262001fe55773ffffffffffffffffffffffffffffffffffffffff9162002cff602092620028bb565b50915062002af2565b3d915062002cc4565b87513d6000823e3d90fd5b90604080519262002d2d8462002820565b600b845262002d636020947f73776170546f5072696365000000000000000000000000000000000000000000868201526200323a565b73ffffffffffffffffffffffffffffffffffffffff808094169162002d88836200331d565b1682517f3850c7bd00000000000000000000000000000000000000000000000000000000815260e081600481855afa908115620031cf57908591600091620031a5575b50169162002dd9836200331d565b8083146200315f5783517f0dfe16810000000000000000000000000000000000000000000000000000000081528681600481865afa908115620031545790869160009162003132575b501684517fd21220a70000000000000000000000000000000000000000000000000000000081528781600481875afa90811562002cac57879291839160009162003110575b50168386111562003107578382965b1015620030fe5750935b1692833b1562001fe55784517f40c10f190000000000000000000000000000000000000000000000000000000081523060048201526c1000000000000000000000000090816024820152600081604481838a5af1801562002d1157620030ec575b508551937f095ea7b300000000000000000000000000000000000000000000000000000000855273e592427a0aece92de3edee1f18e0157c0586156494856004820152826024820152898160448160008b5af18015620030e157908a91620030a1575b506004918851928380927fddca3f430000000000000000000000000000000000000000000000000000000082525afa90811562002d1157918893918a979695936000916200307f575b5088519662002f9c8862002802565b875284888801931683528887019062ffffff1681528460608801338152608089019242845260a08a019485528260c08b01966000885260e08c019889528d519e8f9c7f414bf389000000000000000000000000000000000000000000000000000000008e52511660048d0152511660248b01525162ffffff1660448a0152511660648801525160848701525160a48601525160c4850152511660e4830152815a61010492600091f190811562002c7e575062003056575050565b813d831162003077575b6200306c81836200285a565b8101031262001fe557565b503d62003060565b6200309a9150883d8a1162000f9d5762000f8c81836200285a565b3862002f8d565b9081813d8311620030d9575b620030b981836200285a565b8101031262001fe557600491620030d18b92620028bb565b509162002f44565b503d620030ad565b88513d6000823e3d90fd5b620030f790620027cf565b3862002ee1565b90509362002e80565b83819662002e76565b6200312b91508a3d8c11620010fc57620010eb81836200285a565b3862002e67565b6200314d9150883d8a11620010fc57620010eb81836200285a565b3862002e22565b85513d6000823e3d90fd5b505050620025589291507f6e6f2073776170206e6565646564000000000000000000000000000000000000905191620031988362002820565b600e83528201526200323a565b620031c2915060e03d60e011620001de57620001c681836200285a565b5050505050503862002dcb565b84513d6000823e3d90fd5b919082519283825260005b848110620032255750507fffffffffffffffffffffffffffffffffffffffffffffffffffffffffffffffe0601f8460006020809697860101520116010190565b602081830181015184830182015201620031e5565b60008091604051620032b1816200328460208201947f41304fac000000000000000000000000000000000000000000000000000000008652602060248401526044830190620031da565b037fffffffffffffffffffffffffffffffffffffffffffffffffffffffffffffffe081018352826200285a565b51906a636f6e736f6c652e6c6f675afa50565b6000809160405173ffffffffffffffffffffffffffffffffffffffff60208201927f2c2ecbc200000000000000000000000000000000000000000000000000000000845216602482015260248152620032b1816200283d565b6000809160405160208101917ff82c50f1000000000000000000000000000000000000000000000000000000008352602482015260248152620032b1816200283d565b60029181830b9281810b8015620033f35760008186079512600014620033bc57816200338c8662002982565b9105820b910b13620033a55750906200295191620029e2565b6200295192620033b59162002a1d565b90620029e2565b938181949505820b910b13600014620033e757620029519291620033e091620029e2565b9062002a1d565b506200295191620029e2565b7f4e487b7100000000000000000000000000000000000000000000000000000000600052601260045260246000fd5b6000809160405160208101917f2d5b6cb9000000000000000000000000000000000000000000000000000000008352602482015260248152620032b1816200283d56fe6080604052346200033e5762000ea0803803806200001d8162000343565b92833981016060828203126200033e5781516001600160401b03908181116200033e57826200004e91850162000369565b602092838501518381116200033e576040916200006d91870162000369565b9401519160ff83168093036200033e57815181811162000328576000948554916001948584811c941680156200031d575b8385101462000309578190601f94858111620002b6575b5083908583116001146200025257899262000246575b5050600019600383901b1c191690851b1786555b8651928311620002325783548481811c9116801562000227575b828210146200021357828111620001cb575b50809183116001146200016457508495829394959262000158575b5050600019600383901b1c191690821b1790555b60ff196002541617600255600355604051610ac49081620003dc8239f35b01519050388062000126565b90601f198316968487528287209287905b898210620001b357505083859697981062000199575b505050811b0190556200013a565b015160001960f88460031b161c191690553880806200018b565b80878596829496860151815501950193019062000175565b8487528187208380860160051c82019284871062000209575b0160051c019085905b828110620001fd5750506200010b565b888155018590620001ed565b92508192620001e4565b634e487b7160e01b87526022600452602487fd5b90607f1690620000f9565b634e487b7160e01b86526041600452602486fd5b015190503880620000cb565b898052848a208894509190601f1984168b5b878282106200029f575050841162000285575b505050811b018655620000df565b015160001960f88460031b161c1916905538808062000277565b8385015186558b9790950194938401930162000264565b9091508880528389208580850160051c820192868610620002ff575b918991869594930160051c01915b828110620002f0575050620000b5565b8b8155859450899101620002e0565b92508192620002d2565b634e487b7160e01b88526022600452602488fd5b93607f16936200009e565b634e487b7160e01b600052604160045260246000fd5b600080fd5b6040519190601f01601f191682016001600160401b038111838210176200032857604052565b919080601f840112156200033e5782516001600160401b03811162000328576020906200039f601f8201601f1916830162000343565b928184528282870101116200033e5760005b818110620003c757508260009394955001015290565b8581018301518482018401528201620003b156fe608060408181526004918236101561001657600080fd5b600092833560e01c91826306fdde031461076757508163095ea7b3146106ca57816318160ddd1461068d57816323b872dd14610521578163313ce567146104e157816340c10f191461044957816342966c68146103c357816370a082311461035e57816395d89b411461016457508063a9059cbb146101145763dd62ed3e1461009e57600080fd5b3461011057807ffffffffffffffffffffffffffffffffffffffffffffffffffffffffffffffffc36011261011057806020926100d861090b565b6100e0610933565b73ffffffffffffffffffffffffffffffffffffffff91821683526005865283832091168252845220549051908152f35b5080fd5b503461011057807ffffffffffffffffffffffffffffffffffffffffffffffffffffffffffffffffc3601126101105760209061015b61015161090b565b602435903361099f565b90519015158152f35b83833461011057817ffffffffffffffffffffffffffffffffffffffffffffffffffffffffffffffffc360112610110578051908260018054908160011c9060018316928315610354575b60209384841081146103285783885287959493929181156102cd5750600114610250575b50505003601f017fffffffffffffffffffffffffffffffffffffffffffffffffffffffffffffffe01682019267ffffffffffffffff84118385101761022457508291826102209252826108a5565b0390f35b806041867f4e487b71000000000000000000000000000000000000000000000000000000006024945252fd5b600188529193925086917fb10e2d527612073b26eecdfd717e6a320cf44b4afac2b0732d9fcbe2b7fa0cf65b8284106102b757505050907fffffffffffffffffffffffffffffffffffffffffffffffffffffffffffffffe092601f928201019181936101d2565b805488850187015287945092850192810161027c565b7fffffffffffffffffffffffffffffffffffffffffffffffffffffffffffffff0016848701525050151560051b830101905081601f7fffffffffffffffffffffffffffffffffffffffffffffffffffffffffffffffe06101d2565b60248960228c7f4e487b7100000000000000000000000000000000000000000000000000000000835252fd5b91607f16916101ae565b9050346103bf5760207ffffffffffffffffffffffffffffffffffffffffffffffffffffffffffffffffc3601126103bf57602092829173ffffffffffffffffffffffffffffffffffffffff6103b161090b565b168252845220549051908152f35b8280fd5b919050346103bf5760207ffffffffffffffffffffffffffffffffffffffffffffffffffffffffffffffffc3601126103bf578135913384526020528083208054838110610445578361041491610956565b90555190815230907fddf252ad1be2c89b69c2b068fc378daa952ba7f163c4a11628f55a4df523b3ef60203392a380f35b8480fd5b919050346103bf57807ffffffffffffffffffffffffffffffffffffffffffffffffffffffffffffffffc3601126103bf5761048261090b565b9073ffffffffffffffffffffffffffffffffffffffff6024359216928385526020528084206104b2838254610992565b9055519081527fddf252ad1be2c89b69c2b068fc378daa952ba7f163c4a11628f55a4df523b3ef60203092a380f35b50503461011057817ffffffffffffffffffffffffffffffffffffffffffffffffffffffffffffffffc3601126101105760209060ff600254169051908152f35b9050823461068a5760607ffffffffffffffffffffffffffffffffffffffffffffffffffffffffffffffffc36011261068a5761055b61090b565b610563610933565b916044359373ffffffffffffffffffffffffffffffffffffffff8316803303610595575b60208761015b88888861099f565b80835260209160058352878420338552835287842054871161062e57509582819694928860209961015b9896526005825283832033845282527fffffffffffffffffffffffffffffffffffffffffffffffffffffffffffffffff8484205403610609575b5050509581939550829450610587565b825260058152828220903383525220610623848254610956565b9055848780806105f9565b606490838951917f08c379a0000000000000000000000000000000000000000000000000000000008352820152601660248201527f496e73756666696369656e7420616c6c6f77616e6365000000000000000000006044820152fd5b80fd5b50503461011057817ffffffffffffffffffffffffffffffffffffffffffffffffffffffffffffffffc360112610110576020906003549051908152f35b50503461011057807ffffffffffffffffffffffffffffffffffffffffffffffffffffffffffffffffc360112610110576020918161070661090b565b916024359182913381526005875273ffffffffffffffffffffffffffffffffffffffff8282209516948582528752205582519081527f8c5be1e5ebec7d5bd14f71427d1e84f3dd0314c0f7b2291e5b200ac8c7c3b925843392a35160018152f35b849084346103bf57827ffffffffffffffffffffffffffffffffffffffffffffffffffffffffffffffffc3601126103bf5782835460018160011c906001831692831561089b575b60209384841081146103285783885287959493929181156102cd575060011461081f5750505003601f017fffffffffffffffffffffffffffffffffffffffffffffffffffffffffffffffe01682019267ffffffffffffffff84118385101761022457508291826102209252826108a5565b8780529193925086917f290decd9548b62a8d60345a988386fc84ba6bc95484008f6362f93160ef3e5635b82841061088557505050907fffffffffffffffffffffffffffffffffffffffffffffffffffffffffffffffe092601f928201019181936101d2565b805488850187015287945092850192810161084a565b91607f16916107ae565b60208082528251818301819052939260005b8581106108f7575050507fffffffffffffffffffffffffffffffffffffffffffffffffffffffffffffffe0601f8460006040809697860101520116010190565b8181018301518482016040015282016108b7565b6004359073ffffffffffffffffffffffffffffffffffffffff8216820361092e57565b600080fd5b6024359073ffffffffffffffffffffffffffffffffffffffff8216820361092e57565b9190820391821161096357565b7f4e487b7100000000000000000000000000000000000000000000000000000000600052601160045260246000fd5b9190820180921161096357565b9073ffffffffffffffffffffffffffffffffffffffff80921691600093838552600460205280604086205410610a305760406020927fddf252ad1be2c89b69c2b068fc378daa952ba7f163c4a11628f55a4df523b3ef9486885260048552828820610a0b858254610956565b905516958681526004845220610a22828254610992565b9055604051908152a3600190565b60646040517f08c379a000000000000000000000000000000000000000000000000000000000815260206004820152601460248201527f496e73756666696369656e742062616c616e63650000000000000000000000006044820152fdfea2646970667358221220134ff532eda3de5095e0f852b569fdcb5ca9b71daf9eb27d2bc3378b50543daa64736f6c63430008160033a2646970667358221220c7420061299ea1547ebad2855467df3281f226135ac2aa6907d98f6fbaaffab064736f6c63430008160033","linkReferences":{}},"methodIdentifiers":{"COIN()":"a54a72b7","USD()":"1bf6c21b","fee()":"ddca3f43","init()":"e1c7392a","inverted()":"67e368fc","pool()":"16f0115b","price()":"a035b1fe","stake(uint256,int24)":"e3baf41a","stake(uint256,int24,int24)":"53486e2f","stake(uint256,uint256,int24,int24)":"d6f13002","swap(address,address,uint256)":"df791e50","swap(address,address,uint256,uint160)":"4a09d3dd","swapToPrice(uint160)":"c578d91d","token0()":"0dfe1681","token1()":"d21220a7"},"id":72}