{
  "abi": [
    {
      "inputs": [],
      "name": "COIN",
      "outputs": [
        {
          "internalType": "contract MockERC20",
          "name": "",
          "type": "address"
        }
      ],
      "stateMutability": "view",
      "type": "function"
    },
    {
      "inputs": [],
      "name": "USD",
      "outputs": [
        {
          "internalType": "contract MockERC20",
          "name": "",
          "type": "address"
        }
      ],
      "stateMutability": "view",
      "type": "function"
    },
    {
      "inputs": [],
      "name": "fee",
      "outputs": [
        {
          "internalType": "uint24",
          "name": "",
          "type": "uint24"
        }
      ],
      "stateMutability": "view",
      "type": "function"
    },
    {
      "inputs": [],
      "name": "init",
      "outputs": [],
      "stateMutability": "nonpayable",
      "type": "function"
    },
    {
      "inputs": [],
      "name": "inverted",
      "outputs": [
        {
          "internalType": "bool",
          "name": "",
          "type": "bool"
        }
      ],
      "stateMutability": "view",
      "type": "function"
    },
    {
      "inputs": [],
      "name": "nfpm",
      "outputs": [
        {
          "internalType": "contract INonfungiblePositionManager",
          "name": "",
          "type": "address"
        }
      ],
      "stateMutability": "view",
      "type": "function"
    },
    {
      "inputs": [],
      "name": "pool",
      "outputs": [
        {
          "internalType": "contract IUniswapV3Pool",
          "name": "",
          "type": "address"
        }
      ],
      "stateMutability": "view",
      "type": "function"
    },
    {
      "inputs": [],
      "name": "price",
      "outputs": [
        {
          "internalType": "uint160",
          "name": "sqrtPriceX96",
          "type": "uint160"
        }
      ],
      "stateMutability": "view",
      "type": "function"
    },
    {
      "inputs": [
        {
          "internalType": "uint256",
          "name": "amount",
          "type": "uint256"
        },
        {
          "internalType": "int24",
          "name": "lower",
          "type": "int24"
        },
        {
          "internalType": "int24",
          "name": "upper",
          "type": "int24"
        }
      ],
      "name": "stake",
      "outputs": [],
      "stateMutability": "nonpayable",
      "type": "function"
    },
    {
      "inputs": [
        {
          "internalType": "uint256",
          "name": "coinAmount",
          "type": "uint256"
        },
        {
          "internalType": "uint256",
          "name": "usdAmount",
          "type": "uint256"
        },
        {
          "internalType": "int24",
          "name": "lower",
          "type": "int24"
        },
        {
          "internalType": "int24",
          "name": "upper",
          "type": "int24"
        }
      ],
      "name": "stake",
      "outputs": [
        {
          "internalType": "uint256",
          "name": "tokenId",
          "type": "uint256"
        },
        {
          "internalType": "uint128",
          "name": "liquidity",
          "type": "uint128"
        },
        {
          "internalType": "uint256",
          "name": "amount0",
          "type": "uint256"
        },
        {
          "internalType": "uint256",
          "name": "amount1",
          "type": "uint256"
        }
      ],
      "stateMutability": "nonpayable",
      "type": "function"
    },
    {
      "inputs": [
        {
          "internalType": "uint256",
          "name": "amount",
          "type": "uint256"
        },
        {
          "internalType": "int24",
          "name": "width",
          "type": "int24"
        }
      ],
      "name": "stake",
      "outputs": [],
      "stateMutability": "nonpayable",
      "type": "function"
    },
    {
      "inputs": [
        {
          "internalType": "contract MockERC20",
          "name": "inToken",
          "type": "address"
        },
        {
          "internalType": "contract MockERC20",
          "name": "outToken",
          "type": "address"
        },
        {
          "internalType": "uint256",
          "name": "amountIn",
          "type": "uint256"
        },
        {
          "internalType": "uint160",
          "name": "sqrtPriceLimitX96",
          "type": "uint160"
        }
      ],
      "name": "swap",
      "outputs": [
        {
          "internalType": "uint256",
          "name": "amountOut",
          "type": "uint256"
        }
      ],
      "stateMutability": "nonpayable",
      "type": "function"
    },
    {
      "inputs": [
        {
          "internalType": "contract MockERC20",
          "name": "inToken",
          "type": "address"
        },
        {
          "internalType": "contract MockERC20",
          "name": "outToken",
          "type": "address"
        },
        {
          "internalType": "uint256",
          "name": "amountIn",
          "type": "uint256"
        }
      ],
      "name": "swap",
      "outputs": [
        {
          "internalType": "uint256",
          "name": "amountOut",
          "type": "uint256"
        }
      ],
      "stateMutability": "nonpayable",
      "type": "function"
    },
    {
      "inputs": [
        {
          "internalType": "uint160",
          "name": "sqrtPriceLimitX96",
          "type": "uint160"
        }
      ],
      "name": "swapToPrice",
      "outputs": [],
      "stateMutability": "nonpayable",
      "type": "function"
    },
    {
      "inputs": [],
      "name": "swapper",
      "outputs": [
        {
          "internalType": "contract ISwapRouter",
          "name": "",
          "type": "address"
        }
      ],
      "stateMutability": "view",
      "type": "function"
    },
    {
      "inputs": [],
      "name": "token0",
      "outputs": [
        {
          "internalType": "address",
          "name": "",
          "type": "address"
        }
      ],
      "stateMutability": "view",
      "type": "function"
    },
    {
      "inputs": [],
      "name": "token1",
      "outputs": [
        {
          "internalType": "address",
          "name": "",
          "type": "address"
        }
      ],
      "stateMutability": "view",
      "type": "function"
    }
  ],
  "bytecode": {
    "object": "0x6080604052600080546001600160a01b031990811673c36442b4a4522e871399cd717abdd847ab11fe88179091556001805490911673e592427a0aece92de3edee1f18e0157c0586156417905534801561005857600080fd5b50613686806100686000396000f3fe60806040523480156200001157600080fd5b5060043610620001325760003560e01c8063a035b1fe11620000c0578063d6f13002116200008b578063df791e50116200006e578063df791e501462000349578063e1c7392a1462000360578063e3baf41a146200036a57600080fd5b8063d6f1300214620002e9578063ddca3f43146200031257600080fd5b8063a035b1fe1462000277578063a54a72b71462000290578063c578d91d14620002b1578063d21220a714620002c857600080fd5b80634a09d3dd11620001015780634a09d3dd14620001e257806353486e2f146200020857806367e368fc14620002215780637303e913146200025657600080fd5b80630dfe1681146200013757806316f0115b14620001705780631bf6c21b14620001a05780632b3297f914620001c1575b600080fd5b600554620001589073ffffffffffffffffffffffffffffffffffffffff1681565b6040516200016791906200184b565b60405180910390f35b600254620001919073ffffffffffffffffffffffffffffffffffffffff1681565b6040516200016791906200189f565b600454620001919073ffffffffffffffffffffffffffffffffffffffff1681565b600154620001919073ffffffffffffffffffffffffffffffffffffffff1681565b620001f9620001f336600462001928565b62000381565b60405162000167919062001994565b6200021f62000219366004620019bd565b6200052a565b005b600654620002479074010000000000000000000000000000000000000000900460ff1681565b60405162000167919062001a17565b600054620001919073ffffffffffffffffffffffffffffffffffffffff1681565b620002816200058a565b60405162000167919062001a44565b600354620001919073ffffffffffffffffffffffffffffffffffffffff1681565b6200021f620002c236600462001a54565b6200062d565b600654620001589073ffffffffffffffffffffffffffffffffffffffff1681565b62000300620002fa36600462001a77565b62000887565b60405162000167949392919062001aea565b6002546200033a9074010000000000000000000000000000000000000000900462ffffff1681565b60405162000167919062001b3c565b620001f96200035a36600462001b4c565b620008ad565b6200021f620009cb565b6200021f6200037b36600462001b94565b62000f7b565b6001546040517f095ea7b300000000000000000000000000000000000000000000000000000000815260009173ffffffffffffffffffffffffffffffffffffffff8088169263095ea7b392620003de921690879060040162001bd2565b6020604051808303816000875af1158015620003fe573d6000803e3d6000fd5b505050506040513d601f19601f8201168201806040525081019062000424919062001c08565b50604080516101008101825273ffffffffffffffffffffffffffffffffffffffff8781168252868116602083015260025474010000000000000000000000000000000000000000900462ffffff168284015233606083015242608083015260a08201869052600060c083015284811660e083015260015492517f414bf3890000000000000000000000000000000000000000000000000000000081529192169063414bf38990620004da90849060040162001cca565b6020604051808303816000875af1158015620004fa573d6000803e3d6000fd5b505050506040513d601f19601f8201168201806040525081019062000520919062001ce9565b9695505050505050565b600060026200054285670de0b6b3a764000062001d3b565b6200054e919062001d90565b9050600060026200056386620f424062001d3b565b6200056f919062001d90565b90506200057f8282868662000887565b505050505050505050565b600254604080517f3850c7bd000000000000000000000000000000000000000000000000000000008152905160009273ffffffffffffffffffffffffffffffffffffffff1691633850c7bd9160048083019260e09291908290030181865afa158015620005fb573d6000803e3d6000fd5b505050506040513d601f19601f8201168201806040525081019062000621919062001dfa565b50949695505050505050565b6200066d6040518060400160405280600b81526020017f73776170546f50726963650000000000000000000000000000000000000000008152506200104f565b6200068e8173ffffffffffffffffffffffffffffffffffffffff16620010e2565b60006200069a6200058a565b9050620006bd8173ffffffffffffffffffffffffffffffffffffffff16620010e2565b8173ffffffffffffffffffffffffffffffffffffffff168173ffffffffffffffffffffffffffffffffffffffff1603620006f5575050565b60008273ffffffffffffffffffffffffffffffffffffffff168273ffffffffffffffffffffffffffffffffffffffff16116200074a5760065473ffffffffffffffffffffffffffffffffffffffff1662000764565b60055473ffffffffffffffffffffffffffffffffffffffff165b905060008373ffffffffffffffffffffffffffffffffffffffff168373ffffffffffffffffffffffffffffffffffffffff1610620007bb5760065473ffffffffffffffffffffffffffffffffffffffff16620007d5565b60055473ffffffffffffffffffffffffffffffffffffffff165b6040517f40c10f190000000000000000000000000000000000000000000000000000000081529091506c100000000000000000000000009073ffffffffffffffffffffffffffffffffffffffff8416906340c10f19906200083d903090859060040162001bd2565b600060405180830381600087803b1580156200085857600080fd5b505af11580156200086d573d6000803e3d6000fd5b505050506200087f8383838862000381565b505050505050565b6000806000806200089b8888888862001175565b929b919a509850909650945050505050565b600080600260009054906101000a900473ffffffffffffffffffffffffffffffffffffffff1673ffffffffffffffffffffffffffffffffffffffff16630dfe16816040518163ffffffff1660e01b8152600401602060405180830381865afa1580156200091e573d6000803e3d6000fd5b505050506040513d601f19601f8201168201806040525081019062000944919062001eb3565b73ffffffffffffffffffffffffffffffffffffffff168573ffffffffffffffffffffffffffffffffffffffff16146200099e5762000998600173fffd8963efd1fc6a506488495d951d5263988d2662001ed6565b620009b0565b620009b06401000276a3600162001f07565b9050620009c08585858462000381565b9150505b9392505050565b6012604051620009db906200180c565b620009e7919062001fb9565b604051809103906000f08015801562000a04573d6000803e3d6000fd5b50600380547fffffffffffffffffffffffff00000000000000000000000000000000000000001673ffffffffffffffffffffffffffffffffffffffff92909216919091178155604080518082019091529081527f4d45480000000000000000000000000000000000000000000000000000000000602082015262000a88906200104f565b60035462000aac9073ffffffffffffffffffffffffffffffffffffffff1662001758565b600660405162000abc906200180c565b62000ac8919062002058565b604051809103906000f08015801562000ae5573d6000803e3d6000fd5b50600480547fffffffffffffffffffffffff00000000000000000000000000000000000000001673ffffffffffffffffffffffffffffffffffffffff92909216919091178155604080518082019091529081527f5553584400000000000000000000000000000000000000000000000000000000602082015262000b69906200104f565b60045462000b8d9073ffffffffffffffffffffffffffffffffffffffff1662001758565b600280547fffffffffffffffffff000000ffffffffffffffffffffffffffffffffffffffff167501f40000000000000000000000000000000000000000179055600454600354600680547fffffffffffffffffffffff00ffffffffffffffffffffffffffffffffffffffff167401000000000000000000000000000000000000000073ffffffffffffffffffffffffffffffffffffffff94851694909316939093118202929092179182905560ff91041662000c625760035473ffffffffffffffffffffffffffffffffffffffff1662000c7c565b60045473ffffffffffffffffffffffffffffffffffffffff165b600580547fffffffffffffffffffffffff00000000000000000000000000000000000000001673ffffffffffffffffffffffffffffffffffffffff9290921691909117905560065474010000000000000000000000000000000000000000900460ff1662000d035760045473ffffffffffffffffffffffffffffffffffffffff1662000d1d565b60035473ffffffffffffffffffffffffffffffffffffffff165b600680547fffffffffffffffffffffffff00000000000000000000000000000000000000001673ffffffffffffffffffffffffffffffffffffffff92909216919091179081905560009074010000000000000000000000000000000000000000900460ff1662000d98576910c6f7a0b5ed8d36b4c762000da9565b6e0f42400000000000000000000000005b905062000dcf604051806080016040528060538152602001620035fe605391396200104f565b6000546005546006546002546040517f13ead56200000000000000000000000000000000000000000000000000000000815273ffffffffffffffffffffffffffffffffffffffff948516946313ead5629462000e5694908216939116917401000000000000000000000000000000000000000090910462ffffff169087906004016200207f565b6020604051808303816000875af115801562000e76573d6000803e3d6000fd5b505050506040513d601f19601f8201168201806040525081019062000e9c919062001eb3565b600280547fffffffffffffffffffffffff00000000000000000000000000000000000000001673ffffffffffffffffffffffffffffffffffffffff9290921691909117905560408051808201909152600781527f763320706f6f6c00000000000000000000000000000000000000000000000000602082015262000f20906200104f565b60025462000f449073ffffffffffffffffffffffffffffffffffffffff1662001758565b62000f78629896807ffffffffffffffffffffffffffffffffffffffffffffffffffffffffffff276186200021981620020bc565b50565b60008160020b1362000f8c57600080fd5b600254604080517f3850c7bd000000000000000000000000000000000000000000000000000000008152905160009273ffffffffffffffffffffffffffffffffffffffff1691633850c7bd9160048083019260e09291908290030181865afa15801562000ffd573d6000803e3d6000fd5b505050506040513d601f19601f8201168201806040525081019062001023919062001dfa565b50505050509150506200104a8383836200103e919062002104565b6200021985856200215b565b505050565b62000f788160405160240162001066919062002228565b604080517fffffffffffffffffffffffffffffffffffffffffffffffffffffffffffffffe08184030181529190526020810180517bffffffffffffffffffffffffffffffffffffffffffffffffffffffff167f41304fac00000000000000000000000000000000000000000000000000000000179052620017e6565b62000f7881604051602401620010f9919062001994565b604080517fffffffffffffffffffffffffffffffffffffffffffffffffffffffffffffffe08184030181529190526020810180517bffffffffffffffffffffffffffffffffffffffffffffffffffffffff167ff82c50f100000000000000000000000000000000000000000000000000000000179052620017e6565b6003546040517f40c10f1900000000000000000000000000000000000000000000000000000000815260009182918291829173ffffffffffffffffffffffffffffffffffffffff909116906340c10f1990620011d89030908c9060040162001bd2565b600060405180830381600087803b158015620011f357600080fd5b505af115801562001208573d6000803e3d6000fd5b50506003546000546040517f095ea7b300000000000000000000000000000000000000000000000000000000815273ffffffffffffffffffffffffffffffffffffffff928316945063095ea7b393506200126b92909116908c9060040162001bd2565b6020604051808303816000875af11580156200128b573d6000803e3d6000fd5b505050506040513d601f19601f82011682018060405250810190620012b1919062001c08565b50600480546040517f40c10f1900000000000000000000000000000000000000000000000000000000815273ffffffffffffffffffffffffffffffffffffffff909116916340c10f19916200130b9130918c910162001bd2565b600060405180830381600087803b1580156200132657600080fd5b505af11580156200133b573d6000803e3d6000fd5b5050600480546000546040517f095ea7b300000000000000000000000000000000000000000000000000000000815273ffffffffffffffffffffffffffffffffffffffff928316955063095ea7b394506200139e9391909216918c910162001bd2565b6020604051808303816000875af1158015620013be573d6000803e3d6000fd5b505050506040513d601f19601f82011682018060405250810190620013e4919062001c08565b50600254604080517fd0c93a7c000000000000000000000000000000000000000000000000000000008152905160009273ffffffffffffffffffffffffffffffffffffffff169163d0c93a7c9160048083019260209291908290030181865afa15801562001456573d6000803e3d6000fd5b505050506040513d601f19601f820116820180604052508101906200147c91906200223d565b6040517f97fd6da700000000000000000000000000000000000000000000000000000000815290915073__$74cfa661df799b6cc5f12f5b8f602e3b0f$__906397fd6da790620014d3908a9085906004016200226b565b602060405180830381865af4158015620014f1573d6000803e3d6000fd5b505050506040513d601f19601f820116820180604052508101906200151791906200223d565b6040517f97fd6da700000000000000000000000000000000000000000000000000000000815290975073__$74cfa661df799b6cc5f12f5b8f602e3b0f$__906397fd6da7906200156e90899085906004016200226b565b602060405180830381865af41580156200158c573d6000803e3d6000fd5b505050506040513d601f19601f82011682018060405250810190620015b291906200223d565b604080516101608101825260035473ffffffffffffffffffffffffffffffffffffffff908116825260048054821660208401526002805474010000000000000000000000000000000000000000900462ffffff16848601528c810b606085015285900b608084015260a083018e905260c083018d9052600060e08401819052610100840181905233610120850152426101408501525493517f88316456000000000000000000000000000000000000000000000000000000008152949a50919392169163883164569162001689918591016200236e565b6080604051808303816000875af1158015620016a9573d6000803e3d6000fd5b505050506040513d601f19601f82011682018060405250810190620016cf9190620023a6565b60408051808201909152600681527f6d696e746564000000000000000000000000000000000000000000000000000060208201529399509197509550935062001718906200104f565b62001735856fffffffffffffffffffffffffffffffff16620010e2565b6200174084620010e2565b6200174b83620010e2565b5050945094509450949050565b62000f78816040516024016200176f91906200184b565b604080517fffffffffffffffffffffffffffffffffffffffffffffffffffffffffffffffe08184030181529190526020810180517bffffffffffffffffffffffffffffffffffffffffffffffffffffffff167f2c2ecbc2000000000000000000000000000000000000000000000000000000001790525b62000f788180516a636f6e736f6c652e6c6f67602083016000808483855afa5050505050565b6111fd806200240183390190565b600073ffffffffffffffffffffffffffffffffffffffff82165b92915050565b62001845816200181a565b82525050565b602081016200183482846200183a565b600073ffffffffffffffffffffffffffffffffffffffff821662001834565b600062001834826200185b565b600062001834826200187a565b620018458162001887565b6020810162001834828462001894565b600062001834826200181a565b620018c781620018af565b811462000f7857600080fd5b803580620018e181620018bc565b5092915050565b80620018c7565b803580620018e181620018e8565b73ffffffffffffffffffffffffffffffffffffffff8116620018c7565b803580620018e181620018fd565b60008060008060808587031215620019435762001943600080fd5b6200194f8686620018d3565b9350620019608660208701620018d3565b9250620019718660408701620018ef565b91506200198286606087016200191a565b905092959194509250565b8062001845565b602081016200183482846200198d565b620018c78160020b90565b803580620018e181620019a4565b600080600060608486031215620019d757620019d7600080fd5b620019e38585620018ef565b9250620019f48560208601620019af565b915062001a058560408601620019af565b90509250925092565b80151562001845565b6020810162001834828462001a0e565b73ffffffffffffffffffffffffffffffffffffffff811662001845565b6020810162001834828462001a27565b60006020828403121562001a6b5762001a6b600080fd5b620009c483836200191a565b6000806000806080858703121562001a925762001a92600080fd5b62001a9e8686620018ef565b935062001aaf8660208701620018ef565b925062001ac08660408701620019af565b9150620019828660608701620019af565b6fffffffffffffffffffffffffffffffff811662001845565b6080810162001afa82876200198d565b62001b09602083018662001ad1565b62001b1860408301856200198d565b62001b2760608301846200198d565b95945050505050565b62ffffff811662001845565b6020810162001834828462001b30565b60008060006060848603121562001b665762001b66600080fd5b62001b728585620018d3565b925062001b838560208601620018d3565b915062001a058560408601620018ef565b6000806040838503121562001bac5762001bac600080fd5b62001bb88484620018ef565b915062001bc98460208501620019af565b90509250929050565b6040810162001be282856200183a565b620009c460208301846200198d565b801515620018c7565b805180620018e18162001bf1565b60006020828403121562001c1f5762001c1f600080fd5b620009c4838362001bfa565b62001c388282516200183a565b602081015162001c4c60208401826200183a565b50604081015162001c61604084018262001b30565b50606081015162001c7660608401826200183a565b50608081015162001c8b60808401826200198d565b5060a081015162001ca060a08401826200198d565b5060c081015162001cb560c08401826200198d565b5060e08101516200104a60e084018262001a27565b610100810162001834828462001c2b565b805180620018e181620018e8565b60006020828403121562001d005762001d00600080fd5b620009c4838362001cdb565b7f4e487b7100000000000000000000000000000000000000000000000000000000600052601160045260246000fd5b818102818382821583820483141762001d585762001d5862001d0c565b50505092915050565b7f4e487b7100000000000000000000000000000000000000000000000000000000600052601260045260246000fd5b600081838062001da45762001da462001d61565b90049392505050565b805180620018e181620018fd565b805180620018e181620019a4565b61ffff8116620018c7565b805180620018e18162001dc9565b60ff8116620018c7565b805180620018e18162001de2565b600080600080600080600060e0888a03121562001e1a5762001e1a600080fd5b62001e26898962001dad565b965062001e378960208a0162001dbb565b955062001e488960408a0162001dd4565b945062001e598960608a0162001dd4565b935062001e6a8960808a0162001dd4565b925062001e7b8960a08a0162001dec565b915062001e8c8960c08a0162001bfa565b905092959891949750929550565b620018c7816200181a565b805180620018e18162001e9a565b60006020828403121562001eca5762001eca600080fd5b620009c4838362001ea5565b73ffffffffffffffffffffffffffffffffffffffff82811682821603908190811115620018e157620018e162001d0c565b73ffffffffffffffffffffffffffffffffffffffff82811682821601908190811115620018e157620018e162001d0c565b601681526000602082017f4d6f636b20457468657265756d2048617264666f726b0000000000000000000081525b60200192915050565b600381526000602082017f4d45480000000000000000000000000000000000000000000000000000000000815262001f66565b600060ff821662001834565b620018458162001fa2565b60608152600062001fcd6060830162001f38565b828103602084015262001fe08162001f6f565b91505062001834604083018462001fae565b601081526000602082017f4a6f6b652043757272656e637920584400000000000000000000000000000000815262001f66565b600481526000602082017f5553584400000000000000000000000000000000000000000000000000000000815262001f66565b6060815260006200206c6060830162001ff2565b828103602084015262001fe08162002025565b608081016200208f82876200183a565b6200209e60208301866200183a565b620020ad604083018562001b30565b62001b27606083018462001a27565b6000620020c98260020b90565b7fffffffffffffffffffffffffffffffffffffffffffffffffffffffffff8000008103620020fb57620020fb62001d0c565b60000392915050565b6000620021118260020b90565b6200211c8460020b90565b90039050807fffffffffffffffffffffffffffffffffffffffffffffffffffffffffff8000008112627fffff82131715620018e157620018e162001d0c565b6000620021688260020b90565b620021738460020b90565b01905080627fffff81137fffffffffffffffffffffffffffffffffffffffffffffffffffffffffff80000082121715620018e157620018e162001d0c565b60005b83811015620021ce578181015183820152602001620021b4565b50506000910152565b6000620021e2825190565b80845260208401620021f9828260208701620021b1565b7fffffffffffffffffffffffffffffffffffffffffffffffffffffffffffffffe0601f83011601949350505050565b602081526000620009c46020830184620021d7565b600060208284031215620022545762002254600080fd5b620009c4838362001dbb565b620018458160020b90565b604081016200227b828562002260565b620009c4602083018462002260565b620022978282516200183a565b6020810151620022ab60208401826200183a565b506040810151620022c0604084018262001b30565b506060810151620022d5606084018262002260565b506080810151620022ea608084018262002260565b5060a0810151620022ff60a08401826200198d565b5060c08101516200231460c08401826200198d565b5060e08101516200232960e08401826200198d565b50610100810151620023406101008401826200198d565b50610120810151620023576101208401826200183a565b506101408101516200104a6101408401826200198d565b61016081016200183482846200228a565b6fffffffffffffffffffffffffffffffff8116620018c7565b805180620018e1816200237f565b60008060008060808587031215620023c157620023c1600080fd5b620023cd868662001cdb565b9350620023de866020870162002398565b9250620023ef866040870162001cdb565b915062001982866060870162001cdb56fe60806040523480156200001157600080fd5b50604051620011fd380380620011fd8339810160408190526200003491620001c9565b828260036200004483826200035d565b5060046200005382826200035d565b50506005805460ff191660ff9390931692909217909155506200042a915050565b634e487b7160e01b600052604160045260246000fd5b601f19601f83011681016001600160401b0381118282101715620000b257620000b262000074565b6040525050565b6000620000c560405190565b809150620000d483826200008a565b50919050565b60006001600160401b03821115620000f657620000f662000074565b50601f01601f191660200190565b60005b838110156200012157818101518382015260200162000107565b50506000910152565b6000620001416200013b84620000da565b620000b9565b8091508381528484840111156200015b576200015b600080fd5b6200016b84602083018562000104565b509392505050565b600082601f830112620001895762000189600080fd5b6200019a838351602085016200012a565b9392505050565b60ff81168114620001b157600080fd5b50565b805180620001c281620001a1565b5092915050565b600080600060608486031215620001e357620001e3600080fd5b83516001600160401b03811115620001fe57620001fe600080fd5b6200020c8682870162000173565b602086015190945090506001600160401b038111156200022f576200022f600080fd5b6200023d8682870162000173565b9250506200024f8560408601620001b4565b90509250925092565b634e487b7160e01b600052602260045260246000fd5b600181811c9081908316806200028557607f821692505b6020831081036200029a576200029a62000258565b5050919050565b6000620002b2620002af8381565b90565b92915050565b620002e1620002cb620002af85620002a1565b8254600385901b91821b60001990921b19161790565b90555050565b620002f560008383620002b8565b5050565b81811015620002f5576200030f600082620002e7565b600101620002f9565b601f8211156200035857600081815260209020601f840160051c81016020851015620003415750805b62000355601f850160051c830182620002f9565b50505b505050565b81516001600160401b0381111562000379576200037962000074565b62000391816200038a84546200026e565b8462000318565b6020601f821160018114620003ca5760008315620003af5750848201515b600019600385901b1c198116600185901b1785555062000355565b600084815260208120601f198516915b82811015620003fc5787850151825560209485019460019092019101620003da565b50848210156200041b5783870151600019600387901b60f8161c191681555b50505050600190811b01905550565b610dc3806200043a6000396000f3fe608060405234801561001057600080fd5b50600436106100d45760003560e01c806340c10f1911610081578063a457c2d71161005b578063a457c2d7146101b4578063a9059cbb146101c7578063dd62ed3e146101da57600080fd5b806340c10f191461016157806370a082311461017657806395d89b41146101ac57600080fd5b806323b872dd116100b257806323b872dd14610128578063313ce5671461013b578063395093511461014e57600080fd5b806306fdde03146100d9578063095ea7b3146100f757806318160ddd14610117575b600080fd5b6100e1610220565b6040516100ee919061084f565b60405180910390f35b61010a6101053660046108c3565b6102b2565b6040516100ee9190610905565b6002545b6040516100ee9190610919565b61010a610136366004610927565b6102cc565b60055460ff166040516100ee9190610979565b61010a61015c3660046108c3565b6102f0565b61017461016f3660046108c3565b61033c565b005b61011b610184366004610987565b73ffffffffffffffffffffffffffffffffffffffff1660009081526020819052604090205490565b6100e161034a565b61010a6101c23660046108c3565b610359565b61010a6101d53660046108c3565b6103dd565b61011b6101e83660046109a6565b73ffffffffffffffffffffffffffffffffffffffff918216600090815260016020908152604080832093909416825291909152205490565b60606003805461022f90610a04565b80601f016020809104026020016040519081016040528092919081815260200182805461025b90610a04565b80156102a85780601f1061027d576101008083540402835291602001916102a8565b820191906000526020600020905b81548152906001019060200180831161028b57829003601f168201915b5050505050905090565b6000336102c08185856103eb565b60019150505b92915050565b6000336102da8582856104fa565b6102e58585856105a1565b506001949350505050565b33600081815260016020908152604080832073ffffffffffffffffffffffffffffffffffffffff871684529091528120549091906102c09082908690610337908790610a62565b6103eb565b6103468282610713565b5050565b60606004805461022f90610a04565b33600081815260016020908152604080832073ffffffffffffffffffffffffffffffffffffffff87168452909152812054909190838110156103d0576040517f08c379a00000000000000000000000000000000000000000000000000000000081526004016103c790610adc565b60405180910390fd5b6102e582868684036103eb565b6000336102c08185856105a1565b73ffffffffffffffffffffffffffffffffffffffff8316610438576040517f08c379a00000000000000000000000000000000000000000000000000000000081526004016103c790610b46565b73ffffffffffffffffffffffffffffffffffffffff8216610485576040517f08c379a00000000000000000000000000000000000000000000000000000000081526004016103c790610bb0565b73ffffffffffffffffffffffffffffffffffffffff80841660008181526001602090815260408083209487168084529490915290819020849055517f8c5be1e5ebec7d5bd14f71427d1e84f3dd0314c0f7b2291e5b200ac8c7c3b925906104ed908590610919565b60405180910390a3505050565b73ffffffffffffffffffffffffffffffffffffffff8381166000908152600160209081526040808320938616835292905220547fffffffffffffffffffffffffffffffffffffffffffffffffffffffffffffffff811461059b578181101561058e576040517f08c379a00000000000000000000000000000000000000000000000000000000081526004016103c790610bf9565b61059b84848484036103eb565b50505050565b73ffffffffffffffffffffffffffffffffffffffff83166105ee576040517f08c379a00000000000000000000000000000000000000000000000000000000081526004016103c790610c63565b73ffffffffffffffffffffffffffffffffffffffff821661063b576040517f08c379a00000000000000000000000000000000000000000000000000000000081526004016103c790610ccd565b73ffffffffffffffffffffffffffffffffffffffff83166000908152602081905260409020548181101561069b576040517f08c379a00000000000000000000000000000000000000000000000000000000081526004016103c790610d37565b73ffffffffffffffffffffffffffffffffffffffff80851660008181526020819052604080822086860390559286168082529083902080548601905591517fddf252ad1be2c89b69c2b068fc378daa952ba7f163c4a11628f55a4df523b3ef90610706908690610919565b60405180910390a361059b565b73ffffffffffffffffffffffffffffffffffffffff8216610760576040517f08c379a00000000000000000000000000000000000000000000000000000000081526004016103c790610d7b565b80600260008282546107729190610a62565b909155505073ffffffffffffffffffffffffffffffffffffffff8216600081815260208190526040808220805485019055517fddf252ad1be2c89b69c2b068fc378daa952ba7f163c4a11628f55a4df523b3ef906107d1908590610919565b60405180910390a35050565b60005b838110156107f85781810151838201526020016107e0565b50506000910152565b600061080b825190565b808452602084016108208282602087016107dd565b7fffffffffffffffffffffffffffffffffffffffffffffffffffffffffffffffe0601f83011601949350505050565b6020815260006108626020830184610801565b9392505050565b600073ffffffffffffffffffffffffffffffffffffffff82166102c6565b61089081610869565b811461089b57600080fd5b50565b8035806108aa81610887565b5092915050565b80610890565b8035806108aa816108b1565b600080604083850312156108d9576108d9600080fd5b6108e3848461089e565b91506108f284602085016108b7565b90509250929050565b8015155b82525050565b602081016102c682846108fb565b806108ff565b602081016102c68284610913565b60008060006060848603121561093f5761093f600080fd5b610949858561089e565b9250610958856020860161089e565b915061096785604086016108b7565b90509250925092565b60ff81166108ff565b602081016102c68284610970565b60006020828403121561099c5761099c600080fd5b610862838361089e565b600080604083850312156109bc576109bc600080fd5b6109c6848461089e565b91506108f2846020850161089e565b7f4e487b7100000000000000000000000000000000000000000000000000000000600052602260045260246000fd5b600181811c908190831680610a1a57607f821692505b602083108103610a2c57610a2c6109d5565b5050919050565b7f4e487b7100000000000000000000000000000000000000000000000000000000600052601160045260246000fd5b818101818180821115610a7757610a77610a33565b505092915050565b602581526000602082017f45524332303a2064656372656173656420616c6c6f77616e63652062656c6f7781527f207a65726f00000000000000000000000000000000000000000000000000000060208201525b60400192915050565b6020815260006102c660208301610a7f565b602481526000602082017f45524332303a20617070726f76652066726f6d20746865207a65726f2061646481527f72657373000000000000000000000000000000000000000000000000000000006020820152610ad3565b6020815260006102c660208301610aee565b602281526000602082017f45524332303a20617070726f766520746f20746865207a65726f20616464726581527f73730000000000000000000000000000000000000000000000000000000000006020820152610ad3565b6020815260006102c660208301610b58565b601d81526000602082017f45524332303a20696e73756666696369656e7420616c6c6f77616e636500000081525b60200192915050565b6020815260006102c660208301610bc2565b602581526000602082017f45524332303a207472616e736665722066726f6d20746865207a65726f20616481527f64726573730000000000000000000000000000000000000000000000000000006020820152610ad3565b6020815260006102c660208301610c0b565b602381526000602082017f45524332303a207472616e7366657220746f20746865207a65726f206164647281527f65737300000000000000000000000000000000000000000000000000000000006020820152610ad3565b6020815260006102c660208301610c75565b602681526000602082017f45524332303a207472616e7366657220616d6f756e742065786365656473206281527f616c616e636500000000000000000000000000000000000000000000000000006020820152610ad3565b6020815260006102c660208301610cdf565b601f81526000602082017f45524332303a206d696e7420746f20746865207a65726f2061646472657373008152610bf0565b6020815260006102c660208301610d4956fea2646970667358221220cd44a198e923f8e5e46b9869f813e11aa59f8930b4361f0f306ac53e161271d264736f6c634300081600336966207468697320697320746865206c617374206c696e65206265666f7265206120726576657274207468656e206d616b65207375726520746f2072756e20666f7267652077697468202d2d7270632d75726ca2646970667358221220e24d516b60430c641c8980ef5657e8505e86a72a54cb97d776669dcdc4b7648564736f6c63430008160033",
    "linkReferences": {
      "src/Util.sol": {
        "Util": [
          {
            "start": 5391,
            "length": 20
          },
          {
            "start": 5546,
            "length": 20
          }
        ]
      }
    }
  },
  "methodIdentifiers": {
    "COIN()": "a54a72b7",
    "USD()": "1bf6c21b",
    "fee()": "ddca3f43",
    "init()": "e1c7392a",
    "inverted()": "67e368fc",
    "nfpm()": "7303e913",
    "pool()": "16f0115b",
    "price()": "a035b1fe",
    "stake(uint256,int24)": "e3baf41a",
    "stake(uint256,int24,int24)": "53486e2f",
    "stake(uint256,uint256,int24,int24)": "d6f13002",
    "swap(address,address,uint256)": "df791e50",
    "swap(address,address,uint256,uint160)": "4a09d3dd",
    "swapToPrice(uint160)": "c578d91d",
    "swapper()": "2b3297f9",
    "token0()": "0dfe1681",
    "token1()": "d21220a7"
  },
  "id": 63
}