{"abi":[{"type":"constructor","inputs":[],"stateMutability":"nonpayable"},{"type":"receive","stateMutability":"payable"},{"type":"function","name":"SetFeeSched","inputs":[{"name":"_feeSched","type":"tuple","internalType":"struct Dexorder.FeeSched","components":[{"name":"fillFeeBP","type":"uint8","internalType":"uint8"},{"name":"order","type":"uint8","internalType":"uint8"},{"name":"orderExp","type":"uint8","internalType":"uint8"},{"name":"tranche","type":"uint8","internalType":"uint8"},{"name":"trancheExp","type":"uint8","internalType":"uint8"}]}],"outputs":[],"stateMutability":"nonpayable"},{"type":"function","name":"execute","inputs":[{"name":"id","type":"bytes16","internalType":"bytes16"},{"name":"req","type":"tuple","internalType":"struct Dexorder.ExecutionRequest","components":[{"name":"vault","type":"address","internalType":"address payable"},{"name":"orderIndex","type":"uint64","internalType":"uint64"},{"name":"trancheIndex","type":"uint8","internalType":"uint8"},{"name":"proof","type":"tuple","internalType":"struct OrderLib.PriceProof","components":[{"name":"proof","type":"uint256","internalType":"uint256"}]}]}],"outputs":[{"name":"error","type":"string","internalType":"string"}],"stateMutability":"nonpayable"},{"type":"function","name":"execute","inputs":[{"name":"id","type":"bytes16","internalType":"bytes16"},{"name":"reqs","type":"tuple[]","internalType":"struct Dexorder.ExecutionRequest[]","components":[{"name":"vault","type":"address","internalType":"address payable"},{"name":"orderIndex","type":"uint64","internalType":"uint64"},{"name":"trancheIndex","type":"uint8","internalType":"uint8"},{"name":"proof","type":"tuple","internalType":"struct OrderLib.PriceProof","components":[{"name":"proof","type":"uint256","internalType":"uint256"}]}]}],"outputs":[{"name":"errors","type":"string[]","internalType":"string[]"}],"stateMutability":"nonpayable"},{"type":"function","name":"feeSched","inputs":[],"outputs":[{"name":"fillFeeBP","type":"uint8","internalType":"uint8"},{"name":"order","type":"uint8","internalType":"uint8"},{"name":"orderExp","type":"uint8","internalType":"uint8"},{"name":"tranche","type":"uint8","internalType":"uint8"},{"name":"trancheExp","type":"uint8","internalType":"uint8"}],"stateMutability":"view"},{"type":"function","name":"fillFee","inputs":[{"name":"fill","type":"uint256","internalType":"uint256"},{"name":"fillFeeBP","type":"uint8","internalType":"uint8"}],"outputs":[{"name":"","type":"uint256","internalType":"uint256"}],"stateMutability":"pure"},{"type":"function","name":"fillFeeAccount","inputs":[],"outputs":[{"name":"","type":"address","internalType":"address payable"}],"stateMutability":"view"},{"type":"function","name":"orderFee","inputs":[],"outputs":[{"name":"","type":"uint256","internalType":"uint256"}],"stateMutability":"view"},{"type":"function","name":"orderFeeAccount","inputs":[],"outputs":[{"name":"","type":"address","internalType":"address payable"}],"stateMutability":"view"},{"type":"function","name":"setDebugFeeSched","inputs":[],"outputs":[],"stateMutability":"nonpayable"},{"type":"function","name":"setFeeAccounts","inputs":[{"name":"_fillFeeAccount","type":"address","internalType":"address payable"},{"name":"_orderFeeAccount","type":"address","internalType":"address payable"},{"name":"_trancheFeeAccount","type":"address","internalType":"address payable"}],"outputs":[],"stateMutability":"nonpayable"},{"type":"function","name":"trancheFee","inputs":[{"name":"nTranches","type":"uint256","internalType":"uint256"}],"outputs":[{"name":"","type":"uint256","internalType":"uint256"}],"stateMutability":"view"},{"type":"function","name":"trancheFeeAccount","inputs":[],"outputs":[{"name":"","type":"address","internalType":"address payable"}],"stateMutability":"view"},{"type":"event","name":"DexorderExecutions","inputs":[{"name":"id","type":"bytes16","indexed":true,"internalType":"bytes16"},{"name":"errors","type":"string[]","indexed":false,"internalType":"string[]"}],"anonymous":false}],"bytecode":{"object":"0x6080346100a257600480546001600160a01b03199081169091559060a08101906001600160401b0382118183101761008c576080916040526000918183809352826020820152826040820152826060820152015264ffffffffff19815416905530816002541617600255308160035416176003553090600154161760015560405161131f90816100a88239f35b634e487b7160e01b600052604160045260246000fd5b600080fdfe6080604081815260049182361015610022575b505050361561002057600080fd5b005b600090813560e01c90816301efa5e514610938575080631392fb3e146108ef578063265876171461079d5780634d95e76b146106ad5780634ec8ab71146106595780635800bc7b146105965780638487b0151461053e578063a4da4f7c146104d5578063a99e220f14610482578063ea43b36b1461042f578063ebd3cdcd146103d85763f09e58270361001257346103d557817ffffffffffffffffffffffffffffffffffffffffffffffffffffffffffffffffc3601126103d5576100e5610b86565b6024939067ffffffffffffffff85358181116103d157366023820112156103d157808401359061011482610cf8565b9161012188519384610c59565b808352602093898585019260071b840101923684116103cd578a01915b8383106103155750505050610185865161015781610c21565b601881527f4465786f7264657220657865637574652829206d756c7469000000000000000084820152610e89565b848082518851858101917ff82c50f10000000000000000000000000000000000000000000000000000000083528b8201528a81526101c281610c3d565b51906a636f6e736f6c652e6c6f675afa508051917fffffffffffffffffffffffffffffffffffffffffffffffffffffffffffffffe061021861020385610cf8565b946102108a519687610c59565b808652610cf8565b01865b81811061030657505050845b815160ff82169081101561029d578061024c61024661025d9386610dce565b51610f9f565b6102568287610dce565b5284610dce565b5060ff80911690811461027257600101610227565b87866011877f4e487b7100000000000000000000000000000000000000000000000000000000835252fd5b6103028489877f15feb66d72284d4a0e80f76082f237f0dff281916db7a735e31b8236fb40c3ad7fffffffffffffffffffffffffffffffff000000000000000000000000000000008351921691806102f58682610d10565b0390a25191829182610d10565b0390f35b6060858201840152820161021b565b823603608081126103c9578a519061032c82610bba565b843573ffffffffffffffffffffffffffffffffffffffff811681036103c55782528785013584811681036103c557888301528b85013560ff811681036103c5578c830152877fffffffffffffffffffffffffffffffffffffffffffffffffffffffffffffffa060609201126103c1579187916080938d51906103ad82610c05565b80880135825282015281520192019161013e565b8a80fd5b8b80fd5b8980fd5b8880fd5b8480fd5b80fd5b50903461042b57817ffffffffffffffffffffffffffffffffffffffffffffffffffffffffffffffffc36011261042b5760209073ffffffffffffffffffffffffffffffffffffffff600254169051908152f35b5080fd5b50903461042b57817ffffffffffffffffffffffffffffffffffffffffffffffffffffffffffffffffc36011261042b5760209073ffffffffffffffffffffffffffffffffffffffff600154169051908152f35b50903461042b57817ffffffffffffffffffffffffffffffffffffffffffffffffffffffffffffffffc36011261042b5760209073ffffffffffffffffffffffffffffffffffffffff600354169051908152f35b50903461042b57817ffffffffffffffffffffffffffffffffffffffffffffffffffffffffffffffffc36011261042b5760ff60a092548251928282168452828260081c166020850152828260101c1690840152818160181c16606084015260201c166080820152f35b50913461059257817ffffffffffffffffffffffffffffffffffffffffffffffffffffffffffffffffc360112610592576024359260ff84168094036103d5575060209261058b9135611263565b9051908152f35b8280fd5b50823461042b5760607ffffffffffffffffffffffffffffffffffffffffffffffffffffffffffffffffc36011261042b57803573ffffffffffffffffffffffffffffffffffffffff9182821680920361065557602435908382168092036103d15760443593808516809503610651576106129154163314610e24565b7fffffffffffffffffffffffff000000000000000000000000000000000000000091826001541617600155816002541617600255600354161760035580f35b8580fd5b8380fd5b509190346105925760207ffffffffffffffffffffffffffffffffffffffffffffffffffffffffffffffffc3601126105925760ff6106a26020945493828560181c169035610de2565b915192841c161b8152f35b50823461042b5760a07ffffffffffffffffffffffffffffffffffffffffffffffffffffffffffffffffc36011261042b5761070073ffffffffffffffffffffffffffffffffffffffff8254163314610e24565b3560ff811680910361042b5781549060243560ff811681036106555760443560ff811681036103d1576064359260ff84168403610651576084359260ff841684036107995761ff0062ff0000927fffffffffffffffffffffffffffffffffffffffffffffffffffffff000000000064ff0000000063ff0000009760201b169816179160081b16179160101b16179160181b161717815580f35b8680fd5b50903461042b57817ffffffffffffffffffffffffffffffffffffffffffffffffffffffffffffffffc36011261042b576108ec906108b26428642864c87fffffffffffffffffffffffffffffffffffffffffffffffffffffff000000000085541617808555610847835161081081610c21565b601281527f66696c6c2066656520284250293a2020202000000000000000000000000000006020820152607f8360011c16906111e7565b61089d610863600160ff8460101c161b60ff8460081c16610de2565b845161086e81610c21565b601281527f6f72646572206665652028776569293a2020000000000000000000000000000060208201526111e7565b60ff6001818360201c161b9160181c16610de2565b90516108bd81610c21565b601281527f7472616e636865206665652028776569293a000000000000000000000000000060208201526111e7565b80f35b50903461042b57817ffffffffffffffffffffffffffffffffffffffffffffffffffffffffffffffffc36011261042b576020915490519060ff808260081c169160101c161b8152f35b82843461042b5760a07ffffffffffffffffffffffffffffffffffffffffffffffffffffffffffffffffc36011261042b57610971610b86565b9160807fffffffffffffffffffffffffffffffffffffffffffffffffffffffffffffffdc3601126103d5576109a584610bba565b60243573ffffffffffffffffffffffffffffffffffffffff8116810361042b5784526044359267ffffffffffffffff8416840361042b576020938486015260643560ff811681036105925783860152837fffffffffffffffffffffffffffffffffffffffffffffffffffffffffffffff7c36011261042b57610a7a835195610a2c87610c05565b60843587526060966060820152610a758551610a4781610c21565b601981527f4465786f72646572206578656375746528292073696e676c650000000000000088820152610e89565b610f9f565b9484845193610a8885610c21565b600185525b818110610b7757505050907f15feb66d72284d4a0e80f76082f237f0dff281916db7a735e31b8236fb40c3ad7fffffffffffffffffffffffffffffffff00000000000000000000000000000000610302949387610ae985610d92565b52610af384610d92565b50610b048551928392169482610d10565b0390a2610b688151610b1581610c3d565b602381527f4465786f72646572206578656375746528292073696e676c6520636f6d706c65858201527f746564000000000000000000000000000000000000000000000000000000000083820152610e89565b51928284938452830190610c9a565b82828287010152018590610a8d565b600435907fffffffffffffffffffffffffffffffff0000000000000000000000000000000082168203610bb557565b600080fd5b6080810190811067ffffffffffffffff821117610bd657604052565b7f4e487b7100000000000000000000000000000000000000000000000000000000600052604160045260246000fd5b6020810190811067ffffffffffffffff821117610bd657604052565b6040810190811067ffffffffffffffff821117610bd657604052565b6060810190811067ffffffffffffffff821117610bd657604052565b90601f7fffffffffffffffffffffffffffffffffffffffffffffffffffffffffffffffe0910116810190811067ffffffffffffffff821117610bd657604052565b919082519283825260005b848110610ce45750507fffffffffffffffffffffffffffffffffffffffffffffffffffffffffffffffe0601f8460006020809697860101520116010190565b602081830181015184830182015201610ca5565b67ffffffffffffffff8111610bd65760051b60200190565b6020808201906020835283518092526040830192602060408460051b8301019501936000915b848310610d465750505050505090565b9091929394958480610d82837fffffffffffffffffffffffffffffffffffffffffffffffffffffffffffffffc086600196030187528a51610c9a565b9801930193019194939290610d36565b805115610d9f5760200190565b7f4e487b7100000000000000000000000000000000000000000000000000000000600052603260045260246000fd5b8051821015610d9f5760209160051b010190565b81810292918115918404141715610df557565b7f4e487b7100000000000000000000000000000000000000000000000000000000600052601160045260246000fd5b15610e2b57565b60646040517f08c379a000000000000000000000000000000000000000000000000000000000815260206004820152600960248201527f6e6f742061646d696e00000000000000000000000000000000000000000000006044820152fd5b60008091604051610efc81610ed060208201947f41304fac000000000000000000000000000000000000000000000000000000008652602060248401526044830190610c9a565b037fffffffffffffffffffffffffffffffffffffffffffffffffffffffffffffffe08101835282610c59565b51906a636f6e736f6c652e6c6f675afa50565b600060443d10610f8b576040517ffffffffffffffffffffffffffffffffffffffffffffffffffffffffffffffffc91823d016004833e815167ffffffffffffffff918282113d602484011117610f8e57818401948551938411610f96573d85010160208487010111610f8e5750610f8b92910160200190610c59565b90565b949350505050565b50949350505050565b90606091600090604090610fe68251610fb781610c21565b601381527f4465786f72646572205f657865637574652829000000000000000000000000006020820152610e89565b73ffffffffffffffffffffffffffffffffffffffff81511667ffffffffffffffff9182602082015116606060ff868401511692015192803b156107995786929183606492885196879586947f6e98833d000000000000000000000000000000000000000000000000000000008652600486015260248501525160448401525af191826111a7575b50506111555760018260033d11611145575b6308c379a01461109c575b611092575050565b51903d90823e3d90fd5b6110a4610f0f565b806110b0575b5061108a565b945050819380511561110a575b6110fa82516110cb81610c21565b601281527f65786563757465206572726f7220636f646500000000000000000000000000006020820152610e89565b61110381610e89565b93386110aa565b50805161111681610c21565b600381527f554e4b000000000000000000000000000000000000000000000000000000000060208201526110bd565b50600483803e825160e01c61107f565b8093506111a591505161116781610c05565b60008152925161117681610c21565b601481527f657865637574696f6e207375636365737366756c0000000000000000000000006020820152610e89565b565b81949294116111ba57825291388061106d565b6024827f4e487b710000000000000000000000000000000000000000000000000000000081526041600452fd5b600091908291610efc604051809261123160208301957fb60e72cc000000000000000000000000000000000000000000000000000000008752604060248501526064840190610c9a565b906044830152037fffffffffffffffffffffffffffffffffffffffffffffffffffffffffffffffe08101835282610c59565b907fffffffffffffffffffffffffffffffffffffffffffffffffffffffffffffffff818309818302918280831092039180830392146112de57614e209082821115610bb5577fbc01a36e2eb1c432ca57a786c226809d495182a9930be0ded288ce703afb7e91940990828211900360fb1b910360051c170290565b5050614e209150049056fea264697066735822122052d831315262f9785c5fe7707b8e108448d80a34c41fd3c6e2af44411c61b88464736f6c63430008160033","linkReferences":{}},"methodIdentifiers":{"SetFeeSched((uint8,uint8,uint8,uint8,uint8))":"4d95e76b","execute(bytes16,(address,uint64,uint8,(uint256)))":"01efa5e5","execute(bytes16,(address,uint64,uint8,(uint256))[])":"f09e5827","feeSched()":"a4da4f7c","fillFee(uint256,uint8)":"8487b015","fillFeeAccount()":"ea43b36b","orderFee()":"1392fb3e","orderFeeAccount()":"ebd3cdcd","setDebugFeeSched()":"26587617","setFeeAccounts(address,address,address)":"5800bc7b","trancheFee(uint256)":"4ec8ab71","trancheFeeAccount()":"a99e220f"},"id":56}