{
  "abi": [
    {
      "anonymous": false,
      "inputs": [
        {
          "indexed": true,
          "internalType": "bytes16",
          "name": "id",
          "type": "bytes16"
        },
        {
          "indexed": false,
          "internalType": "string[]",
          "name": "errors",
          "type": "string[]"
        }
      ],
      "name": "DexorderExecutions",
      "type": "event"
    },
    {
      "inputs": [
        {
          "internalType": "bytes16",
          "name": "id",
          "type": "bytes16"
        },
        {
          "components": [
            {
              "internalType": "address payable",
              "name": "vault",
              "type": "address"
            },
            {
              "internalType": "uint64",
              "name": "orderIndex",
              "type": "uint64"
            },
            {
              "internalType": "uint8",
              "name": "trancheIndex",
              "type": "uint8"
            },
            {
              "components": [
                {
                  "internalType": "uint256",
                  "name": "proof",
                  "type": "uint256"
                }
              ],
              "internalType": "struct OrderLib.PriceProof",
              "name": "proof",
              "type": "tuple"
            }
          ],
          "internalType": "struct Dexorder.ExecutionRequest",
          "name": "req",
          "type": "tuple"
        }
      ],
      "name": "execute",
      "outputs": [
        {
          "internalType": "string",
          "name": "error",
          "type": "string"
        }
      ],
      "stateMutability": "nonpayable",
      "type": "function"
    },
    {
      "inputs": [
        {
          "internalType": "bytes16",
          "name": "id",
          "type": "bytes16"
        },
        {
          "components": [
            {
              "internalType": "address payable",
              "name": "vault",
              "type": "address"
            },
            {
              "internalType": "uint64",
              "name": "orderIndex",
              "type": "uint64"
            },
            {
              "internalType": "uint8",
              "name": "trancheIndex",
              "type": "uint8"
            },
            {
              "components": [
                {
                  "internalType": "uint256",
                  "name": "proof",
                  "type": "uint256"
                }
              ],
              "internalType": "struct OrderLib.PriceProof",
              "name": "proof",
              "type": "tuple"
            }
          ],
          "internalType": "struct Dexorder.ExecutionRequest[]",
          "name": "reqs",
          "type": "tuple[]"
        }
      ],
      "name": "execute",
      "outputs": [
        {
          "internalType": "string[]",
          "name": "errors",
          "type": "string[]"
        }
      ],
      "stateMutability": "nonpayable",
      "type": "function"
    }
  ],
  "bytecode": {
    "object": "0x608060405234801561001057600080fd5b50610937806100206000396000f3fe608060405234801561001057600080fd5b50600436106100365760003560e01c806301efa5e51461003b578063f09e582714610064575b600080fd5b61004e610049366004610505565b610084565b60405161005b91906105af565b60405180910390f35b610077610072366004610671565b610132565b60405161005b9190610734565b606061008f8261023d565b60408051600180825281830190925291925060009190816020015b60608152602001906001900390816100aa57905050905081816000815181106100d5576100d5610747565b6020026020010181905250836fffffffffffffffffffffffffffffffff19167f15feb66d72284d4a0e80f76082f237f0dff281916db7a735e31b8236fb40c3ad826040516101239190610734565b60405180910390a25092915050565b6060815167ffffffffffffffff81111561014e5761014e610363565b60405190808252806020026020018201604052801561018157816020015b606081526020019060019003908161016c5790505b50905060005b82518160ff1610156101eb576101b8838260ff16815181106101ab576101ab610747565b602002602001015161023d565b828260ff16815181106101cd576101cd610747565b602002602001018190525080806101e3906107a5565b915050610187565b50826fffffffffffffffffffffffffffffffff19167f15feb66d72284d4a0e80f76082f237f0dff281916db7a735e31b8236fb40c3ad8260405161022f9190610734565b60405180910390a292915050565b8051602082015160408084015160608581015192517f6e98833d000000000000000000000000000000000000000000000000000000008152909473ffffffffffffffffffffffffffffffffffffffff1693636e98833d936102a29391926004016107f4565b600060405180830381600087803b1580156102bc57600080fd5b505af19250505080156102cd575060015b61030a576102d9610824565b806308c379a0036102fe57506102ed610840565b806102f85750610300565b92915050565b505b3d6000803e3d6000fd5b505060408051602081019091526000815290565b7fffffffffffffffffffffffffffffffff0000000000000000000000000000000081165b811461034d57600080fd5b50565b80358061035c8161031e565b5092915050565b7f4e487b7100000000000000000000000000000000000000000000000000000000600052604160045260246000fd5b7fffffffffffffffffffffffffffffffffffffffffffffffffffffffffffffffe0601f830116810181811067ffffffffffffffff821117156103d6576103d6610363565b6040525050565b60006103e860405190565b8091506103f58382610392565b50919050565b73ffffffffffffffffffffffffffffffffffffffff8116610342565b80358061035c816103fb565b67ffffffffffffffff8116610342565b80358061035c81610423565b60ff8116610342565b80358061035c8161043f565b80610342565b80358061035c81610454565b60006020828403121561047b5761047b600080fd5b61048560206103dd565b809150610492848461045a565b905292915050565b6000608082840312156104af576104af600080fd5b6104b960806103dd565b8091506104c68484610417565b81526104d58460208501610433565b60208201526104e78460408501610448565b60408201526104f98460608501610466565b60608201525092915050565b60008060a0838503121561051b5761051b600080fd5b6105258484610350565b9150610534846020850161049a565b90509250929050565b60005b83811015610558578181015183820152602001610540565b50506000910152565b600061056b825190565b8084526020840161058082826020870161053d565b7fffffffffffffffffffffffffffffffffffffffffffffffffffffffffffffffe0601f83011601949350505050565b6020815260006105c26020830184610561565b9392505050565b600067ffffffffffffffff8211156105e3576105e3610363565b5060051b60200190565b60006106006105fb846105c9565b6103dd565b8381529050600783901b8201602082018582111561062057610620600080fd5b835b8281101561064457610634878261049a565b8252602090910190608001610622565b5050509392505050565b600082601f83011261066257610662600080fd5b6105c2838335602085016105ed565b6000806040838503121561068757610687600080fd5b6106918484610350565b9150602083013567ffffffffffffffff8111156106b0576106b0600080fd5b6106bc8582860161064e565b9150509250929050565b60006105c28383610561565b60006106dc825190565b808452602084018094508160051b81016106f68560200190565b60005b848110156107285783830388526107118383516106c6565b9250602082016020989098019791506001016106f9565b50909695505050505050565b6020815260006105c260208301846106d2565b7f4e487b7100000000000000000000000000000000000000000000000000000000600052603260045260246000fd5b7f4e487b7100000000000000000000000000000000000000000000000000000000600052601160045260246000fd5b600060ff821660ff81036107bb576107bb610776565b60010192915050565b67ffffffffffffffff81165b82525050565b60ff81166107d0565b806107d0565b6107f08282516107df565b5050565b6060810161080282866107c4565b61080f60208301856107d6565b61081c60408301846107e5565b949350505050565b600060033d111561083d5760046000803e5060005160e01c5b90565b600060443d101561084e5790565b6040517ffffffffffffffffffffffffffffffffffffffffffffffffffffffffffffffffc3d016004823e80513d602482011167ffffffffffffffff8211171561089657505090565b808201805167ffffffffffffffff8111156108b2575050505090565b7ffffffffffffffffffffffffffffffffffffffffffffffffffffffffffffffffc3d85010160208284010111156108ea575050505090565b6108f960208285010185610392565b50939250505056fea26469706673582212206b929d409aafd747ffc47b49529bb4edf512f6fc855d47fbbb040519410f32b864736f6c63430008160033",
    "linkReferences": {}
  },
  "methodIdentifiers": {
    "execute(bytes16,(address,uint64,uint8,(uint256)))": "01efa5e5",
    "execute(bytes16,(address,uint64,uint8,(uint256))[])": "f09e5827"
  },
  "id": 51
}