{"abi":[{"type":"constructor","inputs":[{"name":"router_","type":"address","internalType":"contract IRouter"},{"name":"feeManager_","type":"address","internalType":"contract IFeeManager"},{"name":"weth9_","type":"address","internalType":"address"}],"stateMutability":"nonpayable"},{"type":"function","name":"cancelAllDexorders","inputs":[],"outputs":[],"stateMutability":"nonpayable"},{"type":"function","name":"cancelDexorder","inputs":[{"name":"orderIndex","type":"uint64","internalType":"uint64"}],"outputs":[],"stateMutability":"nonpayable"},{"type":"function","name":"execute","inputs":[{"name":"orderIndex","type":"uint64","internalType":"uint64"},{"name":"tranche_index","type":"uint8","internalType":"uint8"},{"name":"proof","type":"tuple","internalType":"struct PriceProof","components":[{"name":"proof","type":"uint256","internalType":"uint256"}]}],"outputs":[],"stateMutability":"nonpayable"},{"type":"function","name":"feeManager","inputs":[],"outputs":[{"name":"","type":"address","internalType":"contract IFeeManager"}],"stateMutability":"view"},{"type":"function","name":"numSwapOrders","inputs":[],"outputs":[{"name":"num","type":"uint64","internalType":"uint64"}],"stateMutability":"view"},{"type":"function","name":"orderCanceled","inputs":[{"name":"orderIndex","type":"uint64","internalType":"uint64"}],"outputs":[{"name":"","type":"bool","internalType":"bool"}],"stateMutability":"view"},{"type":"function","name":"placeDexorder","inputs":[{"name":"order","type":"tuple","internalType":"struct SwapOrder","components":[{"name":"tokenIn","type":"address","internalType":"address"},{"name":"tokenOut","type":"address","internalType":"address"},{"name":"route","type":"tuple","internalType":"struct Route","components":[{"name":"exchange","type":"uint8","internalType":"enum Exchange"},{"name":"fee","type":"uint24","internalType":"uint24"}]},{"name":"amount","type":"uint256","internalType":"uint256"},{"name":"minFillAmount","type":"uint256","internalType":"uint256"},{"name":"amountIsInput","type":"bool","internalType":"bool"},{"name":"outputDirectlyToOwner","type":"bool","internalType":"bool"},{"name":"inverted","type":"bool","internalType":"bool"},{"name":"conditionalOrder","type":"uint64","internalType":"uint64"},{"name":"tranches","type":"tuple[]","internalType":"struct Tranche[]","components":[{"name":"fraction","type":"uint16","internalType":"uint16"},{"name":"startTimeIsRelative","type":"bool","internalType":"bool"},{"name":"endTimeIsRelative","type":"bool","internalType":"bool"},{"name":"minIsBarrier","type":"bool","internalType":"bool"},{"name":"maxIsBarrier","type":"bool","internalType":"bool"},{"name":"marketOrder","type":"bool","internalType":"bool"},{"name":"minIsRatio","type":"bool","internalType":"bool"},{"name":"maxIsRatio","type":"bool","internalType":"bool"},{"name":"_reserved7","type":"bool","internalType":"bool"},{"name":"rateLimitFraction","type":"uint16","internalType":"uint16"},{"name":"rateLimitPeriod","type":"uint24","internalType":"uint24"},{"name":"startTime","type":"uint32","internalType":"uint32"},{"name":"endTime","type":"uint32","internalType":"uint32"},{"name":"minLine","type":"tuple","internalType":"struct Line","components":[{"name":"intercept","type":"uint32","internalType":"float"},{"name":"slope","type":"uint32","internalType":"float"}]},{"name":"maxLine","type":"tuple","internalType":"struct Line","components":[{"name":"intercept","type":"uint32","internalType":"float"},{"name":"slope","type":"uint32","internalType":"float"}]}]}]}],"outputs":[],"stateMutability":"payable"},{"type":"function","name":"placeDexorders","inputs":[{"name":"orders","type":"tuple[]","internalType":"struct SwapOrder[]","components":[{"name":"tokenIn","type":"address","internalType":"address"},{"name":"tokenOut","type":"address","internalType":"address"},{"name":"route","type":"tuple","internalType":"struct Route","components":[{"name":"exchange","type":"uint8","internalType":"enum Exchange"},{"name":"fee","type":"uint24","internalType":"uint24"}]},{"name":"amount","type":"uint256","internalType":"uint256"},{"name":"minFillAmount","type":"uint256","internalType":"uint256"},{"name":"amountIsInput","type":"bool","internalType":"bool"},{"name":"outputDirectlyToOwner","type":"bool","internalType":"bool"},{"name":"inverted","type":"bool","internalType":"bool"},{"name":"conditionalOrder","type":"uint64","internalType":"uint64"},{"name":"tranches","type":"tuple[]","internalType":"struct Tranche[]","components":[{"name":"fraction","type":"uint16","internalType":"uint16"},{"name":"startTimeIsRelative","type":"bool","internalType":"bool"},{"name":"endTimeIsRelative","type":"bool","internalType":"bool"},{"name":"minIsBarrier","type":"bool","internalType":"bool"},{"name":"maxIsBarrier","type":"bool","internalType":"bool"},{"name":"marketOrder","type":"bool","internalType":"bool"},{"name":"minIsRatio","type":"bool","internalType":"bool"},{"name":"maxIsRatio","type":"bool","internalType":"bool"},{"name":"_reserved7","type":"bool","internalType":"bool"},{"name":"rateLimitFraction","type":"uint16","internalType":"uint16"},{"name":"rateLimitPeriod","type":"uint24","internalType":"uint24"},{"name":"startTime","type":"uint32","internalType":"uint32"},{"name":"endTime","type":"uint32","internalType":"uint32"},{"name":"minLine","type":"tuple","internalType":"struct Line","components":[{"name":"intercept","type":"uint32","internalType":"float"},{"name":"slope","type":"uint32","internalType":"float"}]},{"name":"maxLine","type":"tuple","internalType":"struct Line","components":[{"name":"intercept","type":"uint32","internalType":"float"},{"name":"slope","type":"uint32","internalType":"float"}]}]}]},{"name":"ocoMode","type":"uint8","internalType":"enum OcoMode"}],"outputs":[],"stateMutability":"payable"},{"type":"function","name":"placementFee","inputs":[{"name":"order","type":"tuple","internalType":"struct SwapOrder","components":[{"name":"tokenIn","type":"address","internalType":"address"},{"name":"tokenOut","type":"address","internalType":"address"},{"name":"route","type":"tuple","internalType":"struct Route","components":[{"name":"exchange","type":"uint8","internalType":"enum Exchange"},{"name":"fee","type":"uint24","internalType":"uint24"}]},{"name":"amount","type":"uint256","internalType":"uint256"},{"name":"minFillAmount","type":"uint256","internalType":"uint256"},{"name":"amountIsInput","type":"bool","internalType":"bool"},{"name":"outputDirectlyToOwner","type":"bool","internalType":"bool"},{"name":"inverted","type":"bool","internalType":"bool"},{"name":"conditionalOrder","type":"uint64","internalType":"uint64"},{"name":"tranches","type":"tuple[]","internalType":"struct Tranche[]","components":[{"name":"fraction","type":"uint16","internalType":"uint16"},{"name":"startTimeIsRelative","type":"bool","internalType":"bool"},{"name":"endTimeIsRelative","type":"bool","internalType":"bool"},{"name":"minIsBarrier","type":"bool","internalType":"bool"},{"name":"maxIsBarrier","type":"bool","internalType":"bool"},{"name":"marketOrder","type":"bool","internalType":"bool"},{"name":"minIsRatio","type":"bool","internalType":"bool"},{"name":"maxIsRatio","type":"bool","internalType":"bool"},{"name":"_reserved7","type":"bool","internalType":"bool"},{"name":"rateLimitFraction","type":"uint16","internalType":"uint16"},{"name":"rateLimitPeriod","type":"uint24","internalType":"uint24"},{"name":"startTime","type":"uint32","internalType":"uint32"},{"name":"endTime","type":"uint32","internalType":"uint32"},{"name":"minLine","type":"tuple","internalType":"struct Line","components":[{"name":"intercept","type":"uint32","internalType":"float"},{"name":"slope","type":"uint32","internalType":"float"}]},{"name":"maxLine","type":"tuple","internalType":"struct Line","components":[{"name":"intercept","type":"uint32","internalType":"float"},{"name":"slope","type":"uint32","internalType":"float"}]}]}]},{"name":"sched","type":"tuple","internalType":"struct IFeeManager.FeeSchedule","components":[{"name":"orderFee","type":"uint8","internalType":"uint8"},{"name":"orderExp","type":"uint8","internalType":"uint8"},{"name":"gasFee","type":"uint8","internalType":"uint8"},{"name":"gasExp","type":"uint8","internalType":"uint8"},{"name":"fillFeeHalfBps","type":"uint8","internalType":"uint8"}]}],"outputs":[{"name":"orderFee","type":"uint256","internalType":"uint256"},{"name":"gasFee","type":"uint256","internalType":"uint256"}],"stateMutability":"view"},{"type":"function","name":"placementFee","inputs":[{"name":"orders","type":"tuple[]","internalType":"struct SwapOrder[]","components":[{"name":"tokenIn","type":"address","internalType":"address"},{"name":"tokenOut","type":"address","internalType":"address"},{"name":"route","type":"tuple","internalType":"struct Route","components":[{"name":"exchange","type":"uint8","internalType":"enum Exchange"},{"name":"fee","type":"uint24","internalType":"uint24"}]},{"name":"amount","type":"uint256","internalType":"uint256"},{"name":"minFillAmount","type":"uint256","internalType":"uint256"},{"name":"amountIsInput","type":"bool","internalType":"bool"},{"name":"outputDirectlyToOwner","type":"bool","internalType":"bool"},{"name":"inverted","type":"bool","internalType":"bool"},{"name":"conditionalOrder","type":"uint64","internalType":"uint64"},{"name":"tranches","type":"tuple[]","internalType":"struct Tranche[]","components":[{"name":"fraction","type":"uint16","internalType":"uint16"},{"name":"startTimeIsRelative","type":"bool","internalType":"bool"},{"name":"endTimeIsRelative","type":"bool","internalType":"bool"},{"name":"minIsBarrier","type":"bool","internalType":"bool"},{"name":"maxIsBarrier","type":"bool","internalType":"bool"},{"name":"marketOrder","type":"bool","internalType":"bool"},{"name":"minIsRatio","type":"bool","internalType":"bool"},{"name":"maxIsRatio","type":"bool","internalType":"bool"},{"name":"_reserved7","type":"bool","internalType":"bool"},{"name":"rateLimitFraction","type":"uint16","internalType":"uint16"},{"name":"rateLimitPeriod","type":"uint24","internalType":"uint24"},{"name":"startTime","type":"uint32","internalType":"uint32"},{"name":"endTime","type":"uint32","internalType":"uint32"},{"name":"minLine","type":"tuple","internalType":"struct Line","components":[{"name":"intercept","type":"uint32","internalType":"float"},{"name":"slope","type":"uint32","internalType":"float"}]},{"name":"maxLine","type":"tuple","internalType":"struct Line","components":[{"name":"intercept","type":"uint32","internalType":"float"},{"name":"slope","type":"uint32","internalType":"float"}]}]}]},{"name":"sched","type":"tuple","internalType":"struct IFeeManager.FeeSchedule","components":[{"name":"orderFee","type":"uint8","internalType":"uint8"},{"name":"orderExp","type":"uint8","internalType":"uint8"},{"name":"gasFee","type":"uint8","internalType":"uint8"},{"name":"gasExp","type":"uint8","internalType":"uint8"},{"name":"fillFeeHalfBps","type":"uint8","internalType":"uint8"}]}],"outputs":[{"name":"orderFee","type":"uint256","internalType":"uint256"},{"name":"gasFee","type":"uint256","internalType":"uint256"}],"stateMutability":"view"},{"type":"function","name":"swapOrderStatus","inputs":[{"name":"orderIndex","type":"uint64","internalType":"uint64"}],"outputs":[{"name":"status","type":"tuple","internalType":"struct SwapOrderStatus","components":[{"name":"order","type":"tuple","internalType":"struct SwapOrder","components":[{"name":"tokenIn","type":"address","internalType":"address"},{"name":"tokenOut","type":"address","internalType":"address"},{"name":"route","type":"tuple","internalType":"struct Route","components":[{"name":"exchange","type":"uint8","internalType":"enum Exchange"},{"name":"fee","type":"uint24","internalType":"uint24"}]},{"name":"amount","type":"uint256","internalType":"uint256"},{"name":"minFillAmount","type":"uint256","internalType":"uint256"},{"name":"amountIsInput","type":"bool","internalType":"bool"},{"name":"outputDirectlyToOwner","type":"bool","internalType":"bool"},{"name":"inverted","type":"bool","internalType":"bool"},{"name":"conditionalOrder","type":"uint64","internalType":"uint64"},{"name":"tranches","type":"tuple[]","internalType":"struct Tranche[]","components":[{"name":"fraction","type":"uint16","internalType":"uint16"},{"name":"startTimeIsRelative","type":"bool","internalType":"bool"},{"name":"endTimeIsRelative","type":"bool","internalType":"bool"},{"name":"minIsBarrier","type":"bool","internalType":"bool"},{"name":"maxIsBarrier","type":"bool","internalType":"bool"},{"name":"marketOrder","type":"bool","internalType":"bool"},{"name":"minIsRatio","type":"bool","internalType":"bool"},{"name":"maxIsRatio","type":"bool","internalType":"bool"},{"name":"_reserved7","type":"bool","internalType":"bool"},{"name":"rateLimitFraction","type":"uint16","internalType":"uint16"},{"name":"rateLimitPeriod","type":"uint24","internalType":"uint24"},{"name":"startTime","type":"uint32","internalType":"uint32"},{"name":"endTime","type":"uint32","internalType":"uint32"},{"name":"minLine","type":"tuple","internalType":"struct Line","components":[{"name":"intercept","type":"uint32","internalType":"float"},{"name":"slope","type":"uint32","internalType":"float"}]},{"name":"maxLine","type":"tuple","internalType":"struct Line","components":[{"name":"intercept","type":"uint32","internalType":"float"},{"name":"slope","type":"uint32","internalType":"float"}]}]}]},{"name":"fillFeeHalfBps","type":"uint8","internalType":"uint8"},{"name":"canceled","type":"bool","internalType":"bool"},{"name":"startTime","type":"uint32","internalType":"uint32"},{"name":"ocoGroup","type":"uint64","internalType":"uint64"},{"name":"originalOrder","type":"uint64","internalType":"uint64"},{"name":"startPrice","type":"uint256","internalType":"uint256"},{"name":"filled","type":"uint256","internalType":"uint256"},{"name":"trancheStatus","type":"tuple[]","internalType":"struct TrancheStatus[]","components":[{"name":"filled","type":"uint256","internalType":"uint256"},{"name":"activationTime","type":"uint32","internalType":"uint32"},{"name":"startTime","type":"uint32","internalType":"uint32"},{"name":"endTime","type":"uint32","internalType":"uint32"}]}]}],"stateMutability":"view"},{"type":"function","name":"unwrap","inputs":[{"name":"amount","type":"uint256","internalType":"uint256"}],"outputs":[],"stateMutability":"nonpayable"},{"type":"function","name":"vaultImplDidChange","inputs":[{"name":"oldAddress","type":"address","internalType":"address"}],"outputs":[],"stateMutability":"nonpayable"},{"type":"function","name":"version","inputs":[],"outputs":[{"name":"","type":"uint256","internalType":"uint256"}],"stateMutability":"view"},{"type":"function","name":"withdrawTo","inputs":[{"name":"recipient","type":"address","internalType":"address payable"},{"name":"amount","type":"uint256","internalType":"uint256"}],"outputs":[],"stateMutability":"nonpayable"},{"type":"function","name":"withdrawTo","inputs":[{"name":"token","type":"address","internalType":"contract IERC20"},{"name":"recipient","type":"address","internalType":"address"},{"name":"amount","type":"uint256","internalType":"uint256"}],"outputs":[],"stateMutability":"nonpayable"},{"type":"function","name":"wrap","inputs":[{"name":"amount","type":"uint256","internalType":"uint256"}],"outputs":[],"stateMutability":"nonpayable"},{"type":"function","name":"wrapper","inputs":[],"outputs":[{"name":"","type":"address","internalType":"address"}],"stateMutability":"view"},{"type":"event","name":"DexorderCancelAll","inputs":[{"name":"cancelAllIndex","type":"uint64","indexed":false,"internalType":"uint64"}],"anonymous":false},{"type":"event","name":"DexorderSwapCanceled","inputs":[{"name":"orderIndex","type":"uint64","indexed":false,"internalType":"uint64"}],"anonymous":false},{"type":"event","name":"DexorderSwapFilled","inputs":[{"name":"orderIndex","type":"uint64","indexed":true,"internalType":"uint64"},{"name":"trancheIndex","type":"uint8","indexed":true,"internalType":"uint8"},{"name":"amountIn","type":"uint256","indexed":false,"internalType":"uint256"},{"name":"amountOut","type":"uint256","indexed":false,"internalType":"uint256"},{"name":"fillFee","type":"uint256","indexed":false,"internalType":"uint256"},{"name":"nextExecutionTime","type":"uint32","indexed":false,"internalType":"uint32"}],"anonymous":false},{"type":"event","name":"DexorderSwapPlaced","inputs":[{"name":"startOrderIndex","type":"uint64","indexed":true,"internalType":"uint64"},{"name":"numOrders","type":"uint8","indexed":false,"internalType":"uint8"},{"name":"orderFee","type":"uint256","indexed":false,"internalType":"uint256"},{"name":"gasFee","type":"uint256","indexed":false,"internalType":"uint256"}],"anonymous":false},{"type":"event","name":"Withdrawal","inputs":[{"name":"receiver","type":"address","indexed":true,"internalType":"address"},{"name":"amount","type":"uint256","indexed":false,"internalType":"uint256"}],"anonymous":false},{"type":"error","name":"ReentrancyGuardReentrantCall","inputs":[]}],"bytecode":{"object":"0x60e03461011057601f61565a38819003918201601f19168301916001600160401b0383118484101761011457808492606094604052833981010312610110578051906001600160a01b0382168203610110576020810151906001600160a01b038216820361011057604001516001600160a01b03811692908390036101105760015f5560a05260805260c052604051615531908161012982396080518181816104020152818161060701528181611937015281816132c30152818161420001526142d1015260a0518181816106680152818161150f015281816117f8015281816122d001528181612c0c01528181612d1f0152613324015260c0518181816101c5015281816103180152610bf00152f35b5f80fd5b634e487b7160e01b5f52604160045260245ffdfe60806040526004361015610011575f80fd5b5f803560e01c806316ddc0731461320a578063205c28781461314c5780632800c78f1461308c57806354fd4d501461305357806358b72a091461301a5780636e98833d146112c057806377bad6b514610e0a5780638489f9bf14610d355780638f46487614610cd2578063a449d03014610c14578063ac210cc714610ba6578063b39f436214610542578063c3b35a7e14610426578063d0fb0203146103b8578063de0e9a3e146102a6578063e78f84e714610260578063ea598cb0146101525763eaa3aa72146100e0575f80fd5b3461014f5760c07ffffffffffffffffffffffffffffffffffffffffffffffffffffffffffffffffc36011261014f576004359067ffffffffffffffff821161014f5760406101436101343660048601613b66565b61013d36613ad5565b90614017565b82519182526020820152f35b80fd5b503461014f5760207ffffffffffffffffffffffffffffffffffffffffffffffffffffffffffffffffc36011261014f576101a573ffffffffffffffffffffffffffffffffffffffff600254163314613be5565b6101ad614061565b8073ffffffffffffffffffffffffffffffffffffffff7f0000000000000000000000000000000000000000000000000000000000000000166101f0811515613f84565b803b1561025d5781600491604051928380927fd0e30db00000000000000000000000000000000000000000000000000000000082528235905af180156102525761023d575b506001905580f35b816102479161370d565b61014f57805f610235565b6040513d84823e3d90fd5b50fd5b503461014f57807ffffffffffffffffffffffffffffffffffffffffffffffffffffffffffffffffc36011261014f57602067ffffffffffffffff60045416604051908152f35b50346103b45760207ffffffffffffffffffffffffffffffffffffffffffffffffffffffffffffffffc3601126103b4576102f973ffffffffffffffffffffffffffffffffffffffff600254163314613be5565b610301614061565b73ffffffffffffffffffffffffffffffffffffffff7f000000000000000000000000000000000000000000000000000000000000000016610343811515613f84565b803b156103b4575f80916024604051809481937f2e1a7d4d00000000000000000000000000000000000000000000000000000000835260043560048401525af180156103a957610396575b506001815580f35b6103a291505f9061370d565b5f8061038e565b6040513d5f823e3d90fd5b5f80fd5b346103b4575f7ffffffffffffffffffffffffffffffffffffffffffffffffffffffffffffffffc3601126103b457602060405173ffffffffffffffffffffffffffffffffffffffff7f0000000000000000000000000000000000000000000000000000000000000000168152f35b346103b45760607ffffffffffffffffffffffffffffffffffffffffffffffffffffffffffffffffc3601126103b45760043573ffffffffffffffffffffffffffffffffffffffff81168091036103b45760243573ffffffffffffffffffffffffffffffffffffffff81168091036103b4575f9160446020926104c173ffffffffffffffffffffffffffffffffffffffff600254163314613be5565b6104c9614061565b60405194859384927fa9059cbb0000000000000000000000000000000000000000000000000000000084526004840152833560248401525af180156103a957610513575b60015f55005b6105349060203d60201161053b575b61052c818361370d565b81019061441f565b508061050d565b503d610522565b60407ffffffffffffffffffffffffffffffffffffffffffffffffffffffffffffffffc3601126103b45760043567ffffffffffffffff81116103b45761058c903690600401613b66565b60243560038110156103b4576105bb73ffffffffffffffffffffffffffffffffffffffff600254163314613be5565b6105c3614061565b604051917f9af1d35a00000000000000000000000000000000000000000000000000000000835260a08360048173ffffffffffffffffffffffffffffffffffffffff7f0000000000000000000000000000000000000000000000000000000000000000165afa9283156103a9575f93610b75575b506106428382614017565b939092610650858533614142565b60ff608067ffffffffffffffff6004541693015116947f00000000000000000000000000000000000000000000000000000000000000009361069560ff8251106144e1565b67ffffffffffffffff6004546106b56106ae8451614119565b82106144e1565b1692806109c2575067ffffffffffffffff935b5f5b825160ff82169081101561097f576106e29084613ff6565b51906106f16040830151614546565b6002811015610952576001036108f45787878b610100850167ffffffffffffffff81511667ffffffffffffffff8103610776575b505090610737929160ff956003614978565b501660ff8114610749576001016106ca565b7f4e487b71000000000000000000000000000000000000000000000000000000005f52601160045260245ffd5b91509250610785915088615406565b9067ffffffffffffffff82168091526004541115610896576107a8906004613d3b565b5073ffffffffffffffffffffffffffffffffffffffff60208401511673ffffffffffffffffffffffffffffffffffffffff825416149081610887575b8161087a575b8161085e575b50156108005787878b8d80610725565b60646040517f08c379a000000000000000000000000000000000000000000000000000000000815260206004820152600360248201527f434f5300000000000000000000000000000000000000000000000000000000006044820152fd5b67ffffffffffffffff915060058291015460181c16148b6107f0565b60038101541591506107ea565b600581015460ff1691506107e4565b60646040517f08c379a000000000000000000000000000000000000000000000000000000000815260206004820152600360248201527f434f4900000000000000000000000000000000000000000000000000000000006044820152fd5b60646040517f08c379a000000000000000000000000000000000000000000000000000000000815260206004820152600260248201527f55520000000000000000000000000000000000000000000000000000000000006044820152fd5b7f4e487b71000000000000000000000000000000000000000000000000000000005f52602160045260245ffd5b827fb8d5128cd9cda2db9057d427ff64975ed6b7fd2fab0d755f0800cf41df96683560608b8860ff8951169160405192835260208301526040820152a260015f55005b935f600186148015610b69575b15610b0b5760055467ffffffffffffffff81169660ff85511690604051936060850185811067ffffffffffffffff821117610ade5760405261095257835260208301918783526040840191825268010000000000000000811015610ade57806001610a3f92016005556005614437565b939093610ab25751916003831015610952578354905191517fffffffffffffffffffffffffffffffffffffffffffff000000000000000000009190911660ff939093169290921760089190911b68ffffffffffffffff00161760489190911b69ff000000000000000000161790556106c8565b7f4e487b71000000000000000000000000000000000000000000000000000000005f525f60045260245ffd5b7f4e487b71000000000000000000000000000000000000000000000000000000005f52604160045260245ffd5b60646040517f08c379a000000000000000000000000000000000000000000000000000000000815260206004820152600460248201527f4f434f4d000000000000000000000000000000000000000000000000000000006044820152fd5b50505f600286146109cf565b610b9891935060a03d60a011610b9f575b610b90818361370d565b810190613c58565b9183610637565b503d610b86565b346103b4575f7ffffffffffffffffffffffffffffffffffffffffffffffffffffffffffffffffc3601126103b457602060405173ffffffffffffffffffffffffffffffffffffffff7f0000000000000000000000000000000000000000000000000000000000000000168152f35b346103b45760207ffffffffffffffffffffffffffffffffffffffffffffffffffffffffffffffffc3601126103b457610c4b6137af565b60045467ffffffffffffffff82161015610c7457610c6a6020916144a2565b6040519015158152f35b60646040517f08c379a000000000000000000000000000000000000000000000000000000000815260206004820152600260248201527f4f490000000000000000000000000000000000000000000000000000000000006044820152fd5b346103b45760c07ffffffffffffffffffffffffffffffffffffffffffffffffffffffffffffffffc3601126103b45760043567ffffffffffffffff81116103b457610143610d266040923690600401613834565b610d2f36613ad5565b9061444c565b346103b45760207ffffffffffffffffffffffffffffffffffffffffffffffffffffffffffffffffc3601126103b4577f74a075ee230588b5c76ea493a6d21b086384f29139b7227b9c6329e66106dc486020610d8f6137af565b610db273ffffffffffffffffffffffffffffffffffffffff600254163314613be5565b610dba614061565b6007610dc7826004613d3b565b50016101007fffffffffffffffffffffffffffffffffffffffffffffffffffffffffffff00ff82541617905567ffffffffffffffff60405191168152a160015f55005b346103b45760207ffffffffffffffffffffffffffffffffffffffffffffffffffffffffffffffffc3601126103b457610e8f610e446137af565b6060610100604051610e558161369b565b610e5d613cc1565b81525f60208201525f60408201525f838201525f60808201525f60a08201525f60c08201525f60e08201520152613d1f565b50604051610e9c8161369b565b610ea582613d84565b81526007820154602082019060ff81168252604083019360ff8260081c1615158552606084019163ffffffff8160101c168352608085019067ffffffffffffffff8160301c16825267ffffffffffffffff60a087019160701c16815260088301549160c08701928352600a60098501549460e089019586520194855495610f2b876137c6565b96610f39604051988961370d565b80885260208801915f5260205f20915f905b8282106112515750505050610100880195865260405198899860208a52519761012060208b01526101206102a08b019973ffffffffffffffffffffffffffffffffffffffff8151166101408d015273ffffffffffffffffffffffffffffffffffffffff6020820151166101608d015262ffffff60208d610fd5610180604086015192018251613ac8565b0151166101a08d015260608101516101c08d015260808101516101e08d015260a081015115156102008d015260c081015115156102208d015260e081015115156102408d015267ffffffffffffffff610100820151166102608d01520151986101606102808c0152895180915260206102c08c019a01905f5b81811061112c575050905160ff1660408b01525051151560608901525163ffffffff1660808801525167ffffffffffffffff90811660a088015290511660c08601525160e085015251610100840152518282037fffffffffffffffffffffffffffffffffffffffffffffffffffffffffffffffe0016101208401528051808352602092830192909101905f5b8181106110e8575050500390f35b919350916020608060019263ffffffff60608851805184528286820151168685015282604082015116604085015201511660608201520194019101918493926110da565b919b50919293949596979899602061022060019261123b8f6101c0905161ffff81511684528581015115158685015260408101511515604085015260608101511515606085015260808101511515608085015260a0810151151560a085015260c0810151151560c085015260e0810151151560e0850152610100810151151561010085015261ffff6101208201511661012085015262ffffff6101408201511661014085015263ffffffff6101608201511661016085015263ffffffff6101808201511661018085015261121c6101a08201516101a086019063ffffffff60208092828151168552015116910152565b01516101e083019063ffffffff60208092828151168552015116910152565b019c019101918c9b9a999897969594939261104e565b60409c9495969798999a9b9c516080810181811067ffffffffffffffff821117610ade576001926002926020926040528754815263ffffffff85890154818116858401528181861c16604084015260401c1660608201528152019401910190929b9a999897969594939b610f4b565b346103b45760607ffffffffffffffffffffffffffffffffffffffffffffffffffffffffffffffffc3601126103b4576112f76137af565b6024359060ff821682036103b45760207fffffffffffffffffffffffffffffffffffffffffffffffffffffffffffffffbc3601126103b4576040516020810181811067ffffffffffffffff821117610ade576040526044359052611359614061565b6040517f8da5cb5b000000000000000000000000000000000000000000000000000000008152602081600481305afa9081156103a9575f91612fcb575b506113a082613d1f565b50916113ab816144a2565b612f6d57600683018054851015611b25575f5260205f206113cf85600a86016143bd565b509060405191610100830183811067ffffffffffffffff821117610ade576040525f83525f60208401525f60408401525f60608401525f60808401525f60a08401525f60c08401525f60e0840152600181015463ffffffff8160401c16421015612f0f5763ffffffff8160201c164210612eb15763ffffffff164210612e53576003870282015460ff8160301c1680612e3b575b15612a18576114f690600288015473ffffffffffffffffffffffffffffffffffffffff89541673ffffffffffffffffffffffffffffffffffffffff60018b015416602060ff60058d015460101c16809460405197889283927f5b1b3179000000000000000000000000000000000000000000000000000000008452868860ff62ffffff8460081c169316600487016143d6565b038173ffffffffffffffffffffffffffffffffffffffff7f0000000000000000000000000000000000000000000000000000000000000000165afa9485156103a9578c905f966129de575b5063ffffffff6001600361155a93028a0101541661471c565b92151591111461299957806c01000000000000000000000000016c0100000000000000000000000011610749576115ed926115a4916c0100000000000000000000000001906148fa565b60208601525b61ffff6003890154916115d2826115c381841686614098565b048060808a0152865490614135565b60c088015260501c168061296a575b50600988015490614135565b8060e08501528060c08501511161295f575b5060c0830151966004870154809810612901578660058101549660ff8860081c165f146128fa575b73ffffffffffffffffffffffffffffffffffffffff600183015416809867ffffffffffffffff808260181c16145f1461285f575f9384939260ff62ffffff93869f5b8c73ffffffffffffffffffffffffffffffffffffffff80600288015497541698602060c0840151930151966040519a6116a18c61367e565b6116ad888b168d613d54565b60208c015260408b0152166060890152608088015260a0870152818116151560c087015260101c16151560e085015261010084015260081c1661012082015260405162ffffff61012060208301937f802b95df00000000000000000000000000000000000000000000000000000000855261172c602485018251613ac8565b73ffffffffffffffffffffffffffffffffffffffff602082015116604485015273ffffffffffffffffffffffffffffffffffffffff604082015116606485015273ffffffffffffffffffffffffffffffffffffffff6060820151166084850152608081015160a485015260a081015160c485015260c0810151151560e485015260e0810151151561010485015261010081015161012485015201511661014482015261014481526117df6101648261370d565b519073ffffffffffffffffffffffffffffffffffffffff7f0000000000000000000000000000000000000000000000000000000000000000165af4923d15612857573d9367ffffffffffffffff8511610ade576040519461186860207fffffffffffffffffffffffffffffffffffffffffffffffffffffffffffffffe0601f840116018761370d565b85523d5f602087013e5b15612849576040848051810103126103b457604060208501519401519380604087015260ff60058a0154165f1461283f576118b8905b8060c088015260098a015461400a565b60098901556118cc60c0860151845461400a565b835560a08501516127a1575b50614e206118ed60ff60078a01541685614098565b046060850152604051907fea43b36b00000000000000000000000000000000000000000000000000000000825260208260048173ffffffffffffffffffffffffffffffffffffffff7f0000000000000000000000000000000000000000000000000000000000000000165afa9182156103a9575f92612770575b50606085015173ffffffffffffffffffffffffffffffffffffffff604051937fa9059cbb00000000000000000000000000000000000000000000000000000000855216600484015260248301526020826044815f8b5af19081156103a9577f234549737f22f93fc832ad92234b4a16c08b5e5f40bfb872ec6540904522fc549460809467ffffffffffffffff9460ff94612753575b5063ffffffff6001606060408b01519a0151920154169160405198895260208901526040880152606087015216941692a3600582015467ffffffffffffffff8160181c169367ffffffffffffffff8503611b52575b50505067ffffffffffffffff915080611a7560036007930154600983015490614135565b60048201541115611aac57015460301c1667ffffffffffffffff8103611a9d575b5060015f55005b611aa690615327565b80611a96565b015460301c1667ffffffffffffffff81141580611ade575b611acf575b5061050d565b611ad890615327565b80611ac9565b50600554811015611b255760055f527f036b6384b5eca791c62761152d0c79bb0604c104a5fb6f4eb0703f3154bb3db081015460ff16600381101561095257600114611ac4565b7f4e487b71000000000000000000000000000000000000000000000000000000005f52603260045260245ffd5b6020611b6b611b65602494969597613d1f565b50613d84565b95604051938480927f70a082310000000000000000000000000000000000000000000000000000000082523060048301525afa80156103a9575f9061271f575b611bb59250614135565b606084015260ff600782015416916004549067ffffffffffffffff82169168010000000000000000811015610ade57806001611bf692016004556004613d3b565b5050611c03826004613d3b565b509373ffffffffffffffffffffffffffffffffffffffff80875116167fffffffffffffffffffffffff000000000000000000000000000000000000000086541617855573ffffffffffffffffffffffffffffffffffffffff60208701511673ffffffffffffffffffffffffffffffffffffffff6001870191167fffffffffffffffffffffffff000000000000000000000000000000000000000082541617905560408601518051906002821015610952577fffffffffffffffffffffffffffffffffffffffffffffffffffffffff0000000060ff63ffffff00602060028b015494015160081b16931691161717600286015560608601516003860155608086015160048601556005850160a0870151151560ff7fffffffffffffffffffffffffffffffffffffffffffffffffffffffffffffff008354169116178155611d7f60c0880151151582907fffffffffffffffffffffffffffffffffffffffffffffffffffffffffffff00ff61ff00835492151560081b169116179055565b60e087015181547fffffffffffffffffffffffffffffffffffffffffffffffffffffffffff00ffff1690151560101b62ff0000161781556101008701517fffffffffffffffffffffffffffffffffffffffffff0000000000000000ffffff6affffffffffffffff00000083549260181b1691161790556006850161012087015190815191680100000000000000008311610ade5781548383558084106126d1575b50602001905f5260205f205f915b83831061235d575050505060ff603262ffffff602060408a01510151160416908082105f1461235657505b7fffffffffffffffffffff0000000000000000ffffffffffffffffffffffffffff6dffffffffffffffff00000000000060078701937fffffffffffffffffffffffffffffffffffff000000000000000000000000ff0060ff75ffffffffffffffff0000000000000000000000000000807fffffffffffffffffffffffffffffffffffff000000000000000000000000000089549560581b161616951691161765ffffffff00004260101b161717161790555f915f5b61012086015180518210156121cf5781611f2791613ff6565b516060810151158015906121c2575b61216457600a86015468010000000000000000811015610ade57806001611f669201600a890155600a88016143bd565b5050611f7582600a88016143bd565b5060208201511561214d57611fde6001611fa063ffffffff6101608601511663ffffffff42166154e1565b925b019182907fffffffffffffffffffffffffffffffffffffffffffffffff00000000ffffffff67ffffffff0000000083549260201b169116179055565b60408201511561213a5763ffffffff8061200181610180860151168242166154e1565b7fffffffffffffffffffffffffffffffffffffffff00000000ffffffffffffffff6bffffffff000000000000000085549260401b1691161780845560201c16167fffffffffffffffffffffffffffffffffffffffffffffffffffffffff0000000082541617905560c08101511580159061212d575b612124575b60a0810151159081156120f5575b501561209757600101611f0e565b60646040517f08c379a000000000000000000000000000000000000000000000000000000000815260206004820152600360248201527f4e534c00000000000000000000000000000000000000000000000000000000006044820152fd5b6101a001515163ffffffff81161515915081612114575b501587612089565b638000000091501615158761210c565b6001945061207b565b5060e08101511515612076565b63ffffffff808061018085015116612001565b611fde600163ffffffff6101608501511692611fa2565b60646040517f08c379a000000000000000000000000000000000000000000000000000000000815260206004820152600260248201527f4e490000000000000000000000000000000000000000000000000000000000006044820152fd5b5060808101511515611f36565b505092909391612228575b505060079067ffffffffffffffff927fb8d5128cd9cda2db9057d427ff64975ed6b7fd2fab0d755f0800cf41df9668356060604051600181525f60208201525f6040820152a2908380611a51565b60206122376040840151614546565b73ffffffffffffffffffffffffffffffffffffffff845116906122b773ffffffffffffffffffffffffffffffffffffffff84870151169560e062ffffff86604084015101511691015115159060405197889586957f5b1b3179000000000000000000000000000000000000000000000000000000008752600487016143d6565b038173ffffffffffffffffffffffffffffffffffffffff7f0000000000000000000000000000000000000000000000000000000000000000165afa9182156103a9575f92612314575b50600801558067ffffffffffffffff6121da565b929150926020833d60201161234e575b816123316020938361370d565b810103126103b4579151919290919067ffffffffffffffff612300565b3d9150612324565b9050611e59565b805180518354602083015162ff000090151560101b1661ffff9092167fffffffffffffffffffffffffffffffffffffffffffffffffffffffffff000000909116171783556040810151151583546060830151151560201b64ff00000000166080840151151560281b60a0850151151560301b60c0860151151560381b60e0870151151560401b90610100880151151560481b9261012089015160501b6bffff0000000000000000000016946101408a015160601b6effffff00000000000000000000000016966101608b015160781b72ffffffff00000000000000000000000000000016986101808c015160981b76ffffffff00000000000000000000000000000000000000169a60181b63ff00000016907fffffffffffffffffffffffffffffffffffffffffffffffffffff000000ffffff16177fffffffffffffffffffffffffffffffffffffffffffffffffff00ffffffffffff16177fffffffffffffffffffffffffffffffffffffffffffffffff00ffffffffffffff169065ff000000000016177fffffffffffffffffffffffffffffffffffffffffffffff00ffffffffffffffff169066ff00000000000016177fffffffffffffffffffffffffffffffffffffffffffff00ffffffffffffffffff169067ff0000000000000016177fffffffffffffffffffffffffffffffffffffffff0000ffffffffffffffffffff169068ff000000000000000016177fffffffffffffffffffffffffffffffffff000000ffffffffffffffffffffffff169069ff00000000000000000016177fffffffffffffffffffffffffff00000000ffffffffffffffffffffffffffffff16177fffffffffffffffffff00000000ffffffffffffffffffffffffffffffffffffff161717178355600183016101a0820151805163ffffffff1663ffffffff1682547fffffffffffffffffffffffffffffffffffffffffffffffffffffffff00000000161782556020015163ffffffff1661266b91907fffffffffffffffffffffffffffffffffffffffffffffffff00000000ffffffff67ffffffff0000000083549260201b169116179055565b6101c0015180516002840180546020938401517fffffffffffffffffffffffffffffffffffffffffffffffff000000000000000090911663ffffffff909316929092179190921b67ffffffff000000001617905560200190600301916001019190611e2e565b80600302906003820403610749578360030260038104850361074957835f5260205f2091820191015b8181106127075750611e20565b805f600392555f60018201555f6002820155016126fa565b506020823d60201161274b575b816127396020938361370d565b810103126103b457611bb59151611bab565b3d915061272c565b61276b9060203d60201161053b5761052c818361370d565b6119fc565b61279391925060203d60201161279a575b61278b818361370d565b8101906140ed565b9089611967565b503d612781565b6127bf9062ffffff60c08701519160038502015460601c1690614098565b60a08501518015612812576127dd63ffffffff92918392044261400a565b16167fffffffffffffffffffffffffffffffffffffffffffffffffffffffff00000000600184015416176001830155886118d8565b7f4e487b71000000000000000000000000000000000000000000000000000000005f52601260045260245ffd5b506118b8846118a8565b83518481156103b457602001fd5b606093611872565b9250506040517f70a082310000000000000000000000000000000000000000000000000000000081523060048201526020816024818c5afa9081156103a9578a918a915f916128bd575b509162ffffff9160ff5f968796959f611669565b93925050506020823d6020116128f2575b816128db6020938361370d565b810103126103b45790518990899062ffffff6128a9565b3d91506128ce565b5030611627565b60646040517f08c379a000000000000000000000000000000000000000000000000000000000815260206004820152600260248201527f54460000000000000000000000000000000000000000000000000000000000006044820152fd5b60c0840152876115ff565b61297b61ffff916080880151614098565b048060a08701528060c087015111156115e15760c0860152896115e1565b806c01000000000000000000000000016c0100000000000000000000000011610749576115ed926129d9916c01000000000000000000000000019061483c565b6115a4565b9550506020853d602011612a10575b816129fa6020938361370d565b810103126103b4579351938b63ffffffff611541565b3d91506129ed565b5f8452600160038902840101612a2d81614602565b612c76575b50612a44600260038a02850101614602565b612a52575b6115ed906115aa565b835115612b69575b60ff8160401c165f14612b5257612a8c63ffffffff600789015460101c16600889015490600260038c0287010161469a565b905b81855111612af4576115ed9173ffffffffffffffffffffffffffffffffffffffff89541673ffffffffffffffffffffffffffffffffffffffff60018b0154161060ff60058b015460101c16151503612ae9575b509050612a49565b602086015289612ae1565b60646040517f08c379a000000000000000000000000000000000000000000000000000000000815260206004820152600260248201527f4c550000000000000000000000000000000000000000000000000000000000006044820152fd5b612b63600260038a02850101614627565b90612a8e565b6002870154602073ffffffffffffffffffffffffffffffffffffffff89541673ffffffffffffffffffffffffffffffffffffffff60018b01541690612bf360ff60058d015460101c1660405195869485947f0f82d67500000000000000000000000000000000000000000000000000000000865260ff62ffffff8460081c169316600487016143d6565b038173ffffffffffffffffffffffffffffffffffffffff7f0000000000000000000000000000000000000000000000000000000000000000165afa9081156103a9575f91612c44575b508452612a5a565b90506020813d602011612c6e575b81612c5f6020938361370d565b810103126103b4575189612c3c565b3d9150612c52565b6002880154908873ffffffffffffffffffffffffffffffffffffffff81541691612d06602060ff600573ffffffffffffffffffffffffffffffffffffffff60018701541695015460101c16809660405193849283927f0f82d675000000000000000000000000000000000000000000000000000000008452888a60ff62ffffff8460081c169316600487016143d6565b038173ffffffffffffffffffffffffffffffffffffffff7f0000000000000000000000000000000000000000000000000000000000000000165afa9081156103a9575f91612e09575b50885260ff8560381c165f14612dfa57612d7c9063ffffffff60078d015460101c1660088d01549161469a565b925b8388511115612d9c57151591100315612a3257602085015288612a32565b60646040517f08c379a000000000000000000000000000000000000000000000000000000000815260206004820152600260248201527f4c4c0000000000000000000000000000000000000000000000000000000000006044820152fd5b612e0390614627565b92612d7e565b90506020813d602011612e33575b81612e246020938361370d565b810103126103b457518d612d4f565b3d9150612e17565b5063ffffffff600160038a0285010154161515611463565b60646040517f08c379a000000000000000000000000000000000000000000000000000000000815260206004820152600260248201527f524c0000000000000000000000000000000000000000000000000000000000006044820152fd5b60646040517f08c379a000000000000000000000000000000000000000000000000000000000815260206004820152600260248201527f54450000000000000000000000000000000000000000000000000000000000006044820152fd5b60646040517f08c379a000000000000000000000000000000000000000000000000000000000815260206004820152600260248201527f544c0000000000000000000000000000000000000000000000000000000000006044820152fd5b60646040517f08c379a000000000000000000000000000000000000000000000000000000000815260206004820152600260248201527f4e4f0000000000000000000000000000000000000000000000000000000000006044820152fd5b90506020813d602011613012575b81612fe66020938361370d565b810103126103b4575173ffffffffffffffffffffffffffffffffffffffff811681036103b45783611396565b3d9150612fd9565b346103b45760207ffffffffffffffffffffffffffffffffffffffffffffffffffffffffffffffffc3601126103b45761305161374e565b005b346103b4575f7ffffffffffffffffffffffffffffffffffffffffffffffffffffffffffffffffc3601126103b457602060405160018152f35b346103b4575f7ffffffffffffffffffffffffffffffffffffffffffffffffffffffffffffffffc3601126103b4576130dd73ffffffffffffffffffffffffffffffffffffffff600254163314613be5565b6130e5614061565b7fce65bc44c9caad3bb118ec247275ee69b1ce0e86e3099162ad165bbb3eb3238b602067ffffffffffffffff60045416807fffffffffffffffffffffffffffffffffffffffffffffffff00000000000000006003541617600355604051908152a160015f55005b346103b45760407ffffffffffffffffffffffffffffffffffffffffffffffffffffffffffffffffc3601126103b45760043573ffffffffffffffffffffffffffffffffffffffff81168091036103b4575f8080806024356131c673ffffffffffffffffffffffffffffffffffffffff600254163314613be5565b85828215613201575bf1156103a9577f7fcf532c15f0a6db0bd6d0e038bea71d30d808c7d98cb3bf7268a95bf5081b6560206040515f8152a2005b506108fc6131cf565b60207ffffffffffffffffffffffffffffffffffffffffffffffffffffffffffffffffc3601126103b45760043567ffffffffffffffff81116103b457613254903690600401613834565b61327773ffffffffffffffffffffffffffffffffffffffff600254163314613be5565b61327f614061565b604051907f9af1d35a00000000000000000000000000000000000000000000000000000000825260a08260048173ffffffffffffffffffffffffffffffffffffffff7f0000000000000000000000000000000000000000000000000000000000000000165afa9182156103a9575f9261365d575b506132fe82826140ab565b92909161330c848433614142565b60ff608067ffffffffffffffff6004541693015116907f000000000000000000000000000000000000000000000000000000000000000094604090815192613354838561370d565b600184527fffffffffffffffffffffffffffffffffffffffffffffffffffffffffffffffe083015f5b81811061364657505061338f84613fe9565b5261339983613fe9565b506133a760ff8451106144e1565b67ffffffffffffffff6004546133c06106ae8651614119565b169267ffffffffffffffff955f5b825160ff821690811015613609576133e69084613ff6565b516133f386820151614546565b6002811015610952576001036135ac578888826101008e94018381511684810361343d575b50509160ff94939161342b936003614978565b501660ff8114610749576001016133ce565b919450925061344d915089615406565b908a8216809152600454111561354f57613468906004613d3b565b508973ffffffffffffffffffffffffffffffffffffffff60208401511673ffffffffffffffffffffffffffffffffffffffff835416149182613540575b82613533575b82613520575b5050156134c35788888c928e80613418565b606486517f08c379a000000000000000000000000000000000000000000000000000000000815260206004820152600360248201527f434f5300000000000000000000000000000000000000000000000000000000006044820152fd5b8192506005015460181c1614898d6134b1565b60038101541592506134ab565b600581015460ff1692506134a5565b606487517f08c379a000000000000000000000000000000000000000000000000000000000815260206004820152600360248201527f434f4900000000000000000000000000000000000000000000000000000000006044820152fd5b606486517f08c379a000000000000000000000000000000000000000000000000000000000815260206004820152600260248201527f55520000000000000000000000000000000000000000000000000000000000006044820152fd5b827fb8d5128cd9cda2db9057d427ff64975ed6b7fd2fab0d755f0800cf41df96683560608c888a805192600184526020840152820152a260015f55005b602090613651613cc1565b8282890101520161337d565b61367791925060a03d60a011610b9f57610b90818361370d565b90826132f3565b610140810190811067ffffffffffffffff821117610ade57604052565b610120810190811067ffffffffffffffff821117610ade57604052565b6040810190811067ffffffffffffffff821117610ade57604052565b6101e0810190811067ffffffffffffffff821117610ade57604052565b60a0810190811067ffffffffffffffff821117610ade57604052565b90601f7fffffffffffffffffffffffffffffffffffffffffffffffffffffffffffffffe0910116810190811067ffffffffffffffff821117610ade57604052565b6004359073ffffffffffffffffffffffffffffffffffffffff821682036103b457565b359073ffffffffffffffffffffffffffffffffffffffff821682036103b457565b359062ffffff821682036103b457565b359081151582036103b457565b6004359067ffffffffffffffff821682036103b457565b67ffffffffffffffff8111610ade5760051b60200190565b359061ffff821682036103b457565b359063ffffffff821682036103b457565b91908260409103126103b457604051613816816136b8565b602061382f818395613827816137ed565b8552016137ed565b910152565b91908281039261016084126103b457604051906138508261367e565b60407fffffffffffffffffffffffffffffffffffffffffffffffffffffffffffffffc0839661387e84613771565b855261388c60208501613771565b602086015201126103b4576040516138a3816136b8565b604082013560028110156103b45781526138bf60608301613792565b602082015260408301526080810135606083015260a081013560808301526138e960c082016137a2565b60a08301526138fa60e082016137a2565b60c083015261390c61010082016137a2565b60e083015261012081013567ffffffffffffffff811681036103b4576101008301526101408101359067ffffffffffffffff82116103b4570182601f820112156103b45780359061395c826137c6565b9361396a604051958661370d565b82855260206102208187019402830101918183116103b457602001925b82841061399957505050506101200152565b610220848303126103b4576020610220916040516139b6816136d4565b6139bf876137de565b81526139cc8388016137a2565b838201526139dc604088016137a2565b60408201526139ed606088016137a2565b60608201526139fe608088016137a2565b6080820152613a0f60a088016137a2565b60a0820152613a2060c088016137a2565b60c0820152613a3160e088016137a2565b60e0820152613a4361010088016137a2565b610100820152613a5661012088016137de565b610120820152613a696101408801613792565b610140820152613a7c61016088016137ed565b610160820152613a8f61018088016137ed565b610180820152613aa3856101a089016137fe565b6101a0820152613ab7856101e089016137fe565b6101c0820152815201930192613987565b9060028210156109525752565b7fffffffffffffffffffffffffffffffffffffffffffffffffffffffffffffffdc60a09101126103b45760405190613b0c826136f1565b8160243560ff811681036103b457815260443560ff811681036103b457602082015260643560ff811681036103b457604082015260843560ff811681036103b457606082015260a4359060ff821682036103b45760800152565b9080601f830112156103b4578135613b7d816137c6565b92613b8b604051948561370d565b81845260208085019260051b820101918383116103b45760208201905b838210613bb757505050505090565b813567ffffffffffffffff81116103b457602091613bda87848094880101613834565b815201910190613ba8565b15613bec57565b60646040517f08c379a000000000000000000000000000000000000000000000000000000000815260206004820152600960248201527f6e6f74206f776e657200000000000000000000000000000000000000000000006044820152fd5b519060ff821682036103b457565b908160a09103126103b457613cb9608060405192613c75846136f1565b613c7e81613c4a565b8452613c8c60208201613c4a565b6020850152613c9d60408201613c4a565b6040850152613cae60608201613c4a565b606085015201613c4a565b608082015290565b60405190613cce8261367e565b6060610120835f81525f6020820152604051613ce9816136b8565b5f81525f602082015260408201525f838201525f60808201525f60a08201525f60c08201525f60e08201525f6101008201520152565b600454811015611b255760045f52600b60205f20910201905f90565b8054821015611b25575f52600b60205f20910201905f90565b60028210156109525752565b90604051613d6d816136b8565b602063ffffffff8294548181168452821c16910152565b90604051613d918161367e565b6006819373ffffffffffffffffffffffffffffffffffffffff815416835273ffffffffffffffffffffffffffffffffffffffff6001820154166020840152604051613ddb816136b8565b62ffffff6002830154613df160ff821684613d54565b60081c1660208201526040840152600381015460608401526004810154608084015267ffffffffffffffff600582015460ff8116151560a086015260ff8160081c16151560c086015260ff8160101c16151560e086015260181c1661010084015201908154613e5f816137c6565b92613e6d604051948561370d565b81845260208401905f5260205f205f915b838310613e9057505050506101200152565b60036020600192604051613ea3816136d4565b63ffffffff865461ffff8116835260ff8160101c1615158584015260ff8160181c161515604084015260ff81861c161515606084015260ff8160281c161515608084015260ff8160301c16151560a084015260ff8160381c16151560c084015260ff8160401c16151560e084015260ff8160481c16151561010084015261ffff8160501c1661012084015262ffffff8160601c16610140840152818160781c1661016084015260981c16610180820152613f5e858701613d60565b6101a0820152613f7060028701613d60565b6101c0820152815201920192019190613e7e565b15613f8b57565b60646040517f08c379a000000000000000000000000000000000000000000000000000000000815260206004820152600260248201527f57550000000000000000000000000000000000000000000000000000000000006044820152fd5b805115611b255760200190565b8051821015611b255760209160051b010190565b9190820180921161074957565b5f92918391825b81518410156140595761405060019161404a6140448661403e8988613ff6565b5161444c565b9261400a565b9761400a565b9301929461401e565b949392505050565b60025f54146140705760025f55565b7f3ee5aeb5000000000000000000000000000000000000000000000000000000005f5260045ffd5b8181029291811591840414171561074957565b91906060830151156140e5576140e2906140dc6140c85f95614553565b9160ff606081604084015116920151161b90565b90614098565b90565b505f91508190565b908160209103126103b4575173ffffffffffffffffffffffffffffffffffffffff811681036103b45790565b67ffffffffffffffff039067ffffffffffffffff821161074957565b9190820391821161074957565b9161414d818361400a565b341061435f578115801561428e575b50801580156141bd575b506141709161400a565b34811061417b575050565b5f80809361418a829434614135565b90829082156141b3575b73ffffffffffffffffffffffffffffffffffffffff1690f1156103a957565b6108fc9150614194565b6040517f1db89da100000000000000000000000000000000000000000000000000000000815260208160048173ffffffffffffffffffffffffffffffffffffffff7f0000000000000000000000000000000000000000000000000000000000000000165afa9182156103a9575f848194928294938394849161426f575b508391614265575b73ffffffffffffffffffffffffffffffffffffffff1690f1156103a9575f614166565b6108fc9150614242565b614288915060203d60201161279a5761278b818361370d565b5f61423a565b6040517febd3cdcd00000000000000000000000000000000000000000000000000000000815260208160048173ffffffffffffffffffffffffffffffffffffffff7f0000000000000000000000000000000000000000000000000000000000000000165afa9182156103a9575f8581949282949383948491614340575b508391614336575b73ffffffffffffffffffffffffffffffffffffffff1690f1156103a9575f61415c565b6108fc9150614313565b614359915060203d60201161279a5761278b818361370d565b5f61430b565b60646040517f08c379a000000000000000000000000000000000000000000000000000000000815260206004820152600360248201527f46454500000000000000000000000000000000000000000000000000000000006044820152fd5b8054821015611b25575f5260205f209060011b01905f90565b9373ffffffffffffffffffffffffffffffffffffffff6080948162ffffff949998956144068960a081019c613ac8565b1660208801521660408601521660608401521515910152565b908160209103126103b4575180151581036103b45790565b8054821015611b25575f5260205f2001905f90565b61010081019167ffffffffffffffff80845116146144975761448d611b656144886144939567ffffffffffffffff806004541691511690615406565b613d1f565b91615441565b9091565b9061449392506140ab565b67ffffffffffffffff6003541667ffffffffffffffff8216109081156144c6575090565b60ff91506144d76007916004613d3b565b50015460081c1690565b156144e857565b60646040517f08c379a000000000000000000000000000000000000000000000000000000000815260206004820152600360248201527f544d4f00000000000000000000000000000000000000000000000000000000006044820152fd5b5160028110156109525790565b5f91825b61012083015180518510156145fb576101206145768661ffff93613ff6565b510151168061459a5750600161459061012092829061400a565b9401939050614557565b9061ffff6145ad81848104169384614098565b106145c2575b6145906101209260019261400a565b60018201809211156145b3577f4e487b71000000000000000000000000000000000000000000000000000000005f52601160045260245ffd5b5092509050565b5463ffffffff81161590811591614617575090565b63ffffffff915060201c16151590565b5463ffffffff61463881831661471c565b9160201c16801561465857906146506140e29261471c565b90429161548b565b5090565b81810292915f82127f800000000000000000000000000000000000000000000000000000000000000082141661074957818405149015171561074957565b54909163ffffffff6146bb816146b181861661471c565b9460201c1661471c565b931660030b916146cb838561465c565b915f838203931281841281169082851390151617610749576c01000000000000000000000000916146fb9161465c565b05905f8282019283129112908015821691151617610749576140e29261548b565b637fffffff81161561483757637f800000811660030b60171d60030b60ff81146147d9576380000000627fffff831660030b826147ce5760011b925b166147c3575b7fffffffffffffffffffffffffffffffffffffffffffffffffffffffffffffff810160030b7fffffffffffffffffffffffffffffffffffffffffffffffffffffffffffffffb70360030b5f81125f146147b7575f031b90565b5f811315614658571d90565b5f919091039061475e565b628000001792614758565b60646040517f08c379a000000000000000000000000000000000000000000000000000000000815260206004820152600360248201527f4e614e00000000000000000000000000000000000000000000000000000000006044820152fd5b505f90565b7fffffffffffffffffffffffffffffffffffffffffffffffffffffffffffffffff6c010000000000000000000000008209918160601b918280851094039380850394146148ed57838211156103b4576c0100000000000000000000000082910981805f03168092046002816003021880820260020302808202600203028082026002030280820260020302808202600203028091026002030293600183805f03040190848311900302920304170290565b50809250156103b4570490565b5f917fffffffffffffffffffffffffffffffffffffffffffffffffffffffffffffffff818309918181029384808510940393808503941461496e57836c01000000000000000000000000111561014f5750906c01000000000000000000000000910990828211900360a01b910360601c1790565b5050505060601c90565b929094939193600163ffffffff421694019182549267ffffffffffffffff84169368010000000000000000811015610ade576149c6916149bf826001889401835582613d3b565b5050613d3b565b5073ffffffffffffffffffffffffffffffffffffffff80895116167fffffffffffffffffffffffff0000000000000000000000000000000000000000825416178155602088019773ffffffffffffffffffffffffffffffffffffffff89511673ffffffffffffffffffffffffffffffffffffffff6001840191167fffffffffffffffffffffffff000000000000000000000000000000000000000082541617905560028201604082019081518051906002821015610952577fffffffffffffffffffffffffffffffffffffffffffffffffffffffff0000000060ff63ffffff006020865494015160081b1693169116171790556060820151600384015560808201516004840155600583019360a0830151151560ff7fffffffffffffffffffffffffffffffffffffffffffffffffffffffffffffff008754169116178555614b4460c0840151151586907fffffffffffffffffffffffffffffffffffffffffffffffffffffffffffff00ff61ff00835492151560081b169116179055565b60e08301805186547fffffffffffffffffffffffffffffffffffffffffffffffffffffffffff00ffff1690151560101b62ff000016178655946101008401517fffffffffffffffffffffffffffffffffffffffffff0000000000000000ffffff6affffffffffffffff00000083549260181b169116179055600684019961012084019a8b5190815191680100000000000000008311610ade5781548383558084106152d9575b50602001905f5260205f205f915b838310614f65575050505075ffffffffffffffff00000000000000000000000000009060ff603262ffffff6020875101511604169060ff811682105f14614f5a5750919b9a9b5b6dffffffffffffffff0000000000007fffffffffffffffffffff0000000000000000ffffffffffffffffffffffffffff60078801947fffffffffffffffffffffffffffffffffffff000000000000000000000000ff0060ff875492169116171665ffffffff00004260101b16179160301b16171790555f965f99600a85019a5b8c518051821015614e765781614cd491613ff6565b51606081015115801590614e69575b612164578c5468010000000000000000811015610ade57828e614d0f836001614d1695018355826143bd565b50506143bd565b5060208201518d9015614e51576001611fa0614d3e9263ffffffff61016087015116906154e1565b60408201518d9015614e3d5763ffffffff614d6281928261018087015116906154e1565b7fffffffffffffffffffffffffffffffffffffffff00000000ffffffffffffffff6bffffffff000000000000000085549260401b1691161780845560201c16167fffffffffffffffffffffffffffffffffffffffffffffffffffffffff0000000082541617905560c081015115801590614e30575b614e27575b60a081015115908115614df8575b501561209757600101614cbf565b6101a001515163ffffffff81161515915081614e17575b50155f614dea565b638000000091501615155f614e0f565b60019a50614ddc565b5060e08101511515614dd7565b5063ffffffff808061018085015116614d62565b50614d3e600163ffffffff6101608501511692611fa2565b5060808101511515614ce3565b5050939792969a50939750939750614e91575b505050505050565b73ffffffffffffffffffffffffffffffffffffffff602094614f0262ffffff878480614ebd8a51614546565b955116965116975101511698511515604051998a97889687957f5b1b3179000000000000000000000000000000000000000000000000000000008752600487016143d6565b0392165afa9182156103a9575f92614f25575b50600801555f8080808080614e89565b9091506020813d602011614f52575b81614f416020938361370d565b810103126103b45751906008614f15565b3d9150614f34565b9050919b9a9b614c3f565b805180518354602083015162ff000090151560101b1661ffff9092167fffffffffffffffffffffffffffffffffffffffffffffffffffffffffff000000909116171783556040810151151583546060830151151560201b64ff00000000166080840151151560281b60a0850151151560301b60c0860151151560381b60e0870151151560401b90610100880151151560481b9261012089015160501b6bffff0000000000000000000016946101408a015160601b6effffff00000000000000000000000016966101608b015160781b72ffffffff00000000000000000000000000000016986101808c015160981b76ffffffff00000000000000000000000000000000000000169a60181b63ff00000016907fffffffffffffffffffffffffffffffffffffffffffffffffffff000000ffffff16177fffffffffffffffffffffffffffffffffffffffffffffffffff00ffffffffffff16177fffffffffffffffffffffffffffffffffffffffffffffffff00ffffffffffffff169065ff000000000016177fffffffffffffffffffffffffffffffffffffffffffffff00ffffffffffffffff169066ff00000000000016177fffffffffffffffffffffffffffffffffffffffffffff00ffffffffffffffffff169067ff0000000000000016177fffffffffffffffffffffffffffffffffffffffff0000ffffffffffffffffffff169068ff000000000000000016177fffffffffffffffffffffffffffffffffff000000ffffffffffffffffffffffff169069ff00000000000000000016177fffffffffffffffffffffffffff00000000ffffffffffffffffffffffffffffff16177fffffffffffffffffff00000000ffffffffffffffffffffffffffffffffffffff161717178355600183016101a0820151805163ffffffff1663ffffffff1682547fffffffffffffffffffffffffffffffffffffffffffffffffffffffff00000000161782556020015163ffffffff1661527391907fffffffffffffffffffffffffffffffffffffffffffffffff00000000ffffffff67ffffffff0000000083549260201b169116179055565b6101c0015180516002840180546020938401517fffffffffffffffffffffffffffffffffffffffffffffffff000000000000000090911663ffffffff909316929092179190921b67ffffffff000000001617905560200190600301916001019190614bf8565b80600302906003820403610749578360030260038104850361074957835f5260205f2091820191015b81811061530f5750614bea565b805f600392555f60018201555f600282015501615302565b615332906005614437565b505467ffffffffffffffff60ff818360081c169260481c161667ffffffffffffffff8216019067ffffffffffffffff82116107495767ffffffffffffffff91909116906004905b8267ffffffffffffffff82161061538f57505050565b60018160076153a767ffffffffffffffff9486613d3b565b50016101007fffffffffffffffffffffffffffffffffffffffffffffffffffffffffffff00ff8254161790557f74a075ee230588b5c76ea493a6d21b086384f29139b7227b9c6329e66106dc4860206040518584168152a10116615379565b6780000000000000008216615419575090565b67ffffffffffffffff677fffffffffffffff91160167ffffffffffffffff8111610749571690565b92919260608101511561548157906140dc6140c86154616140e294614553565b6140dc61547b60ff86511660ff6020880151161b83614098565b97614553565b505090505f905f90565b90918281830201928215612812578303829005036154b057505f81136140e257505f90565b5f121590506154dd577fffffffffffffffffffffffffffffffffffffffffffffffffffffffffffffffff90565b5f90565b9063ffffffff8091169116019063ffffffff82116107495756fea2646970667358221220aed1c1b9afe964f96bb7a640573ccd6c90a72b0ac1a5a7b385ab0d6c864255f464736f6c634300081a0033","linkReferences":{}},"methodIdentifiers":{"cancelAllDexorders()":"2800c78f","cancelDexorder(uint64)":"8489f9bf","execute(uint64,uint8,(uint256))":"6e98833d","feeManager()":"d0fb0203","numSwapOrders()":"e78f84e7","orderCanceled(uint64)":"a449d030","placeDexorder((address,address,(uint8,uint24),uint256,uint256,bool,bool,bool,uint64,(uint16,bool,bool,bool,bool,bool,bool,bool,bool,uint16,uint24,uint32,uint32,(uint32,uint32),(uint32,uint32))[]))":"16ddc073","placeDexorders((address,address,(uint8,uint24),uint256,uint256,bool,bool,bool,uint64,(uint16,bool,bool,bool,bool,bool,bool,bool,bool,uint16,uint24,uint32,uint32,(uint32,uint32),(uint32,uint32))[])[],uint8)":"b39f4362","placementFee((address,address,(uint8,uint24),uint256,uint256,bool,bool,bool,uint64,(uint16,bool,bool,bool,bool,bool,bool,bool,bool,uint16,uint24,uint32,uint32,(uint32,uint32),(uint32,uint32))[]),(uint8,uint8,uint8,uint8,uint8))":"8f464876","placementFee((address,address,(uint8,uint24),uint256,uint256,bool,bool,bool,uint64,(uint16,bool,bool,bool,bool,bool,bool,bool,bool,uint16,uint24,uint32,uint32,(uint32,uint32),(uint32,uint32))[])[],(uint8,uint8,uint8,uint8,uint8))":"eaa3aa72","swapOrderStatus(uint64)":"77bad6b5","unwrap(uint256)":"de0e9a3e","vaultImplDidChange(address)":"58b72a09","version()":"54fd4d50","withdrawTo(address,address,uint256)":"c3b35a7e","withdrawTo(address,uint256)":"205c2878","wrap(uint256)":"ea598cb0","wrapper()":"ac210cc7"},"id":70}