{"abi":[{"type":"constructor","inputs":[{"name":"upgrader_","type":"address","internalType":"address"},{"name":"vaultImpl_","type":"address","internalType":"address"},{"name":"upgradeNoticeDuration_","type":"uint32","internalType":"uint32"}],"stateMutability":"nonpayable"},{"type":"function","name":"deployVault","inputs":[{"name":"num","type":"uint8","internalType":"uint8"}],"outputs":[{"name":"vault","type":"address","internalType":"contract IVault"}],"stateMutability":"nonpayable"},{"type":"function","name":"deployVault","inputs":[{"name":"owner","type":"address","internalType":"address"}],"outputs":[{"name":"vault","type":"address","internalType":"contract IVault"}],"stateMutability":"nonpayable"},{"type":"function","name":"deployVault","inputs":[],"outputs":[{"name":"vault","type":"address","internalType":"contract IVault"}],"stateMutability":"nonpayable"},{"type":"function","name":"deployVault","inputs":[{"name":"owner","type":"address","internalType":"address"},{"name":"num","type":"uint8","internalType":"uint8"}],"outputs":[{"name":"vault","type":"address","internalType":"contract IVault"}],"stateMutability":"nonpayable"},{"type":"function","name":"implementation","inputs":[],"outputs":[{"name":"","type":"address","internalType":"address"}],"stateMutability":"view"},{"type":"function","name":"kill","inputs":[],"outputs":[],"stateMutability":"nonpayable"},{"type":"function","name":"killed","inputs":[],"outputs":[{"name":"","type":"bool","internalType":"bool"}],"stateMutability":"view"},{"type":"function","name":"parameters","inputs":[],"outputs":[{"name":"owner","type":"address","internalType":"address"},{"name":"num","type":"uint8","internalType":"uint8"},{"name":"vaultImpl","type":"address","internalType":"address"}],"stateMutability":"view"},{"type":"function","name":"proposedImpl","inputs":[],"outputs":[{"name":"","type":"address","internalType":"address"}],"stateMutability":"view"},{"type":"function","name":"proposedImplActivationTimestamp","inputs":[],"outputs":[{"name":"","type":"uint32","internalType":"uint32"}],"stateMutability":"view"},{"type":"function","name":"upgradeImplementation","inputs":[{"name":"newImpl","type":"address","internalType":"address"}],"outputs":[],"stateMutability":"nonpayable"},{"type":"function","name":"upgradeNoticeDuration","inputs":[],"outputs":[{"name":"","type":"uint32","internalType":"uint32"}],"stateMutability":"view"},{"type":"function","name":"upgrader","inputs":[],"outputs":[{"name":"","type":"address","internalType":"address"}],"stateMutability":"view"},{"type":"event","name":"Killed","inputs":[],"anonymous":false},{"type":"event","name":"VaultImplChanged","inputs":[{"name":"impl","type":"address","indexed":false,"internalType":"address"}],"anonymous":false},{"type":"event","name":"VaultImplProposed","inputs":[{"name":"impl","type":"address","indexed":false,"internalType":"address"},{"name":"activationTime","type":"uint32","indexed":false,"internalType":"uint32"}],"anonymous":false}],"bytecode":{"object":"0x60c0346100c857601f611c3b38819003918201601f19168301916001600160401b038311848410176100cd578084926060946040528339810103126100c857610047816100e3565b906040610056602083016100e3565b9101519163ffffffff831683036100c85760805260008054610100600160a81b03191660089290921b610100600160a81b031691909117905560a052604051611b4390816100f8823960805181818161016a015281816102e801526105fe015260a05181818161034101526105910152f35b600080fd5b634e487b7160e01b600052604160045260246000fd5b51906001600160a01b03821682036100c85756fe6080604052600436101561001257600080fd5b60003560e01c80631a48240f146106b85780631f3a0e411461067757806341c0e1b5146105b55780634c2c3b0d146105565780635c60da1b146104a45780635eb512e714610463578063748328001461041e57806383f94db714610296578063890357301461021a578063901c4e4f146101e0578063a41e649c1461018e578063af2697451461011f5763dd009fdc146100ab57600080fd5b3461011a5760407ffffffffffffffffffffffffffffffffffffffffffffffffffffffffffffffffc36011261011a576100e2610700565b6024359060ff8216820361011a576020916100fc91610a70565b73ffffffffffffffffffffffffffffffffffffffff60405191168152f35b600080fd5b3461011a5760007ffffffffffffffffffffffffffffffffffffffffffffffffffffffffffffffffc36011261011a57602060405173ffffffffffffffffffffffffffffffffffffffff7f0000000000000000000000000000000000000000000000000000000000000000168152f35b3461011a5760007ffffffffffffffffffffffffffffffffffffffffffffffffffffffffffffffffc36011261011a57602073ffffffffffffffffffffffffffffffffffffffff60015416604051908152f35b3461011a5760007ffffffffffffffffffffffffffffffffffffffffffffffffffffffffffffffffc36011261011a5760206100fc33610814565b3461011a5760007ffffffffffffffffffffffffffffffffffffffffffffffffffffffffffffffffc36011261011a57606060025473ffffffffffffffffffffffffffffffffffffffff6003541660ff6040519273ffffffffffffffffffffffffffffffffffffffff8116845260a01c1660208301526040820152f35b3461011a5760207ffffffffffffffffffffffffffffffffffffffffffffffffffffffffffffffffc36011261011a5773ffffffffffffffffffffffffffffffffffffffff6102e2610700565b61030f827f0000000000000000000000000000000000000000000000000000000000000000163314610723565b16807fffffffffffffffffffffffff0000000000000000000000000000000000000000600154161760015563ffffffff7f00000000000000000000000000000000000000000000000000000000000000001642018042116103ef577fc94fd9ff734eca05ae1136d1e6db57d1f5f1b90ccef02700ffbda0967ac4fc2c9163ffffffff6040927fffffffffffffff00000000ffffffffffffffffffffffffffffffffffffffffff78ffffffff0000000000000000000000000000000000000000006000549260a81b1691161780600055835192835260a81c166020820152a1005b7f4e487b7100000000000000000000000000000000000000000000000000000000600052601160045260246000fd5b3461011a5760007ffffffffffffffffffffffffffffffffffffffffffffffffffffffffffffffffc36011261011a57602063ffffffff60005460a81c16604051908152f35b3461011a5760207ffffffffffffffffffffffffffffffffffffffffffffffffffffffffffffffffc36011261011a5760206100fc61049f610700565b610814565b3461011a5760007ffffffffffffffffffffffffffffffffffffffffffffffffffffffffffffffffc36011261011a5760005463ffffffff8160a81c16801515908161054b575b501561052a5750602073ffffffffffffffffffffffffffffffffffffffff6001541673ffffffffffffffffffffffffffffffffffffffff60405191168152f35b73ffffffffffffffffffffffffffffffffffffffff60209160081c166100fc565b9050421015826104ea565b3461011a5760007ffffffffffffffffffffffffffffffffffffffffffffffffffffffffffffffffc36011261011a57602060405163ffffffff7f0000000000000000000000000000000000000000000000000000000000000000168152f35b3461011a5760007ffffffffffffffffffffffffffffffffffffffffffffffffffffffffffffffffc36011261011a5761062573ffffffffffffffffffffffffffffffffffffffff7f0000000000000000000000000000000000000000000000000000000000000000163314610723565b60017fffffffffffffffffffffffffffffffffffffffffffffffffffffffffffffff0060005416176000557f0f8eeedbc400fd6686703559f58d1e6143fdaed533f19a86c93d67a2fe4fb331600080a1005b3461011a5760007ffffffffffffffffffffffffffffffffffffffffffffffffffffffffffffffffc36011261011a57602060ff600054166040519015158152f35b3461011a5760207ffffffffffffffffffffffffffffffffffffffffffffffffffffffffffffffffc36011261011a5760043560ff8116810361011a576100fc60209133610a70565b6004359073ffffffffffffffffffffffffffffffffffffffff8216820361011a57565b1561072a57565b60646040517f08c379a000000000000000000000000000000000000000000000000000000000815260206004820152600c60248201527f6e6f7420757067726164657200000000000000000000000000000000000000006044820152fd5b6060810190811067ffffffffffffffff8211176107a457604052565b7f4e487b7100000000000000000000000000000000000000000000000000000000600052604160045260246000fd5b90601f7fffffffffffffffffffffffffffffffffffffffffffffffffffffffffffffffe0910116810190811067ffffffffffffffff8211176107a457604052565b60005463ffffffff8160a81c168015159081610a65575b506109d6575b5061093173ffffffffffffffffffffffffffffffffffffffff60005460081c166108c860405161086081610788565b82604073ffffffffffffffffffffffffffffffffffffffff87169283815260006020820152015273ffffffffffffffffffffffffffffffffffffffff167fffffffffffffffffffffffff00000000000000000000000000000000000000006002541617600255565b7fffffffffffffffffffffff00ffffffffffffffffffffffffffffffffffffffff6002541660025573ffffffffffffffffffffffffffffffffffffffff167fffffffffffffffffffffffff00000000000000000000000000000000000000006003541617600355565b6040517fffffffffffffffffffffffffffffffffffffffff000000000000000000000000602082019260601b16825260006034820152601581526109766035826107d3565b519020604051610e5d80820182811067ffffffffffffffff8211176107a4578291610cb1833903906000f580156109ca5773ffffffffffffffffffffffffffffffffffffffff169060006002556000600355565b6040513d6000823e3d90fd5b60207faf6aef99514fcb0d4860afcc8614993bb01ffaa339df4c917c46856940131b56917fffffffffffffff000000000000000000000000000000000000000000000000ff74ffffffffffffffffffffffffffffffffffffffff0060015460081b169116178060005573ffffffffffffffffffffffffffffffffffffffff6040519160081c168152a138610831565b90504210153861082b565b9060005463ffffffff8160a81c168015159081610ca5575b50610c16575b50610bad73ffffffffffffffffffffffffffffffffffffffff60005460081c16610b27604051610abd81610788565b82604073ffffffffffffffffffffffffffffffffffffffff88169283815260ff88166020820152015273ffffffffffffffffffffffffffffffffffffffff167fffffffffffffffffffffffff00000000000000000000000000000000000000006002541617600255565b6002547fffffffffffffffffffffff00ffffffffffffffffffffffffffffffffffffffff74ff00000000000000000000000000000000000000008560a01b1691161760025573ffffffffffffffffffffffffffffffffffffffff167fffffffffffffffffffffffff00000000000000000000000000000000000000006003541617600355565b7fff00000000000000000000000000000000000000000000000000000000000000604051917fffffffffffffffffffffffffffffffffffffffff000000000000000000000000602084019460601b16845260f81b166034820152601581526109766035826107d3565b60207faf6aef99514fcb0d4860afcc8614993bb01ffaa339df4c917c46856940131b56917fffffffffffffff000000000000000000000000000000000000000000000000ff74ffffffffffffffffffffffffffffffffffffffff0060015460081b169116178060005573ffffffffffffffffffffffffffffffffffffffff6040519160081c168152a138610a8e565b905042101538610a8856fe60c0806040523461019557600160005533608052630890357360e41b8152606081600481335afa90811561018957600091829183916100d5575b600180546001600160a01b03199081166001600160a01b0380861691821790935560a08690526002805490921692871692831790915560405160ff86168152600080516020610e1d8339815191529260209291600080516020610e3d833981519152908490a2604051908152a1604051610c6e90816101af8239608051818181610637015281816108d60152610b56015260a051816103e20152f35b91505060603d606011610182575b601f8101601f191682016001600160401b0381118382101761016e5760609183916040528101031261016a576101188161019a565b9060208101519260ff84168403610167575091602091600080516020610e3d833981519152836101596040600080516020610e1d833981519152970161019a565b929392939550505091610039565b80fd5b5080fd5b634e487b7160e01b84526041600452602484fd5b503d6100e3565b6040513d6000823e3d90fd5b600080fd5b51906001600160a01b03821682036101955756fe6080604052600436101561001d575b36610adb5761001b610a95565b005b60003560e01c80630900f010146100cd5780631f3a0e41146100c8578063205c2878146100c35780632e1a7d4d146100be57806341c0e1b5146100b95780634e70b1dc146100b45780635c60da1b146100af5780638da5cb5b146100aa578063c3b35a7e146100a5578063c45a0155146100a05763f3fef3a30361000e5761065b565b6105ec565b6104aa565b610458565b610406565b6103aa565b6102f4565b61025e565b6101aa565b610166565b6100f5565b73ffffffffffffffffffffffffffffffffffffffff8116036100f057565b600080fd5b346100f05760207ffffffffffffffffffffffffffffffffffffffffffffffffffffffffffffffffc3601126100f05761001b600435610133816100d2565b61015673ffffffffffffffffffffffffffffffffffffffff600254163314610734565b610892565b60009103126100f057565b346100f05760007ffffffffffffffffffffffffffffffffffffffffffffffffffffffffffffffffc3601126100f057602060ff60025460a01c166040519015158152f35b346100f05760407ffffffffffffffffffffffffffffffffffffffffffffffffffffffffffffffffc3601126100f0576004356101e5816100d2565b600080808073ffffffffffffffffffffffffffffffffffffffff6024359561021282600254163314610734565b169485828215610255575bf115610250577f7fcf532c15f0a6db0bd6d0e038bea71d30d808c7d98cb3bf7268a95bf5081b65602060405160008152a2005b610821565b506108fc61021d565b346100f05760207ffffffffffffffffffffffffffffffffffffffffffffffffffffffffffffffffc3601126100f05760025473ffffffffffffffffffffffffffffffffffffffff1660008080806004356102b9338714610734565b8582821561025557f115610250577f7fcf532c15f0a6db0bd6d0e038bea71d30d808c7d98cb3bf7268a95bf5081b65602060405160008152a2005b346100f05760007ffffffffffffffffffffffffffffffffffffffffffffffffffffffffffffffffc3601126100f057740100000000000000000000000000000000000000007fffffffffffffffffffffff00ffffffffffffffffffffffffffffffffffffffff60025461037e73ffffffffffffffffffffffffffffffffffffffff82163314610734565b7f0f8eeedbc400fd6686703559f58d1e6143fdaed533f19a86c93d67a2fe4fb331600080a11617600255005b346100f05760007ffffffffffffffffffffffffffffffffffffffffffffffffffffffffffffffffc3601126100f057602060405160ff7f0000000000000000000000000000000000000000000000000000000000000000168152f35b346100f05760007ffffffffffffffffffffffffffffffffffffffffffffffffffffffffffffffffc3601126100f057602073ffffffffffffffffffffffffffffffffffffffff60015416604051908152f35b346100f05760007ffffffffffffffffffffffffffffffffffffffffffffffffffffffffffffffffc3601126100f057602073ffffffffffffffffffffffffffffffffffffffff60025416604051908152f35b346100f05760607ffffffffffffffffffffffffffffffffffffffffffffffffffffffffffffffffc3601126100f0576004356104e5816100d2565b602435906104f2826100d2565b6044359161051973ffffffffffffffffffffffffffffffffffffffff600254163314610734565b6002600054146105c257604473ffffffffffffffffffffffffffffffffffffffff916000836020956002835560405197889687957fa9059cbb0000000000000000000000000000000000000000000000000000000087521660048601526024850152165af1801561025057610593575b61001b6001600055565b6105b49060203d6020116105bb575b6105ac8183610799565b810190610ac3565b5038610589565b503d6105a2565b7f3ee5aeb50000000000000000000000000000000000000000000000000000000060005260046000fd5b346100f05760007ffffffffffffffffffffffffffffffffffffffffffffffffffffffffffffffffc3601126100f057602060405173ffffffffffffffffffffffffffffffffffffffff7f0000000000000000000000000000000000000000000000000000000000000000168152f35b346100f05760407ffffffffffffffffffffffffffffffffffffffffffffffffffffffffffffffffc3601126100f057600435610696816100d2565b60025473ffffffffffffffffffffffffffffffffffffffff166024356106bd338314610734565b6002600054146105c25760446020926002600055600073ffffffffffffffffffffffffffffffffffffffff60405196879586947fa9059cbb00000000000000000000000000000000000000000000000000000000865260048601526024850152165af18015610250576105935761001b6001600055565b1561073b57565b60646040517f08c379a000000000000000000000000000000000000000000000000000000000815260206004820152600960248201527f6e6f74206f776e657200000000000000000000000000000000000000000000006044820152fd5b90601f7fffffffffffffffffffffffffffffffffffffffffffffffffffffffffffffffe0910116810190811067ffffffffffffffff8211176107da57604052565b7f4e487b7100000000000000000000000000000000000000000000000000000000600052604160045260246000fd5b908160209103126100f0575161081e816100d2565b90565b6040513d6000823e3d90fd5b1561083457565b60646040517f08c379a000000000000000000000000000000000000000000000000000000000815260206004820152600260248201527f55560000000000000000000000000000000000000000000000000000000000006044820152fd5b604051907f5c60da1b00000000000000000000000000000000000000000000000000000000825260208260048173ffffffffffffffffffffffffffffffffffffffff7f0000000000000000000000000000000000000000000000000000000000000000165afa91821561025057600092610a64575b5061092c73ffffffffffffffffffffffffffffffffffffffff8083169316831461082d565b60015473ffffffffffffffffffffffffffffffffffffffff16918214610a60576109918173ffffffffffffffffffffffffffffffffffffffff167fffffffffffffffffffffffff00000000000000000000000000000000000000006001541617600155565b303b156100f0576040517f58b72a0900000000000000000000000000000000000000000000000000000000815273ffffffffffffffffffffffffffffffffffffffff92909216600483015260008260248183305af1908115610250577faf6aef99514fcb0d4860afcc8614993bb01ffaa339df4c917c46856940131b5692610a4092610a45575b5060405173ffffffffffffffffffffffffffffffffffffffff90911681529081906020820190565b0390a1565b80610a546000610a5a93610799565b8061015b565b38610a18565b5050565b610a8791925060203d602011610a8e575b610a7f8183610799565b810190610809565b9038610907565b503d610a75565b6040513481527fe1fffcc4923d04b559f4d29a8bfc6cda04eb5b0d3c460751c2402c5c5cc9109c60203392a2565b908160209103126100f0575180151581036100f05790565b60025460a01c60ff161580610b12575b610af490610bb2565b60015473ffffffffffffffffffffffffffffffffffffffff16610c17565b506040517f1f3a0e4100000000000000000000000000000000000000000000000000000000815260208160048173ffffffffffffffffffffffffffffffffffffffff7f0000000000000000000000000000000000000000000000000000000000000000165afa801561025057610af491600091610b93575b50159050610aeb565b610bac915060203d6020116105bb576105ac8183610799565b38610b8a565b15610bb957565b60646040517f08c379a000000000000000000000000000000000000000000000000000000000815260206004820152600160248201527f4b000000000000000000000000000000000000000000000000000000000000006044820152fd5b60008091368280378136915af43d6000803e15610c33573d6000f35b3d6000fdfea26469706673582212209f444302fed1e3b8bc193d896909f66e8982cf2d4398fbdba95e5f0404c5082464736f6c634300081a0033af6aef99514fcb0d4860afcc8614993bb01ffaa339df4c917c46856940131b56416468bb91b91b2da4acfc37ed49064c0d99cb1d3ea6691055ce17e79137b8d4a2646970667358221220d59492425cc471db482a371b24b1f470d2431b7bbcf01c86bdd188a3a916953464736f6c634300081a0033","linkReferences":{}},"methodIdentifiers":{"deployVault()":"901c4e4f","deployVault(address)":"5eb512e7","deployVault(address,uint8)":"dd009fdc","deployVault(uint8)":"1a48240f","implementation()":"5c60da1b","kill()":"41c0e1b5","killed()":"1f3a0e41","parameters()":"89035730","proposedImpl()":"a41e649c","proposedImplActivationTimestamp()":"74832800","upgradeImplementation(address)":"83f94db7","upgradeNoticeDuration()":"4c2c3b0d","upgrader()":"af269745"},"id":68}