{"abi":[{"type":"constructor","inputs":[{"name":"factory_","type":"address","internalType":"contract IUniswapV3Factory"}],"stateMutability":"nonpayable"},{"type":"function","name":"UNKNOWN_DECIMALS","inputs":[],"outputs":[{"name":"","type":"uint8","internalType":"uint8"}],"stateMutability":"view"},{"type":"function","name":"factory","inputs":[],"outputs":[{"name":"","type":"address","internalType":"contract IUniswapV3Factory"}],"stateMutability":"view"},{"type":"function","name":"getBalances","inputs":[{"name":"vault","type":"address","internalType":"address"},{"name":"tokens","type":"address[]","internalType":"address[]"}],"outputs":[{"name":"balances","type":"uint256[]","internalType":"uint256[]"},{"name":"decimals","type":"uint256[]","internalType":"uint256[]"}],"stateMutability":"view"},{"type":"function","name":"getRoutes","inputs":[{"name":"tokenA","type":"address","internalType":"address"},{"name":"tokenB","type":"address","internalType":"address"}],"outputs":[{"name":"routes","type":"tuple[]","internalType":"struct QueryHelper.RoutesResult[]","components":[{"name":"exchange","type":"uint8","internalType":"enum Exchange"},{"name":"fee","type":"uint24","internalType":"uint24"},{"name":"pool","type":"address","internalType":"address"}]}],"stateMutability":"view"},{"type":"function","name":"poolStatus","inputs":[{"name":"pool","type":"address","internalType":"contract IUniswapV3Pool"}],"outputs":[{"name":"tick","type":"int24","internalType":"int24"},{"name":"liquidity","type":"uint128","internalType":"uint128"}],"stateMutability":"view"},{"type":"function","name":"version","inputs":[],"outputs":[{"name":"","type":"uint8","internalType":"uint8"}],"stateMutability":"view"}],"bytecode":{"object":"0x60a034606657601f610ce638819003918201601f19168301916001600160401b03831184841017606b57808492602094604052833981010312606657516001600160a01b0381168103606657608052604051610c64908161008282396080518161050c0152f35b600080fd5b634e487b7160e01b600052604160045260246000fdfe608080604052600436101561001357600080fd5b60003560e01c9081633c38ccbb146108a85750806354fd4d501461086e5780636a385ae91461056a578063b8df978014610530578063c45a0155146104c15763d85c32c71461006157600080fd5b346104bc5760407ffffffffffffffffffffffffffffffffffffffffffffffffffffffffffffffffc3601126104bc57610098610aa6565b60243573ffffffffffffffffffffffffffffffffffffffff81168091036104bc576040516080810181811067ffffffffffffffff82111761048d57604052606481526101f46020820152610bb860408201526127106060820152600092600073ffffffffffffffffffffffffffffffffffffffff600092169360009281861015935b600460ff821610156102ef57600062ffffff611fe08360051b168801511686816040805161014781610ac9565b8c815288602082015201526102eb5773ffffffffffffffffffffffffffffffffffffffff60405160208101908b825287604082015283606082015260608152610191608082610ae5565b51902060405160208101917fff0000000000000000000000000000000000000000000000000000000000000083527f1f98431c8ad98523631ae4a59f267346ea31f984000000000000000000000000602183015260358201527fe34f199b19b2b4f47f68442619d555527d244f78a3297ea89325f843f87b8b5460558201526055815261021f607582610ae5565b519020169081156102de576040517f70a08231000000000000000000000000000000000000000000000000000000008152600481018390526020816024818e5afa9384156102d2578094610299575b5050868311610288575b505050600160ff915b011661011a565b99509094509150600160ff38610278565b909193506020823d82116102ca575b816102b560209383610ae5565b810103126102c757505191388061026e565b80fd5b3d91506102a8565b604051903d90823e3d90fd5b505050600160ff91610281565b5080fd5b5062ffffff87168015801592906104845760ff60015b16927fffffffffffffffffffffffffffffffffffffffffffffffffffffffffffffffe061034a61033486610b26565b956103426040519788610ae5565b808752610b26565b0160005b81811061045857505061040b575b5050604051602081019160208252805180935260206040830191019260005b8181106103885783830384f35b90918451805160028110156103dc578273ffffffffffffffffffffffffffffffffffffffff60406020946060946001975262ffffff868201511686850152015116604082015201950191019391909361037b565b7f4e487b7100000000000000000000000000000000000000000000000000000000600052602160045260246000fd5b73ffffffffffffffffffffffffffffffffffffffff906040519261042e84610ac9565b60018452602084015216604082015261044682610bde565b5261045081610bde565b50818061035c565b60209060405161046781610ac9565b60008152600083820152600060408201528282890101520161034e565b60ff6000610305565b7f4e487b7100000000000000000000000000000000000000000000000000000000600052604160045260246000fd5b600080fd5b346104bc5760007ffffffffffffffffffffffffffffffffffffffffffffffffffffffffffffffffc3601126104bc57602060405173ffffffffffffffffffffffffffffffffffffffff7f0000000000000000000000000000000000000000000000000000000000000000168152f35b346104bc5760007ffffffffffffffffffffffffffffffffffffffffffffffffffffffffffffffffc3601126104bc57602060405160ff8152f35b346104bc5760407ffffffffffffffffffffffffffffffffffffffffffffffffffffffffffffffffc3601126104bc576105a1610aa6565b6024359067ffffffffffffffff82116104bc57366023830112156104bc5781600401356105cd81610b26565b926105db6040519485610ae5565b8184526024602085019260051b820101903682116104bc57602401915b81831061084157505050815161ffff8110156104bc5761061790610b8f565b906106228351610b8f565b9073ffffffffffffffffffffffffffffffffffffffff1660005b845161ffff821690811015610813579081602073ffffffffffffffffffffffffffffffffffffffff6106706024958a610c1a565b5116604051948580927f70a082310000000000000000000000000000000000000000000000000000000082528860048301525afa806000916107db575b600494506107cb575060006106c28288610c1a565b525b602073ffffffffffffffffffffffffffffffffffffffff6106e5838a610c1a565b5116604051948580927f313ce5670000000000000000000000000000000000000000000000000000000082525afa80600091610789575b61ffff9450610775575061073260ff9186610c1a565b525b1661ffff81146107465760010161063c565b7f4e487b7100000000000000000000000000000000000000000000000000000000600052601160045260246000fd5b60ff61078391169186610c1a565b52610734565b919293906020823d82116107c3575b816107a560209383610ae5565b810103126102c75750906107bd61ffff949392610b81565b9061071c565b3d9150610798565b6107d58288610c1a565b526106c4565b919293906020823d821161080b575b816107f760209383610ae5565b810103126102c757505160049392916106ad565b3d91506107ea565b61082f8561083d86604051938493604085526040850190610b3e565b908382036020850152610b3e565b0390f35b823573ffffffffffffffffffffffffffffffffffffffff811681036104bc578152602092830192016105f8565b346104bc5760007ffffffffffffffffffffffffffffffffffffffffffffffffffffffffffffffffc3601126104bc57602060405160018152f35b346104bc5760207ffffffffffffffffffffffffffffffffffffffffffffffffffffffffffffffffc3601126104bc5760043573ffffffffffffffffffffffffffffffffffffffff81168091036104bc577f3850c7bd00000000000000000000000000000000000000000000000000000000825260e082600481845afa9182156109f957600092610a05575b50906020600492604051938480927f1a6865020000000000000000000000000000000000000000000000000000000082525afa9182156109f95760009261099a575b506fffffffffffffffffffffffffffffffff60409283519260020b8352166020820152f35b6020813d6020116109f1575b816109b360209383610ae5565b810103126109ed5751916fffffffffffffffffffffffffffffffff831683036102c757506fffffffffffffffffffffffffffffffff610975565b8280fd5b3d91506109a6565b6040513d6000823e3d90fd5b9160e0833d60e011610a9e575b81610a1f60e09383610ae5565b810103126102c757825173ffffffffffffffffffffffffffffffffffffffff8116036102c7576020830151928360020b84036102eb5780610a64604060c09301610b72565b50610a7160608201610b72565b50610a7e60808201610b72565b50610a8b60a08201610b81565b500151801515036102c757506020610933565b3d9150610a12565b6004359073ffffffffffffffffffffffffffffffffffffffff821682036104bc57565b6060810190811067ffffffffffffffff82111761048d57604052565b90601f7fffffffffffffffffffffffffffffffffffffffffffffffffffffffffffffffe0910116810190811067ffffffffffffffff82111761048d57604052565b67ffffffffffffffff811161048d5760051b60200190565b906020808351928381520192019060005b818110610b5c5750505090565b8251845260209384019390920191600101610b4f565b519061ffff821682036104bc57565b519060ff821682036104bc57565b90610b9982610b26565b610ba66040519182610ae5565b8281527fffffffffffffffffffffffffffffffffffffffffffffffffffffffffffffffe0610bd48294610b26565b0190602036910137565b805115610beb5760200190565b7f4e487b7100000000000000000000000000000000000000000000000000000000600052603260045260246000fd5b8051821015610beb5760209160051b01019056fea2646970667358221220a2c5fd2e962473eb9b9693c3fd8b99be81fdd63829141cf657d027817fedf3a364736f6c634300081a0033","linkReferences":{}},"methodIdentifiers":{"UNKNOWN_DECIMALS()":"b8df9780","factory()":"c45a0155","getBalances(address,address[])":"6a385ae9","getRoutes(address,address)":"d85c32c7","poolStatus(address)":"3c38ccbb","version()":"54fd4d50"},"id":78}