{"abi":[{"type":"constructor","inputs":[],"stateMutability":"nonpayable"},{"type":"fallback","stateMutability":"payable"},{"type":"receive","stateMutability":"payable"},{"type":"function","name":"factory","inputs":[],"outputs":[{"name":"","type":"address","internalType":"address"}],"stateMutability":"view"},{"type":"function","name":"implementation","inputs":[],"outputs":[{"name":"","type":"address","internalType":"address"}],"stateMutability":"view"},{"type":"function","name":"kill","inputs":[],"outputs":[],"stateMutability":"nonpayable"},{"type":"function","name":"killed","inputs":[],"outputs":[{"name":"","type":"bool","internalType":"bool"}],"stateMutability":"view"},{"type":"function","name":"num","inputs":[],"outputs":[{"name":"","type":"uint8","internalType":"uint8"}],"stateMutability":"view"},{"type":"function","name":"owner","inputs":[],"outputs":[{"name":"","type":"address","internalType":"address"}],"stateMutability":"view"},{"type":"function","name":"upgrade","inputs":[{"name":"newImpl","type":"address","internalType":"address"}],"outputs":[],"stateMutability":"nonpayable"},{"type":"function","name":"withdraw","inputs":[{"name":"amount","type":"uint256","internalType":"uint256"}],"outputs":[],"stateMutability":"nonpayable"},{"type":"function","name":"withdraw","inputs":[{"name":"token","type":"address","internalType":"contract IERC20"},{"name":"amount","type":"uint256","internalType":"uint256"}],"outputs":[],"stateMutability":"nonpayable"},{"type":"function","name":"withdrawTo","inputs":[{"name":"recipient","type":"address","internalType":"address payable"},{"name":"amount","type":"uint256","internalType":"uint256"}],"outputs":[],"stateMutability":"nonpayable"},{"type":"function","name":"withdrawTo","inputs":[{"name":"token","type":"address","internalType":"contract IERC20"},{"name":"recipient","type":"address","internalType":"address"},{"name":"amount","type":"uint256","internalType":"uint256"}],"outputs":[],"stateMutability":"nonpayable"},{"type":"event","name":"Deposit","inputs":[{"name":"sender","type":"address","indexed":true,"internalType":"address"},{"name":"amount","type":"uint256","indexed":false,"internalType":"uint256"}],"anonymous":false},{"type":"event","name":"Killed","inputs":[],"anonymous":false},{"type":"event","name":"VaultCreated","inputs":[{"name":"owner","type":"address","indexed":true,"internalType":"address"},{"name":"num","type":"uint8","indexed":false,"internalType":"uint8"}],"anonymous":false},{"type":"event","name":"VaultImplChanged","inputs":[{"name":"impl","type":"address","indexed":false,"internalType":"address"}],"anonymous":false},{"type":"event","name":"VaultImplProposed","inputs":[{"name":"impl","type":"address","indexed":false,"internalType":"address"},{"name":"activationTime","type":"uint32","indexed":false,"internalType":"uint32"}],"anonymous":false},{"type":"event","name":"Withdrawal","inputs":[{"name":"receiver","type":"address","indexed":true,"internalType":"address"},{"name":"amount","type":"uint256","indexed":false,"internalType":"uint256"}],"anonymous":false},{"type":"error","name":"ReentrancyGuardReentrantCall","inputs":[]}],"bytecode":{"object":"0x60c0806040523461019557600160005533608052630890357360e41b8152606081600481335afa90811561018957600091829183916100d5575b600180546001600160a01b03199081166001600160a01b0380861691821790935560a08690526002805490921692871692831790915560405160ff86168152600080516020610e1d8339815191529260209291600080516020610e3d833981519152908490a2604051908152a1604051610c6e90816101af8239608051818181610637015281816108d60152610b56015260a051816103e20152f35b91505060603d606011610182575b601f8101601f191682016001600160401b0381118382101761016e5760609183916040528101031261016a576101188161019a565b9060208101519260ff84168403610167575091602091600080516020610e3d833981519152836101596040600080516020610e1d833981519152970161019a565b929392939550505091610039565b80fd5b5080fd5b634e487b7160e01b84526041600452602484fd5b503d6100e3565b6040513d6000823e3d90fd5b600080fd5b51906001600160a01b03821682036101955756fe6080604052600436101561001d575b36610adb5761001b610a95565b005b60003560e01c80630900f010146100cd5780631f3a0e41146100c8578063205c2878146100c35780632e1a7d4d146100be57806341c0e1b5146100b95780634e70b1dc146100b45780635c60da1b146100af5780638da5cb5b146100aa578063c3b35a7e146100a5578063c45a0155146100a05763f3fef3a30361000e5761065b565b6105ec565b6104aa565b610458565b610406565b6103aa565b6102f4565b61025e565b6101aa565b610166565b6100f5565b73ffffffffffffffffffffffffffffffffffffffff8116036100f057565b600080fd5b346100f05760207ffffffffffffffffffffffffffffffffffffffffffffffffffffffffffffffffc3601126100f05761001b600435610133816100d2565b61015673ffffffffffffffffffffffffffffffffffffffff600254163314610734565b610892565b60009103126100f057565b346100f05760007ffffffffffffffffffffffffffffffffffffffffffffffffffffffffffffffffc3601126100f057602060ff60025460a01c166040519015158152f35b346100f05760407ffffffffffffffffffffffffffffffffffffffffffffffffffffffffffffffffc3601126100f0576004356101e5816100d2565b600080808073ffffffffffffffffffffffffffffffffffffffff6024359561021282600254163314610734565b169485828215610255575bf115610250577f7fcf532c15f0a6db0bd6d0e038bea71d30d808c7d98cb3bf7268a95bf5081b65602060405160008152a2005b610821565b506108fc61021d565b346100f05760207ffffffffffffffffffffffffffffffffffffffffffffffffffffffffffffffffc3601126100f05760025473ffffffffffffffffffffffffffffffffffffffff1660008080806004356102b9338714610734565b8582821561025557f115610250577f7fcf532c15f0a6db0bd6d0e038bea71d30d808c7d98cb3bf7268a95bf5081b65602060405160008152a2005b346100f05760007ffffffffffffffffffffffffffffffffffffffffffffffffffffffffffffffffc3601126100f057740100000000000000000000000000000000000000007fffffffffffffffffffffff00ffffffffffffffffffffffffffffffffffffffff60025461037e73ffffffffffffffffffffffffffffffffffffffff82163314610734565b7f0f8eeedbc400fd6686703559f58d1e6143fdaed533f19a86c93d67a2fe4fb331600080a11617600255005b346100f05760007ffffffffffffffffffffffffffffffffffffffffffffffffffffffffffffffffc3601126100f057602060405160ff7f0000000000000000000000000000000000000000000000000000000000000000168152f35b346100f05760007ffffffffffffffffffffffffffffffffffffffffffffffffffffffffffffffffc3601126100f057602073ffffffffffffffffffffffffffffffffffffffff60015416604051908152f35b346100f05760007ffffffffffffffffffffffffffffffffffffffffffffffffffffffffffffffffc3601126100f057602073ffffffffffffffffffffffffffffffffffffffff60025416604051908152f35b346100f05760607ffffffffffffffffffffffffffffffffffffffffffffffffffffffffffffffffc3601126100f0576004356104e5816100d2565b602435906104f2826100d2565b6044359161051973ffffffffffffffffffffffffffffffffffffffff600254163314610734565b6002600054146105c257604473ffffffffffffffffffffffffffffffffffffffff916000836020956002835560405197889687957fa9059cbb0000000000000000000000000000000000000000000000000000000087521660048601526024850152165af1801561025057610593575b61001b6001600055565b6105b49060203d6020116105bb575b6105ac8183610799565b810190610ac3565b5038610589565b503d6105a2565b7f3ee5aeb50000000000000000000000000000000000000000000000000000000060005260046000fd5b346100f05760007ffffffffffffffffffffffffffffffffffffffffffffffffffffffffffffffffc3601126100f057602060405173ffffffffffffffffffffffffffffffffffffffff7f0000000000000000000000000000000000000000000000000000000000000000168152f35b346100f05760407ffffffffffffffffffffffffffffffffffffffffffffffffffffffffffffffffc3601126100f057600435610696816100d2565b60025473ffffffffffffffffffffffffffffffffffffffff166024356106bd338314610734565b6002600054146105c25760446020926002600055600073ffffffffffffffffffffffffffffffffffffffff60405196879586947fa9059cbb00000000000000000000000000000000000000000000000000000000865260048601526024850152165af18015610250576105935761001b6001600055565b1561073b57565b60646040517f08c379a000000000000000000000000000000000000000000000000000000000815260206004820152600960248201527f6e6f74206f776e657200000000000000000000000000000000000000000000006044820152fd5b90601f7fffffffffffffffffffffffffffffffffffffffffffffffffffffffffffffffe0910116810190811067ffffffffffffffff8211176107da57604052565b7f4e487b7100000000000000000000000000000000000000000000000000000000600052604160045260246000fd5b908160209103126100f0575161081e816100d2565b90565b6040513d6000823e3d90fd5b1561083457565b60646040517f08c379a000000000000000000000000000000000000000000000000000000000815260206004820152600260248201527f55560000000000000000000000000000000000000000000000000000000000006044820152fd5b604051907f5c60da1b00000000000000000000000000000000000000000000000000000000825260208260048173ffffffffffffffffffffffffffffffffffffffff7f0000000000000000000000000000000000000000000000000000000000000000165afa91821561025057600092610a64575b5061092c73ffffffffffffffffffffffffffffffffffffffff8083169316831461082d565b60015473ffffffffffffffffffffffffffffffffffffffff16918214610a60576109918173ffffffffffffffffffffffffffffffffffffffff167fffffffffffffffffffffffff00000000000000000000000000000000000000006001541617600155565b303b156100f0576040517f58b72a0900000000000000000000000000000000000000000000000000000000815273ffffffffffffffffffffffffffffffffffffffff92909216600483015260008260248183305af1908115610250577faf6aef99514fcb0d4860afcc8614993bb01ffaa339df4c917c46856940131b5692610a4092610a45575b5060405173ffffffffffffffffffffffffffffffffffffffff90911681529081906020820190565b0390a1565b80610a546000610a5a93610799565b8061015b565b38610a18565b5050565b610a8791925060203d602011610a8e575b610a7f8183610799565b810190610809565b9038610907565b503d610a75565b6040513481527fe1fffcc4923d04b559f4d29a8bfc6cda04eb5b0d3c460751c2402c5c5cc9109c60203392a2565b908160209103126100f0575180151581036100f05790565b60025460a01c60ff161580610b12575b610af490610bb2565b60015473ffffffffffffffffffffffffffffffffffffffff16610c17565b506040517f1f3a0e4100000000000000000000000000000000000000000000000000000000815260208160048173ffffffffffffffffffffffffffffffffffffffff7f0000000000000000000000000000000000000000000000000000000000000000165afa801561025057610af491600091610b93575b50159050610aeb565b610bac915060203d6020116105bb576105ac8183610799565b38610b8a565b15610bb957565b60646040517f08c379a000000000000000000000000000000000000000000000000000000000815260206004820152600160248201527f4b000000000000000000000000000000000000000000000000000000000000006044820152fd5b60008091368280378136915af43d6000803e15610c33573d6000f35b3d6000fdfea2646970667358221220f3fe0859a0e7476d4ae3a2c87137789afea874aa95c7ca412caa11406349aa8664736f6c634300081a0033af6aef99514fcb0d4860afcc8614993bb01ffaa339df4c917c46856940131b56416468bb91b91b2da4acfc37ed49064c0d99cb1d3ea6691055ce17e79137b8d4","linkReferences":{}},"methodIdentifiers":{"factory()":"c45a0155","implementation()":"5c60da1b","kill()":"41c0e1b5","killed()":"1f3a0e41","num()":"4e70b1dc","owner()":"8da5cb5b","upgrade(address)":"0900f010","withdraw(address,uint256)":"f3fef3a3","withdraw(uint256)":"2e1a7d4d","withdrawTo(address,address,uint256)":"c3b35a7e","withdrawTo(address,uint256)":"205c2878"},"id":73}