{"abi":[{"type":"constructor","inputs":[],"stateMutability":"nonpayable"},{"type":"fallback","stateMutability":"payable"},{"type":"receive","stateMutability":"payable"},{"type":"function","name":"factory","inputs":[],"outputs":[{"name":"","type":"address","internalType":"address"}],"stateMutability":"view"},{"type":"function","name":"implementation","inputs":[],"outputs":[{"name":"","type":"address","internalType":"address"}],"stateMutability":"view"},{"type":"function","name":"kill","inputs":[],"outputs":[],"stateMutability":"nonpayable"},{"type":"function","name":"killed","inputs":[],"outputs":[{"name":"","type":"bool","internalType":"bool"}],"stateMutability":"view"},{"type":"function","name":"num","inputs":[],"outputs":[{"name":"","type":"uint8","internalType":"uint8"}],"stateMutability":"view"},{"type":"function","name":"owner","inputs":[],"outputs":[{"name":"","type":"address","internalType":"address"}],"stateMutability":"view"},{"type":"function","name":"upgrade","inputs":[{"name":"newImpl","type":"address","internalType":"address"}],"outputs":[],"stateMutability":"nonpayable"},{"type":"function","name":"withdraw","inputs":[{"name":"amount","type":"uint256","internalType":"uint256"}],"outputs":[],"stateMutability":"nonpayable"},{"type":"function","name":"withdraw","inputs":[{"name":"token","type":"address","internalType":"contract IERC20"},{"name":"amount","type":"uint256","internalType":"uint256"}],"outputs":[],"stateMutability":"nonpayable"},{"type":"event","name":"Deposit","inputs":[{"name":"sender","type":"address","indexed":true,"internalType":"address"},{"name":"amount","type":"uint256","indexed":false,"internalType":"uint256"}],"anonymous":false},{"type":"event","name":"Killed","inputs":[],"anonymous":false},{"type":"event","name":"VaultCreated","inputs":[{"name":"owner","type":"address","indexed":true,"internalType":"address"},{"name":"num","type":"uint8","indexed":false,"internalType":"uint8"}],"anonymous":false},{"type":"event","name":"VaultImplChanged","inputs":[{"name":"impl","type":"address","indexed":false,"internalType":"address"}],"anonymous":false},{"type":"event","name":"VaultImplProposed","inputs":[{"name":"impl","type":"address","indexed":false,"internalType":"address"},{"name":"activationTime","type":"uint32","indexed":false,"internalType":"uint32"}],"anonymous":false},{"type":"event","name":"Withdrawal","inputs":[{"name":"receiver","type":"address","indexed":true,"internalType":"address"},{"name":"amount","type":"uint256","indexed":false,"internalType":"uint256"}],"anonymous":false},{"type":"error","name":"ReentrancyGuardReentrantCall","inputs":[]}],"bytecode":{"object":"0x60c0806040523461015f5760015f5533608052630890357360e41b8152606081600481335afa90811561017e575f915f915f916100d1575b600180546001600160a01b03199081166001600160a01b0380861691821790935560a08690526002805490921692871692831790915560405160ff861681525f516020610c425f395f51905f5292602092915f516020610c625f395f51905f52908490a2604051908152a1604051610aa4908161019e8239608051818181610424015281816107140152610991015260a051816103140152f35b9250505060603d606011610177575b601f8101601f191682016001600160401b038111838210176101635760609183916040528101031261015f5761011581610189565b90602081015160ff8116810361015f575f516020610c425f395f51905f52925f516020610c625f395f51905f5260206101516040829601610189565b929392939550505091610037565b5f80fd5b634e487b7160e01b5f52604160045260245ffd5b503d6100e0565b6040513d5f823e3d90fd5b51906001600160a01b038216820361015f5756fe6080604052600436101561001d575b366109165761001b6108d0565b005b5f3560e01c80630900f010146100ac5780631f3a0e41146100a75780632e1a7d4d146100a257806341c0e1b51461009d5780634e70b1dc146100985780635c60da1b146100935780638da5cb5b1461008e578063c45a0155146100895763f3fef3a30361000e57610448565b6103da565b610389565b610338565b6102dd565b610229565b610186565b610143565b6100d3565b73ffffffffffffffffffffffffffffffffffffffff8116036100cf57565b5f80fd5b346100cf5760207ffffffffffffffffffffffffffffffffffffffffffffffffffffffffffffffffc3601126100cf5761001b600435610111816100b1565b61013473ffffffffffffffffffffffffffffffffffffffff600254163314610575565b6106d0565b5f9103126100cf57565b346100cf575f7ffffffffffffffffffffffffffffffffffffffffffffffffffffffffffffffffc3601126100cf57602060ff60025460a01c166040519015158152f35b346100cf5760207ffffffffffffffffffffffffffffffffffffffffffffffffffffffffffffffffc3601126100cf5760025473ffffffffffffffffffffffffffffffffffffffff165f8080806004356101e0338714610575565b85828215610220575bf11561021b577f7fcf532c15f0a6db0bd6d0e038bea71d30d808c7d98cb3bf7268a95bf5081b6560206040515f8152a2005b610660565b506108fc6101e9565b346100cf575f7ffffffffffffffffffffffffffffffffffffffffffffffffffffffffffffffffc3601126100cf57740100000000000000000000000000000000000000007fffffffffffffffffffffff00ffffffffffffffffffffffffffffffffffffffff6002546102b273ffffffffffffffffffffffffffffffffffffffff82163314610575565b7f0f8eeedbc400fd6686703559f58d1e6143fdaed533f19a86c93d67a2fe4fb3315f80a11617600255005b346100cf575f7ffffffffffffffffffffffffffffffffffffffffffffffffffffffffffffffffc3601126100cf57602060405160ff7f0000000000000000000000000000000000000000000000000000000000000000168152f35b346100cf575f7ffffffffffffffffffffffffffffffffffffffffffffffffffffffffffffffffc3601126100cf57602073ffffffffffffffffffffffffffffffffffffffff60015416604051908152f35b346100cf575f7ffffffffffffffffffffffffffffffffffffffffffffffffffffffffffffffffc3601126100cf57602073ffffffffffffffffffffffffffffffffffffffff60025416604051908152f35b346100cf575f7ffffffffffffffffffffffffffffffffffffffffffffffffffffffffffffffffc3601126100cf57602060405173ffffffffffffffffffffffffffffffffffffffff7f0000000000000000000000000000000000000000000000000000000000000000168152f35b346100cf5760407ffffffffffffffffffffffffffffffffffffffffffffffffffffffffffffffffc3601126100cf57600435610483816100b1565b60025473ffffffffffffffffffffffffffffffffffffffff166024356104aa338314610575565b60025f541461054d57604460209260025f555f73ffffffffffffffffffffffffffffffffffffffff60405196879586947fa9059cbb00000000000000000000000000000000000000000000000000000000865260048601526024850152165af1801561021b5761051e575b61001b60015f55565b61053f9060203d602011610546575b61053781836105da565b8101906108fe565b505f610515565b503d61052d565b7f3ee5aeb5000000000000000000000000000000000000000000000000000000005f5260045ffd5b1561057c57565b60646040517f08c379a000000000000000000000000000000000000000000000000000000000815260206004820152600960248201527f6e6f74206f776e657200000000000000000000000000000000000000000000006044820152fd5b90601f7fffffffffffffffffffffffffffffffffffffffffffffffffffffffffffffffe0910116810190811067ffffffffffffffff82111761061b57604052565b7f4e487b71000000000000000000000000000000000000000000000000000000005f52604160045260245ffd5b908160209103126100cf575161065d816100b1565b90565b6040513d5f823e3d90fd5b1561067257565b60646040517f08c379a000000000000000000000000000000000000000000000000000000000815260206004820152600260248201527f55560000000000000000000000000000000000000000000000000000000000006044820152fd5b604051907f5c60da1b00000000000000000000000000000000000000000000000000000000825260208260048173ffffffffffffffffffffffffffffffffffffffff7f0000000000000000000000000000000000000000000000000000000000000000165afa91821561021b575f9261089f575b5061076973ffffffffffffffffffffffffffffffffffffffff8083169316831461066b565b60015473ffffffffffffffffffffffffffffffffffffffff1691821461089b576107ce8173ffffffffffffffffffffffffffffffffffffffff167fffffffffffffffffffffffff00000000000000000000000000000000000000006001541617600155565b303b156100cf576040517f58b72a0900000000000000000000000000000000000000000000000000000000815273ffffffffffffffffffffffffffffffffffffffff9290921660048301525f8260248183305af190811561021b577faf6aef99514fcb0d4860afcc8614993bb01ffaa339df4c917c46856940131b569261087c92610881575b5060405173ffffffffffffffffffffffffffffffffffffffff90911681529081906020820190565b0390a1565b8061088f5f610895936105da565b80610139565b5f610854565b5050565b6108c291925060203d6020116108c9575b6108ba81836105da565b810190610648565b905f610744565b503d6108b0565b6040513481527fe1fffcc4923d04b559f4d29a8bfc6cda04eb5b0d3c460751c2402c5c5cc9109c60203392a2565b908160209103126100cf575180151581036100cf5790565b60025460a01c60ff16158061094d575b61092f906109ec565b60015473ffffffffffffffffffffffffffffffffffffffff16610a51565b506040517f1f3a0e4100000000000000000000000000000000000000000000000000000000815260208160048173ffffffffffffffffffffffffffffffffffffffff7f0000000000000000000000000000000000000000000000000000000000000000165afa801561021b5761092f915f916109cd575b50159050610926565b6109e6915060203d6020116105465761053781836105da565b5f6109c4565b156109f357565b60646040517f08c379a000000000000000000000000000000000000000000000000000000000815260206004820152600160248201527f4b000000000000000000000000000000000000000000000000000000000000006044820152fd5b5f8091368280378136915af43d5f803e15610a6a573d5ff35b3d5ffdfea264697066735822122084c554a78923c44fa18215c219546759632632623e4cb58f0be5cec323bd5e6064736f6c634300081c0033af6aef99514fcb0d4860afcc8614993bb01ffaa339df4c917c46856940131b56416468bb91b91b2da4acfc37ed49064c0d99cb1d3ea6691055ce17e79137b8d4","linkReferences":{}},"methodIdentifiers":{"factory()":"c45a0155","implementation()":"5c60da1b","kill()":"41c0e1b5","killed()":"1f3a0e41","num()":"4e70b1dc","owner()":"8da5cb5b","upgrade(address)":"0900f010","withdraw(address,uint256)":"f3fef3a3","withdraw(uint256)":"2e1a7d4d"},"id":68}