{"abi":[{"type":"constructor","inputs":[{"name":"args","type":"tuple","internalType":"struct FeeManager.ConstructorArgs","components":[{"name":"LIMIT_CHANGE_NOTICE_DURATION","type":"uint32","internalType":"uint32"},{"name":"FEE_CHANGE_NOTICE_DURATION","type":"uint32","internalType":"uint32"},{"name":"MAX_INCREASE_ORDER_FEE_PCT","type":"uint8","internalType":"uint8"},{"name":"MAX_INCREASE_TRANCHE_FEE_PCT","type":"uint8","internalType":"uint8"},{"name":"fees","type":"tuple","internalType":"struct IFeeManager.FeeSchedule","components":[{"name":"orderFee","type":"uint8","internalType":"uint8"},{"name":"orderExp","type":"uint8","internalType":"uint8"},{"name":"gasFee","type":"uint8","internalType":"uint8"},{"name":"gasExp","type":"uint8","internalType":"uint8"},{"name":"fillFeeHalfBps","type":"uint8","internalType":"uint8"}]},{"name":"limits","type":"tuple","internalType":"struct IFeeManager.FeeSchedule","components":[{"name":"orderFee","type":"uint8","internalType":"uint8"},{"name":"orderExp","type":"uint8","internalType":"uint8"},{"name":"gasFee","type":"uint8","internalType":"uint8"},{"name":"gasExp","type":"uint8","internalType":"uint8"},{"name":"fillFeeHalfBps","type":"uint8","internalType":"uint8"}]},{"name":"admin","type":"address","internalType":"address"},{"name":"adjuster","type":"address","internalType":"address"},{"name":"orderFeeAccount","type":"address","internalType":"address payable"},{"name":"gasFeeAccount","type":"address","internalType":"address payable"},{"name":"fillFeeAccount","type":"address","internalType":"address payable"}]}],"stateMutability":"nonpayable"},{"type":"function","name":"FEE_CHANGE_NOTICE_DURATION","inputs":[],"outputs":[{"name":"","type":"uint32","internalType":"uint32"}],"stateMutability":"view"},{"type":"function","name":"LIMIT_CHANGE_NOTICE_DURATION","inputs":[],"outputs":[{"name":"","type":"uint32","internalType":"uint32"}],"stateMutability":"view"},{"type":"function","name":"MAX_INCREASE_ORDER_FEE_PCT","inputs":[],"outputs":[{"name":"","type":"uint8","internalType":"uint8"}],"stateMutability":"view"},{"type":"function","name":"MAX_INCREASE_TRANCHE_FEE_PCT","inputs":[],"outputs":[{"name":"","type":"uint8","internalType":"uint8"}],"stateMutability":"view"},{"type":"function","name":"adjuster","inputs":[],"outputs":[{"name":"","type":"address","internalType":"address"}],"stateMutability":"view"},{"type":"function","name":"admin","inputs":[],"outputs":[{"name":"","type":"address","internalType":"address"}],"stateMutability":"view"},{"type":"function","name":"fees","inputs":[],"outputs":[{"name":"","type":"tuple","internalType":"struct IFeeManager.FeeSchedule","components":[{"name":"orderFee","type":"uint8","internalType":"uint8"},{"name":"orderExp","type":"uint8","internalType":"uint8"},{"name":"gasFee","type":"uint8","internalType":"uint8"},{"name":"gasExp","type":"uint8","internalType":"uint8"},{"name":"fillFeeHalfBps","type":"uint8","internalType":"uint8"}]}],"stateMutability":"view"},{"type":"function","name":"fillFeeAccount","inputs":[],"outputs":[{"name":"","type":"address","internalType":"address payable"}],"stateMutability":"view"},{"type":"function","name":"gasFeeAccount","inputs":[],"outputs":[{"name":"","type":"address","internalType":"address payable"}],"stateMutability":"view"},{"type":"function","name":"limits","inputs":[],"outputs":[{"name":"","type":"tuple","internalType":"struct IFeeManager.FeeSchedule","components":[{"name":"orderFee","type":"uint8","internalType":"uint8"},{"name":"orderExp","type":"uint8","internalType":"uint8"},{"name":"gasFee","type":"uint8","internalType":"uint8"},{"name":"gasExp","type":"uint8","internalType":"uint8"},{"name":"fillFeeHalfBps","type":"uint8","internalType":"uint8"}]}],"stateMutability":"view"},{"type":"function","name":"orderFeeAccount","inputs":[],"outputs":[{"name":"","type":"address","internalType":"address payable"}],"stateMutability":"view"},{"type":"function","name":"proposedFeeActivationTime","inputs":[],"outputs":[{"name":"","type":"uint32","internalType":"uint32"}],"stateMutability":"view"},{"type":"function","name":"proposedFees","inputs":[],"outputs":[{"name":"","type":"tuple","internalType":"struct IFeeManager.FeeSchedule","components":[{"name":"orderFee","type":"uint8","internalType":"uint8"},{"name":"orderExp","type":"uint8","internalType":"uint8"},{"name":"gasFee","type":"uint8","internalType":"uint8"},{"name":"gasExp","type":"uint8","internalType":"uint8"},{"name":"fillFeeHalfBps","type":"uint8","internalType":"uint8"}]}],"stateMutability":"view"},{"type":"function","name":"proposedLimitActivationTime","inputs":[],"outputs":[{"name":"","type":"uint32","internalType":"uint32"}],"stateMutability":"view"},{"type":"function","name":"proposedLimits","inputs":[],"outputs":[{"name":"","type":"tuple","internalType":"struct IFeeManager.FeeSchedule","components":[{"name":"orderFee","type":"uint8","internalType":"uint8"},{"name":"orderExp","type":"uint8","internalType":"uint8"},{"name":"gasFee","type":"uint8","internalType":"uint8"},{"name":"gasExp","type":"uint8","internalType":"uint8"},{"name":"fillFeeHalfBps","type":"uint8","internalType":"uint8"}]}],"stateMutability":"view"},{"type":"function","name":"setAdjuster","inputs":[{"name":"adjuster_","type":"address","internalType":"address"}],"outputs":[],"stateMutability":"nonpayable"},{"type":"function","name":"setFeeAccounts","inputs":[{"name":"orderFeeAccount_","type":"address","internalType":"address payable"},{"name":"gasFeeAccount_","type":"address","internalType":"address payable"},{"name":"fillFeeAccount_","type":"address","internalType":"address payable"}],"outputs":[],"stateMutability":"nonpayable"},{"type":"function","name":"setFees","inputs":[{"name":"sched","type":"tuple","internalType":"struct IFeeManager.FeeSchedule","components":[{"name":"orderFee","type":"uint8","internalType":"uint8"},{"name":"orderExp","type":"uint8","internalType":"uint8"},{"name":"gasFee","type":"uint8","internalType":"uint8"},{"name":"gasExp","type":"uint8","internalType":"uint8"},{"name":"fillFeeHalfBps","type":"uint8","internalType":"uint8"}]}],"outputs":[],"stateMutability":"nonpayable"},{"type":"function","name":"setLimits","inputs":[{"name":"sched","type":"tuple","internalType":"struct IFeeManager.FeeSchedule","components":[{"name":"orderFee","type":"uint8","internalType":"uint8"},{"name":"orderExp","type":"uint8","internalType":"uint8"},{"name":"gasFee","type":"uint8","internalType":"uint8"},{"name":"gasExp","type":"uint8","internalType":"uint8"},{"name":"fillFeeHalfBps","type":"uint8","internalType":"uint8"}]}],"outputs":[],"stateMutability":"nonpayable"},{"type":"event","name":"FeeAccountsChanged","inputs":[{"name":"orderFeeAccount","type":"address","indexed":false,"internalType":"address payable"},{"name":"gasFeeAccount","type":"address","indexed":false,"internalType":"address payable"},{"name":"fillFeeAccount","type":"address","indexed":false,"internalType":"address payable"}],"anonymous":false},{"type":"event","name":"FeeLimitsChanged","inputs":[{"name":"limits","type":"tuple","indexed":true,"internalType":"struct IFeeManager.FeeSchedule","components":[{"name":"orderFee","type":"uint8","internalType":"uint8"},{"name":"orderExp","type":"uint8","internalType":"uint8"},{"name":"gasFee","type":"uint8","internalType":"uint8"},{"name":"gasExp","type":"uint8","internalType":"uint8"},{"name":"fillFeeHalfBps","type":"uint8","internalType":"uint8"}]}],"anonymous":false},{"type":"event","name":"FeeLimitsProposed","inputs":[{"name":"limits","type":"tuple","indexed":true,"internalType":"struct IFeeManager.FeeSchedule","components":[{"name":"orderFee","type":"uint8","internalType":"uint8"},{"name":"orderExp","type":"uint8","internalType":"uint8"},{"name":"gasFee","type":"uint8","internalType":"uint8"},{"name":"gasExp","type":"uint8","internalType":"uint8"},{"name":"fillFeeHalfBps","type":"uint8","internalType":"uint8"}]},{"name":"activationTime","type":"uint32","indexed":true,"internalType":"uint32"}],"anonymous":false},{"type":"event","name":"FeesChanged","inputs":[{"name":"fees","type":"tuple","indexed":true,"internalType":"struct IFeeManager.FeeSchedule","components":[{"name":"orderFee","type":"uint8","internalType":"uint8"},{"name":"orderExp","type":"uint8","internalType":"uint8"},{"name":"gasFee","type":"uint8","internalType":"uint8"},{"name":"gasExp","type":"uint8","internalType":"uint8"},{"name":"fillFeeHalfBps","type":"uint8","internalType":"uint8"}]}],"anonymous":false},{"type":"event","name":"FeesProposed","inputs":[{"name":"fees","type":"tuple","indexed":true,"internalType":"struct IFeeManager.FeeSchedule","components":[{"name":"orderFee","type":"uint8","internalType":"uint8"},{"name":"orderExp","type":"uint8","internalType":"uint8"},{"name":"gasFee","type":"uint8","internalType":"uint8"},{"name":"gasExp","type":"uint8","internalType":"uint8"},{"name":"fillFeeHalfBps","type":"uint8","internalType":"uint8"}]},{"name":"activationTime","type":"uint32","indexed":true,"internalType":"uint32"}],"anonymous":false}],"bytecode":{"object":"0x610120604052346103cd576040516117d13881900390601f8201601f19168301906001600160401b038211848310176103b95782916040528339810190610260818303126103cd57604051916101608301906001600160401b038211848310176103b95761032d936102c792604052610077846103d1565b815280610086602086016103d1565b946020820195865261009a604082016103e2565b956040830196875260ff6100b0606084016103e2565b60608501908152816100da6100c889608088016103f0565b9860808801998a5261012087016103f0565b9960a087019a8b5263ffffffff6100f46101c08801610469565b9560c089019687526101096101e08901610469565b60e08a0152816101466102406101226102008c01610469565b9a6101008d019b8c5261012061013b6102208301610469565b9d019c8d5201610469565b9a61014081019b8c525116608052511660a052511660c052511660e052845160ff815116905f549161ff00602083015160081b169062ff0000604084015160101b169164ff00000000608063ff000000606087015160181b1695015160201b169464ff00000000199263ff000000199162ffffff1916171617161717175f55865160ff815116906001549161ff00602083015160081b169062ff0000604084015160101b169164ff00000000608063ff000000606087015160181b1695015160201b169464ff00000000199263ff000000199162ffffff19161716171617171760015560018060a01b039051166101005260018060a01b0390511660018060a01b0319600654161760065560018060a01b0390511660018060a01b0319600754161760075560018060a01b0390511660018060a01b031960085416176008555160a09060ff60806040519282815116845282602082015116602085015282604082015116604085015282606082015116606085015201511660808201522090565b7f6b70211f17be77ef10da93671831209be5e36d99f83d0af732a06620014dbd3c5f80a25160a09060ff60806040519282815116845282602082015116602085015282604082015116604085015282606082015116606085015201511660808201522090565b604051907fc2c2b17cbe5e4e289c8ffa4a475958e90abf0424b118e08c384fc284625338af5f80a2611353908161047e823960805181818161022201526106c8015260a0518181816103630152610bbc015260c05181610cf4015260e051816104110152610100518181816101c40152818161056c01528181610819015281816109d30152610dd20152f35b634e487b7160e01b5f52604160045260245ffd5b5f80fd5b519063ffffffff821682036103cd57565b519060ff821682036103cd57565b91908260a09103126103cd5760405160a081016001600160401b038111828210176103b9576040526080610464818395610429816103e2565b8552610437602082016103e2565b6020860152610448604082016103e2565b6040860152610459606082016103e2565b6060860152016103e2565b910152565b51906001600160a01b03821682036103cd5756fe60806040526004361015610011575f80fd5b5f3560e01c8063015de2d714610d695780631db89da114610d1857806344a505db14610cbd578063478c3b1a1461098d57806357d1c53d146108d15780635800bc7b14610747578063591cef8f146105235780636f7a2458146104e2578063860aefcf146104a95780639af1d35a14610435578063ab1a57a8146103da578063be98952314610387578063c0021df114610329578063d0c683b1146102e8578063ea43b36b14610297578063ebd3cdcd14610246578063f1d08853146101e8578063f851a4401461017a5763f9828cff146100ea575f80fd5b34610176575f7ffffffffffffffffffffffffffffffffffffffffffffffffffffffffffffffffc3601126101765761012061104d565b5061017261012c611073565b60405191829182919091608060ff8160a0840195828151168552826020820151166020860152826040820151166040860152826060820151166060860152015116910152565b0390f35b5f80fd5b34610176575f7ffffffffffffffffffffffffffffffffffffffffffffffffffffffffffffffffc36011261017657602060405173ffffffffffffffffffffffffffffffffffffffff7f0000000000000000000000000000000000000000000000000000000000000000168152f35b34610176575f7ffffffffffffffffffffffffffffffffffffffffffffffffffffffffffffffffc36011261017657602060405163ffffffff7f0000000000000000000000000000000000000000000000000000000000000000168152f35b34610176575f7ffffffffffffffffffffffffffffffffffffffffffffffffffffffffffffffffc36011261017657602073ffffffffffffffffffffffffffffffffffffffff60065416604051908152f35b34610176575f7ffffffffffffffffffffffffffffffffffffffffffffffffffffffffffffffffc36011261017657602073ffffffffffffffffffffffffffffffffffffffff60085416604051908152f35b34610176575f7ffffffffffffffffffffffffffffffffffffffffffffffffffffffffffffffffc36011261017657602063ffffffff60035416604051908152f35b34610176575f7ffffffffffffffffffffffffffffffffffffffffffffffffffffffffffffffffc36011261017657602060405163ffffffff7f0000000000000000000000000000000000000000000000000000000000000000168152f35b34610176575f7ffffffffffffffffffffffffffffffffffffffffffffffffffffffffffffffffc36011261017657602073ffffffffffffffffffffffffffffffffffffffff600554821c16604051908152f35b34610176575f7ffffffffffffffffffffffffffffffffffffffffffffffffffffffffffffffffc36011261017657602060405160ff7f0000000000000000000000000000000000000000000000000000000000000000168152f35b34610176575f7ffffffffffffffffffffffffffffffffffffffffffffffffffffffffffffffffc3601126101765761046b61104d565b5063ffffffff60035416801515908161049e575b50156104925761017261012c60026110b2565b61017261012c5f6110b2565b90504210158161047f565b34610176575f7ffffffffffffffffffffffffffffffffffffffffffffffffffffffffffffffffc3601126101765761017261012c6110f0565b34610176575f7ffffffffffffffffffffffffffffffffffffffffffffffffffffffffffffffffc36011261017657602063ffffffff60055416604051908152f35b346101765760a07ffffffffffffffffffffffffffffffffffffffffffffffffffffffffffffffffc3601126101765761059373ffffffffffffffffffffffffffffffffffffffff7f0000000000000000000000000000000000000000000000000000000000000000163314610e45565b61059b611134565b60ff6105a5610eaa565b167fffffffffffffffffffffffffffffffffffffffffffffffffffffffffffffff0060045416176004556105d7610eba565b7fffffffffffffffffffffffffffffffffffffffffffffffffffffffffffff00ff61ff006004549260081b16911617600455610611610eca565b7fffffffffffffffffffffffffffffffffffffffffffffffffffffffffff00ffff62ff00006004549260101b1691161760045561064c610eda565b7fffffffffffffffffffffffffffffffffffffffffffffffffffffffff00ffffff63ff0000006004549260181b16911617600455610688610eea565b7fffffffffffffffffffffffffffffffffffffffffffffffffffffff00ffffffff64ff000000006004549260201b1691161760045563ffffffff6106ee817f00000000000000000000000000000000000000000000000000000000000000001642610f5f565b16807fffffffffffffffffffffffffffffffffffffffffffffffffffffffff000000006005541617600555610721610f99565b7f633123e8c6bc7eb742d7524d9584642f04bbc47f7e900c57909de46fbc2b34965f80a3005b346101765760607ffffffffffffffffffffffffffffffffffffffffffffffffffffffffffffffffc3601126101765760043573ffffffffffffffffffffffffffffffffffffffff81168091036101765760243573ffffffffffffffffffffffffffffffffffffffff8116809103610176576044359173ffffffffffffffffffffffffffffffffffffffff8316809303610176577f1c1888bc2a777024b83fef376b76c9c982b323e20b57ca979701003aa9fc8da89260609261084073ffffffffffffffffffffffffffffffffffffffff7f0000000000000000000000000000000000000000000000000000000000000000163314610e45565b827fffffffffffffffffffffffff00000000000000000000000000000000000000006006541617600655807fffffffffffffffffffffffff00000000000000000000000000000000000000006007541617600755817fffffffffffffffffffffffff0000000000000000000000000000000000000000600854161760085560405192835260208301526040820152a1005b34610176575f7ffffffffffffffffffffffffffffffffffffffffffffffffffffffffffffffffc3601126101765761090761104d565b50610172610913611000565b60ff6004548181168352818160081c166020840152818160101c166040840152818160181c16606084015260201c16608082015260405191829182919091608060ff8160a0840195828151168552826020820151166020860152826040820151166040860152826060820151166060860152015116910152565b346101765760a07ffffffffffffffffffffffffffffffffffffffffffffffffffffffffffffffffc3601126101765773ffffffffffffffffffffffffffffffffffffffff7f00000000000000000000000000000000000000000000000000000000000000001633148015610c99575b15610c3b57610a09611134565b610a8f610a146110f0565b610a4360ff610a21610eaa565b1660ff610a2c610eba565b161b60ff83511660ff6020850151161b1015610efa565b610a7560ff610a50610eca565b1660ff610a5b610eda565b161b60ff60408401511660ff6060850151161b1015610efa565b60ff806080610a82610eea565b9301511691161115610efa565b60ff610a99610eaa565b167fffffffffffffffffffffffffffffffffffffffffffffffffffffffffffffff006002541617600255610acb610eba565b7fffffffffffffffffffffffffffffffffffffffffffffffffffffffffffff00ff61ff006002549260081b16911617600255610b05610eca565b7fffffffffffffffffffffffffffffffffffffffffffffffffffffffffff00ffff62ff00006002549260101b16911617600255610b40610eda565b7fffffffffffffffffffffffffffffffffffffffffffffffffffffffff00ffffff63ff0000006002549260181b16911617600255610b7c610eea565b7fffffffffffffffffffffffffffffffffffffffffffffffffffffff00ffffffff64ff000000006002549260201b1691161760025563ffffffff610be2817f00000000000000000000000000000000000000000000000000000000000000001642610f5f565b16807fffffffffffffffffffffffffffffffffffffffffffffffffffffffff000000006003541617600355610c15610f99565b7f1b9ba1eeed6885eb6b63df058a321a2e4299a0b65a613a47927282306f7995105f80a3005b60646040517f08c379a000000000000000000000000000000000000000000000000000000000815260206004820152601560248201527f6e6f742061646d696e206f722061646a757374657200000000000000000000006044820152fd5b5073ffffffffffffffffffffffffffffffffffffffff60055460201c1633146109fc565b34610176575f7ffffffffffffffffffffffffffffffffffffffffffffffffffffffffffffffffc36011261017657602060405160ff7f0000000000000000000000000000000000000000000000000000000000000000168152f35b34610176575f7ffffffffffffffffffffffffffffffffffffffffffffffffffffffffffffffffc36011261017657602073ffffffffffffffffffffffffffffffffffffffff60075416604051908152f35b346101765760207ffffffffffffffffffffffffffffffffffffffffffffffffffffffffffffffffc3601126101765760043573ffffffffffffffffffffffffffffffffffffffff8116810361017657610df973ffffffffffffffffffffffffffffffffffffffff7f0000000000000000000000000000000000000000000000000000000000000000163314610e45565b7fffffffffffffffff0000000000000000000000000000000000000000ffffffff77ffffffffffffffffffffffffffffffffffffffff000000006005549260201b169116176005555f80f35b15610e4c57565b60646040517f08c379a000000000000000000000000000000000000000000000000000000000815260206004820152600960248201527f6e6f742061646d696e00000000000000000000000000000000000000000000006044820152fd5b60043560ff811681036101765790565b60243560ff811681036101765790565b60443560ff811681036101765790565b60643560ff811681036101765790565b60843560ff811681036101765790565b15610f0157565b60646040517f08c379a000000000000000000000000000000000000000000000000000000000815260206004820152600260248201527f464c0000000000000000000000000000000000000000000000000000000000006044820152fd5b91908201809211610f6c57565b7f4e487b71000000000000000000000000000000000000000000000000000000005f52601160045260245ffd5b60405160043560ff811680910361017657815260243560ff811680910361017657602082015260443560ff811680910361017657604082015260643560ff81168091036101765760608201526084359060ff82168092036101765760a09160808201522090565b6040519060a0820182811067ffffffffffffffff82111761102057604052565b7f4e487b71000000000000000000000000000000000000000000000000000000005f52604160045260245ffd5b611055611000565b905f82525f60208301525f60408301525f60608301525f6080830152565b61107b611000565b9060ff6002548181168452818160081c166020850152818160101c166040850152818160181c16606085015260201c166080830152565b9060ff6110bd611000565b92548181168452818160081c166020850152818160101c166040850152818160181c16606085015260201c166080830152565b6110f861104d565b5063ffffffff600554168015159081611129575b501561111f5761111c60046110b2565b90565b61111c60016110b2565b90504210155f61110c565b63ffffffff600554168015159081611312575b50611293575b63ffffffff600354168015159081611288575b5061116757565b6080611171611073565b60ff815116602082019060ff8251161b6001549160ff83169160ff8460081c1693604086019360ff85511695606088019660ff8851161b9160ff808560101c169460181c169481831b1061127d575b505081831b10611272575b505083515f805492519351945196909501517fffffffffffffffffffffffffffffffffffffffffffffffffffffff000000000090921660ff919091161760089290921b61ff00169190911760109290921b62ff0000169190911760189390931b63ff000000169290921760209290921b64ff0000000016919091179055600380547fffffffffffffffffffffffffffffffffffffffffffffffffffffffff00000000169055565b835283525f806111cb565b885284525f806111c0565b90504210155f611160565b600454600180547fffffffffffffffffffffffffffffffffffffffffffffffffffffff00000000001660ff83161761ff0083161762ff000083161763ff00000083161764ff00000000909216919091179055600580547fffffffffffffffffffffffffffffffffffffffffffffffffffffffff0000000016905561114d565b90504210155f61114756fea26469706673582212207575db7d123541b0f73bf36afe9abbf4478929a07bfa44687674918789e44ba964736f6c634300081a0033","linkReferences":{}},"methodIdentifiers":{"FEE_CHANGE_NOTICE_DURATION()":"c0021df1","LIMIT_CHANGE_NOTICE_DURATION()":"f1d08853","MAX_INCREASE_ORDER_FEE_PCT()":"44a505db","MAX_INCREASE_TRANCHE_FEE_PCT()":"ab1a57a8","adjuster()":"be989523","admin()":"f851a440","fees()":"9af1d35a","fillFeeAccount()":"ea43b36b","gasFeeAccount()":"1db89da1","limits()":"860aefcf","orderFeeAccount()":"ebd3cdcd","proposedFeeActivationTime()":"d0c683b1","proposedFees()":"f9828cff","proposedLimitActivationTime()":"6f7a2458","proposedLimits()":"57d1c53d","setAdjuster(address)":"015de2d7","setFeeAccounts(address,address,address)":"5800bc7b","setFees((uint8,uint8,uint8,uint8,uint8))":"478c3b1a","setLimits((uint8,uint8,uint8,uint8,uint8))":"591cef8f"},"id":59}