{"abi":[{"type":"constructor","inputs":[{"name":"args","type":"tuple","internalType":"struct FeeManager.ConstructorArgs","components":[{"name":"LIMIT_CHANGE_NOTICE_DURATION","type":"uint32","internalType":"uint32"},{"name":"FEE_CHANGE_NOTICE_DURATION","type":"uint32","internalType":"uint32"},{"name":"MAX_INCREASE_ORDER_FEE_PCT","type":"uint8","internalType":"uint8"},{"name":"MAX_INCREASE_TRANCHE_FEE_PCT","type":"uint8","internalType":"uint8"},{"name":"fees","type":"tuple","internalType":"struct IFeeManager.FeeSchedule","components":[{"name":"orderFee","type":"uint8","internalType":"uint8"},{"name":"orderExp","type":"uint8","internalType":"uint8"},{"name":"gasFee","type":"uint8","internalType":"uint8"},{"name":"gasExp","type":"uint8","internalType":"uint8"},{"name":"fillFeeHalfBps","type":"uint8","internalType":"uint8"}]},{"name":"limits","type":"tuple","internalType":"struct IFeeManager.FeeSchedule","components":[{"name":"orderFee","type":"uint8","internalType":"uint8"},{"name":"orderExp","type":"uint8","internalType":"uint8"},{"name":"gasFee","type":"uint8","internalType":"uint8"},{"name":"gasExp","type":"uint8","internalType":"uint8"},{"name":"fillFeeHalfBps","type":"uint8","internalType":"uint8"}]},{"name":"admin","type":"address","internalType":"address"},{"name":"orderFeeAccount","type":"address","internalType":"address payable"},{"name":"gasFeeAccount","type":"address","internalType":"address payable"},{"name":"fillFeeAccount","type":"address","internalType":"address payable"}]}],"stateMutability":"nonpayable"},{"type":"function","name":"FEE_CHANGE_NOTICE_DURATION","inputs":[],"outputs":[{"name":"","type":"uint32","internalType":"uint32"}],"stateMutability":"view"},{"type":"function","name":"LIMIT_CHANGE_NOTICE_DURATION","inputs":[],"outputs":[{"name":"","type":"uint32","internalType":"uint32"}],"stateMutability":"view"},{"type":"function","name":"MAX_INCREASE_ORDER_FEE_PCT","inputs":[],"outputs":[{"name":"","type":"uint8","internalType":"uint8"}],"stateMutability":"view"},{"type":"function","name":"MAX_INCREASE_TRANCHE_FEE_PCT","inputs":[],"outputs":[{"name":"","type":"uint8","internalType":"uint8"}],"stateMutability":"view"},{"type":"function","name":"admin","inputs":[],"outputs":[{"name":"","type":"address","internalType":"address"}],"stateMutability":"view"},{"type":"function","name":"fees","inputs":[],"outputs":[{"name":"","type":"tuple","internalType":"struct IFeeManager.FeeSchedule","components":[{"name":"orderFee","type":"uint8","internalType":"uint8"},{"name":"orderExp","type":"uint8","internalType":"uint8"},{"name":"gasFee","type":"uint8","internalType":"uint8"},{"name":"gasExp","type":"uint8","internalType":"uint8"},{"name":"fillFeeHalfBps","type":"uint8","internalType":"uint8"}]}],"stateMutability":"view"},{"type":"function","name":"fillFeeAccount","inputs":[],"outputs":[{"name":"","type":"address","internalType":"address payable"}],"stateMutability":"view"},{"type":"function","name":"gasFeeAccount","inputs":[],"outputs":[{"name":"","type":"address","internalType":"address payable"}],"stateMutability":"view"},{"type":"function","name":"limits","inputs":[],"outputs":[{"name":"","type":"tuple","internalType":"struct IFeeManager.FeeSchedule","components":[{"name":"orderFee","type":"uint8","internalType":"uint8"},{"name":"orderExp","type":"uint8","internalType":"uint8"},{"name":"gasFee","type":"uint8","internalType":"uint8"},{"name":"gasExp","type":"uint8","internalType":"uint8"},{"name":"fillFeeHalfBps","type":"uint8","internalType":"uint8"}]}],"stateMutability":"view"},{"type":"function","name":"orderFeeAccount","inputs":[],"outputs":[{"name":"","type":"address","internalType":"address payable"}],"stateMutability":"view"},{"type":"function","name":"proposedFeeActivationTime","inputs":[],"outputs":[{"name":"","type":"uint32","internalType":"uint32"}],"stateMutability":"view"},{"type":"function","name":"proposedFees","inputs":[],"outputs":[{"name":"","type":"tuple","internalType":"struct IFeeManager.FeeSchedule","components":[{"name":"orderFee","type":"uint8","internalType":"uint8"},{"name":"orderExp","type":"uint8","internalType":"uint8"},{"name":"gasFee","type":"uint8","internalType":"uint8"},{"name":"gasExp","type":"uint8","internalType":"uint8"},{"name":"fillFeeHalfBps","type":"uint8","internalType":"uint8"}]}],"stateMutability":"view"},{"type":"function","name":"proposedLimitActivationTime","inputs":[],"outputs":[{"name":"","type":"uint32","internalType":"uint32"}],"stateMutability":"view"},{"type":"function","name":"proposedLimits","inputs":[],"outputs":[{"name":"","type":"tuple","internalType":"struct IFeeManager.FeeSchedule","components":[{"name":"orderFee","type":"uint8","internalType":"uint8"},{"name":"orderExp","type":"uint8","internalType":"uint8"},{"name":"gasFee","type":"uint8","internalType":"uint8"},{"name":"gasExp","type":"uint8","internalType":"uint8"},{"name":"fillFeeHalfBps","type":"uint8","internalType":"uint8"}]}],"stateMutability":"view"},{"type":"function","name":"setFeeAccounts","inputs":[{"name":"fillFeeAccount_","type":"address","internalType":"address payable"},{"name":"orderFeeAccount_","type":"address","internalType":"address payable"},{"name":"gasFeeAccount_","type":"address","internalType":"address payable"}],"outputs":[],"stateMutability":"nonpayable"},{"type":"function","name":"setFees","inputs":[{"name":"sched","type":"tuple","internalType":"struct IFeeManager.FeeSchedule","components":[{"name":"orderFee","type":"uint8","internalType":"uint8"},{"name":"orderExp","type":"uint8","internalType":"uint8"},{"name":"gasFee","type":"uint8","internalType":"uint8"},{"name":"gasExp","type":"uint8","internalType":"uint8"},{"name":"fillFeeHalfBps","type":"uint8","internalType":"uint8"}]}],"outputs":[],"stateMutability":"nonpayable"},{"type":"function","name":"setLimits","inputs":[{"name":"sched","type":"tuple","internalType":"struct IFeeManager.FeeSchedule","components":[{"name":"orderFee","type":"uint8","internalType":"uint8"},{"name":"orderExp","type":"uint8","internalType":"uint8"},{"name":"gasFee","type":"uint8","internalType":"uint8"},{"name":"gasExp","type":"uint8","internalType":"uint8"},{"name":"fillFeeHalfBps","type":"uint8","internalType":"uint8"}]}],"outputs":[],"stateMutability":"nonpayable"},{"type":"event","name":"FeeLimitsChanged","inputs":[{"name":"limits","type":"tuple","indexed":true,"internalType":"struct IFeeManager.FeeSchedule","components":[{"name":"orderFee","type":"uint8","internalType":"uint8"},{"name":"orderExp","type":"uint8","internalType":"uint8"},{"name":"gasFee","type":"uint8","internalType":"uint8"},{"name":"gasExp","type":"uint8","internalType":"uint8"},{"name":"fillFeeHalfBps","type":"uint8","internalType":"uint8"}]}],"anonymous":false},{"type":"event","name":"FeeLimitsProposed","inputs":[{"name":"limits","type":"tuple","indexed":true,"internalType":"struct IFeeManager.FeeSchedule","components":[{"name":"orderFee","type":"uint8","internalType":"uint8"},{"name":"orderExp","type":"uint8","internalType":"uint8"},{"name":"gasFee","type":"uint8","internalType":"uint8"},{"name":"gasExp","type":"uint8","internalType":"uint8"},{"name":"fillFeeHalfBps","type":"uint8","internalType":"uint8"}]},{"name":"activationTime","type":"uint32","indexed":true,"internalType":"uint32"}],"anonymous":false},{"type":"event","name":"FeesChanged","inputs":[{"name":"fees","type":"tuple","indexed":true,"internalType":"struct IFeeManager.FeeSchedule","components":[{"name":"orderFee","type":"uint8","internalType":"uint8"},{"name":"orderExp","type":"uint8","internalType":"uint8"},{"name":"gasFee","type":"uint8","internalType":"uint8"},{"name":"gasExp","type":"uint8","internalType":"uint8"},{"name":"fillFeeHalfBps","type":"uint8","internalType":"uint8"}]}],"anonymous":false},{"type":"event","name":"FeesProposed","inputs":[{"name":"fees","type":"tuple","indexed":true,"internalType":"struct IFeeManager.FeeSchedule","components":[{"name":"orderFee","type":"uint8","internalType":"uint8"},{"name":"orderExp","type":"uint8","internalType":"uint8"},{"name":"gasFee","type":"uint8","internalType":"uint8"},{"name":"gasExp","type":"uint8","internalType":"uint8"},{"name":"fillFeeHalfBps","type":"uint8","internalType":"uint8"}]},{"name":"activationTime","type":"uint32","indexed":true,"internalType":"uint32"}],"anonymous":false}],"bytecode":{"object":"0x610120604052346103d3576040516116303881900390601f8201601f19168301906001600160401b038211848310176103d857829160405283398101610240828203126103d357604051600092909161014083016001600160401b038111848210176103bf57604052610071826103ee565b835261007f602083016103ee565b9060208401918252610093604084016103ff565b93604081019485526100a7606085016103ff565b92606082019384526100d16100bf846080880161040d565b9360808401948552610120870161040d565b60a083019081526101c08601519095906001600160a01b03811681036103bb5760ff6102d196816103379a63ffffffff889760c089019687528161014161022061011e6101e08c01610486565b9a60e08d019b8c526101006101366102008301610486565b9d019c8d5201610486565b9a61012081019b8c525116608052511660a052511660c052511660e052845160ff815116908a549161ff00602083015160081b169062ff0000604084015160101b169164ff00000000608063ff000000606087015160181b1695015160201b169464ff00000000199263ff000000199162ffffff1916171617161717178955865160ff815116906001549161ff00602083015160081b169062ff0000604084015160101b169164ff00000000608063ff000000606087015160181b1695015160201b169464ff00000000199263ff000000199162ffffff19161716171617171760015560018060a01b03905116610100525160055490640100000000600160c01b039060201b1690640100000000600160c01b0319161760055560018060a01b0390511660018060a01b0319600654161760065560018060a01b0390511660018060a01b031960075416176007555160a09060ff60806040519282815116845282602082015116602085015282604082015116604085015282606082015116606085015201511660808201522090565b7f6b70211f17be77ef10da93671831209be5e36d99f83d0af732a06620014dbd3c8480a25160a09060ff60806040519282815116845282602082015116602085015282604082015116604085015282606082015116606085015201511660808201522090565b7fc2c2b17cbe5e4e289c8ffa4a475958e90abf0424b118e08c384fc284625338af6040519280a2611195908161049b82396080518181816102160152610676015260a05181818161035d0152610b52015260c05181610c0a015260e051816103b90152610100518181816101b70152818161051a015281816107a201526109700152f35b8880fd5b634e487b7160e01b85526041600452602485fd5b600080fd5b634e487b7160e01b600052604160045260246000fd5b519063ffffffff821682036103d357565b519060ff821682036103d357565b91908260a09103126103d35760405160a081016001600160401b038111828210176103d8576040526080610481818395610446816103ff565b8552610454602082016103ff565b6020860152610465604082016103ff565b6040860152610476606082016103ff565b6060860152016103ff565b910152565b51906001600160a01b03821682036103d35756fe608080604052600436101561001357600080fd5b60003560e01c9081631db89da114610c2e5750806344a505db14610bd2578063478c3b1a1461092557806357d1c53d146108685780635800bc7b146106f6578063591cef8f146104cf5780636f7a24581461048d578063860aefcf146104535780639af1d35a146103dd578063ab1a57a814610381578063c0021df114610322578063d0c683b1146102e0578063ea43b36b1461028e578063ebd3cdcd1461023a578063f1d08853146101db578063f851a4401461016c5763f9828cff146100da57600080fd5b346101675760007ffffffffffffffffffffffffffffffffffffffffffffffffffffffffffffffffc36011261016757610111610e89565b5061016361011d610eb4565b60405191829182919091608060ff8160a0840195828151168552826020820151166020860152826040820151166040860152826060820151166060860152015116910152565b0390f35b600080fd5b346101675760007ffffffffffffffffffffffffffffffffffffffffffffffffffffffffffffffffc36011261016757602060405173ffffffffffffffffffffffffffffffffffffffff7f0000000000000000000000000000000000000000000000000000000000000000168152f35b346101675760007ffffffffffffffffffffffffffffffffffffffffffffffffffffffffffffffffc36011261016757602060405163ffffffff7f0000000000000000000000000000000000000000000000000000000000000000168152f35b346101675760007ffffffffffffffffffffffffffffffffffffffffffffffffffffffffffffffffc36011261016757602073ffffffffffffffffffffffffffffffffffffffff600554821c16604051908152f35b346101675760007ffffffffffffffffffffffffffffffffffffffffffffffffffffffffffffffffc36011261016757602073ffffffffffffffffffffffffffffffffffffffff60075416604051908152f35b346101675760007ffffffffffffffffffffffffffffffffffffffffffffffffffffffffffffffffc36011261016757602063ffffffff60035416604051908152f35b346101675760007ffffffffffffffffffffffffffffffffffffffffffffffffffffffffffffffffc36011261016757602060405163ffffffff7f0000000000000000000000000000000000000000000000000000000000000000168152f35b346101675760007ffffffffffffffffffffffffffffffffffffffffffffffffffffffffffffffffc36011261016757602060405160ff7f0000000000000000000000000000000000000000000000000000000000000000168152f35b346101675760007ffffffffffffffffffffffffffffffffffffffffffffffffffffffffffffffffc36011261016757610414610e89565b5063ffffffff600354168015159081610448575b501561043b5761016361011d6002610ef3565b61016361011d6000610ef3565b905042101581610428565b346101675760007ffffffffffffffffffffffffffffffffffffffffffffffffffffffffffffffffc3601126101675761016361011d610f31565b346101675760007ffffffffffffffffffffffffffffffffffffffffffffffffffffffffffffffffc36011261016757602063ffffffff60055416604051908152f35b346101675760a07ffffffffffffffffffffffffffffffffffffffffffffffffffffffffffffffffc36011261016757600061054173ffffffffffffffffffffffffffffffffffffffff7f0000000000000000000000000000000000000000000000000000000000000000163314610c7d565b610549610f75565b60ff610553610ce2565b167fffffffffffffffffffffffffffffffffffffffffffffffffffffffffffffff006004541617600455610585610cf2565b7fffffffffffffffffffffffffffffffffffffffffffffffffffffffffffff00ff61ff006004549260081b169116176004556105bf610d02565b7fffffffffffffffffffffffffffffffffffffffffffffffffffffffffff00ffff62ff00006004549260101b169116176004556105fa610d12565b7fffffffffffffffffffffffffffffffffffffffffffffffffffffffff00ffffff63ff0000006004549260181b16911617600455610636610d22565b7fffffffffffffffffffffffffffffffffffffffffffffffffffffff00ffffffff64ff000000006004549260201b1691161760045563ffffffff61069c817f00000000000000000000000000000000000000000000000000000000000000001642610d97565b16807fffffffffffffffffffffffffffffffffffffffffffffffffffffffff0000000060055416176005556106cf610dd3565b7f633123e8c6bc7eb742d7524d9584642f04bbc47f7e900c57909de46fbc2b34968380a380f35b346101675760607ffffffffffffffffffffffffffffffffffffffffffffffffffffffffffffffffc3601126101675760043573ffffffffffffffffffffffffffffffffffffffff81168091036101675760243573ffffffffffffffffffffffffffffffffffffffff81168103610167576044359173ffffffffffffffffffffffffffffffffffffffff8316809303610167576107c973ffffffffffffffffffffffffffffffffffffffff7f0000000000000000000000000000000000000000000000000000000000000000163314610c7d565b7fffffffffffffffffffffffff000000000000000000000000000000000000000060075416176007557fffffffffffffffff0000000000000000000000000000000000000000ffffffff77ffffffffffffffffffffffffffffffffffffffff000000006005549260201b169116176005557fffffffffffffffffffffffff00000000000000000000000000000000000000006006541617600655600080f35b346101675760007ffffffffffffffffffffffffffffffffffffffffffffffffffffffffffffffffc3601126101675761089f610e89565b506101636108ab610e3a565b60ff6004548181168352818160081c166020840152818160101c166040840152818160181c16606084015260201c16608082015260405191829182919091608060ff8160a0840195828151168552826020820151166020860152826040820151166040860152826060820151166060860152015116910152565b346101675760a07ffffffffffffffffffffffffffffffffffffffffffffffffffffffffffffffffc36011261016757600061099773ffffffffffffffffffffffffffffffffffffffff7f0000000000000000000000000000000000000000000000000000000000000000163314610c7d565b61099f610f75565b610a256109aa610f31565b6109d960ff6109b7610ce2565b1660ff6109c2610cf2565b161b60ff83511660ff6020850151161b1015610d32565b610a0b60ff6109e6610d02565b1660ff6109f1610d12565b161b60ff60408401511660ff6060850151161b1015610d32565b60ff806080610a18610d22565b9301511691161115610d32565b60ff610a2f610ce2565b167fffffffffffffffffffffffffffffffffffffffffffffffffffffffffffffff006002541617600255610a61610cf2565b7fffffffffffffffffffffffffffffffffffffffffffffffffffffffffffff00ff61ff006002549260081b16911617600255610a9b610d02565b7fffffffffffffffffffffffffffffffffffffffffffffffffffffffffff00ffff62ff00006002549260101b16911617600255610ad6610d12565b7fffffffffffffffffffffffffffffffffffffffffffffffffffffffff00ffffff63ff0000006002549260181b16911617600255610b12610d22565b7fffffffffffffffffffffffffffffffffffffffffffffffffffffff00ffffffff64ff000000006002549260201b1691161760025563ffffffff610b78817f00000000000000000000000000000000000000000000000000000000000000001642610d97565b16807fffffffffffffffffffffffffffffffffffffffffffffffffffffffff000000006003541617600355610bab610dd3565b7f1b9ba1eeed6885eb6b63df058a321a2e4299a0b65a613a47927282306f7995108380a380f35b346101675760007ffffffffffffffffffffffffffffffffffffffffffffffffffffffffffffffffc36011261016757602060405160ff7f0000000000000000000000000000000000000000000000000000000000000000168152f35b346101675760007ffffffffffffffffffffffffffffffffffffffffffffffffffffffffffffffffc3601126101675760209073ffffffffffffffffffffffffffffffffffffffff600654168152f35b15610c8457565b60646040517f08c379a000000000000000000000000000000000000000000000000000000000815260206004820152600960248201527f6e6f742061646d696e00000000000000000000000000000000000000000000006044820152fd5b60043560ff811681036101675790565b60243560ff811681036101675790565b60443560ff811681036101675790565b60643560ff811681036101675790565b60843560ff811681036101675790565b15610d3957565b60646040517f08c379a000000000000000000000000000000000000000000000000000000000815260206004820152600260248201527f464c0000000000000000000000000000000000000000000000000000000000006044820152fd5b91908201809211610da457565b7f4e487b7100000000000000000000000000000000000000000000000000000000600052601160045260246000fd5b60405160043560ff811680910361016757815260243560ff811680910361016757602082015260443560ff811680910361016757604082015260643560ff81168091036101675760608201526084359060ff82168092036101675760a09160808201522090565b6040519060a0820182811067ffffffffffffffff821117610e5a57604052565b7f4e487b7100000000000000000000000000000000000000000000000000000000600052604160045260246000fd5b610e91610e3a565b906000825260006020830152600060408301526000606083015260006080830152565b610ebc610e3a565b9060ff6002548181168452818160081c166020850152818160101c166040850152818160181c16606085015260201c166080830152565b9060ff610efe610e3a565b92548181168452818160081c166020850152818160101c166040850152818160181c16606085015260201c166080830152565b610f39610e89565b5063ffffffff600554168015159081610f6a575b5015610f6057610f5d6004610ef3565b90565b610f5d6001610ef3565b905042101538610f4d565b63ffffffff600554168015159081611154575b506110d5575b63ffffffff6003541680151590816110ca575b50610fa857565b6080610fb2610eb4565b60ff815116602082019060ff8251161b6001549160ff83169160ff8460081c1693604086019360ff85511695606088019660ff8851161b9160ff808560101c169460181c169481831b106110bf575b505081831b106110b4575b505083516000805492519351945196909501517fffffffffffffffffffffffffffffffffffffffffffffffffffffff000000000090921660ff919091161760089290921b61ff00169190911760109290921b62ff0000169190911760189390931b63ff000000169290921760209290921b64ff0000000016919091179055600380547fffffffffffffffffffffffffffffffffffffffffffffffffffffffff00000000169055565b83528352388061100c565b885284523880611001565b905042101538610fa1565b600454600180547fffffffffffffffffffffffffffffffffffffffffffffffffffffff00000000001660ff83161761ff0083161762ff000083161763ff00000083161764ff00000000909216919091179055600580547fffffffffffffffffffffffffffffffffffffffffffffffffffffffff00000000169055610f8e565b905042101538610f8856fea2646970667358221220913a8c5c7421eb73f09a8a72d42d461ef8e423c186b3aae7483401759bddeab764736f6c634300081a0033","linkReferences":{}},"methodIdentifiers":{"FEE_CHANGE_NOTICE_DURATION()":"c0021df1","LIMIT_CHANGE_NOTICE_DURATION()":"f1d08853","MAX_INCREASE_ORDER_FEE_PCT()":"44a505db","MAX_INCREASE_TRANCHE_FEE_PCT()":"ab1a57a8","admin()":"f851a440","fees()":"9af1d35a","fillFeeAccount()":"ea43b36b","gasFeeAccount()":"1db89da1","limits()":"860aefcf","orderFeeAccount()":"ebd3cdcd","proposedFeeActivationTime()":"d0c683b1","proposedFees()":"f9828cff","proposedLimitActivationTime()":"6f7a2458","proposedLimits()":"57d1c53d","setFeeAccounts(address,address,address)":"5800bc7b","setFees((uint8,uint8,uint8,uint8,uint8))":"478c3b1a","setLimits((uint8,uint8,uint8,uint8,uint8))":"591cef8f"},"id":58}