{"abi":[{"type":"function","name":"COIN","inputs":[],"outputs":[{"name":"","type":"address","internalType":"contract MockERC20"}],"stateMutability":"view"},{"type":"function","name":"USD","inputs":[],"outputs":[{"name":"","type":"address","internalType":"contract MockERC20"}],"stateMutability":"view"},{"type":"function","name":"factory","inputs":[],"outputs":[{"name":"","type":"address","internalType":"contract IVaultFactory"}],"stateMutability":"view"},{"type":"function","name":"fee","inputs":[],"outputs":[{"name":"","type":"uint24","internalType":"uint24"}],"stateMutability":"view"},{"type":"function","name":"init","inputs":[],"outputs":[],"stateMutability":"nonpayable"},{"type":"function","name":"init","inputs":[{"name":"router","type":"address","internalType":"contract IRouter"},{"name":"feeManager","type":"address","internalType":"contract FeeManager"}],"outputs":[],"stateMutability":"nonpayable"},{"type":"function","name":"initDebugFees","inputs":[],"outputs":[],"stateMutability":"nonpayable"},{"type":"function","name":"initNoFees","inputs":[],"outputs":[],"stateMutability":"nonpayable"},{"type":"function","name":"inverted","inputs":[],"outputs":[{"name":"","type":"bool","internalType":"bool"}],"stateMutability":"view"},{"type":"function","name":"oneSqrtX96","inputs":[],"outputs":[{"name":"","type":"uint160","internalType":"uint160"}],"stateMutability":"view"},{"type":"function","name":"pool","inputs":[],"outputs":[{"name":"","type":"address","internalType":"contract IUniswapV3Pool"}],"stateMutability":"view"},{"type":"function","name":"price","inputs":[],"outputs":[{"name":"sqrtPriceX96","type":"uint160","internalType":"uint160"}],"stateMutability":"view"},{"type":"function","name":"stake","inputs":[{"name":"amount","type":"uint256","internalType":"uint256"},{"name":"lower","type":"int24","internalType":"int24"},{"name":"upper","type":"int24","internalType":"int24"}],"outputs":[],"stateMutability":"nonpayable"},{"type":"function","name":"stake","inputs":[{"name":"coinAmount","type":"uint256","internalType":"uint256"},{"name":"usdAmount","type":"uint256","internalType":"uint256"},{"name":"lower","type":"int24","internalType":"int24"},{"name":"upper","type":"int24","internalType":"int24"}],"outputs":[{"name":"tokenId","type":"uint256","internalType":"uint256"},{"name":"liquidity","type":"uint128","internalType":"uint128"},{"name":"amount0","type":"uint256","internalType":"uint256"},{"name":"amount1","type":"uint256","internalType":"uint256"}],"stateMutability":"nonpayable"},{"type":"function","name":"stake","inputs":[{"name":"amount","type":"uint256","internalType":"uint256"},{"name":"width","type":"int24","internalType":"int24"}],"outputs":[],"stateMutability":"nonpayable"},{"type":"function","name":"swap","inputs":[{"name":"inToken","type":"address","internalType":"contract MockERC20"},{"name":"outToken","type":"address","internalType":"contract MockERC20"},{"name":"amountIn","type":"uint256","internalType":"uint256"},{"name":"sqrtPriceLimitX96","type":"uint160","internalType":"uint160"}],"outputs":[{"name":"amountOut","type":"uint256","internalType":"uint256"}],"stateMutability":"nonpayable"},{"type":"function","name":"swap","inputs":[{"name":"inToken","type":"address","internalType":"contract MockERC20"},{"name":"outToken","type":"address","internalType":"contract MockERC20"},{"name":"amountIn","type":"uint256","internalType":"uint256"}],"outputs":[{"name":"amountOut","type":"uint256","internalType":"uint256"}],"stateMutability":"nonpayable"},{"type":"function","name":"swapTo1","inputs":[],"outputs":[],"stateMutability":"nonpayable"},{"type":"function","name":"swapToPrice","inputs":[{"name":"sqrtPriceLimitX96","type":"uint160","internalType":"uint160"}],"outputs":[],"stateMutability":"nonpayable"},{"type":"function","name":"token0","inputs":[],"outputs":[{"name":"","type":"address","internalType":"address"}],"stateMutability":"view"},{"type":"function","name":"token1","inputs":[],"outputs":[{"name":"","type":"address","internalType":"address"}],"stateMutability":"view"}],"bytecode":{"object":"0x60808060405234603b57600180546001600160a01b03191673c36442b4a4522e871399cd717abdd847ab11fe8817905561e60e90816100408239f35b5f80fdfe6080806040526004361015610012575f80fd5b5f905f3560e01c9081630dfe16811461114f5750806316f0115b146110fe5780631bf6c21b146110ad5780633420899b1461107457806341cca3b51461103e5780634a09d3dd14610fb657806353486e2f14610f7457806367e368fc14610f315780638f7d7c5014610edb578063a035b1fe14610e10578063a54a72b714610dbf578063c45a015514610d6f578063c4b5da7414610be5578063c578d91d14610b8b578063d21220a714610b3a578063d6f130021461044e578063ddca3f431461040a578063df791e50146102c4578063e1c7392a1461028d578063e3baf41a146101895763f09a401614610105575f80fd5b346101865760407ffffffffffffffffffffffffffffffffffffffffffffffffffffffffffffffffc3601126101865760043573ffffffffffffffffffffffffffffffffffffffff811681036101845760243573ffffffffffffffffffffffffffffffffffffffff811681036101805761017d91611bdb565b80f35b8280fd5b505b80fd5b50346101865760407ffffffffffffffffffffffffffffffffffffffffffffffffffffffffffffffffc360112610186576101c16111e3565b818160020b13156101845760049060e073ffffffffffffffffffffffffffffffffffffffff60025416604051938480927f3850c7bd0000000000000000000000000000000000000000000000000000000082525afa9081156102825761017d928492610246575b508061023761023d9284611b38565b92611b72565b9060043561132a565b61023d91925061026d9060e03d60e01161027b575b6102658183611a23565b810190611a8e565b505050505090509190610228565b503d61025b565b6040513d85823e3d90fd5b503461018657807ffffffffffffffffffffffffffffffffffffffffffffffffffffffffffffffffc3601126101865761017d611203565b50346101865760607ffffffffffffffffffffffffffffffffffffffffffffffffffffffffffffffffc360112610186576102fc61119d565b6103046111c0565b73ffffffffffffffffffffffffffffffffffffffff60025416906040517f0dfe1681000000000000000000000000000000000000000000000000000000008152602081600481865afa9081156103ff576103ad949392918673ffffffffffffffffffffffffffffffffffffffff92602098926103d0575b50501673ffffffffffffffffffffffffffffffffffffffff8416145f146103b5576401000276a4925b604435926125c0565b604051908152f35b73fffd8963efd1fc6a506488495d951d5263988d25926103a4565b6103f1919250883d8a116103f8575b6103e98183611a23565b810190611b0c565b905f61037b565b503d6103df565b6040513d87823e3d90fd5b503461018657807ffffffffffffffffffffffffffffffffffffffffffffffffffffffffffffffffc36011261018657602062ffffff60025460a01c16604051908152f35b5034610acb5760807ffffffffffffffffffffffffffffffffffffffffffffffffffffffffffffffffc360112610acb5760043560243561048c6111f3565b606435918260020b8303610acb5782919260ff60065460a01c1694855f14610b3357825b8615610b2b5750945b610b0d575b5073ffffffffffffffffffffffffffffffffffffffff60025416916040517f0dfe1681000000000000000000000000000000000000000000000000000000008152602081600481875afa8015610ac05773ffffffffffffffffffffffffffffffffffffffff915f91610aee575b5016946040517fd21220a7000000000000000000000000000000000000000000000000000000008152602081600481885afa8015610ac05773ffffffffffffffffffffffffffffffffffffffff915f91610acf575b501694863b15610acb576040517f40c10f19000000000000000000000000000000000000000000000000000000008152306004820152602481018590525f81604481838c5af18015610ac057610aab575b506040517f095ea7b300000000000000000000000000000000000000000000000000000000815273c36442b4a4522e871399cd717abdd847ab11fe886004820152602481018590526020816044818c8c5af180156109cc57610a74575b50853b15610a70576040517f40c10f190000000000000000000000000000000000000000000000000000000081523060048201526024810183905288908181604481838c5af1801561099057610a5b575b50506040517f095ea7b300000000000000000000000000000000000000000000000000000000815273c36442b4a4522e871399cd717abdd847ab11fe886004820152602481018390526020816044818c8b5af180156109cc57610a24575b50604051907fd0c93a7c000000000000000000000000000000000000000000000000000000008252602082600481895afa9182156109cc5789926109df575b509061072b8161073193612e2e565b93612e2e565b92339333156109d7575b602060049596604051968780927fddca3f430000000000000000000000000000000000000000000000000000000082525afa9485156109cc57899561099b575b5060405197610789896119e9565b885260208801968752604088019462ffffff168552606088019360020b8452608088019060020b815260a0880191825260c0880192835260e08801938985526101008901958a87526101208a019773ffffffffffffffffffffffffffffffffffffffff1688526101408a0198428a526040519a7f88316456000000000000000000000000000000000000000000000000000000008c525173ffffffffffffffffffffffffffffffffffffffff1660048c01525173ffffffffffffffffffffffffffffffffffffffff1660248b01525162ffffff1660448a01525160020b60648901525160020b60848801525160a48701525160c48601525160e4850152516101048401525173ffffffffffffffffffffffffffffffffffffffff16610124830152516101448201528080835a926101649173c36442b4a4522e871399cd717abdd847ab11fe88608095f180156109905782918380918193610913575b50506fffffffffffffffffffffffffffffffff60809460405194855216602084015260408301526060820152f35b9350935050506080813d608011610988575b8161093260809383611a23565b81010312610184578051906020810151916fffffffffffffffffffffffffffffffff8316830361098457604082015160609092015192935091906fffffffffffffffffffffffffffffffff60806108e5565b8380fd5b3d9150610925565b6040513d84823e3d90fd5b6109be91955060203d6020116109c5575b6109b68183611a23565b8101906125a5565b935f61077b565b503d6109ac565b6040513d8b823e3d90fd5b30945061073b565b91506020823d602011610a1c575b816109fa60209383611a23565b81010312610a185761072b610a1161073193611a64565b925061071c565b8880fd5b3d91506109ed565b6020813d602011610a53575b81610a3d60209383611a23565b81010312610a1857610a4e90611a81565b6106dd565b3d9150610a30565b81610a6591611a23565b610a7057875f61067f565b8780fd5b6020813d602011610aa3575b81610a8d60209383611a23565b81010312610a1857610a9e90611a81565b61062e565b3d9150610a80565b610ab89198505f90611a23565b5f965f6105d1565b6040513d5f823e3d90fd5b5f80fd5b610ae8915060203d6020116103f8576103e98183611a23565b5f610580565b610b07915060203d6020116103f8576103e98183611a23565b5f61052b565b909250610b1a9150611bac565b90610b2482611bac565b905f6104be565b9050946104b9565b80926104b0565b34610acb575f7ffffffffffffffffffffffffffffffffffffffffffffffffffffffffffffffffc360112610acb57602073ffffffffffffffffffffffffffffffffffffffff60065416604051908152f35b34610acb5760207ffffffffffffffffffffffffffffffffffffffffffffffffffffffffffffffffc360112610acb57610be3610bc561119d565b73ffffffffffffffffffffffffffffffffffffffff60025416612ab4565b005b34610acb575f7ffffffffffffffffffffffffffffffffffffffffffffffffffffffffffffffffc360112610acb57604051611ffe80820182811067ffffffffffffffff821117610d42578291612ee4833903905ff08015610ac057604051610c4c816119cd565b60e381526028602082015260b5604082015260246060820152601e6080820152604051610c78816119cd565b60e381526028602082015260b5604082015260246060820152601e608082015260405191610ca5836119e9565b6146508352611c206020840152600a604084015260646060840152608083015260a08201523360c08201523360e0820152336101008201523361012082015233610140820152604051906117d18083019183831067ffffffffffffffff841117610d42578392610d199261ce088539612d0d565b03905ff08015610ac05773ffffffffffffffffffffffffffffffffffffffff610be39216611bdb565b7f4e487b71000000000000000000000000000000000000000000000000000000005f52604160045260245ffd5b34610acb575f7ffffffffffffffffffffffffffffffffffffffffffffffffffffffffffffffffc360112610acb57602073ffffffffffffffffffffffffffffffffffffffff5f5416604051908152f35b34610acb575f7ffffffffffffffffffffffffffffffffffffffffffffffffffffffffffffffffc360112610acb57602073ffffffffffffffffffffffffffffffffffffffff60035416604051908152f35b34610acb575f7ffffffffffffffffffffffffffffffffffffffffffffffffffffffffffffffffc360112610acb57600460e073ffffffffffffffffffffffffffffffffffffffff60025416604051928380927f3850c7bd0000000000000000000000000000000000000000000000000000000082525afa8015610ac0576020915f91610eb6575b5073ffffffffffffffffffffffffffffffffffffffff60405191168152f35b610ecf915060e03d60e01161027b576102658183611a23565b50505050505082610e97565b34610acb575f7ffffffffffffffffffffffffffffffffffffffffffffffffffffffffffffffffc360112610acb576020610f1361199e565b73ffffffffffffffffffffffffffffffffffffffff60405191168152f35b34610acb575f7ffffffffffffffffffffffffffffffffffffffffffffffffffffffffffffffffc360112610acb57602060ff60065460a01c166040519015158152f35b34610acb5760607ffffffffffffffffffffffffffffffffffffffffffffffffffffffffffffffffc360112610acb57610be3610fae6111e3565b61023d6111f3565b34610acb5760807ffffffffffffffffffffffffffffffffffffffffffffffffffffffffffffffffc360112610acb57610fed61119d565b610ff56111c0565b60643573ffffffffffffffffffffffffffffffffffffffff81168103610acb576020926103ad926044359173ffffffffffffffffffffffffffffffffffffffff600254166125c0565b34610acb575f7ffffffffffffffffffffffffffffffffffffffffffffffffffffffffffffffffc360112610acb57610be3611203565b34610acb575f7ffffffffffffffffffffffffffffffffffffffffffffffffffffffffffffffffc360112610acb57610be3610bc561199e565b34610acb575f7ffffffffffffffffffffffffffffffffffffffffffffffffffffffffffffffffc360112610acb57602073ffffffffffffffffffffffffffffffffffffffff60045416604051908152f35b34610acb575f7ffffffffffffffffffffffffffffffffffffffffffffffffffffffffffffffffc360112610acb57602073ffffffffffffffffffffffffffffffffffffffff60025416604051908152f35b34610acb575f7ffffffffffffffffffffffffffffffffffffffffffffffffffffffffffffffffc360112610acb5760209073ffffffffffffffffffffffffffffffffffffffff600554168152f35b6004359073ffffffffffffffffffffffffffffffffffffffff82168203610acb57565b6024359073ffffffffffffffffffffffffffffffffffffffff82168203610acb57565b602435908160020b8203610acb57565b604435908160020b8203610acb57565b604051611ffe80820182811067ffffffffffffffff821117610d42578291612ee4833903905ff08015610ac05760405161123c816119cd565b5f81525f60208201525f60408201525f60608201525f6080820152604051611263816119cd565b5f81525f60208201525f60408201525f60608201525f60808201526040519161128b836119e9565b6146508352611c206020840152600a604084015260646060840152608083015260a08201523360c08201523360e0820152336101008201523361012082015233610140820152604051906117d18083019183831067ffffffffffffffff841117610d425783926112ff9261ce088539612d0d565b03905ff08015610ac05773ffffffffffffffffffffffffffffffffffffffff6113289216611bdb565b565b90915f92670de0b6b3a7640000830292801593818104670de0b6b3a7640000148517156119715760011c93620f42408202918204620f42401417156119715760011c82919260ff60065460a01c1694855f1461196a57825b86156119625750945b611944575b5073ffffffffffffffffffffffffffffffffffffffff60025416916040517f0dfe1681000000000000000000000000000000000000000000000000000000008152602081600481875afa8015610ac05773ffffffffffffffffffffffffffffffffffffffff915f91611925575b5016946040517fd21220a7000000000000000000000000000000000000000000000000000000008152602081600481885afa8015610ac05773ffffffffffffffffffffffffffffffffffffffff915f91611906575b501694863b15610acb576040517f40c10f19000000000000000000000000000000000000000000000000000000008152306004820152602481018590525f8180604481015b0381838c5af18015610ac0576118f1575b506040517f095ea7b300000000000000000000000000000000000000000000000000000000815273c36442b4a4522e871399cd717abdd847ab11fe886004820152602481018590526020816044818c8c5af180156109cc576118ba575b50853b15610a70576040517f40c10f19000000000000000000000000000000000000000000000000000000008152306004820152602481018390528881604481838b5af180156109cc579089916118a5575b50506040517f095ea7b300000000000000000000000000000000000000000000000000000000815273c36442b4a4522e871399cd717abdd847ab11fe886004820152602481018390526020816044818c8b5af180156109cc5761186e575b506040517fd0c93a7c000000000000000000000000000000000000000000000000000000008152602081600481895afa9081156109cc57899161182b575b5061072b8161160193612e2e565b9233933315611823575b602060049596604051968780927fddca3f430000000000000000000000000000000000000000000000000000000082525afa9485156109cc578995611802575b5060405197611659896119e9565b885260208801968752604088019462ffffff168552606088019360020b8452608088019060020b815260a0880191825260c0880192835260e08801938985526101008901958a87526101208a019773ffffffffffffffffffffffffffffffffffffffff1688526101408a0198428a526040519a7f88316456000000000000000000000000000000000000000000000000000000008c525173ffffffffffffffffffffffffffffffffffffffff1660048c01525173ffffffffffffffffffffffffffffffffffffffff1660248b01525162ffffff1660448a01525160020b60648901525160020b60848801525160a48701525160c48601525160e4850152516101048401525173ffffffffffffffffffffffffffffffffffffffff16610124830152516101448201528080835a926101649173c36442b4a4522e871399cd717abdd847ab11fe88608095f18015610990576117b1575050565b6080813d6080116117fa575b816117ca60809383611a23565b81010312610184578051916020820151906fffffffffffffffffffffffffffffffff821682036101865750505050565b3d91506117bd565b61181c91955060203d6020116109c5576109b68183611a23565b935f61164b565b30945061160b565b90506020813d602011611866575b8161184660209383611a23565b81010312610a18579061072b61185e61160193611a64565b9192506115f3565b3d9150611839565b6020813d60201161189d575b8161188760209383611a23565b81010312610a185761189890611a81565b6115b5565b3d915061187a565b816118af91611a23565b610a7057875f611557565b6020813d6020116118e9575b816118d360209383611a23565b81010312610a18576118e490611a81565b611505565b3d91506118c6565b6118fe9198505f90611a23565b5f965f6114a8565b61191f915060203d6020116103f8576103e98183611a23565b5f611452565b61193e915060203d6020116103f8576103e98183611a23565b5f6113fd565b9092506119519150611bac565b9061195b82611bac565b905f611390565b90509461138b565b8092611382565b7f4e487b71000000000000000000000000000000000000000000000000000000005f52601160045260245ffd5b60065460a01c60ff16156119bf576e0f424000000000000000000000000090565b6910c6f7a0b5ed8d36b4c790565b60a0810190811067ffffffffffffffff821117610d4257604052565b610160810190811067ffffffffffffffff821117610d4257604052565b610100810190811067ffffffffffffffff821117610d4257604052565b90601f7fffffffffffffffffffffffffffffffffffffffffffffffffffffffffffffffe0910116810190811067ffffffffffffffff821117610d4257604052565b51908160020b8203610acb57565b519061ffff82168203610acb57565b51908115158203610acb57565b908160e0910312610acb57805173ffffffffffffffffffffffffffffffffffffffff81168103610acb5791611ac560208301611a64565b91611ad260408201611a72565b91611adf60608301611a72565b91611aec60808201611a72565b9160a082015160ff81168103610acb5760c0611b09919301611a81565b90565b90816020910312610acb575173ffffffffffffffffffffffffffffffffffffffff81168103610acb5790565b9060020b9060020b0390627fffff82137fffffffffffffffffffffffffffffffffffffffffffffffffffffffffff80000083121761197157565b9060020b9060020b01907fffffffffffffffffffffffffffffffffffffffffffffffffffffffffff8000008212627fffff83131761197157565b60020b7fffffffffffffffffffffffffffffffffffffffffffffffffffffffffff8000008114611971575f0390565b5f916040519161565a908184019084821067ffffffffffffffff831117610d425760609373ffffffffffffffffffffffffffffffffffffffff80928795614ee287391683521660208201525f60408201520301905ff08015610ac05760405190611a379081830183811067ffffffffffffffff821117610d425773ffffffffffffffffffffffffffffffffffffffff849260609461a53c8539338352166020820152607860408201520301905ff08015610ac05773ffffffffffffffffffffffffffffffffffffffff167fffffffffffffffffffffffff00000000000000000000000000000000000000005f5416175f555f80611d49611d7b604051611ce2604082611a23565b601481527f4d6f636b456e763a206d73672e73656e6465723a00000000000000000000000060208201526040519283917f319af333000000000000000000000000000000000000000000000000000000006020840152604060248401526064830190612482565b336044830152037fffffffffffffffffffffffffffffffffffffffffffffffffffffffffffffffe08101835282611a23565b6020815191016a636f6e736f6c652e6c6f675afa50604051610e958082019180831067ffffffffffffffff841117610d425760e08161bf73948486833960608152601660608201527f4d6f636b20457468657265756d2048617264666f726b00000000000000000000608082015260a06020820152600360a08201527f4d4548000000000000000000000000000000000000000000000000000000000060c0820152601260408201520301905ff08015610ac05773ffffffffffffffffffffffffffffffffffffffff611eb89116807fffffffffffffffffffffffff00000000000000000000000000000000000000006003541617600355611eb3604051611e84604082611a23565b600381527f4d4548000000000000000000000000000000000000000000000000000000000060208201526124c5565b61254e565b6040519181830183811067ffffffffffffffff821117610d425760e0928492833960608152601060608201527f4a6f6b652043757272656e637920584400000000000000000000000000000000608082015260a06020820152600460a08201527f555358440000000000000000000000000000000000000000000000000000000060c0820152600660408201520301905ff08015610ac05773ffffffffffffffffffffffffffffffffffffffff16807fffffffffffffffffffffffff00000000000000000000000000000000000000006004541617600455611fd0604051611fa1604082611a23565b600481527f555358440000000000000000000000000000000000000000000000000000000060208201526124c5565b611fd98161254e565b60207fffffffffffffffffffffff00000000000000000000000000000000000000000060847501f400000000000000000000000000000000000000007fffffffffffffffffff000000ffffffffffffffffffffffffffffffffffffffff6002541617938460025573ffffffffffffffffffffffffffffffffffffffff600354166006549073ffffffffffffffffffffffffffffffffffffffff74ff000000000000000000000000000000000000000084831160a01b169160ff837fffffffffffffffffffffff00ffffffffffffffffffffffffffffffffffffffff86161760a01c1694855f1461247b5782815b1695867fffffffffffffffffffffffff000000000000000000000000000000000000000060055416176005555f1461247457505b1694859216171760065561218f604051612115608082611a23565b605381527f6966207468697320697320746865206c617374206c696e65206265666f726520868201527f6120726576657274207468656e206d616b65207375726520746f2072756e206660408201527f6f7267652077697468202d2d7270632d75726c0000000000000000000000000060608201526124c5565b5f73ffffffffffffffffffffffffffffffffffffffff6001541673ffffffffffffffffffffffffffffffffffffffff6121c661199e565b62ffffff604051998a9889977f13ead5620000000000000000000000000000000000000000000000000000000089526004890152602488015260a01c1660448601521660648401525af18015610ac05773ffffffffffffffffffffffffffffffffffffffff915f91612455575b5016807fffffffffffffffffffffffff0000000000000000000000000000000000000000600254161760025561229f604051612270604082611a23565b600781527f763320706f6f6c0000000000000000000000000000000000000000000000000060208201526124c5565b6122a88161254e565b60065460a01c60ff16907ffffffffffffffffffffffffffffffffffffffffffffffffffffffffffff2761890620d89e8808415612444576903c1fb96f3938f910000915b8515612433576903c1fb96f3938f910000955b6123f3575b506040517f0dfe1681000000000000000000000000000000000000000000000000000000008152602081600481875afa8015610ac05773ffffffffffffffffffffffffffffffffffffffff915f91611925575016946040517fd21220a7000000000000000000000000000000000000000000000000000000008152602081600481885afa8015610ac05773ffffffffffffffffffffffffffffffffffffffff915f9161190657501694863b15610acb576040517f40c10f19000000000000000000000000000000000000000000000000000000008152306004820152602481018590525f818060448101611497565b9193505060020b7fffffffffffffffffffffffffffffffffffffffffffffffffffffffffff8000008114611971575f039161242d83611bac565b5f612304565b6903c1fb96f3938f910000956122ff565b6903c1fb96f3938f910000916122ec565b61246e915060203d6020116103f8576103e98183611a23565b5f612233565b90506120fa565b82826120c6565b907fffffffffffffffffffffffffffffffffffffffffffffffffffffffffffffffe0601f602080948051918291828752018686015e5f8582860101520116010190565b5f61250b61253782936040519283917f41304fac000000000000000000000000000000000000000000000000000000006020840152602060248401526044830190612482565b037fffffffffffffffffffffffffffffffffffffffffffffffffffffffffffffffe08101835282611a23565b6020815191016a636f6e736f6c652e6c6f675afa50565b5f809173ffffffffffffffffffffffffffffffffffffffff604051917f2c2ecbc200000000000000000000000000000000000000000000000000000000602084015216602482015260248152612537604482611a23565b90816020910312610acb575162ffffff81168103610acb5790565b9391929073ffffffffffffffffffffffffffffffffffffffff16906040517f095ea7b300000000000000000000000000000000000000000000000000000000815273e592427a0aece92de3edee1f18e0157c0586156460048201528160248201526020816044815f875af18015610ac0576127d1575b50602073ffffffffffffffffffffffffffffffffffffffff956004604051809881937fddca3f43000000000000000000000000000000000000000000000000000000008352165afa938415610ac05773ffffffffffffffffffffffffffffffffffffffff80957f414bf38900000000000000000000000000000000000000000000000000000000975f916127b2575b50604051946126d386611a06565b855281602086019316835262ffffff604086019116815262ffffff606086019133835283608088019542875260a089019788528160c08a01995f8b528160e082019c168c526040519d8e52511660048d0152511660248b015251166044890152511660648701525160848601525160a48501525160c4840152511660e4820152602081610104815f73e592427a0aece92de3edee1f18e0157c058615645af1908115610ac0575f91612783575090565b90506020813d6020116127aa575b8161279e60209383611a23565b81010312610acb575190565b3d9150612791565b6127cb915060203d6020116109c5576109b68183611a23565b5f6126c5565b6020813d60201161281b575b816127ea60209383611a23565b81010312610acb5773ffffffffffffffffffffffffffffffffffffffff95612813602092611a81565b509550612636565b3d91506127dd565b9173ffffffffffffffffffffffffffffffffffffffff8091959295169216906040517f095ea7b30000000000000000000000000000000000000000000000000000000081528260048201526c1000000000000000000000000060248201526020816044815f885af18015610ac057612a62575b50602073ffffffffffffffffffffffffffffffffffffffff956004604051809881937fddca3f43000000000000000000000000000000000000000000000000000000008352165afa948515610ac0575f95612a41575b50604051926128fa84611a06565b8352602083019373ffffffffffffffffffffffffffffffffffffffff168452604083019462ffffff168552606083013381526080840142815260a08501906c10000000000000000000000000825260c08601925f845260e087019473ffffffffffffffffffffffffffffffffffffffff16855260405198899889987f414bf389000000000000000000000000000000000000000000000000000000008a525173ffffffffffffffffffffffffffffffffffffffff1660048a01525173ffffffffffffffffffffffffffffffffffffffff1660248901525162ffffff1660448801525173ffffffffffffffffffffffffffffffffffffffff1660648701525160848601525160a48501525160c48401525173ffffffffffffffffffffffffffffffffffffffff1660e48301525a925f61010492602095f1908115610ac0575f91612783575090565b612a5b91955060203d6020116109c5576109b68183611a23565b935f6128ec565b6020813d602011612aac575b81612a7b60209383611a23565b81010312610acb5773ffffffffffffffffffffffffffffffffffffffff95612aa4602092611a81565b509550612896565b3d9150612a6e565b9073ffffffffffffffffffffffffffffffffffffffff8216604051907f3850c7bd00000000000000000000000000000000000000000000000000000000825260e082600481845afa918215610ac0575f92612ce6575b5073ffffffffffffffffffffffffffffffffffffffff808416921691808314612cdf576040517f0dfe1681000000000000000000000000000000000000000000000000000000008152602081600481865afa8015610ac05773ffffffffffffffffffffffffffffffffffffffff6020916004935f91612cc2575b501693604051928380927fd21220a70000000000000000000000000000000000000000000000000000000082525afa8015610ac05773ffffffffffffffffffffffffffffffffffffffff915f91612ca3575b50169080841115612c9c5782935b1015612c945750905b73ffffffffffffffffffffffffffffffffffffffff811693843b15610acb575f80956044604051809881937f40c10f190000000000000000000000000000000000000000000000000000000083523060048401526c1000000000000000000000000060248401525af1948515610ac057612c8195612c84575b5073e592427a0aece92de3edee1f18e0157c05861564612823565b50565b5f612c8e91611a23565b5f612c66565b905090612bed565b8193612be4565b612cbc915060203d6020116103f8576103e98183611a23565b5f612bd6565b612cd99150833d85116103f8576103e98183611a23565b5f612b84565b5050505050565b612d0091925060e03d60e01161027b576102658183611a23565b505050505050905f612b0a565b91909161024073ffffffffffffffffffffffffffffffffffffffff61014061026084019563ffffffff815116855263ffffffff602082015116602086015260ff604082015116604086015260ff6060820151166060860152612daa6080820151608087019060ff60808092828151168552826020820151166020860152826040820151166040860152826060820151166060860152015116910152565b612df060a082015161012087019060ff60808092828151168552826020820151166020860152826040820151166040860152826060820151166060860152015116910152565b8260c0820151166101c08601528260e0820151166101e086015282610100820151166102008601528261012082015116610220860152015116910152565b8060020b918060020b8015612eb6575f81850794125f14612e81576002612e5485611bac565b9105600290810b91900b13612e6e575090611b0991611b38565b611b0992612e7b91611b72565b90611b38565b6002905f949394500560020b8260020b135f14612eac57611b099291612ea691611b38565b90611b72565b50611b0991611b38565b7f4e487b71000000000000000000000000000000000000000000000000000000005f52601260045260245ffdfe60e08060405234606c57731f98431c8ad98523631ae4a59f267346ea31f98460a05273e592427a0aece92de3edee1f18e0157c05861564608052600a60c052611f8d908161007182396080518181816106170152610a10015260a05181610390015260c051816112220152f35b5f80fdfe60806040526004361015610011575f80fd5b5f3560e01c80630f82d675146101c45780635b1b3179146101a05763802b95df1461003a575f80fd5b3461016f576101407ffffffffffffffffffffffffffffffffffffffffffffffffffffffffffffffffc36011261016f57604051610140810181811067ffffffffffffffff82111761017357604052600435600281101561016f57815260243573ffffffffffffffffffffffffffffffffffffffff8116810361016f57602082015260443573ffffffffffffffffffffffffffffffffffffffff8116810361016f57604082015260643573ffffffffffffffffffffffffffffffffffffffff8116810361016f576060820152608435608082015260a43560a082015260c435801515810361016f5760c082015260e435801515810361016f5760e0820152610104356101008201526101243562ffffff8116810361016f57816101639161012060409401526104e6565b82519182526020820152f35b5f80fd5b7f4e487b71000000000000000000000000000000000000000000000000000000005f52604160045260245ffd5b3461016f5760206101bc6101b3366101e0565b93929092610469565b604051908152f35b3461016f5760206101bc6101d7366101e0565b939290926102f2565b7ffffffffffffffffffffffffffffffffffffffffffffffffffffffffffffffffc60a091011261016f57600435600281101561016f579060243573ffffffffffffffffffffffffffffffffffffffff8116810361016f579060443573ffffffffffffffffffffffffffffffffffffffff8116810361016f579060643562ffffff8116810361016f5790608435801515810361016f5790565b610100810190811067ffffffffffffffff82111761017357604052565b6060810190811067ffffffffffffffff82111761017357604052565b90601f7fffffffffffffffffffffffffffffffffffffffffffffffffffffffffffffffe0910116810190811067ffffffffffffffff82111761017357604052565b9392909193600281101561043c57600114610366576040517f08c379a000000000000000000000000000000000000000000000000000000000815260206004820152600260248201527f55520000000000000000000000000000000000000000000000000000000000006044820152606490fd5b6103b561038d73ffffffffffffffffffffffffffffffffffffffff9260049660e095611a7f565b827f000000000000000000000000000000000000000000000000000000000000000016611ae5565b16604051938480927f3850c7bd0000000000000000000000000000000000000000000000000000000082525afa8015610431576103f9925f916103fc575b506119f0565b90565b61041e915060e03d60e01161042a575b61041681836102b1565b810190611061565b5050505050505f6103f3565b503d61040c565b6040513d5f823e3d90fd5b7f4e487b71000000000000000000000000000000000000000000000000000000005f52602160045260245ffd5b9392919093600281101561043c576001146104dd576040517f08c379a000000000000000000000000000000000000000000000000000000000815260206004820152600260248201527f55520000000000000000000000000000000000000000000000000000000000006044820152606490fd5b6103f9936111f6565b908151600281101561043c57600114610558576040517f08c379a000000000000000000000000000000000000000000000000000000000815260206004820152600260248201527f55520000000000000000000000000000000000000000000000000000000000006044820152606490fd5b610100820191825180158015610fc5575b505060c08101511561091c576024906080810151936020820194602073ffffffffffffffffffffffffffffffffffffffff875116604051958680927f70a082310000000000000000000000000000000000000000000000000000000082523060048301525afa938415610431575f946108e8575b50831580156108db575b61087c57808410610875575b73ffffffffffffffffffffffffffffffffffffffff610647818851169361063e84847f0000000000000000000000000000000000000000000000000000000000000000168097611ea1565b5160601b611f02565b169073ffffffffffffffffffffffffffffffffffffffff8751169373ffffffffffffffffffffffffffffffffffffffff6040820151169073ffffffffffffffffffffffffffffffffffffffff606062ffffff610120840151169201511691604051966106b288610278565b875260208701908152604080880192835260608801938452426080890190815260a08901958652600160c08a0190815260e08a0197885291517f414bf389000000000000000000000000000000000000000000000000000000008152985173ffffffffffffffffffffffffffffffffffffffff90811660048b01529251831660248a0152925162ffffff16604489015292518116606488015290516084870152915160a48601525160c485015290511660e4830152602082610104815f855af1918215610431575f92610840575b5060249192602073ffffffffffffffffffffffffffffffffffffffff875116604051948580927f70a082310000000000000000000000000000000000000000000000000000000082523060048301525afa928315610431575f9361080a575b506108026103f99373ffffffffffffffffffffffffffffffffffffffff92611a72565b955116611d3c565b92506020833d602011610838575b81610825602093836102b1565b8101031261016f579151916108026107df565b3d9150610818565b91506020823d60201161086d575b8161085b602093836102b1565b8101031261016f576024915191610780565b3d915061084e565b50826105f3565b6040517f08c379a000000000000000000000000000000000000000000000000000000000815260206004820152600360248201527f49494100000000000000000000000000000000000000000000000000000000006044820152606490fd5b5060a083015184106105e7565b9093506020813d602011610914575b81610904602093836102b1565b8101031261016f5751925f6105dd565b3d91506108f7565b915f925f9160246020830192602073ffffffffffffffffffffffffffffffffffffffff855116604051938480927f70a082310000000000000000000000000000000000000000000000000000000082523060048301525afa918215610431575f92610f91575b50811561087c578060406024920190602073ffffffffffffffffffffffffffffffffffffffff835116604051948580927f70a082310000000000000000000000000000000000000000000000000000000082523060048301525afa928315610431575f93610f5d575b5073ffffffffffffffffffffffffffffffffffffffff610a37818851169661063e87847f000000000000000000000000000000000000000000000000000000000000000016809a611ea1565b169373ffffffffffffffffffffffffffffffffffffffff8751169373ffffffffffffffffffffffffffffffffffffffff8451169461012084019562ffffff875116946060810195608073ffffffffffffffffffffffffffffffffffffffff8851169201519260405194610aa986610278565b855260208501908152604080860192835260608601938452426080870190815260a0870195865260c0870189815260e088018e815292517fdb3e2198000000000000000000000000000000000000000000000000000000008152975173ffffffffffffffffffffffffffffffffffffffff90811660048a0152935184166024890152935162ffffff16604488015293518216606487015292516084860152925160a48501525160c4840152511660e4820152602081610104815f8c5af15f9181610f29575b50610e61575050600194610b8061112b565b6308c379a014610bb5575b50505050506104315773ffffffffffffffffffffffffffffffffffffffff6103f9925b5116611d3c565b610bbd611146565b9485610bca575b50610b8b565b9297969550929897509298505f9573ffffffffffffffffffffffffffffffffffffffff62ffffff81808951169b51169351169151169160405199610c0d8b610278565b8a5260208a019081526040808b0192835260608b019384524260808c0190815260a08c01878152600160c08e0190815260e08e0197885292517f414bf3890000000000000000000000000000000000000000000000000000000081529c5173ffffffffffffffffffffffffffffffffffffffff90811660048f01529351841660248e0152935162ffffff1660448d01529351821660648c0152925160848b0152905160a48a0152905160c489015290511660e4870152602086610104815f865af15f9681610e2d575b50610d7d5786610ce461112b565b6308c379a014610cf9576040513d5f823e3d90fd5b610d01611146565b156104315760446020917fffffffffffffffffffffffffffffffffffffffffffffffffffffffffffffffe0601f6040519485937f08c379a00000000000000000000000000000000000000000000000000000000085528160048601528051918291826024880152018686015e5f85828601015201168101030190fd5b829394959650602073ffffffffffffffffffffffffffffffffffffffff602493945116604051938480927f70a082310000000000000000000000000000000000000000000000000000000082523060048301525afa908115610431575f91610df7575b610dea9250611a72565b94925f8080808080610bc4565b90506020823d602011610e25575b81610e12602093836102b1565b8101031261016f57610dea915190610de0565b3d9150610e05565b9096506020813d602011610e59575b81610e49602093836102b1565b8101031261016f5751955f610cd6565b3d9150610e3c565b925094505073ffffffffffffffffffffffffffffffffffffffff919850602495965060209250975116604051948580927f70a082310000000000000000000000000000000000000000000000000000000082523060048301525afa928315610431575f93610ef3575b50610eed73ffffffffffffffffffffffffffffffffffffffff916103f994611a72565b93610bae565b92506020833d602011610f21575b81610f0e602093836102b1565b8101031261016f57915191610eed610eca565b3d9150610f01565b9091506020813d602011610f55575b81610f45602093836102b1565b8101031261016f5751905f610b6e565b3d9150610f38565b9092506020813d602011610f89575b81610f79602093836102b1565b8101031261016f5751915f6109eb565b3d9150610f6c565b9091506020813d602011610fbd575b81610fad602093836102b1565b8101031261016f5751905f610982565b3d9150610fa0565b60e08301511561056957610ff75778010000000000000000000000000000000000000000000000000483525f80610569565b7f4e487b71000000000000000000000000000000000000000000000000000000005f52601260045260245ffd5b519073ffffffffffffffffffffffffffffffffffffffff8216820361016f57565b519061ffff8216820361016f57565b5190811515820361016f57565b908160e091031261016f5761107581611024565b9160208201518060020b810361016f579161109260408201611045565b9161109f60608301611045565b916110ac60808201611045565b9160a082015160ff8116810361016f5760c06103f9919301611054565b67ffffffffffffffff81116101735760051b60200190565b8051156110ee5760200190565b7f4e487b71000000000000000000000000000000000000000000000000000000005f52603260045260245ffd5b8051600110156110ee5760400190565b5f9060033d1161113757565b905060045f803e5f5160e01c90565b5f60443d106103f9576040517ffffffffffffffffffffffffffffffffffffffffffffffffffffffffffffffffc3d016004823e8051913d602484011167ffffffffffffffff8411176111f0578282019283519167ffffffffffffffff83116111e8577ffffffffffffffffffffffffffffffffffffffffffffffffffffffffffffffffc3d850101602084870101116111e857506103f9929101602001906102b1565b949350505050565b92915050565b73ffffffffffffffffffffffffffffffffffffffff926112199261038d92611a7f565b169063ffffffff7f00000000000000000000000000000000000000000000000000000000000000001680611290575b5060e0600492604051938480927f3850c7bd0000000000000000000000000000000000000000000000000000000082525afa8015610431576103f9925f916103fc57506119f0565b60405161129e6060826102b1565b6002815260208101906040368337826112b6826110e1565b525f6112c18261111b565b526040519182917f883bdbfd000000000000000000000000000000000000000000000000000000008352602483019060206004850152518091526044830191905f5b8181106119d15750505090805f920381875afa5f91816118be575b50611359575050600161132f61112b565b6308c379a014611345575b6104315760e0611248565b61134d611146565b1561133a57505f61133a565b909192506113736113698261111b565b5160060b916110e1565b5160060b900390667fffffffffffff82137fffffffffffffffffffffffffffffffffffffffffffffffffff800000000000008312176118825760030b9060060b8115610ff7577fffffffffffffffffffffffffffffffffffffffffffffffffffffffffffffffff82147fffffffffffffffffffffffffffffffffffffffffffffffffff800000000000008214166118825781810560020b915f821291826118af575b5050611834575b60020b905f82121561182e57815f03915b620d89e883116117d05760018316156117a75770ffffffffffffffffffffffffffffffffff6ffffcb933bd6fad37aa2d162d1a5940015b16926002811661178b575b6004811661176f575b60088116611753575b60108116611737575b6020811661171b575b604081166116ff575b608081166116e3575b61010081166116c7575b61020081166116ab575b610400811661168f575b6108008116611673575b6110008116611657575b612000811661163b575b614000811661161f575b6180008116611603575b6201000081166115e7575b6202000081166115cc575b6204000081166115b1575b6208000016611598575b5f12611567575b73ffffffffffffffffffffffffffffffffffffffff6103f99263ffffffff8116155f1461155e5760ff5f5b169060201c01166119f0565b60ff6001611552565b8115610ff7577fffffffffffffffffffffffffffffffffffffffffffffffffffffffffffffffff9190910490611527565b6b048a170391f7dc42444e8fa290920260801c91611520565b6d2216e584f5fa1ea926041bedfe9890930260801c92611516565b926e5d6af8dedb81196699c329225ee6040260801c9261150b565b926f09aa508b5b7a84e1c677de54f3e99bc90260801c92611500565b926f31be135f97d08fd981231505542fcfa60260801c926114f5565b926f70d869a156d2a1b890bb3df62baf32f70260801c926114eb565b926fa9f746462d870fdf8a65dc1f90e061e50260801c926114e1565b926fd097f3bdfd2022b8845ad8f792aa58250260801c926114d7565b926fe7159475a2c29b7443b29c7fa6e889d90260801c926114cd565b926ff3392b0822b70005940c7a398e4b70f30260801c926114c3565b926ff987a7253ac413176f2b074cf7815e540260801c926114b9565b926ffcbe86c7900a88aedcffc83b479aa3a40260801c926114af565b926ffe5dee046a99a2a811c461f1969c30530260801c926114a5565b926fff2ea16466c96a3843ec78b326b528610260801c9261149c565b926fff973b41fa98c081472e6896dfb254c00260801c92611493565b926fffcb9843d60f6159c9db58835c9266440260801c9261148a565b926fffe5caca7e10e4e61c3624eaa0941cd00260801c92611481565b926ffff2e50f5f656932ef12357cf3c7fdcc0260801c92611478565b926ffff97272373d413259a46990580e213a0260801c9261146f565b70ffffffffffffffffffffffffffffffffff700100000000000000000000000000000000611464565b60646040517f08c379a000000000000000000000000000000000000000000000000000000000815260206004820152600160248201527f54000000000000000000000000000000000000000000000000000000000000006044820152fd5b8161142d565b7fffffffffffffffffffffffffffffffffffffffffffffffffffffffffff8000008114611882577fffffffffffffffffffffffffffffffffffffffffffffffffffffffffffffffff0161141c565b7f4e487b71000000000000000000000000000000000000000000000000000000005f52601160045260245ffd5b0760060b151590505f80611415565b9091503d805f833e6118d081836102b1565b810160408282031261016f57815167ffffffffffffffff811161016f5782019181601f8401121561016f578251611906816110c9565b9361191460405195866102b1565b81855260208086019260051b8201019084821161016f57602001915b8183106119b75750505060208101519067ffffffffffffffff821161016f570181601f8201121561016f5780519060208061196a846110c9565b61197760405191826102b1565b848152019260051b82010192831161016f57602001905b82821061199f57505050905f61131e565b602080916119ac84611024565b81520191019061198e565b82518060060b810361016f57815260209283019201611930565b825163ffffffff16845285945060209384019390920191600101611303565b9015611a525773ffffffffffffffffffffffffffffffffffffffff168015610ff7578078ffffffffffffffffffffffffffffffffffffffffffffffffff6103f99278010000000000000000000000000000000000000000000000000416611c7e565b73ffffffffffffffffffffffffffffffffffffffff6103f9911680611bfd565b9190820391821161188257565b9173ffffffffffffffffffffffffffffffffffffffff62ffffff925f60408051611aa881610295565b828152826020820152015281811682861611611adf575b8160405195611acd87610295565b16855216602084015216604082015290565b93611abf565b73ffffffffffffffffffffffffffffffffffffffff82511673ffffffffffffffffffffffffffffffffffffffff6020840151168082101561016f5762ffffff604073ffffffffffffffffffffffffffffffffffffffff9501511660405191602083019384526040830152606082015260608152611b636080826102b1565b519020604051907fffffffffffffffffffffffffffffffffffffffff00000000000000000000000060208301937fff00000000000000000000000000000000000000000000000000000000000000855260601b16602183015260358201527fe34f199b19b2b4f47f68442619d555527d244f78a3297ea89325f843f87b8b54605582015260558152611bf66075826102b1565b5190201690565b5f917fffffffffffffffffffffffffffffffffffffffffffffffffffffffffffffffff8183099181810293848085109403938085039414611c7457836c010000000000000000000000001115611c715750906c01000000000000000000000000910990828211900360a01b910360601c1790565b80fd5b5050505060601c90565b7fffffffffffffffffffffffffffffffffffffffffffffffffffffffffffffffff6c010000000000000000000000008209918160601b91828085109403938085039414611d2f578382111561016f576c0100000000000000000000000082910981805f03168092046002816003021880820260020302808202600203028082026002030280820260020302808202600203028091026002030293600183805f03040190848311900302920304170290565b508092501561016f570490565b5f919082918260405173ffffffffffffffffffffffffffffffffffffffff60208201937f095ea7b300000000000000000000000000000000000000000000000000000000855216602482015281604482015260448152611d9d6064826102b1565b51925af13d15611e9a573d67ffffffffffffffff81116101735760405190611ded60207fffffffffffffffffffffffffffffffffffffffffffffffffffffffffffffffe0601f84011601836102b1565b81523d5f602083013e5b81611e63575b5015611e0557565b60646040517f08c379a000000000000000000000000000000000000000000000000000000000815260206004820152600260248201527f53410000000000000000000000000000000000000000000000000000000000006044820152fd5b8051801592508215611e78575b50505f611dfd565b819250906020918101031261016f576020611e939101611054565b5f80611e70565b6060611df7565b5f92918380936040519073ffffffffffffffffffffffffffffffffffffffff60208301947f095ea7b3000000000000000000000000000000000000000000000000000000008652166024830152604482015260448152611d9d6064826102b1565b80611f0c57505f90565b906003821115611f5157600182018083116118825760011c825b838210611f31575050565b909250828015610ff7578082049081018091116118825760011c90611f26565b6001915056fea26469706673582212205159f5ef68263ae2770a6839658d939f75099d1e9cacfac9cf8ae0d5de6ee9b564736f6c634300081c003360e03461011057601f61565a38819003918201601f19168301916001600160401b0383118484101761011457808492606094604052833981010312610110578051906001600160a01b0382168203610110576020810151906001600160a01b038216820361011057604001516001600160a01b03811692908390036101105760015f5560a05260805260c052604051615531908161012982396080518181816104020152818161060701528181611937015281816132c30152818161420001526142d1015260a0518181816106680152818161150f015281816117f8015281816122d001528181612c0c01528181612d1f0152613324015260c0518181816101c5015281816103180152610bf00152f35b5f80fd5b634e487b7160e01b5f52604160045260245ffdfe60806040526004361015610011575f80fd5b5f5f3560e01c806316ddc0731461320a578063205c28781461314c5780632800c78f1461308c57806354fd4d501461305357806358b72a091461301a5780636e98833d146112c057806377bad6b514610e0a5780638489f9bf14610d355780638f46487614610cd2578063a449d03014610c14578063ac210cc714610ba6578063b39f436214610542578063c3b35a7e14610426578063d0fb0203146103b8578063de0e9a3e146102a6578063e78f84e714610260578063ea598cb0146101525763eaa3aa72146100e0575f80fd5b3461014f5760c07ffffffffffffffffffffffffffffffffffffffffffffffffffffffffffffffffc36011261014f576004359067ffffffffffffffff821161014f5760406101436101343660048601613b66565b61013d36613ad5565b90614017565b82519182526020820152f35b80fd5b503461014f5760207ffffffffffffffffffffffffffffffffffffffffffffffffffffffffffffffffc36011261014f576101a573ffffffffffffffffffffffffffffffffffffffff600254163314613be5565b6101ad614061565b8073ffffffffffffffffffffffffffffffffffffffff7f0000000000000000000000000000000000000000000000000000000000000000166101f0811515613f84565b803b1561025d5781600491604051928380927fd0e30db00000000000000000000000000000000000000000000000000000000082528235905af180156102525761023d575b506001905580f35b816102479161370d565b61014f57805f610235565b6040513d84823e3d90fd5b50fd5b503461014f57807ffffffffffffffffffffffffffffffffffffffffffffffffffffffffffffffffc36011261014f57602067ffffffffffffffff60045416604051908152f35b50346103b45760207ffffffffffffffffffffffffffffffffffffffffffffffffffffffffffffffffc3601126103b4576102f973ffffffffffffffffffffffffffffffffffffffff600254163314613be5565b610301614061565b73ffffffffffffffffffffffffffffffffffffffff7f000000000000000000000000000000000000000000000000000000000000000016610343811515613f84565b803b156103b4575f80916024604051809481937f2e1a7d4d00000000000000000000000000000000000000000000000000000000835260043560048401525af180156103a957610396575b506001815580f35b6103a291505f9061370d565b5f5f61038e565b6040513d5f823e3d90fd5b5f80fd5b346103b4575f7ffffffffffffffffffffffffffffffffffffffffffffffffffffffffffffffffc3601126103b457602060405173ffffffffffffffffffffffffffffffffffffffff7f0000000000000000000000000000000000000000000000000000000000000000168152f35b346103b45760607ffffffffffffffffffffffffffffffffffffffffffffffffffffffffffffffffc3601126103b45760043573ffffffffffffffffffffffffffffffffffffffff81168091036103b45760243573ffffffffffffffffffffffffffffffffffffffff81168091036103b4575f9160446020926104c173ffffffffffffffffffffffffffffffffffffffff600254163314613be5565b6104c9614061565b60405194859384927fa9059cbb0000000000000000000000000000000000000000000000000000000084526004840152833560248401525af180156103a957610513575b60015f55005b6105349060203d60201161053b575b61052c818361370d565b81019061441f565b508061050d565b503d610522565b60407ffffffffffffffffffffffffffffffffffffffffffffffffffffffffffffffffc3601126103b45760043567ffffffffffffffff81116103b45761058c903690600401613b66565b60243560038110156103b4576105bb73ffffffffffffffffffffffffffffffffffffffff600254163314613be5565b6105c3614061565b604051917f9af1d35a00000000000000000000000000000000000000000000000000000000835260a08360048173ffffffffffffffffffffffffffffffffffffffff7f0000000000000000000000000000000000000000000000000000000000000000165afa9283156103a9575f93610b75575b506106428382614017565b939092610650858533614142565b60ff608067ffffffffffffffff6004541693015116947f00000000000000000000000000000000000000000000000000000000000000009361069560ff8251106144e1565b67ffffffffffffffff6004546106b56106ae8451614119565b82106144e1565b1692806109c2575067ffffffffffffffff935b5f5b825160ff82169081101561097f576106e29084613ff6565b51906106f16040830151614546565b6002811015610952576001036108f45787878b610100850167ffffffffffffffff81511667ffffffffffffffff8103610776575b505090610737929160ff956003614978565b501660ff8114610749576001016106ca565b7f4e487b71000000000000000000000000000000000000000000000000000000005f52601160045260245ffd5b91509250610785915088615406565b9067ffffffffffffffff82168091526004541115610896576107a8906004613d3b565b5073ffffffffffffffffffffffffffffffffffffffff60208401511673ffffffffffffffffffffffffffffffffffffffff825416149081610887575b8161087a575b8161085e575b50156108005787878b8d80610725565b60646040517f08c379a000000000000000000000000000000000000000000000000000000000815260206004820152600360248201527f434f5300000000000000000000000000000000000000000000000000000000006044820152fd5b67ffffffffffffffff915060058291015460181c16148b6107f0565b60038101541591506107ea565b600581015460ff1691506107e4565b60646040517f08c379a000000000000000000000000000000000000000000000000000000000815260206004820152600360248201527f434f4900000000000000000000000000000000000000000000000000000000006044820152fd5b60646040517f08c379a000000000000000000000000000000000000000000000000000000000815260206004820152600260248201527f55520000000000000000000000000000000000000000000000000000000000006044820152fd5b7f4e487b71000000000000000000000000000000000000000000000000000000005f52602160045260245ffd5b827fb8d5128cd9cda2db9057d427ff64975ed6b7fd2fab0d755f0800cf41df96683560608b8860ff8951169160405192835260208301526040820152a260015f55005b935f600186148015610b69575b15610b0b5760055467ffffffffffffffff81169660ff85511690604051936060850185811067ffffffffffffffff821117610ade5760405261095257835260208301918783526040840191825268010000000000000000811015610ade57806001610a3f92016005556005614437565b939093610ab25751916003831015610952578354905191517fffffffffffffffffffffffffffffffffffffffffffff000000000000000000009190911660ff939093169290921760089190911b68ffffffffffffffff00161760489190911b69ff000000000000000000161790556106c8565b7f4e487b71000000000000000000000000000000000000000000000000000000005f525f60045260245ffd5b7f4e487b71000000000000000000000000000000000000000000000000000000005f52604160045260245ffd5b60646040517f08c379a000000000000000000000000000000000000000000000000000000000815260206004820152600460248201527f4f434f4d000000000000000000000000000000000000000000000000000000006044820152fd5b50505f600286146109cf565b610b9891935060a03d60a011610b9f575b610b90818361370d565b810190613c58565b9183610637565b503d610b86565b346103b4575f7ffffffffffffffffffffffffffffffffffffffffffffffffffffffffffffffffc3601126103b457602060405173ffffffffffffffffffffffffffffffffffffffff7f0000000000000000000000000000000000000000000000000000000000000000168152f35b346103b45760207ffffffffffffffffffffffffffffffffffffffffffffffffffffffffffffffffc3601126103b457610c4b6137af565b60045467ffffffffffffffff82161015610c7457610c6a6020916144a2565b6040519015158152f35b60646040517f08c379a000000000000000000000000000000000000000000000000000000000815260206004820152600260248201527f4f490000000000000000000000000000000000000000000000000000000000006044820152fd5b346103b45760c07ffffffffffffffffffffffffffffffffffffffffffffffffffffffffffffffffc3601126103b45760043567ffffffffffffffff81116103b457610143610d266040923690600401613834565b610d2f36613ad5565b9061444c565b346103b45760207ffffffffffffffffffffffffffffffffffffffffffffffffffffffffffffffffc3601126103b4577f74a075ee230588b5c76ea493a6d21b086384f29139b7227b9c6329e66106dc486020610d8f6137af565b610db273ffffffffffffffffffffffffffffffffffffffff600254163314613be5565b610dba614061565b6007610dc7826004613d3b565b50016101007fffffffffffffffffffffffffffffffffffffffffffffffffffffffffffff00ff82541617905567ffffffffffffffff60405191168152a160015f55005b346103b45760207ffffffffffffffffffffffffffffffffffffffffffffffffffffffffffffffffc3601126103b457610e8f610e446137af565b6060610100604051610e558161369b565b610e5d613cc1565b81525f60208201525f60408201525f838201525f60808201525f60a08201525f60c08201525f60e08201520152613d1f565b50604051610e9c8161369b565b610ea582613d84565b81526007820154602082019060ff81168252604083019360ff8260081c1615158552606084019163ffffffff8160101c168352608085019067ffffffffffffffff8160301c16825267ffffffffffffffff60a087019160701c16815260088301549160c08701928352600a60098501549460e089019586520194855495610f2b876137c6565b96610f39604051988961370d565b80885260208801915f5260205f20915f905b8282106112515750505050610100880195865260405198899860208a52519761012060208b01526101206102a08b019973ffffffffffffffffffffffffffffffffffffffff8151166101408d015273ffffffffffffffffffffffffffffffffffffffff6020820151166101608d015262ffffff60208d610fd5610180604086015192018251613ac8565b0151166101a08d015260608101516101c08d015260808101516101e08d015260a081015115156102008d015260c081015115156102208d015260e081015115156102408d015267ffffffffffffffff610100820151166102608d01520151986101606102808c0152895180915260206102c08c019a01905f5b81811061112c575050905160ff1660408b01525051151560608901525163ffffffff1660808801525167ffffffffffffffff90811660a088015290511660c08601525160e085015251610100840152518282037fffffffffffffffffffffffffffffffffffffffffffffffffffffffffffffffe0016101208401528051808352602092830192909101905f5b8181106110e8575050500390f35b919350916020608060019263ffffffff60608851805184528286820151168685015282604082015116604085015201511660608201520194019101918493926110da565b919b50919293949596979899602061022060019261123b8f6101c0905161ffff81511684528581015115158685015260408101511515604085015260608101511515606085015260808101511515608085015260a0810151151560a085015260c0810151151560c085015260e0810151151560e0850152610100810151151561010085015261ffff6101208201511661012085015262ffffff6101408201511661014085015263ffffffff6101608201511661016085015263ffffffff6101808201511661018085015261121c6101a08201516101a086019063ffffffff60208092828151168552015116910152565b01516101e083019063ffffffff60208092828151168552015116910152565b019c019101918c9b9a999897969594939261104e565b60409c9495969798999a9b9c516080810181811067ffffffffffffffff821117610ade576001926002926020926040528754815263ffffffff85890154818116858401528181861c16604084015260401c1660608201528152019401910190929b9a999897969594939b610f4b565b346103b45760607ffffffffffffffffffffffffffffffffffffffffffffffffffffffffffffffffc3601126103b4576112f76137af565b6024359060ff821682036103b45760207fffffffffffffffffffffffffffffffffffffffffffffffffffffffffffffffbc3601126103b4576040516020810181811067ffffffffffffffff821117610ade576040526044359052611359614061565b6040517f8da5cb5b000000000000000000000000000000000000000000000000000000008152602081600481305afa9081156103a9575f91612fcb575b506113a082613d1f565b50916113ab816144a2565b612f6d57600683018054851015611b25575f5260205f206113cf85600a86016143bd565b509060405191610100830183811067ffffffffffffffff821117610ade576040525f83525f60208401525f60408401525f60608401525f60808401525f60a08401525f60c08401525f60e0840152600181015463ffffffff8160401c16421015612f0f5763ffffffff8160201c164210612eb15763ffffffff164210612e53576003870282015460ff8160301c1680612e3b575b15612a18576114f690600288015473ffffffffffffffffffffffffffffffffffffffff89541673ffffffffffffffffffffffffffffffffffffffff60018b015416602060ff60058d015460101c16809460405197889283927f5b1b3179000000000000000000000000000000000000000000000000000000008452868860ff62ffffff8460081c169316600487016143d6565b038173ffffffffffffffffffffffffffffffffffffffff7f0000000000000000000000000000000000000000000000000000000000000000165afa9485156103a9578c905f966129de575b5063ffffffff6001600361155a93028a0101541661471c565b92151591111461299957806c01000000000000000000000000016c0100000000000000000000000011610749576115ed926115a4916c0100000000000000000000000001906148fa565b60208601525b61ffff6003890154916115d2826115c381841686614098565b048060808a0152865490614135565b60c088015260501c168061296a575b50600988015490614135565b8060e08501528060c08501511161295f575b5060c0830151966004870154809810612901578660058101549660ff8860081c165f146128fa575b73ffffffffffffffffffffffffffffffffffffffff600183015416809867ffffffffffffffff808260181c16145f1461285f575f9384939260ff62ffffff93869f5b8c73ffffffffffffffffffffffffffffffffffffffff80600288015497541698602060c0840151930151966040519a6116a18c61367e565b6116ad888b168d613d54565b60208c015260408b0152166060890152608088015260a0870152818116151560c087015260101c16151560e085015261010084015260081c1661012082015260405162ffffff61012060208301937f802b95df00000000000000000000000000000000000000000000000000000000855261172c602485018251613ac8565b73ffffffffffffffffffffffffffffffffffffffff602082015116604485015273ffffffffffffffffffffffffffffffffffffffff604082015116606485015273ffffffffffffffffffffffffffffffffffffffff6060820151166084850152608081015160a485015260a081015160c485015260c0810151151560e485015260e0810151151561010485015261010081015161012485015201511661014482015261014481526117df6101648261370d565b519073ffffffffffffffffffffffffffffffffffffffff7f0000000000000000000000000000000000000000000000000000000000000000165af4923d15612857573d9367ffffffffffffffff8511610ade576040519461186860207fffffffffffffffffffffffffffffffffffffffffffffffffffffffffffffffe0601f840116018761370d565b85523d5f602087013e5b15612849576040848051810103126103b457604060208501519401519380604087015260ff60058a0154165f1461283f576118b8905b8060c088015260098a015461400a565b60098901556118cc60c0860151845461400a565b835560a08501516127a1575b50614e206118ed60ff60078a01541685614098565b046060850152604051907fea43b36b00000000000000000000000000000000000000000000000000000000825260208260048173ffffffffffffffffffffffffffffffffffffffff7f0000000000000000000000000000000000000000000000000000000000000000165afa9182156103a9575f92612770575b50606085015173ffffffffffffffffffffffffffffffffffffffff604051937fa9059cbb00000000000000000000000000000000000000000000000000000000855216600484015260248301526020826044815f8b5af19081156103a9577f234549737f22f93fc832ad92234b4a16c08b5e5f40bfb872ec6540904522fc549460809467ffffffffffffffff9460ff94612753575b5063ffffffff6001606060408b01519a0151920154169160405198895260208901526040880152606087015216941692a3600582015467ffffffffffffffff8160181c169367ffffffffffffffff8503611b52575b50505067ffffffffffffffff915080611a7560036007930154600983015490614135565b60048201541115611aac57015460301c1667ffffffffffffffff8103611a9d575b5060015f55005b611aa690615327565b80611a96565b015460301c1667ffffffffffffffff81141580611ade575b611acf575b5061050d565b611ad890615327565b80611ac9565b50600554811015611b255760055f527f036b6384b5eca791c62761152d0c79bb0604c104a5fb6f4eb0703f3154bb3db081015460ff16600381101561095257600114611ac4565b7f4e487b71000000000000000000000000000000000000000000000000000000005f52603260045260245ffd5b6020611b6b611b65602494969597613d1f565b50613d84565b95604051938480927f70a082310000000000000000000000000000000000000000000000000000000082523060048301525afa80156103a9575f9061271f575b611bb59250614135565b606084015260ff600782015416916004549067ffffffffffffffff82169168010000000000000000811015610ade57806001611bf692016004556004613d3b565b5050611c03826004613d3b565b509373ffffffffffffffffffffffffffffffffffffffff80875116167fffffffffffffffffffffffff000000000000000000000000000000000000000086541617855573ffffffffffffffffffffffffffffffffffffffff60208701511673ffffffffffffffffffffffffffffffffffffffff6001870191167fffffffffffffffffffffffff000000000000000000000000000000000000000082541617905560408601518051906002821015610952577fffffffffffffffffffffffffffffffffffffffffffffffffffffffff0000000060ff63ffffff00602060028b015494015160081b16931691161717600286015560608601516003860155608086015160048601556005850160a0870151151560ff7fffffffffffffffffffffffffffffffffffffffffffffffffffffffffffffff008354169116178155611d7f60c0880151151582907fffffffffffffffffffffffffffffffffffffffffffffffffffffffffffff00ff61ff00835492151560081b169116179055565b60e087015181547fffffffffffffffffffffffffffffffffffffffffffffffffffffffffff00ffff1690151560101b62ff0000161781556101008701517fffffffffffffffffffffffffffffffffffffffffff0000000000000000ffffff6affffffffffffffff00000083549260181b1691161790556006850161012087015190815191680100000000000000008311610ade5781548383558084106126d1575b50602001905f5260205f205f915b83831061235d575050505060ff603262ffffff602060408a01510151160416908082105f1461235657505b7fffffffffffffffffffff0000000000000000ffffffffffffffffffffffffffff6dffffffffffffffff00000000000060078701937fffffffffffffffffffffffffffffffffffff000000000000000000000000ff0060ff75ffffffffffffffff0000000000000000000000000000807fffffffffffffffffffffffffffffffffffff000000000000000000000000000089549560581b161616951691161765ffffffff00004260101b161717161790555f915f5b61012086015180518210156121cf5781611f2791613ff6565b516060810151158015906121c2575b61216457600a86015468010000000000000000811015610ade57806001611f669201600a890155600a88016143bd565b5050611f7582600a88016143bd565b5060208201511561214d57611fde6001611fa063ffffffff6101608601511663ffffffff42166154e1565b925b019182907fffffffffffffffffffffffffffffffffffffffffffffffff00000000ffffffff67ffffffff0000000083549260201b169116179055565b60408201511561213a5763ffffffff8061200181610180860151168242166154e1565b7fffffffffffffffffffffffffffffffffffffffff00000000ffffffffffffffff6bffffffff000000000000000085549260401b1691161780845560201c16167fffffffffffffffffffffffffffffffffffffffffffffffffffffffff0000000082541617905560c08101511580159061212d575b612124575b60a0810151159081156120f5575b501561209757600101611f0e565b60646040517f08c379a000000000000000000000000000000000000000000000000000000000815260206004820152600360248201527f4e534c00000000000000000000000000000000000000000000000000000000006044820152fd5b6101a001515163ffffffff81161515915081612114575b501587612089565b638000000091501615158761210c565b6001945061207b565b5060e08101511515612076565b63ffffffff808061018085015116612001565b611fde600163ffffffff6101608501511692611fa2565b60646040517f08c379a000000000000000000000000000000000000000000000000000000000815260206004820152600260248201527f4e490000000000000000000000000000000000000000000000000000000000006044820152fd5b5060808101511515611f36565b505092909391612228575b505060079067ffffffffffffffff927fb8d5128cd9cda2db9057d427ff64975ed6b7fd2fab0d755f0800cf41df9668356060604051600181525f60208201525f6040820152a2908380611a51565b60206122376040840151614546565b73ffffffffffffffffffffffffffffffffffffffff845116906122b773ffffffffffffffffffffffffffffffffffffffff84870151169560e062ffffff86604084015101511691015115159060405197889586957f5b1b3179000000000000000000000000000000000000000000000000000000008752600487016143d6565b038173ffffffffffffffffffffffffffffffffffffffff7f0000000000000000000000000000000000000000000000000000000000000000165afa9182156103a9575f92612314575b50600801558067ffffffffffffffff6121da565b929150926020833d60201161234e575b816123316020938361370d565b810103126103b4579151919290919067ffffffffffffffff612300565b3d9150612324565b9050611e59565b805180518354602083015162ff000090151560101b1661ffff9092167fffffffffffffffffffffffffffffffffffffffffffffffffffffffffff000000909116171783556040810151151583546060830151151560201b64ff00000000166080840151151560281b60a0850151151560301b60c0860151151560381b60e0870151151560401b90610100880151151560481b9261012089015160501b6bffff0000000000000000000016946101408a015160601b6effffff00000000000000000000000016966101608b015160781b72ffffffff00000000000000000000000000000016986101808c015160981b76ffffffff00000000000000000000000000000000000000169a60181b63ff00000016907fffffffffffffffffffffffffffffffffffffffffffffffffffff000000ffffff16177fffffffffffffffffffffffffffffffffffffffffffffffffff00ffffffffffff16177fffffffffffffffffffffffffffffffffffffffffffffffff00ffffffffffffff169065ff000000000016177fffffffffffffffffffffffffffffffffffffffffffffff00ffffffffffffffff169066ff00000000000016177fffffffffffffffffffffffffffffffffffffffffffff00ffffffffffffffffff169067ff0000000000000016177fffffffffffffffffffffffffffffffffffffffff0000ffffffffffffffffffff169068ff000000000000000016177fffffffffffffffffffffffffffffffffff000000ffffffffffffffffffffffff169069ff00000000000000000016177fffffffffffffffffffffffffff00000000ffffffffffffffffffffffffffffff16177fffffffffffffffffff00000000ffffffffffffffffffffffffffffffffffffff161717178355600183016101a0820151805163ffffffff1663ffffffff1682547fffffffffffffffffffffffffffffffffffffffffffffffffffffffff00000000161782556020015163ffffffff1661266b91907fffffffffffffffffffffffffffffffffffffffffffffffff00000000ffffffff67ffffffff0000000083549260201b169116179055565b6101c0015180516002840180546020938401517fffffffffffffffffffffffffffffffffffffffffffffffff000000000000000090911663ffffffff909316929092179190921b67ffffffff000000001617905560200190600301916001019190611e2e565b80600302906003820403610749578360030260038104850361074957835f5260205f2091820191015b8181106127075750611e20565b805f600392555f60018201555f6002820155016126fa565b506020823d60201161274b575b816127396020938361370d565b810103126103b457611bb59151611bab565b3d915061272c565b61276b9060203d60201161053b5761052c818361370d565b6119fc565b61279391925060203d60201161279a575b61278b818361370d565b8101906140ed565b9089611967565b503d612781565b6127bf9062ffffff60c08701519160038502015460601c1690614098565b60a08501518015612812576127dd63ffffffff92918392044261400a565b16167fffffffffffffffffffffffffffffffffffffffffffffffffffffffff00000000600184015416176001830155886118d8565b7f4e487b71000000000000000000000000000000000000000000000000000000005f52601260045260245ffd5b506118b8846118a8565b83518481156103b457602001fd5b606093611872565b9250506040517f70a082310000000000000000000000000000000000000000000000000000000081523060048201526020816024818c5afa9081156103a9578a918a915f916128bd575b509162ffffff9160ff5f968796959f611669565b93925050506020823d6020116128f2575b816128db6020938361370d565b810103126103b45790518990899062ffffff6128a9565b3d91506128ce565b5030611627565b60646040517f08c379a000000000000000000000000000000000000000000000000000000000815260206004820152600260248201527f54460000000000000000000000000000000000000000000000000000000000006044820152fd5b60c0840152876115ff565b61297b61ffff916080880151614098565b048060a08701528060c087015111156115e15760c0860152896115e1565b806c01000000000000000000000000016c0100000000000000000000000011610749576115ed926129d9916c01000000000000000000000000019061483c565b6115a4565b9550506020853d602011612a10575b816129fa6020938361370d565b810103126103b4579351938b63ffffffff611541565b3d91506129ed565b5f8452600160038902840101612a2d81614602565b612c76575b50612a44600260038a02850101614602565b612a52575b6115ed906115aa565b835115612b69575b60ff8160401c165f14612b5257612a8c63ffffffff600789015460101c16600889015490600260038c0287010161469a565b905b81855111612af4576115ed9173ffffffffffffffffffffffffffffffffffffffff89541673ffffffffffffffffffffffffffffffffffffffff60018b0154161060ff60058b015460101c16151503612ae9575b509050612a49565b602086015289612ae1565b60646040517f08c379a000000000000000000000000000000000000000000000000000000000815260206004820152600260248201527f4c550000000000000000000000000000000000000000000000000000000000006044820152fd5b612b63600260038a02850101614627565b90612a8e565b6002870154602073ffffffffffffffffffffffffffffffffffffffff89541673ffffffffffffffffffffffffffffffffffffffff60018b01541690612bf360ff60058d015460101c1660405195869485947f0f82d67500000000000000000000000000000000000000000000000000000000865260ff62ffffff8460081c169316600487016143d6565b038173ffffffffffffffffffffffffffffffffffffffff7f0000000000000000000000000000000000000000000000000000000000000000165afa9081156103a9575f91612c44575b508452612a5a565b90506020813d602011612c6e575b81612c5f6020938361370d565b810103126103b4575189612c3c565b3d9150612c52565b6002880154908873ffffffffffffffffffffffffffffffffffffffff81541691612d06602060ff600573ffffffffffffffffffffffffffffffffffffffff60018701541695015460101c16809660405193849283927f0f82d675000000000000000000000000000000000000000000000000000000008452888a60ff62ffffff8460081c169316600487016143d6565b038173ffffffffffffffffffffffffffffffffffffffff7f0000000000000000000000000000000000000000000000000000000000000000165afa9081156103a9575f91612e09575b50885260ff8560381c165f14612dfa57612d7c9063ffffffff60078d015460101c1660088d01549161469a565b925b8388511115612d9c57151591100315612a3257602085015288612a32565b60646040517f08c379a000000000000000000000000000000000000000000000000000000000815260206004820152600260248201527f4c4c0000000000000000000000000000000000000000000000000000000000006044820152fd5b612e0390614627565b92612d7e565b90506020813d602011612e33575b81612e246020938361370d565b810103126103b457518d612d4f565b3d9150612e17565b5063ffffffff600160038a0285010154161515611463565b60646040517f08c379a000000000000000000000000000000000000000000000000000000000815260206004820152600260248201527f524c0000000000000000000000000000000000000000000000000000000000006044820152fd5b60646040517f08c379a000000000000000000000000000000000000000000000000000000000815260206004820152600260248201527f54450000000000000000000000000000000000000000000000000000000000006044820152fd5b60646040517f08c379a000000000000000000000000000000000000000000000000000000000815260206004820152600260248201527f544c0000000000000000000000000000000000000000000000000000000000006044820152fd5b60646040517f08c379a000000000000000000000000000000000000000000000000000000000815260206004820152600260248201527f4e4f0000000000000000000000000000000000000000000000000000000000006044820152fd5b90506020813d602011613012575b81612fe66020938361370d565b810103126103b4575173ffffffffffffffffffffffffffffffffffffffff811681036103b45783611396565b3d9150612fd9565b346103b45760207ffffffffffffffffffffffffffffffffffffffffffffffffffffffffffffffffc3601126103b45761305161374e565b005b346103b4575f7ffffffffffffffffffffffffffffffffffffffffffffffffffffffffffffffffc3601126103b457602060405160018152f35b346103b4575f7ffffffffffffffffffffffffffffffffffffffffffffffffffffffffffffffffc3601126103b4576130dd73ffffffffffffffffffffffffffffffffffffffff600254163314613be5565b6130e5614061565b7fce65bc44c9caad3bb118ec247275ee69b1ce0e86e3099162ad165bbb3eb3238b602067ffffffffffffffff60045416807fffffffffffffffffffffffffffffffffffffffffffffffff00000000000000006003541617600355604051908152a160015f55005b346103b45760407ffffffffffffffffffffffffffffffffffffffffffffffffffffffffffffffffc3601126103b45760043573ffffffffffffffffffffffffffffffffffffffff81168091036103b4575f8080806024356131c673ffffffffffffffffffffffffffffffffffffffff600254163314613be5565b85828215613201575bf1156103a9577f7fcf532c15f0a6db0bd6d0e038bea71d30d808c7d98cb3bf7268a95bf5081b6560206040515f8152a2005b506108fc6131cf565b60207ffffffffffffffffffffffffffffffffffffffffffffffffffffffffffffffffc3601126103b45760043567ffffffffffffffff81116103b457613254903690600401613834565b61327773ffffffffffffffffffffffffffffffffffffffff600254163314613be5565b61327f614061565b604051907f9af1d35a00000000000000000000000000000000000000000000000000000000825260a08260048173ffffffffffffffffffffffffffffffffffffffff7f0000000000000000000000000000000000000000000000000000000000000000165afa9182156103a9575f9261365d575b506132fe82826140ab565b92909161330c848433614142565b60ff608067ffffffffffffffff6004541693015116907f000000000000000000000000000000000000000000000000000000000000000094604090815192613354838561370d565b600184527fffffffffffffffffffffffffffffffffffffffffffffffffffffffffffffffe083015f5b81811061364657505061338f84613fe9565b5261339983613fe9565b506133a760ff8451106144e1565b67ffffffffffffffff6004546133c06106ae8651614119565b169267ffffffffffffffff955f5b825160ff821690811015613609576133e69084613ff6565b516133f386820151614546565b6002811015610952576001036135ac578888826101008e94018381511684810361343d575b50509160ff94939161342b936003614978565b501660ff8114610749576001016133ce565b919450925061344d915089615406565b908a8216809152600454111561354f57613468906004613d3b565b508973ffffffffffffffffffffffffffffffffffffffff60208401511673ffffffffffffffffffffffffffffffffffffffff835416149182613540575b82613533575b82613520575b5050156134c35788888c928e80613418565b606486517f08c379a000000000000000000000000000000000000000000000000000000000815260206004820152600360248201527f434f5300000000000000000000000000000000000000000000000000000000006044820152fd5b8192506005015460181c1614898d6134b1565b60038101541592506134ab565b600581015460ff1692506134a5565b606487517f08c379a000000000000000000000000000000000000000000000000000000000815260206004820152600360248201527f434f4900000000000000000000000000000000000000000000000000000000006044820152fd5b606486517f08c379a000000000000000000000000000000000000000000000000000000000815260206004820152600260248201527f55520000000000000000000000000000000000000000000000000000000000006044820152fd5b827fb8d5128cd9cda2db9057d427ff64975ed6b7fd2fab0d755f0800cf41df96683560608c888a805192600184526020840152820152a260015f55005b602090613651613cc1565b8282890101520161337d565b61367791925060a03d60a011610b9f57610b90818361370d565b90826132f3565b610140810190811067ffffffffffffffff821117610ade57604052565b610120810190811067ffffffffffffffff821117610ade57604052565b6040810190811067ffffffffffffffff821117610ade57604052565b6101e0810190811067ffffffffffffffff821117610ade57604052565b60a0810190811067ffffffffffffffff821117610ade57604052565b90601f7fffffffffffffffffffffffffffffffffffffffffffffffffffffffffffffffe0910116810190811067ffffffffffffffff821117610ade57604052565b6004359073ffffffffffffffffffffffffffffffffffffffff821682036103b457565b359073ffffffffffffffffffffffffffffffffffffffff821682036103b457565b359062ffffff821682036103b457565b359081151582036103b457565b6004359067ffffffffffffffff821682036103b457565b67ffffffffffffffff8111610ade5760051b60200190565b359061ffff821682036103b457565b359063ffffffff821682036103b457565b91908260409103126103b457604051613816816136b8565b602061382f818395613827816137ed565b8552016137ed565b910152565b91908281039261016084126103b457604051906138508261367e565b60407fffffffffffffffffffffffffffffffffffffffffffffffffffffffffffffffc0839661387e84613771565b855261388c60208501613771565b602086015201126103b4576040516138a3816136b8565b604082013560028110156103b45781526138bf60608301613792565b602082015260408301526080810135606083015260a081013560808301526138e960c082016137a2565b60a08301526138fa60e082016137a2565b60c083015261390c61010082016137a2565b60e083015261012081013567ffffffffffffffff811681036103b4576101008301526101408101359067ffffffffffffffff82116103b4570182601f820112156103b45780359061395c826137c6565b9361396a604051958661370d565b82855260206102208187019402830101918183116103b457602001925b82841061399957505050506101200152565b610220848303126103b4576020610220916040516139b6816136d4565b6139bf876137de565b81526139cc8388016137a2565b838201526139dc604088016137a2565b60408201526139ed606088016137a2565b60608201526139fe608088016137a2565b6080820152613a0f60a088016137a2565b60a0820152613a2060c088016137a2565b60c0820152613a3160e088016137a2565b60e0820152613a4361010088016137a2565b610100820152613a5661012088016137de565b610120820152613a696101408801613792565b610140820152613a7c61016088016137ed565b610160820152613a8f61018088016137ed565b610180820152613aa3856101a089016137fe565b6101a0820152613ab7856101e089016137fe565b6101c0820152815201930192613987565b9060028210156109525752565b7fffffffffffffffffffffffffffffffffffffffffffffffffffffffffffffffdc60a09101126103b45760405190613b0c826136f1565b8160243560ff811681036103b457815260443560ff811681036103b457602082015260643560ff811681036103b457604082015260843560ff811681036103b457606082015260a4359060ff821682036103b45760800152565b9080601f830112156103b4578135613b7d816137c6565b92613b8b604051948561370d565b81845260208085019260051b820101918383116103b45760208201905b838210613bb757505050505090565b813567ffffffffffffffff81116103b457602091613bda87848094880101613834565b815201910190613ba8565b15613bec57565b60646040517f08c379a000000000000000000000000000000000000000000000000000000000815260206004820152600960248201527f6e6f74206f776e657200000000000000000000000000000000000000000000006044820152fd5b519060ff821682036103b457565b908160a09103126103b457613cb9608060405192613c75846136f1565b613c7e81613c4a565b8452613c8c60208201613c4a565b6020850152613c9d60408201613c4a565b6040850152613cae60608201613c4a565b606085015201613c4a565b608082015290565b60405190613cce8261367e565b6060610120835f81525f6020820152604051613ce9816136b8565b5f81525f602082015260408201525f838201525f60808201525f60a08201525f60c08201525f60e08201525f6101008201520152565b600454811015611b255760045f52600b60205f20910201905f90565b8054821015611b25575f52600b60205f20910201905f90565b60028210156109525752565b90604051613d6d816136b8565b602063ffffffff8294548181168452821c16910152565b90604051613d918161367e565b6006819373ffffffffffffffffffffffffffffffffffffffff815416835273ffffffffffffffffffffffffffffffffffffffff6001820154166020840152604051613ddb816136b8565b62ffffff6002830154613df160ff821684613d54565b60081c1660208201526040840152600381015460608401526004810154608084015267ffffffffffffffff600582015460ff8116151560a086015260ff8160081c16151560c086015260ff8160101c16151560e086015260181c1661010084015201908154613e5f816137c6565b92613e6d604051948561370d565b81845260208401905f5260205f205f915b838310613e9057505050506101200152565b60036020600192604051613ea3816136d4565b63ffffffff865461ffff8116835260ff8160101c1615158584015260ff8160181c161515604084015260ff81861c161515606084015260ff8160281c161515608084015260ff8160301c16151560a084015260ff8160381c16151560c084015260ff8160401c16151560e084015260ff8160481c16151561010084015261ffff8160501c1661012084015262ffffff8160601c16610140840152818160781c1661016084015260981c16610180820152613f5e858701613d60565b6101a0820152613f7060028701613d60565b6101c0820152815201920192019190613e7e565b15613f8b57565b60646040517f08c379a000000000000000000000000000000000000000000000000000000000815260206004820152600260248201527f57550000000000000000000000000000000000000000000000000000000000006044820152fd5b805115611b255760200190565b8051821015611b255760209160051b010190565b9190820180921161074957565b5f92918391825b81518410156140595761405060019161404a6140448661403e8988613ff6565b5161444c565b9261400a565b9761400a565b9301929461401e565b949392505050565b60025f54146140705760025f55565b7f3ee5aeb5000000000000000000000000000000000000000000000000000000005f5260045ffd5b8181029291811591840414171561074957565b91906060830151156140e5576140e2906140dc6140c85f95614553565b9160ff606081604084015116920151161b90565b90614098565b90565b505f91508190565b908160209103126103b4575173ffffffffffffffffffffffffffffffffffffffff811681036103b45790565b67ffffffffffffffff039067ffffffffffffffff821161074957565b9190820391821161074957565b9161414d818361400a565b341061435f578115801561428e575b50801580156141bd575b506141709161400a565b34811061417b575050565b5f80809361418a829434614135565b90829082156141b3575b73ffffffffffffffffffffffffffffffffffffffff1690f1156103a957565b6108fc9150614194565b6040517f1db89da100000000000000000000000000000000000000000000000000000000815260208160048173ffffffffffffffffffffffffffffffffffffffff7f0000000000000000000000000000000000000000000000000000000000000000165afa9182156103a9575f848194928294938394849161426f575b508391614265575b73ffffffffffffffffffffffffffffffffffffffff1690f1156103a9575f614166565b6108fc9150614242565b614288915060203d60201161279a5761278b818361370d565b5f61423a565b6040517febd3cdcd00000000000000000000000000000000000000000000000000000000815260208160048173ffffffffffffffffffffffffffffffffffffffff7f0000000000000000000000000000000000000000000000000000000000000000165afa9182156103a9575f8581949282949383948491614340575b508391614336575b73ffffffffffffffffffffffffffffffffffffffff1690f1156103a9575f61415c565b6108fc9150614313565b614359915060203d60201161279a5761278b818361370d565b5f61430b565b60646040517f08c379a000000000000000000000000000000000000000000000000000000000815260206004820152600360248201527f46454500000000000000000000000000000000000000000000000000000000006044820152fd5b8054821015611b25575f5260205f209060011b01905f90565b9373ffffffffffffffffffffffffffffffffffffffff6080948162ffffff949998956144068960a081019c613ac8565b1660208801521660408601521660608401521515910152565b908160209103126103b4575180151581036103b45790565b8054821015611b25575f5260205f2001905f90565b61010081019167ffffffffffffffff80845116146144975761448d611b656144886144939567ffffffffffffffff806004541691511690615406565b613d1f565b91615441565b9091565b9061449392506140ab565b67ffffffffffffffff6003541667ffffffffffffffff8216109081156144c6575090565b60ff91506144d76007916004613d3b565b50015460081c1690565b156144e857565b60646040517f08c379a000000000000000000000000000000000000000000000000000000000815260206004820152600360248201527f544d4f00000000000000000000000000000000000000000000000000000000006044820152fd5b5160028110156109525790565b5f91825b61012083015180518510156145fb576101206145768661ffff93613ff6565b510151168061459a5750600161459061012092829061400a565b9401939050614557565b9061ffff6145ad81848104169384614098565b106145c2575b6145906101209260019261400a565b60018201809211156145b3577f4e487b71000000000000000000000000000000000000000000000000000000005f52601160045260245ffd5b5092509050565b5463ffffffff81161590811591614617575090565b63ffffffff915060201c16151590565b5463ffffffff61463881831661471c565b9160201c16801561465857906146506140e29261471c565b90429161548b565b5090565b81810292915f82127f800000000000000000000000000000000000000000000000000000000000000082141661074957818405149015171561074957565b54909163ffffffff6146bb816146b181861661471c565b9460201c1661471c565b931660030b916146cb838561465c565b915f838203931281841281169082851390151617610749576c01000000000000000000000000916146fb9161465c565b05905f8282019283129112908015821691151617610749576140e29261548b565b637fffffff81161561483757637f800000811660030b60171d60030b60ff81146147d9576380000000627fffff831660030b826147ce5760011b925b166147c3575b7fffffffffffffffffffffffffffffffffffffffffffffffffffffffffffffff810160030b7fffffffffffffffffffffffffffffffffffffffffffffffffffffffffffffffb70360030b5f81125f146147b7575f031b90565b5f811315614658571d90565b5f919091039061475e565b628000001792614758565b60646040517f08c379a000000000000000000000000000000000000000000000000000000000815260206004820152600360248201527f4e614e00000000000000000000000000000000000000000000000000000000006044820152fd5b505f90565b7fffffffffffffffffffffffffffffffffffffffffffffffffffffffffffffffff6c010000000000000000000000008209918160601b918280851094039380850394146148ed57838211156103b4576c0100000000000000000000000082910981805f03168092046002816003021880820260020302808202600203028082026002030280820260020302808202600203028091026002030293600183805f03040190848311900302920304170290565b50809250156103b4570490565b5f917fffffffffffffffffffffffffffffffffffffffffffffffffffffffffffffffff818309918181029384808510940393808503941461496e57836c01000000000000000000000000111561014f5750906c01000000000000000000000000910990828211900360a01b910360601c1790565b5050505060601c90565b929094939193600163ffffffff421694019182549267ffffffffffffffff84169368010000000000000000811015610ade576149c6916149bf826001889401835582613d3b565b5050613d3b565b5073ffffffffffffffffffffffffffffffffffffffff80895116167fffffffffffffffffffffffff0000000000000000000000000000000000000000825416178155602088019773ffffffffffffffffffffffffffffffffffffffff89511673ffffffffffffffffffffffffffffffffffffffff6001840191167fffffffffffffffffffffffff000000000000000000000000000000000000000082541617905560028201604082019081518051906002821015610952577fffffffffffffffffffffffffffffffffffffffffffffffffffffffff0000000060ff63ffffff006020865494015160081b1693169116171790556060820151600384015560808201516004840155600583019360a0830151151560ff7fffffffffffffffffffffffffffffffffffffffffffffffffffffffffffffff008754169116178555614b4460c0840151151586907fffffffffffffffffffffffffffffffffffffffffffffffffffffffffffff00ff61ff00835492151560081b169116179055565b60e08301805186547fffffffffffffffffffffffffffffffffffffffffffffffffffffffffff00ffff1690151560101b62ff000016178655946101008401517fffffffffffffffffffffffffffffffffffffffffff0000000000000000ffffff6affffffffffffffff00000083549260181b169116179055600684019961012084019a8b5190815191680100000000000000008311610ade5781548383558084106152d9575b50602001905f5260205f205f915b838310614f65575050505075ffffffffffffffff00000000000000000000000000009060ff603262ffffff6020875101511604169060ff811682105f14614f5a5750919b9a9b5b6dffffffffffffffff0000000000007fffffffffffffffffffff0000000000000000ffffffffffffffffffffffffffff60078801947fffffffffffffffffffffffffffffffffffff000000000000000000000000ff0060ff875492169116171665ffffffff00004260101b16179160301b16171790555f965f99600a85019a5b8c518051821015614e765781614cd491613ff6565b51606081015115801590614e69575b612164578c5468010000000000000000811015610ade57828e614d0f836001614d1695018355826143bd565b50506143bd565b5060208201518d9015614e51576001611fa0614d3e9263ffffffff61016087015116906154e1565b60408201518d9015614e3d5763ffffffff614d6281928261018087015116906154e1565b7fffffffffffffffffffffffffffffffffffffffff00000000ffffffffffffffff6bffffffff000000000000000085549260401b1691161780845560201c16167fffffffffffffffffffffffffffffffffffffffffffffffffffffffff0000000082541617905560c081015115801590614e30575b614e27575b60a081015115908115614df8575b501561209757600101614cbf565b6101a001515163ffffffff81161515915081614e17575b50155f614dea565b638000000091501615155f614e0f565b60019a50614ddc565b5060e08101511515614dd7565b5063ffffffff808061018085015116614d62565b50614d3e600163ffffffff6101608501511692611fa2565b5060808101511515614ce3565b5050939792969a50939750939750614e91575b505050505050565b73ffffffffffffffffffffffffffffffffffffffff602094614f0262ffffff878480614ebd8a51614546565b955116965116975101511698511515604051998a97889687957f5b1b3179000000000000000000000000000000000000000000000000000000008752600487016143d6565b0392165afa9182156103a9575f92614f25575b50600801555f8080808080614e89565b9091506020813d602011614f52575b81614f416020938361370d565b810103126103b45751906008614f15565b3d9150614f34565b9050919b9a9b614c3f565b805180518354602083015162ff000090151560101b1661ffff9092167fffffffffffffffffffffffffffffffffffffffffffffffffffffffffff000000909116171783556040810151151583546060830151151560201b64ff00000000166080840151151560281b60a0850151151560301b60c0860151151560381b60e0870151151560401b90610100880151151560481b9261012089015160501b6bffff0000000000000000000016946101408a015160601b6effffff00000000000000000000000016966101608b015160781b72ffffffff00000000000000000000000000000016986101808c015160981b76ffffffff00000000000000000000000000000000000000169a60181b63ff00000016907fffffffffffffffffffffffffffffffffffffffffffffffffffff000000ffffff16177fffffffffffffffffffffffffffffffffffffffffffffffffff00ffffffffffff16177fffffffffffffffffffffffffffffffffffffffffffffffff00ffffffffffffff169065ff000000000016177fffffffffffffffffffffffffffffffffffffffffffffff00ffffffffffffffff169066ff00000000000016177fffffffffffffffffffffffffffffffffffffffffffff00ffffffffffffffffff169067ff0000000000000016177fffffffffffffffffffffffffffffffffffffffff0000ffffffffffffffffffff169068ff000000000000000016177fffffffffffffffffffffffffffffffffff000000ffffffffffffffffffffffff169069ff00000000000000000016177fffffffffffffffffffffffffff00000000ffffffffffffffffffffffffffffff16177fffffffffffffffffff00000000ffffffffffffffffffffffffffffffffffffff161717178355600183016101a0820151805163ffffffff1663ffffffff1682547fffffffffffffffffffffffffffffffffffffffffffffffffffffffff00000000161782556020015163ffffffff1661527391907fffffffffffffffffffffffffffffffffffffffffffffffff00000000ffffffff67ffffffff0000000083549260201b169116179055565b6101c0015180516002840180546020938401517fffffffffffffffffffffffffffffffffffffffffffffffff000000000000000090911663ffffffff909316929092179190921b67ffffffff000000001617905560200190600301916001019190614bf8565b80600302906003820403610749578360030260038104850361074957835f5260205f2091820191015b81811061530f5750614bea565b805f600392555f60018201555f600282015501615302565b615332906005614437565b505467ffffffffffffffff60ff818360081c169260481c161667ffffffffffffffff8216019067ffffffffffffffff82116107495767ffffffffffffffff91909116906004905b8267ffffffffffffffff82161061538f57505050565b60018160076153a767ffffffffffffffff9486613d3b565b50016101007fffffffffffffffffffffffffffffffffffffffffffffffffffffffffffff00ff8254161790557f74a075ee230588b5c76ea493a6d21b086384f29139b7227b9c6329e66106dc4860206040518584168152a10116615379565b6780000000000000008216615419575090565b67ffffffffffffffff677fffffffffffffff91160167ffffffffffffffff8111610749571690565b92919260608101511561548157906140dc6140c86154616140e294614553565b6140dc61547b60ff86511660ff6020880151161b83614098565b97614553565b505090505f905f90565b90918281830201928215612812578303829005036154b057505f81136140e257505f90565b5f121590506154dd577fffffffffffffffffffffffffffffffffffffffffffffffffffffffffffffffff90565b5f90565b9063ffffffff8091169116019063ffffffff82116107495756fea26469706673582212207b40e325733d0fde5c3f2b608860668f52d80f29332cdb9fe0d0f0474b62a3fd64736f6c634300081c003360c0346100c757601f611a3738819003918201601f19168301916001600160401b038311848410176100cb578084926060946040528339810103126100c757610047816100df565b906040610056602083016100df565b9101519163ffffffff831683036100c7576080525f8054610100600160a81b03191660089290921b610100600160a81b031691909117905560a05260405161194390816100f48239608051818181610165015281816102e001526105ec015260a05181818161033901526105800152f35b5f80fd5b634e487b7160e01b5f52604160045260245ffd5b51906001600160a01b03821682036100c75756fe60806040526004361015610011575f80fd5b5f3560e01c80631a48240f146106a15780631f3a0e411461066257806341c0e1b5146105a45780634c2c3b0d146105465780635c60da1b146104965780635eb512e714610455578063748328001461041257806383f94db71461028e5780638903573014610213578063901c4e4f146101da578063a41e649c14610189578063af2697451461011b5763dd009fdc146100a8575f80fd5b346101175760407ffffffffffffffffffffffffffffffffffffffffffffffffffffffffffffffffc360112610117576100df6106e9565b6024359060ff82168203610117576020916100f991610a4e565b73ffffffffffffffffffffffffffffffffffffffff60405191168152f35b5f80fd5b34610117575f7ffffffffffffffffffffffffffffffffffffffffffffffffffffffffffffffffc36011261011757602060405173ffffffffffffffffffffffffffffffffffffffff7f0000000000000000000000000000000000000000000000000000000000000000168152f35b34610117575f7ffffffffffffffffffffffffffffffffffffffffffffffffffffffffffffffffc36011261011757602073ffffffffffffffffffffffffffffffffffffffff60015416604051908152f35b34610117575f7ffffffffffffffffffffffffffffffffffffffffffffffffffffffffffffffffc3601126101175760206100f9336107fb565b34610117575f7ffffffffffffffffffffffffffffffffffffffffffffffffffffffffffffffffc36011261011757606060025473ffffffffffffffffffffffffffffffffffffffff6003541660ff6040519273ffffffffffffffffffffffffffffffffffffffff8116845260a01c1660208301526040820152f35b346101175760207ffffffffffffffffffffffffffffffffffffffffffffffffffffffffffffffffc3601126101175773ffffffffffffffffffffffffffffffffffffffff6102da6106e9565b610307827f000000000000000000000000000000000000000000000000000000000000000016331461070c565b16807fffffffffffffffffffffffff0000000000000000000000000000000000000000600154161760015563ffffffff7f00000000000000000000000000000000000000000000000000000000000000001642018042116103e5577fc94fd9ff734eca05ae1136d1e6db57d1f5f1b90ccef02700ffbda0967ac4fc2c9163ffffffff6040927fffffffffffffff00000000ffffffffffffffffffffffffffffffffffffffffff78ffffffff0000000000000000000000000000000000000000005f549260a81b16911617805f55835192835260a81c166020820152a1005b7f4e487b71000000000000000000000000000000000000000000000000000000005f52601160045260245ffd5b34610117575f7ffffffffffffffffffffffffffffffffffffffffffffffffffffffffffffffffc36011261011757602063ffffffff5f5460a81c16604051908152f35b346101175760207ffffffffffffffffffffffffffffffffffffffffffffffffffffffffffffffffc3601126101175760206100f96104916106e9565b6107fb565b34610117575f7ffffffffffffffffffffffffffffffffffffffffffffffffffffffffffffffffc360112610117575f5463ffffffff8160a81c16801515908161053b575b501561051a5750602073ffffffffffffffffffffffffffffffffffffffff6001541673ffffffffffffffffffffffffffffffffffffffff60405191168152f35b73ffffffffffffffffffffffffffffffffffffffff60209160081c166100f9565b9050421015826104da565b34610117575f7ffffffffffffffffffffffffffffffffffffffffffffffffffffffffffffffffc36011261011757602060405163ffffffff7f0000000000000000000000000000000000000000000000000000000000000000168152f35b34610117575f7ffffffffffffffffffffffffffffffffffffffffffffffffffffffffffffffffc3601126101175761061373ffffffffffffffffffffffffffffffffffffffff7f000000000000000000000000000000000000000000000000000000000000000016331461070c565b60017fffffffffffffffffffffffffffffffffffffffffffffffffffffffffffffff005f5416175f557f0f8eeedbc400fd6686703559f58d1e6143fdaed533f19a86c93d67a2fe4fb3315f80a1005b34610117575f7ffffffffffffffffffffffffffffffffffffffffffffffffffffffffffffffffc36011261011757602060ff5f54166040519015158152f35b346101175760207ffffffffffffffffffffffffffffffffffffffffffffffffffffffffffffffffc3601126101175760043560ff81168103610117576100f960209133610a4e565b6004359073ffffffffffffffffffffffffffffffffffffffff8216820361011757565b1561071357565b60646040517f08c379a000000000000000000000000000000000000000000000000000000000815260206004820152600c60248201527f6e6f7420757067726164657200000000000000000000000000000000000000006044820152fd5b6060810190811067ffffffffffffffff82111761078d57604052565b7f4e487b71000000000000000000000000000000000000000000000000000000005f52604160045260245ffd5b90601f7fffffffffffffffffffffffffffffffffffffffffffffffffffffffffffffffe0910116810190811067ffffffffffffffff82111761078d57604052565b5f5463ffffffff8160a81c168015159081610a43575b506109b5575b5061091573ffffffffffffffffffffffffffffffffffffffff5f5460081c166108ac60405161084581610771565b82604073ffffffffffffffffffffffffffffffffffffffff8716928381525f6020820152015273ffffffffffffffffffffffffffffffffffffffff167fffffffffffffffffffffffff00000000000000000000000000000000000000006002541617600255565b7fffffffffffffffffffffff00ffffffffffffffffffffffffffffffffffffffff6002541660025573ffffffffffffffffffffffffffffffffffffffff167fffffffffffffffffffffffff00000000000000000000000000000000000000006003541617600355565b6040517fffffffffffffffffffffffffffffffffffffffff000000000000000000000000602082019260601b1682525f6034820152601581526109596035826107ba565b519020604051610c8280820182811067ffffffffffffffff82111761078d578291610c8c833903905ff580156109aa5773ffffffffffffffffffffffffffffffffffffffff16905f6002555f600355565b6040513d5f823e3d90fd5b60207faf6aef99514fcb0d4860afcc8614993bb01ffaa339df4c917c46856940131b56917fffffffffffffff000000000000000000000000000000000000000000000000ff74ffffffffffffffffffffffffffffffffffffffff0060015460081b16911617805f5573ffffffffffffffffffffffffffffffffffffffff6040519160081c168152a15f610817565b90504210155f610811565b905f5463ffffffff8160a81c168015159081610c80575b50610bf2575b50610b8973ffffffffffffffffffffffffffffffffffffffff5f5460081c16610b03604051610a9981610771565b82604073ffffffffffffffffffffffffffffffffffffffff88169283815260ff88166020820152015273ffffffffffffffffffffffffffffffffffffffff167fffffffffffffffffffffffff00000000000000000000000000000000000000006002541617600255565b6002547fffffffffffffffffffffff00ffffffffffffffffffffffffffffffffffffffff74ff00000000000000000000000000000000000000008560a01b1691161760025573ffffffffffffffffffffffffffffffffffffffff167fffffffffffffffffffffffff00000000000000000000000000000000000000006003541617600355565b7fff00000000000000000000000000000000000000000000000000000000000000604051917fffffffffffffffffffffffffffffffffffffffff000000000000000000000000602084019460601b16845260f81b166034820152601581526109596035826107ba565b60207faf6aef99514fcb0d4860afcc8614993bb01ffaa339df4c917c46856940131b56917fffffffffffffff000000000000000000000000000000000000000000000000ff74ffffffffffffffffffffffffffffffffffffffff0060015460081b16911617805f5573ffffffffffffffffffffffffffffffffffffffff6040519160081c168152a15f610a6b565b90504210155f610a6556fe60c0806040523461015f5760015f5533608052630890357360e41b8152606081600481335afa90811561017e575f915f915f916100d1575b600180546001600160a01b03199081166001600160a01b0380861691821790935560a08690526002805490921692871692831790915560405160ff861681525f516020610c425f395f51905f5292602092915f516020610c625f395f51905f52908490a2604051908152a1604051610aa4908161019e8239608051818181610424015281816107140152610991015260a051816103140152f35b9250505060603d606011610177575b601f8101601f191682016001600160401b038111838210176101635760609183916040528101031261015f5761011581610189565b90602081015160ff8116810361015f575f516020610c425f395f51905f52925f516020610c625f395f51905f5260206101516040829601610189565b929392939550505091610037565b5f80fd5b634e487b7160e01b5f52604160045260245ffd5b503d6100e0565b6040513d5f823e3d90fd5b51906001600160a01b038216820361015f5756fe6080604052600436101561001d575b366109165761001b6108d0565b005b5f3560e01c80630900f010146100ac5780631f3a0e41146100a75780632e1a7d4d146100a257806341c0e1b51461009d5780634e70b1dc146100985780635c60da1b146100935780638da5cb5b1461008e578063c45a0155146100895763f3fef3a30361000e57610448565b6103da565b610389565b610338565b6102dd565b610229565b610186565b610143565b6100d3565b73ffffffffffffffffffffffffffffffffffffffff8116036100cf57565b5f80fd5b346100cf5760207ffffffffffffffffffffffffffffffffffffffffffffffffffffffffffffffffc3601126100cf5761001b600435610111816100b1565b61013473ffffffffffffffffffffffffffffffffffffffff600254163314610575565b6106d0565b5f9103126100cf57565b346100cf575f7ffffffffffffffffffffffffffffffffffffffffffffffffffffffffffffffffc3601126100cf57602060ff60025460a01c166040519015158152f35b346100cf5760207ffffffffffffffffffffffffffffffffffffffffffffffffffffffffffffffffc3601126100cf5760025473ffffffffffffffffffffffffffffffffffffffff165f8080806004356101e0338714610575565b85828215610220575bf11561021b577f7fcf532c15f0a6db0bd6d0e038bea71d30d808c7d98cb3bf7268a95bf5081b6560206040515f8152a2005b610660565b506108fc6101e9565b346100cf575f7ffffffffffffffffffffffffffffffffffffffffffffffffffffffffffffffffc3601126100cf57740100000000000000000000000000000000000000007fffffffffffffffffffffff00ffffffffffffffffffffffffffffffffffffffff6002546102b273ffffffffffffffffffffffffffffffffffffffff82163314610575565b7f0f8eeedbc400fd6686703559f58d1e6143fdaed533f19a86c93d67a2fe4fb3315f80a11617600255005b346100cf575f7ffffffffffffffffffffffffffffffffffffffffffffffffffffffffffffffffc3601126100cf57602060405160ff7f0000000000000000000000000000000000000000000000000000000000000000168152f35b346100cf575f7ffffffffffffffffffffffffffffffffffffffffffffffffffffffffffffffffc3601126100cf57602073ffffffffffffffffffffffffffffffffffffffff60015416604051908152f35b346100cf575f7ffffffffffffffffffffffffffffffffffffffffffffffffffffffffffffffffc3601126100cf57602073ffffffffffffffffffffffffffffffffffffffff60025416604051908152f35b346100cf575f7ffffffffffffffffffffffffffffffffffffffffffffffffffffffffffffffffc3601126100cf57602060405173ffffffffffffffffffffffffffffffffffffffff7f0000000000000000000000000000000000000000000000000000000000000000168152f35b346100cf5760407ffffffffffffffffffffffffffffffffffffffffffffffffffffffffffffffffc3601126100cf57600435610483816100b1565b60025473ffffffffffffffffffffffffffffffffffffffff166024356104aa338314610575565b60025f541461054d57604460209260025f555f73ffffffffffffffffffffffffffffffffffffffff60405196879586947fa9059cbb00000000000000000000000000000000000000000000000000000000865260048601526024850152165af1801561021b5761051e575b61001b60015f55565b61053f9060203d602011610546575b61053781836105da565b8101906108fe565b505f610515565b503d61052d565b7f3ee5aeb5000000000000000000000000000000000000000000000000000000005f5260045ffd5b1561057c57565b60646040517f08c379a000000000000000000000000000000000000000000000000000000000815260206004820152600960248201527f6e6f74206f776e657200000000000000000000000000000000000000000000006044820152fd5b90601f7fffffffffffffffffffffffffffffffffffffffffffffffffffffffffffffffe0910116810190811067ffffffffffffffff82111761061b57604052565b7f4e487b71000000000000000000000000000000000000000000000000000000005f52604160045260245ffd5b908160209103126100cf575161065d816100b1565b90565b6040513d5f823e3d90fd5b1561067257565b60646040517f08c379a000000000000000000000000000000000000000000000000000000000815260206004820152600260248201527f55560000000000000000000000000000000000000000000000000000000000006044820152fd5b604051907f5c60da1b00000000000000000000000000000000000000000000000000000000825260208260048173ffffffffffffffffffffffffffffffffffffffff7f0000000000000000000000000000000000000000000000000000000000000000165afa91821561021b575f9261089f575b5061076973ffffffffffffffffffffffffffffffffffffffff8083169316831461066b565b60015473ffffffffffffffffffffffffffffffffffffffff1691821461089b576107ce8173ffffffffffffffffffffffffffffffffffffffff167fffffffffffffffffffffffff00000000000000000000000000000000000000006001541617600155565b303b156100cf576040517f58b72a0900000000000000000000000000000000000000000000000000000000815273ffffffffffffffffffffffffffffffffffffffff9290921660048301525f8260248183305af190811561021b577faf6aef99514fcb0d4860afcc8614993bb01ffaa339df4c917c46856940131b569261087c92610881575b5060405173ffffffffffffffffffffffffffffffffffffffff90911681529081906020820190565b0390a1565b8061088f5f610895936105da565b80610139565b5f610854565b5050565b6108c291925060203d6020116108c9575b6108ba81836105da565b810190610648565b905f610744565b503d6108b0565b6040513481527fe1fffcc4923d04b559f4d29a8bfc6cda04eb5b0d3c460751c2402c5c5cc9109c60203392a2565b908160209103126100cf575180151581036100cf5790565b60025460a01c60ff16158061094d575b61092f906109ec565b60015473ffffffffffffffffffffffffffffffffffffffff16610a51565b506040517f1f3a0e4100000000000000000000000000000000000000000000000000000000815260208160048173ffffffffffffffffffffffffffffffffffffffff7f0000000000000000000000000000000000000000000000000000000000000000165afa801561021b5761092f915f916109cd575b50159050610926565b6109e6915060203d6020116105465761053781836105da565b5f6109c4565b156109f357565b60646040517f08c379a000000000000000000000000000000000000000000000000000000000815260206004820152600160248201527f4b000000000000000000000000000000000000000000000000000000000000006044820152fd5b5f8091368280378136915af43d5f803e15610a6a573d5ff35b3d5ffdfea264697066735822122084c554a78923c44fa18215c219546759632632623e4cb58f0be5cec323bd5e6064736f6c634300081c0033af6aef99514fcb0d4860afcc8614993bb01ffaa339df4c917c46856940131b56416468bb91b91b2da4acfc37ed49064c0d99cb1d3ea6691055ce17e79137b8d4a2646970667358221220368ea29c6c8fbe00c36a4d3df9626be94a1c2ddab08142872e432bb33b3c055064736f6c634300081c003360806040523461032f57610e958038038061001981610333565b92833981019060608183031261032f5780516001600160401b03811161032f5782610045918301610358565b60208201519092906001600160401b03811161032f57604091610069918401610358565b91015160ff811680910361032f5782516001600160401b038111610243575f54600181811c91168015610325575b602082101461022557601f81116102c3575b506020601f821160011461026257819293945f92610257575b50508160011b915f199060031b1c1916175f555b81516001600160401b03811161024357600154600181811c91168015610239575b602082101461022557601f81116101c2575b50602092601f821160011461016157928192935f92610156575b50508160011b915f199060031b1c1916176001555b60ff1960025416176002555f600355604051610aeb90816103aa8239f35b015190505f80610123565b601f1982169360015f52805f20915f5b8681106101aa5750836001959610610192575b505050811b01600155610138565b01515f1960f88460031b161c191690555f8080610184565b91926020600181928685015181550194019201610171565b60015f527fb10e2d527612073b26eecdfd717e6a320cf44b4afac2b0732d9fcbe2b7fa0cf6601f830160051c8101916020841061021b575b601f0160051c01905b8181106102105750610109565b5f8155600101610203565b90915081906101fa565b634e487b7160e01b5f52602260045260245ffd5b90607f16906100f7565b634e487b7160e01b5f52604160045260245ffd5b015190505f806100c2565b601f198216905f8052805f20915f5b8181106102ab57509583600195969710610293575b505050811b015f556100d6565b01515f1960f88460031b161c191690555f8080610286565b9192602060018192868b015181550194019201610271565b5f80527f290decd9548b62a8d60345a988386fc84ba6bc95484008f6362f93160ef3e563601f830160051c8101916020841061031b575b601f0160051c01905b81811061031057506100a9565b5f8155600101610303565b90915081906102fa565b90607f1690610097565b5f80fd5b6040519190601f01601f191682016001600160401b0381118382101761024357604052565b81601f8201121561032f578051906001600160401b03821161024357610387601f8301601f1916602001610333565b928284526020838301011161032f57815f9260208093018386015e830101529056fe60806040526004361015610011575f80fd5b5f3560e01c806306fdde03146107ae578063095ea7b31461070b57806318160ddd146106d057806323b872dd1461052f578063313ce567146104f157806340c10f191461045857806342966c68146103ca57806370a082311461036757806395d89b4114610172578063a9059cbb146101225763dd62ed3e14610092575f80fd5b3461011e5760407ffffffffffffffffffffffffffffffffffffffffffffffffffffffffffffffffc36011261011e576100c9610929565b73ffffffffffffffffffffffffffffffffffffffff6100e661094c565b91165f52600560205273ffffffffffffffffffffffffffffffffffffffff60405f2091165f52602052602060405f2054604051908152f35b5f80fd5b3461011e5760407ffffffffffffffffffffffffffffffffffffffffffffffffffffffffffffffffc36011261011e57602061016861015e610929565b60243590336109b6565b6040519015158152f35b3461011e575f7ffffffffffffffffffffffffffffffffffffffffffffffffffffffffffffffffc36011261011e576040515f600154908160011c6001831692831561035d575b6020821084146103305781855284939081156102d05750600114610256575b5003601f017fffffffffffffffffffffffffffffffffffffffffffffffffffffffffffffffe01681019067ffffffffffffffff821181831017610229576040829052819061022590826108e1565b0390f35b7f4e487b71000000000000000000000000000000000000000000000000000000005f52604160045260245ffd5b60015f90815291507fb10e2d527612073b26eecdfd717e6a320cf44b4afac2b0732d9fcbe2b7fa0cf65b8183106102b457505081016020017fffffffffffffffffffffffffffffffffffffffffffffffffffffffffffffffe06101d7565b6020919350806001915483858801015201910190918392610280565b7fffffffffffffffffffffffffffffffffffffffffffffffffffffffffffffff001660208581019190915291151560051b840190910191507fffffffffffffffffffffffffffffffffffffffffffffffffffffffffffffffe090506101d7565b7f4e487b71000000000000000000000000000000000000000000000000000000005f52602260045260245ffd5b90607f16906101b8565b3461011e5760207ffffffffffffffffffffffffffffffffffffffffffffffffffffffffffffffffc36011261011e5773ffffffffffffffffffffffffffffffffffffffff6103b3610929565b165f526004602052602060405f2054604051908152f35b3461011e5760207ffffffffffffffffffffffffffffffffffffffffffffffffffffffffffffffffc36011261011e57600435335f5260046020528060405f20541061011e57335f52600460205260405f2061042682825461096f565b905560405190815230907fddf252ad1be2c89b69c2b068fc378daa952ba7f163c4a11628f55a4df523b3ef60203392a3005b3461011e5760407ffffffffffffffffffffffffffffffffffffffffffffffffffffffffffffffffc36011261011e5761048f610929565b73ffffffffffffffffffffffffffffffffffffffff602435911690815f52600460205260405f206104c18282546109a9565b90556040519081527fddf252ad1be2c89b69c2b068fc378daa952ba7f163c4a11628f55a4df523b3ef60203092a3005b3461011e575f7ffffffffffffffffffffffffffffffffffffffffffffffffffffffffffffffffc36011261011e57602060ff60025416604051908152f35b3461011e5760607ffffffffffffffffffffffffffffffffffffffffffffffffffffffffffffffffc36011261011e57610566610929565b61056e61094c565b6044359073ffffffffffffffffffffffffffffffffffffffff831680330361059e575b60206101688484876109b6565b9190825f52600560205260405f2073ffffffffffffffffffffffffffffffffffffffff33165f5260205260405f205482116106725760209383610168945f526005865260405f2073ffffffffffffffffffffffffffffffffffffffff33165f5286527fffffffffffffffffffffffffffffffffffffffffffffffffffffffffffffffff60405f205403610636575b5093509091610591565b5f526005855260405f2073ffffffffffffffffffffffffffffffffffffffff33165f52855260405f2061066a84825461096f565b90558561062c565b60646040517f08c379a000000000000000000000000000000000000000000000000000000000815260206004820152601660248201527f496e73756666696369656e7420616c6c6f77616e6365000000000000000000006044820152fd5b3461011e575f7ffffffffffffffffffffffffffffffffffffffffffffffffffffffffffffffffc36011261011e576020600354604051908152f35b3461011e5760407ffffffffffffffffffffffffffffffffffffffffffffffffffffffffffffffffc36011261011e57610742610929565b73ffffffffffffffffffffffffffffffffffffffff60243591335f52600560205260405f208282165f526020528260405f205560405192835216907f8c5be1e5ebec7d5bd14f71427d1e84f3dd0314c0f7b2291e5b200ac8c7c3b92560203392a3602060405160018152f35b3461011e575f7ffffffffffffffffffffffffffffffffffffffffffffffffffffffffffffffffc36011261011e576040515f5f54908160011c600183169283156108d7575b6020821084146103305781855284939081156102d0575060011461085f575003601f017fffffffffffffffffffffffffffffffffffffffffffffffffffffffffffffffe01681019067ffffffffffffffff821181831017610229576040829052819061022590826108e1565b5f80805291507f290decd9548b62a8d60345a988386fc84ba6bc95484008f6362f93160ef3e5635b8183106108bb57505081016020017fffffffffffffffffffffffffffffffffffffffffffffffffffffffffffffffe06101d7565b6020919350806001915483858801015201910190918392610887565b90607f16906107f3565b7fffffffffffffffffffffffffffffffffffffffffffffffffffffffffffffffe0601f602060409481855280519182918282880152018686015e5f8582860101520116010190565b6004359073ffffffffffffffffffffffffffffffffffffffff8216820361011e57565b6024359073ffffffffffffffffffffffffffffffffffffffff8216820361011e57565b9190820391821161097c57565b7f4e487b71000000000000000000000000000000000000000000000000000000005f52601160045260245ffd5b9190820180921161097c57565b73ffffffffffffffffffffffffffffffffffffffff1690815f5260046020528260405f205410610a5757602073ffffffffffffffffffffffffffffffffffffffff7fddf252ad1be2c89b69c2b068fc378daa952ba7f163c4a11628f55a4df523b3ef92845f526004835260405f20610a2f87825461096f565b90551693845f526004825260405f20610a498282546109a9565b9055604051908152a3600190565b60646040517f08c379a000000000000000000000000000000000000000000000000000000000815260206004820152601460248201527f496e73756666696369656e742062616c616e63650000000000000000000000006044820152fdfea264697066735822122011ae5b6f32304d89084c4387145452b20b6b670016ed765ff943a1882840b0ea64736f6c634300081c0033610120604052346103cd576040516117d13881900390601f8201601f19168301906001600160401b038211848310176103b95782916040528339810190610260818303126103cd57604051916101608301906001600160401b038211848310176103b95761032d936102c792604052610077846103d1565b815280610086602086016103d1565b946020820195865261009a604082016103e2565b956040830196875260ff6100b0606084016103e2565b60608501908152816100da6100c889608088016103f0565b9860808801998a5261012087016103f0565b9960a087019a8b5263ffffffff6100f46101c08801610469565b9560c089019687526101096101e08901610469565b60e08a0152816101466102406101226102008c01610469565b9a6101008d019b8c5261012061013b6102208301610469565b9d019c8d5201610469565b9a61014081019b8c525116608052511660a052511660c052511660e052845160ff815116905f549161ff00602083015160081b169062ff0000604084015160101b169164ff00000000608063ff000000606087015160181b1695015160201b169464ff00000000199263ff000000199162ffffff1916171617161717175f55865160ff815116906001549161ff00602083015160081b169062ff0000604084015160101b169164ff00000000608063ff000000606087015160181b1695015160201b169464ff00000000199263ff000000199162ffffff19161716171617171760015560018060a01b039051166101005260018060a01b0390511660018060a01b0319600654161760065560018060a01b0390511660018060a01b0319600754161760075560018060a01b0390511660018060a01b031960085416176008555160a09060ff60806040519282815116845282602082015116602085015282604082015116604085015282606082015116606085015201511660808201522090565b7f6b70211f17be77ef10da93671831209be5e36d99f83d0af732a06620014dbd3c5f80a25160a09060ff60806040519282815116845282602082015116602085015282604082015116604085015282606082015116606085015201511660808201522090565b604051907fc2c2b17cbe5e4e289c8ffa4a475958e90abf0424b118e08c384fc284625338af5f80a2611353908161047e823960805181818161022201526106c8015260a0518181816103630152610bbc015260c05181610cf4015260e051816104110152610100518181816101c40152818161056c01528181610819015281816109d30152610dd20152f35b634e487b7160e01b5f52604160045260245ffd5b5f80fd5b519063ffffffff821682036103cd57565b519060ff821682036103cd57565b91908260a09103126103cd5760405160a081016001600160401b038111828210176103b9576040526080610464818395610429816103e2565b8552610437602082016103e2565b6020860152610448604082016103e2565b6040860152610459606082016103e2565b6060860152016103e2565b910152565b51906001600160a01b03821682036103cd5756fe60806040526004361015610011575f80fd5b5f3560e01c8063015de2d714610d695780631db89da114610d1857806344a505db14610cbd578063478c3b1a1461098d57806357d1c53d146108d15780635800bc7b14610747578063591cef8f146105235780636f7a2458146104e2578063860aefcf146104a95780639af1d35a14610435578063ab1a57a8146103da578063be98952314610387578063c0021df114610329578063d0c683b1146102e8578063ea43b36b14610297578063ebd3cdcd14610246578063f1d08853146101e8578063f851a4401461017a5763f9828cff146100ea575f80fd5b34610176575f7ffffffffffffffffffffffffffffffffffffffffffffffffffffffffffffffffc3601126101765761012061104d565b5061017261012c611073565b60405191829182919091608060ff8160a0840195828151168552826020820151166020860152826040820151166040860152826060820151166060860152015116910152565b0390f35b5f80fd5b34610176575f7ffffffffffffffffffffffffffffffffffffffffffffffffffffffffffffffffc36011261017657602060405173ffffffffffffffffffffffffffffffffffffffff7f0000000000000000000000000000000000000000000000000000000000000000168152f35b34610176575f7ffffffffffffffffffffffffffffffffffffffffffffffffffffffffffffffffc36011261017657602060405163ffffffff7f0000000000000000000000000000000000000000000000000000000000000000168152f35b34610176575f7ffffffffffffffffffffffffffffffffffffffffffffffffffffffffffffffffc36011261017657602073ffffffffffffffffffffffffffffffffffffffff60065416604051908152f35b34610176575f7ffffffffffffffffffffffffffffffffffffffffffffffffffffffffffffffffc36011261017657602073ffffffffffffffffffffffffffffffffffffffff60085416604051908152f35b34610176575f7ffffffffffffffffffffffffffffffffffffffffffffffffffffffffffffffffc36011261017657602063ffffffff60035416604051908152f35b34610176575f7ffffffffffffffffffffffffffffffffffffffffffffffffffffffffffffffffc36011261017657602060405163ffffffff7f0000000000000000000000000000000000000000000000000000000000000000168152f35b34610176575f7ffffffffffffffffffffffffffffffffffffffffffffffffffffffffffffffffc36011261017657602073ffffffffffffffffffffffffffffffffffffffff600554821c16604051908152f35b34610176575f7ffffffffffffffffffffffffffffffffffffffffffffffffffffffffffffffffc36011261017657602060405160ff7f0000000000000000000000000000000000000000000000000000000000000000168152f35b34610176575f7ffffffffffffffffffffffffffffffffffffffffffffffffffffffffffffffffc3601126101765761046b61104d565b5063ffffffff60035416801515908161049e575b50156104925761017261012c60026110b2565b61017261012c5f6110b2565b90504210158161047f565b34610176575f7ffffffffffffffffffffffffffffffffffffffffffffffffffffffffffffffffc3601126101765761017261012c6110f0565b34610176575f7ffffffffffffffffffffffffffffffffffffffffffffffffffffffffffffffffc36011261017657602063ffffffff60055416604051908152f35b346101765760a07ffffffffffffffffffffffffffffffffffffffffffffffffffffffffffffffffc3601126101765761059373ffffffffffffffffffffffffffffffffffffffff7f0000000000000000000000000000000000000000000000000000000000000000163314610e45565b61059b611134565b60ff6105a5610eaa565b167fffffffffffffffffffffffffffffffffffffffffffffffffffffffffffffff0060045416176004556105d7610eba565b7fffffffffffffffffffffffffffffffffffffffffffffffffffffffffffff00ff61ff006004549260081b16911617600455610611610eca565b7fffffffffffffffffffffffffffffffffffffffffffffffffffffffffff00ffff62ff00006004549260101b1691161760045561064c610eda565b7fffffffffffffffffffffffffffffffffffffffffffffffffffffffff00ffffff63ff0000006004549260181b16911617600455610688610eea565b7fffffffffffffffffffffffffffffffffffffffffffffffffffffff00ffffffff64ff000000006004549260201b1691161760045563ffffffff6106ee817f00000000000000000000000000000000000000000000000000000000000000001642610f5f565b16807fffffffffffffffffffffffffffffffffffffffffffffffffffffffff000000006005541617600555610721610f99565b7f633123e8c6bc7eb742d7524d9584642f04bbc47f7e900c57909de46fbc2b34965f80a3005b346101765760607ffffffffffffffffffffffffffffffffffffffffffffffffffffffffffffffffc3601126101765760043573ffffffffffffffffffffffffffffffffffffffff81168091036101765760243573ffffffffffffffffffffffffffffffffffffffff8116809103610176576044359173ffffffffffffffffffffffffffffffffffffffff8316809303610176577f1c1888bc2a777024b83fef376b76c9c982b323e20b57ca979701003aa9fc8da89260609261084073ffffffffffffffffffffffffffffffffffffffff7f0000000000000000000000000000000000000000000000000000000000000000163314610e45565b827fffffffffffffffffffffffff00000000000000000000000000000000000000006006541617600655807fffffffffffffffffffffffff00000000000000000000000000000000000000006007541617600755817fffffffffffffffffffffffff0000000000000000000000000000000000000000600854161760085560405192835260208301526040820152a1005b34610176575f7ffffffffffffffffffffffffffffffffffffffffffffffffffffffffffffffffc3601126101765761090761104d565b50610172610913611000565b60ff6004548181168352818160081c166020840152818160101c166040840152818160181c16606084015260201c16608082015260405191829182919091608060ff8160a0840195828151168552826020820151166020860152826040820151166040860152826060820151166060860152015116910152565b346101765760a07ffffffffffffffffffffffffffffffffffffffffffffffffffffffffffffffffc3601126101765773ffffffffffffffffffffffffffffffffffffffff7f00000000000000000000000000000000000000000000000000000000000000001633148015610c99575b15610c3b57610a09611134565b610a8f610a146110f0565b610a4360ff610a21610eaa565b1660ff610a2c610eba565b161b60ff83511660ff6020850151161b1015610efa565b610a7560ff610a50610eca565b1660ff610a5b610eda565b161b60ff60408401511660ff6060850151161b1015610efa565b60ff806080610a82610eea565b9301511691161115610efa565b60ff610a99610eaa565b167fffffffffffffffffffffffffffffffffffffffffffffffffffffffffffffff006002541617600255610acb610eba565b7fffffffffffffffffffffffffffffffffffffffffffffffffffffffffffff00ff61ff006002549260081b16911617600255610b05610eca565b7fffffffffffffffffffffffffffffffffffffffffffffffffffffffffff00ffff62ff00006002549260101b16911617600255610b40610eda565b7fffffffffffffffffffffffffffffffffffffffffffffffffffffffff00ffffff63ff0000006002549260181b16911617600255610b7c610eea565b7fffffffffffffffffffffffffffffffffffffffffffffffffffffff00ffffffff64ff000000006002549260201b1691161760025563ffffffff610be2817f00000000000000000000000000000000000000000000000000000000000000001642610f5f565b16807fffffffffffffffffffffffffffffffffffffffffffffffffffffffff000000006003541617600355610c15610f99565b7f1b9ba1eeed6885eb6b63df058a321a2e4299a0b65a613a47927282306f7995105f80a3005b60646040517f08c379a000000000000000000000000000000000000000000000000000000000815260206004820152601560248201527f6e6f742061646d696e206f722061646a757374657200000000000000000000006044820152fd5b5073ffffffffffffffffffffffffffffffffffffffff60055460201c1633146109fc565b34610176575f7ffffffffffffffffffffffffffffffffffffffffffffffffffffffffffffffffc36011261017657602060405160ff7f0000000000000000000000000000000000000000000000000000000000000000168152f35b34610176575f7ffffffffffffffffffffffffffffffffffffffffffffffffffffffffffffffffc36011261017657602073ffffffffffffffffffffffffffffffffffffffff60075416604051908152f35b346101765760207ffffffffffffffffffffffffffffffffffffffffffffffffffffffffffffffffc3601126101765760043573ffffffffffffffffffffffffffffffffffffffff8116810361017657610df973ffffffffffffffffffffffffffffffffffffffff7f0000000000000000000000000000000000000000000000000000000000000000163314610e45565b7fffffffffffffffff0000000000000000000000000000000000000000ffffffff77ffffffffffffffffffffffffffffffffffffffff000000006005549260201b169116176005555f80f35b15610e4c57565b60646040517f08c379a000000000000000000000000000000000000000000000000000000000815260206004820152600960248201527f6e6f742061646d696e00000000000000000000000000000000000000000000006044820152fd5b60043560ff811681036101765790565b60243560ff811681036101765790565b60443560ff811681036101765790565b60643560ff811681036101765790565b60843560ff811681036101765790565b15610f0157565b60646040517f08c379a000000000000000000000000000000000000000000000000000000000815260206004820152600260248201527f464c0000000000000000000000000000000000000000000000000000000000006044820152fd5b91908201809211610f6c57565b7f4e487b71000000000000000000000000000000000000000000000000000000005f52601160045260245ffd5b60405160043560ff811680910361017657815260243560ff811680910361017657602082015260443560ff811680910361017657604082015260643560ff81168091036101765760608201526084359060ff82168092036101765760a09160808201522090565b6040519060a0820182811067ffffffffffffffff82111761102057604052565b7f4e487b71000000000000000000000000000000000000000000000000000000005f52604160045260245ffd5b611055611000565b905f82525f60208301525f60408301525f60608301525f6080830152565b61107b611000565b9060ff6002548181168452818160081c166020850152818160101c166040850152818160181c16606085015260201c166080830152565b9060ff6110bd611000565b92548181168452818160081c166020850152818160101c166040850152818160181c16606085015260201c166080830152565b6110f861104d565b5063ffffffff600554168015159081611129575b501561111f5761111c60046110b2565b90565b61111c60016110b2565b90504210155f61110c565b63ffffffff600554168015159081611312575b50611293575b63ffffffff600354168015159081611288575b5061116757565b6080611171611073565b60ff815116602082019060ff8251161b6001549160ff83169160ff8460081c1693604086019360ff85511695606088019660ff8851161b9160ff808560101c169460181c169481831b1061127d575b505081831b10611272575b505083515f805492519351945196909501517fffffffffffffffffffffffffffffffffffffffffffffffffffffff000000000090921660ff919091161760089290921b61ff00169190911760109290921b62ff0000169190911760189390931b63ff000000169290921760209290921b64ff0000000016919091179055600380547fffffffffffffffffffffffffffffffffffffffffffffffffffffffff00000000169055565b835283525f806111cb565b885284525f806111c0565b90504210155f611160565b600454600180547fffffffffffffffffffffffffffffffffffffffffffffffffffffff00000000001660ff83161761ff0083161762ff000083161763ff00000083161764ff00000000909216919091179055600580547fffffffffffffffffffffffffffffffffffffffffffffffffffffffff0000000016905561114d565b90504210155f61114756fea2646970667358221220c71c26602f7733c89bd56e737639cd2664c820985f35e5e196d94896c044fc2c64736f6c634300081c0033a2646970667358221220ee15eb3068ee605b7f38f0e59c8aae076b814b70f7263828ba20d2b76b2c0cf664736f6c634300081c0033","linkReferences":{}},"methodIdentifiers":{"COIN()":"a54a72b7","USD()":"1bf6c21b","factory()":"c45a0155","fee()":"ddca3f43","init()":"e1c7392a","init(address,address)":"f09a4016","initDebugFees()":"c4b5da74","initNoFees()":"41cca3b5","inverted()":"67e368fc","oneSqrtX96()":"8f7d7c50","pool()":"16f0115b","price()":"a035b1fe","stake(uint256,int24)":"e3baf41a","stake(uint256,int24,int24)":"53486e2f","stake(uint256,uint256,int24,int24)":"d6f13002","swap(address,address,uint256)":"df791e50","swap(address,address,uint256,uint160)":"4a09d3dd","swapTo1()":"3420899b","swapToPrice(uint160)":"c578d91d","token0()":"0dfe1681","token1()":"d21220a7"},"id":81}